:020000040800F2
:100000007007002035020008512D0008532D00080C
:10001000552D0008572D0008592D0008000000003C
:100020000000000000000000000000005B2D000840
:100030005D2D0008000000005F2D0008612D000804
:100040004F0200084F0200084F0200084F0200084C
:100050004F0200084F0200084F0200084F0200083C
:100060004F0200084F0200084F0200084F0200082C
:100070004F0200084F0200084F0200084F0200081C
:100080004F0200084F0200084F0200084F0200080C
:100090004F0200084F0200084F0200084F020008FC
:1000A0004F0200084F0200084F0200084F020008EC
:1000B0004F0200084F0200084F0200084F020008DC
:1000C0004F0200084F0200084F0200084F020008CC
:1000D0004F020008632D00084F0200084F0200087D
:1000E0004F0200084F0200084F0200084F020008AC
:1000F0004F0200084F0200084F0200084F0200089C
:100100004F020008892D00084F0200084F02000826
:100110004F0200084F0200084F0200084F0200087B
:100120004F0200084F0200084F0200084F0200086B
:100130004F0200084F0200084F0200084F0200085B
:100140004F0200084F0200084F0200084F0200084B
:100150004F0200084F0200084F0200084F0200083B
:100160004F0200084F0200084F0200084F0200082B
:100170004F0200084F0200084F0200084F0200081B
:100180004F02000800F002F800F044F80AA090E8DE
:10019000000C82448344AAF10107DA4501D100F042
:1001A00039F8AFF2090EBAE80F0013F0010F18BFCB
:1001B000FB1A43F001031847784A0000984A0000F0
:1001C000103A24BF78C878C1FAD8520724BF30C883
:1001D00030C144BF04680C60704700000023002455
:1001E00000250026103A28BF78C1FBD8520728BF47
:1001F00030C148BF0B607047642904F0CB8363298A
:1002000004F0A084002070471FB504F009FD1FBD55
:1002100010B510BD04F0D0FC1146FFF7F5FF02F059
:100220003FFD04F0EEFC03B4FFF7F2FF03BC04F063
:1002300030FB00000948804709480047FEE7FEE719
:10024000FEE7FEE7FEE7FEE7FEE7FEE7FEE7FEE786
:1002500004480549054A064B70470000750200082E
:100260008501000870010020700700207003002045
:1002700070030020474810B5016841F0010101609A
:10028000444A0021083211600268434B1A40026060
:10029000031D424A1A60026822F4802202603D482F
:1002A0000C30016000F03BF83D494FF00060086001
:1002B00010BD70B5374D083528683A4B3A4910F0F3
:1002C0000C0004D0394E042803D0082803D00B605A
:1002D0001BE00E6019E02F4A121D1068C0F3805415
:1002E000106800F03F0014B1B6FBF0F001E0B3FB82
:1002F000F0F013681268C3F388135843C2F3014245
:10030000521C5200B0FBF2F008602868264AC0F385
:100310000310121D105C0A68C2400A6070BD1D4ABD
:100320000020116841F4803111604FF4A06311681E
:1003300000F1010011F4003F01D19842F7D110689B
:10034000800326D51348083001680160016841F434
:1003500000410160016841F4A0510160031F14498C
:100360001960116841F08071116011688901FCD534
:10037000104A40F203711160016821F0030101602D
:10038000016841F0020101600168C1F381010229A5
:10039000FAD1704700380240FFFFF6FE103000240B
:1003A00008ED00E00024F4000000002040787D010A
:1003B000193C4005003C0240274908432749086092
:1003C000704770B50F23C278017801254FF0E02601
:1003D000E2B1224A126802F4E062C2F5E062C2F3BE
:1003E0000722C2F10404D3404278A24084781C4022
:1003F0001B4B14432201CA54007800F01F018D40AA
:10040000400906EB8000C0F8005170BD01F01F00EC
:100410008540480906EB8000C0F8805170BD114A44
:10042000114001430D48001F016070470B4A121D27
:100430000029116801D0014300E081431160704739
:100440004FF0E0210428086903D020F0040008617F
:10045000704740F00400FAE70000FA050CED00E0F8
:1004600000E400E080FFFF1F704910B5884206D10C
:100470000121084600F0DFFB002101204FE06C491C
:10048000884206D10121022000F0D5FB0021022084
:1004900045E06849884206D10121042000F0CBFBE9
:1004A000002104203BE06449884206D10121082054
:1004B00000F0C1FB0021082031E06049884206D1EC
:1004C0000121102000F0B7FB0021102027E05C493B
:1004D000884206D10121202000F0ADFB0021202020
:1004E0001DE05849884206D10121402000F0A3FBBD
:1004F0000021402013E05449884206D10121802088
:1005000000F099FB0021802009E0504988420AD17F
:1005100084150121204600F08EFB00212046BDE815
:10052000104000F088BB10BDF0B5002201264FF04E
:10053000030C0C6806FA02F31C409C422DD105689E
:1005400053000CFA03F4A54305600D7907689D403C
:100550003D4305600D79012D01D0022D12D1856832
:10056000A54385604C7985689C402C438460446831
:1005700006FA02F5AC43446044688D799540ADB20B
:100580002C434460C46855000CFA05F7BC43C460B2
:10059000CC799C40C3681C43C460521C102AC8D349
:1005A000F0BD4FF6FF710160002101714171817151
:1005B000C171704741F48032C261C161C261C169D9
:1005C000C06970470246002012690A4200D001202B
:1005D0007047006980B270470246002052690A42A3
:1005E00000D001207047406980B270470183704796
:1005F000418370470AB1018370474183704741616D
:10060000704742694A40426170474B07DB0E9A408F
:10061000C90810B500EB8100016A0F249C40A1437A
:100620000162016A1143016210BD00000000024036
:100630000004024000080240000C0240001002408A
:100640000014024000180240001C0240002002403A
:10065000CA4910B5884206D10121102000F013FBD1
:100660000021102028E0C649884202D101214C0413
:1006700010E0C449884202D101218C040AE0C24939
:10068000884202D10121CC0404E0C04988420AD149
:1006900001210C05204600F0ECFA2046BDE8104090
:1006A000002100F0E6BABA49884209D10121202090
:1006B00000F0E9FA00212020BDE8104000F0E3BA84
:1006C00010BD7FB50446008A0D4620F44051E888ED
:1006D00008432082A18941F20C608143A8882A89BD
:1006E00010436A890A431043A081A08A20F4407114
:1006F000A8890843A082684600F007FA9F48844210
:1007000002D0A348844201D1039800E00298A18955
:100710000904002900EBC00101EB0010296802DA8E
:100720004FEA410101E04FEA8101B0FBF1F06422A0
:10073000B0FBF2F14FEA01114FEA11136FF0180507
:100740006B4300EB8300A3891D044FF0320306D5F1
:1007500003EBC000B0FBF2F000F0070005E003EB94
:100760000010B0FBF2F000F00F00084320817FBDC5
:100770004FF41651016000218180C18001810C225B
:1007800042818181704710B5028A4C8822F47063DF
:100790000A8822438C88C9880C4322431A43028268
:1007A00010BD0021018041808180C18070470029F7
:1007B000818902D041F4005101E021F4005181818E
:1007C0007047028B02F47F420283028B0A4302834A
:1007D00070470029818902D041F4004101E0C1F352
:1007E0000E01818170470029818A02D041F40061A5
:1007F00001E021F4006181827047C1F3080181802A
:1008000070478088C0F308007047028A22F00F0208
:100810000282028A0A43028270470029818902D03B
:1008200041F0020101E021F00201818170478289DB
:1008300022F40062828182890A4382817047028A9F
:1008400022F020020282028A0A43028270470029B3
:10085000018A02D041F4804101E021F4804101820B
:100860007047818941F00101818170470029818AA7
:1008700002D041F0080101E021F0080181827047B7
:10088000028BD2B20283028B42EA012101837047BC
:100890000029818A02D041F0200101E021F02001ED
:1008A000818270470029818A02D041F0100101E065
:1008B00021F0100181827047828A22F00402828234
:1008C000828A0A43828270470029818A02D041F0DD
:1008D000020101E021F0020181827047002A828A30
:1008E00001D00A4300E08A438282704710B5C1F309
:1008F000421301F01F040121A140012B07D0022B5C
:1009000007D01430002A026805D00A4304E00C30F6
:10091000F8E71030F6E78A43026010BD0246002077
:1009200012880A4200D001207047C94301807047F5
:1009300070B501F01F0601250024C1F3421305FA2A
:1009400006F2012B0FD0022B0FD0838A4FEA112120
:100950000088134205FA01F500EA050001D000B154
:100960000124204670BD8389F0E7038AEEE70A0A76
:1009700001219140C94301807047000000100140EF
:100980000044004000480040004C0040005000403F
:1009900000140140E948016841F001010160E74AA3
:1009A0000021083211600268E54B1A400260031D05
:1009B000E44A1A60026822F480220260DF480C30A8
:1009C00001607047DD490022891C0A700870704779
:1009D00002460020510901290CD002290CD0D74928
:1009E0007431096802F01F02012393400B4200D0CA
:1009F00001207047D149F4E7D0497031F1E730B5B3
:100A000000244FF4A0653120FFF7E2FF641CAC42E4
:100A100001D00028F7D03120FFF7DAFF002800D0FE
:100A2000012030BDC54A116821F0F80141EAC0003B
:100A300010607047C44908607047C0490022703197
:100A40000A700A70012802D0042801D1052008701C
:100A50007047BE490860704741EA82115A0810B5D4
:100A6000BB4B029C03EB02421143014341EA046089
:100A7000B249091D086010BDB3490866704780017E
:100A800040EA0170AD49843108607047AE4988661C
:100A90007047AD49C8647047A84B08331A680843CB
:100AA00022F0EC62104318607047A44B08331A68B8
:100AB000084322F078421043186070479F4A08327A
:100AC000116821F003010143116070479B48083011
:100AD000006800F00C007047984A0832116821F055
:100AE000F001014311607047944A0832116821F403
:100AF000E051014311607047904A0832116821F4B7
:100B0000604141EAC0001060704770B58B4B0833FC
:100B10001968904C11F00C0104D08F4E042903D0B9
:100B2000082903D004601BE0066019E0834A121D07
:100B30001168C1F38055116801F03F0115B1B6FB92
:100B4000F1F101E0B4FBF1F114681268C4F3881408
:100B50006143C2F30142521C5200B1FBF2F1016049
:100B600019687E4A01F0F0010909545C0168E1400E
:100B700041601C6804F4E054A40A145D21FA04F4F2
:100B800084601B6803F460435B0BD25CD140C1609E
:100B900070BDC0F30121032908D1684B08331968DF
:100BA0006F4A21F4F81102400A431A606349703118
:100BB0000A68C0F30B0002430A6070476349443976
:100BC00008607047614940390860704765490860AE
:100BD00070475A4A30320029116801D0014300E0C1
:100BE000814311607047554A34320029116801D0A1
:100BF000014300E0814311607047504A38320029B8
:100C0000116801D0014300E08143116070474B4AF5
:100C100040320029116801D0014300E08143116096
:100C20007047464A44320029116801D0014300E070
:100C3000814311607047414A10320029116801D088
:100C4000014300E08143116070473C4A143200299F
:100C5000116801D0014300E0814311607047374AB9
:100C600018320029116801D0014300E0814311606E
:100C70007047324A20320029116801D0014300E058
:100C80008143116070472D4A24320029116801D038
:100C9000014300E0814311607047284A5032002927
:100CA000116801D0014300E0814311607047234A7D
:100CB00054320029116801D0014300E081431160E2
:100CC00070471E4A58320029116801D0014300E0E4
:100CD000814311607047194A60320029116801D0C0
:100CE000014300E0814311607047144A64320029D7
:100CF000116801D0014300E08143116070470F4A41
:100D00000D320029117801D0014300E081431170B8
:100D100070470A487430016841F080710160704783
:100D20000146064A00200C3212680A4200D0012017
:100D3000704702490E3108707047000000380240C9
:100D4000FFFFF6FE1030002400004742800E4742AD
:100D50000000FFFF0024F40040787D011400002013
:100D6000FFFCFF0F5C01474210B50121CC02204679
:100D7000FFF789FF2046BDE810400021FFF783BF41
:100D800030B5634B196847F6FF629143027D846872
:100D9000C568224344682C43224304680069224307
:100DA00002430A431A6030BD0021017501604160B1
:100DB0008160C160016170475649086070475449BD
:100DC000091F0A6822F003020A600A6802430A60E7
:100DD00070474F48001F006800F0030070474C4AFE
:100DE00010B5121D01681160131D1968D0E90124A6
:100DF0002243D0E9034004436FF30A0122430A432C
:100E00001A6010BD0021016041608160C160016114
:100E100070473F480C300068C0B270473C49103101
:100E2000405870473A4A10B5203201681160121DCF
:100E300041681160131D1968D0E902242243D0E9EA
:100E40000440044321F0F70122430A431A6010BD15
:100E50004FF0FF310160002141608160C16001619C
:100E6000416170472A482C300068704728487C3020
:100E70000068704726497C31086070472448443038
:100E8000006870472449086070472349091D0860BD
:100E9000704721490831086070471F490C310860CC
:100EA00070471E49086070471D490860704701215E
:100EB00081431C48016070471B4908607047164910
:100EC000143908607047124A38320029116801D07D
:100ED000014300E081431160704701460C4A002045
:100EE000303212680A4200D001207047084934317C
:100EF000086070470146064A0020303212680A42F4
:100F000000D001207047024934310860704700006A
:100F1000042C0140A0802542A0852542AC812542B9
:100F2000B0812542B4812542B88125422DE9F043A4
:100F3000016821F0010101600021016041608160D0
:100F4000C160016121214161B849B84B3D2210398E
:100F5000984202D18A60BDE8F083B44C4FF47463C8
:100F60001834A04201D18B60F5E7B04D4FF47414F2
:100F70003035A84201D18C60EDE7AC4E4FF074657E
:100F80004836B04201D18D60E5E7A84FA84E6037E2
:100F9000B84201D1CE60DEE7A44FDFF898C27837BF
:100FA000B84202D1C1F80CC0D5E7A04FDFF8888263
:100FB0009037B84202D1C1F80C80CCE79B4F4FF07C
:100FC0003D59A837B84202D1C1F80C90C3E79B49FC
:100FD0009A4F0839B84201D10A60BCE7974A1832E3
:100FE000904201D10B60B6E7944A3032904201D171
:100FF0000C60B0E7914A4832904201D10D60AAE7F7
:101000008E4A8E496032091F904201D10E60A2E7DC
:101010008A4A7832904202D1C1F800C09BE7874AE1
:101020009032904202D1C1F8008094E7834AA832FE
:10103000904290D1C1F800908DE730B50368804AA6
:10104000CC6813400A682243D1E905452C4322436A
:10105000CC6922430C6A22434C6A22438C6A2243A5
:101060004C6B22438C6B22431A430260426922F08C
:101070000703D1E90B2422431A4342610A69426003
:101080004A6882608968C16030BD002101604160AA
:101090008160C160016141618161C1610162416240
:1010A0008162C16201634163816370470029016805
:1010B00002D041F0010101E021F00101016070471F
:1010C0000029016802D041F4004101E021F400410F
:1010D000016070470029016802D041F0200101E061
:1010E00021F020010160704741607047406880B284
:1010F0007047002A026802D042F4002201E022F484
:1011000000220260016170470029016802D041F4A9
:10111000802101E021F48021016070470AB1016162
:101120007047C1607047014600200968090300D577
:1011300001207047014600200968C90700D001203E
:101140007047406900F03800704702463B4B002072
:101150009A4202D2354A103A01E0384A103A8B00DE
:1011600001D5526800E01268364B1A400A4200D09E
:1011700001207047314A904202D22C48103801E0D9
:101180002E4810382F4A8B0001EA020101D5C160B8
:101190007047816070470B0607D5436912B143F071
:1011A000800301E023F080034361802908D0002AF6
:1011B000026801F01E0101D00A4300E08A43026088
:1011C000704730B51D4A0024904202D2174A103AA7
:1011D00001E01A4A103A1C4B194205D01E2303EABB
:1011E000D12503682B4002E0406900F080038800AD
:1011F00001D5506800E01068124A1040084201D042
:1012000003B10124204630BD0C4A904202D2074867
:10121000103801E0094810380A4A8B0001EA02013F
:1012200001D5C160704781607047000010600240C6
:101230003D000020400F002000003D2010640240CF
:101240003F801CF07D0F7D0F3C0F3C0F10B580B927
:1012500001F0A9FF2A280CD13A4801F0E2FF2A2820
:1012600007D13848B0F84C00000402F04DFA2A28A3
:1012700001D0012010BD002002F001FA2A2804D17B
:10128000002002F035FA2A2801D0032010BD0020EA
:1012900010BD002800D00120704710B50BB110B16F
:1012A0000BE0042010BD50024FF40074012B2246C5
:1012B00005D002F075FB2A2804D0012010BD02F0F1
:1012C00075FAF8E7002010BD10B50BB110B10BE0B6
:1012D000042010BD50024FF40074012B224605D0AB
:1012E00002F0F9FD2A2804D0012010BD02F089FC8B
:1012F000F8E7002010BD10B5144650B929B10129F6
:101300000DD0032907D0042010BD02F073FC002883
:10131000FAD0012010BD4FF4007010800DE0094894
:1013200001F07FFF2A28F4D106480169027E491C9A
:10133000007A921C104481402160002010BD0020E2
:10134000704700005C0000202DE9F041C56A0F469F
:101350000446BD422BD0217904F13008D9B1607820
:1013600001232A464146FFF7AFFFE0B90020207174
:10137000A169206A0844A8420DD9E67809E0A0696D
:101380000123054460782A464146FFF79DFF761EFB
:10139000F6B2012EF3D857B1607801233A464146A0
:1013A000FFF77BFF10B10120BDE8F081E76200206C
:1013B000FAE72DE9F04104460021FFF7C5FF0500DB
:1013C00050D12078032846D16079E8B3002604F193
:1013D00030004FF4007231460746E66201F0DEFB52
:1013E000552084F82E02AA2084F82F02522084F877
:1013F000300084F83100612184F83210412284F8F1
:101400003320722084F8140284F8150284F816221E
:1014100084F81712206984F81802010A84F8191256
:10142000010C84F81A12000E84F81B02E06884F89C
:101430001C02010A84F81D12010C84F81E12000E11
:1014400084F81F02607800E005E0012339466269F4
:10145000FFF73AFF6671002260781146FFF74BFFF5
:1014600000B1012528469FE72DE9F04105460C46CD
:10147000022902D3E869A04201D8012094E7287824
:101480002E6A012804D0022824D0032833D12CE06E
:1014900004EB540706EB57212846FFF755FF50BBD6
:1014A000C7F3080028447F1C90F8308006EB5721D2
:1014B0002846FFF749FFF0B9C7F30800284490F821
:1014C000301048EA0120E10701D000096CE7C0F3C1
:1014D0000B0069E706EB14212846FFF735FF50B9EA
:1014E000E0B205EB4000008E5EE706EBD411284623
:1014F000FFF72AFF10B14FF0FF3055E7A1B240F2DD
:10150000FF1000EA8100284490F83010D0F8310034
:1015100041EA002020F0704046E72DE9F05F0546E3
:101520000C461646022902D3E869A04202D80220DE
:10153000BDE8F09F28782F6A06F0FF084FF0010BF6
:1015400001280BD01FFA86FA4FEA1A29022837D051
:10155000032844D0022085F804B0E9E704EB5409DD
:1015600007EB59212846FFF7EFFE0028F3D1C9F316
:10157000080028443030E10703D0017868F31F11D8
:1015800000E04146017009F1010885F804B007EB5D
:1015900058212846FFF7D8FE0028DCD1C8F30801FF
:1015A00029443031E20702D0C6F3071206E00A7878
:1015B000330A02F0F002C3F303031A430A70CAE7C6
:1015C00007EB14212846FFF7BFFE0028C3D1E1B284
:1015D00005EB410181F830A081F83190BBE707EBC2
:1015E000D4112846FFF7B0FE0028B4D1A3B240F2D0
:1015F000FF1101EA83012944320C01F8308F81F890
:1016000001908A70320ECA70A5E72DE9F0410546B7
:101610000F46022918D3E869B84215D900264FF0C1
:1016200001081DE039462846FFF71EFF04001AD0C6
:10163000012C09D0601C09D0002239462846FFF74A
:101640006CFF06000FD103E002260CE001260AE041
:101650002869411C03D0401C286185F80580274675
:10166000E869B842DED830469EE62DE9F041C76908
:1016700006465FEA010807D041463046FFF7F4FE10
:10168000022807D201208FE6F5680DB1BD4204D3D0
:10169000012502E0B842F6D345462C46641CBC4204
:1016A00002D30224022D0AD321463046FFF7DCFE86
:1016B00038B1411CE7D00128E5D0AC42EED1002082
:1016C00072E66FF0704221463046FFF726FF4FF07A
:1016D000FF3540B95FEA080007D001462246304690
:1016E000FFF71BFF08B128465EE6F4603069411C35
:1016F00003D0401E306101207071204654E6C2695B
:10170000891E921E8A4201D800207047826A807822
:1017100001FB0020704770B50D46C180816804460A
:1017200001291ED02068C2698A421AD921B90278DB
:10173000032A04D1416A11B18078060117E0E16003
:101740000189A9420DD9406A17E02068FFF78CFE95
:101750000146401C07D0022903D32068C069884293
:1017600003D8022070BD012070BDA81B85B2B54210
:10177000EBD2E1602068FFF7C2FF00EB151020619B
:1017800005F00F013022206802EB4111084460612E
:10179000002070BD2DE9F0410446C0880E46401C73
:1017A00007043F0C2DD0206958B339075CD1401C89
:1017B0002061E168206829B18278521E12EA171F61
:1017C00004D051E00089B8421BD94DE0FFF74CFE30
:1017D0000546012819D9681C31D02068C169A94281
:1017E0003CD876B1E168FFF740FF05000BD0012D32
:1017F0000BD0681C23D000212068FFF7A5FDF0B9AD
:1018000005E00420D0E50720CEE50220CCE52068E5
:101810004FF400723030002101F0C0F929462068F1
:10182000FFF76DFF216800264FF00108C8620EE047
:1018300080F8048000212068FFF786FD08B10120B0
:10184000B2E52068C16A491C761CF6B2C162206804
:101850008178B142ECD8C16A891BC162E560294632
:101860002068FFF74CFF2061E78007F00F0130226E
:10187000206802EB411108446061002094E510B536
:101880000446042015E02068FFF75EFDB0B96269E8
:10189000117861B1E52904D02E2902D0D17A090747
:1018A0000ED500212046FFF775FF10B106E0042099
:1018B00004E021690029E6D1002801D0002121613E
:1018C00010BD70B504460021FFF725FF0EE0216929
:1018D0002068FFF739FD050024D160690078E5280C
:1018E00007D030B101212046FFF754FF0500EED0AC
:1018F00018E021692068FFF727FD050012D166690D
:1019000020220021304601F049F90B223046A1691E
:1019100001F03CF9A069C07A00F01800307321682A
:1019200001200871284670BD10B50446C188FFF734
:10193000F2FE00280BD121692068FFF705FD002881
:1019400005D16269E521117022680121117110BD74
:101950002DE9F047846989460B222021204601F0B9
:101960001DF900200246D9F8008013464FF0080CFC
:1019700018F80010401C20294BD92F2949D05C2988
:1019800047D02E2901D063450ADBBCF1080F4ED1A8
:101990002E294CD1082391064FF00B0C0A0EE7E7D5
:1019A000802901D342F00302A1F181057D2D14D8D5
:1019B00018F80050401CA5F141061A2E05D3203E10
:1019C0001A2E02D3203E7E2E31D2ACF10106B34254
:1019D0002DDAE1545B1CE55419E0FEA50E4600E04B
:1019E0006D1C2F7817B1B742FAD120E0A1F1410563
:1019F000192D02D842F0020208E0A1F16105192D6B
:101A000004D8A6F1200142F00102C9B2E1545B1CE6
:101A1000AEE708EB0005C9F80050202901D80420E2
:101A200000E000201BB12178E52903D004E0062066
:101A3000BDE8F08705212170BCF1080F01D19106A6
:101A40000A0E02F00301012901D140F01000C2F397
:101A50008101012901D140F00800E0720020E7E790
:101A600010B5036901F109023BB340690024035D2D
:101A7000202B07D0052B00D1E523641C02F8013B85
:101A8000082CF4DB037A202B0BD02E2302F8013B29
:101A90000823C45C202C04D05B1C02F8014B0B2BE8
:101AA000F7DBC37A0B72037FD0F81D4043EA0423AF
:101AB0000B60038B8B80C08AC8800020107010BD23
:101AC00073B50446019801E0401C0190017820297B
:101AD000FAD001782F2901D05C2901D1401C019056
:101AE0000025A56001980078202805D20021204615
:101AF000FFF711FE65617CBD01A92046FFF728FFB5
:101B00000028F8D100212046FFF705FEF8B9216929
:101B10002068FFF719FCD0B961690A7872B1CA7AF6
:101B200012070ED40B25A26900236D1E08D311F8ED
:101B3000013B12F8016B9B1BF7D002E0042006E08A
:101B40002BB100212046FFF725FE0028DFD0A16938
:101B5000C97A01F0040128B10428CCD10029CAD1E6
:101B600005207CBD0029FCD16069C17AC906F7D582
:101B7000818A408B61F31F40A060BDE710B5044629
:101B80000A464078012304F13001FFF786FB08B1D3
:101B9000032010BDB4F82E12A1F52A40553801D00B
:101BA000022010BD94F86600D4F8671040EA0121C5
:101BB0008B48B0EB012F08D094F88210D4F8832022
:101BC00041EA0221B0EB012F01D1002010BD01201C
:101BD00010BD2DE9F0410E46016815460B78303BEB
:101BE000092B07D84A783A2A04D1891C01600BB125
:101BF0000B2038E47B48046834609CB1207820B125
:101C00006078FFF746FBC1070ED04FF0000884F85C
:101C10000080404684F80180FFF718FBC10708D018
:101C2000032020E40C201EE40DB1400704D4002062
:101C300019E41DB1400701D50A2014E400263146FD
:101C40002046FFF79BFF01280CD104F5F7700179BE
:101C500099B1017AD0F8090041EA002631462046C0
:101C6000FFF78CFF032801D038B901E0012005E41B
:101C7000B4F83B00B0F5007F01D00D2026E4B4F8A5
:101C8000461029B994F85400D4F8551040EA0121BF
:101C9000A16194F84000E070B4F83EC048430CEBFA
:101CA0000601216294F83D30A370B4F841202281EE
:101CB000B4F843502DB994F85050D4F8517045EA17
:101CC0000725A5EB0C052D1AA5EB1215B5FBF3F3B3
:101CD0009B1C012540F6F777E361BB4200D3022548
:101CE0004FF6F777BB4201D3032510E0032D0ED04A
:101CF0000B1800EB12100844C4E909304FF0FF3014
:101D00002061474684F80480032D07D038E094F81A
:101D10005C30D4F85D7043EA0723EAE76771B4F8F2
:101D20006000012382196261607804F13001FFF7DD
:101D3000B4FA28BBB4F82E02A0F52A4155391FD1B8
:101D400094F83000D4F8311040EA01202649884246
:101D500016D194F81402D4F8151240EA0120234950
:101D600088420DD194F81C02D4F81D1240EA0120DB
:101D7000E06094F81802D4F8191240EA01202061BA
:101D800018492570091FE7620888401C0880E08018
:101D90004DE708B10B207047124B0022186800B1C4
:101DA000027001B10A700020196070472DE9F747F1
:101DB0008BB04FF00008064602F01F05C0F8008007
:101DC00005F01E0269460CA8FFF703FF00282AD180
:101DD00007A80DE020222A2B2C5B3D5D7C7F0000B4
:101DE0000046415428000020525261417272416104
:101DF000069068460C99FFF763FE15F01C0F5CD047
:101E00004FF0010960B104280DD16846FFF759FD74
:101E1000002808D145F00805059C280737D45BE069
:101E2000680702D508200EB002E6059CF4B3E07AFC
:101E300010F0110F4ED128074ED5A08A678B84F879
:101E4000148084F8158084F81A8084F81B8084F844
:101E50001C8084F81D8084F81E8084F81F800099FF
:101E600060F31F4781F804900098D0F82CA047B188
:101E700039460098FFF7C9FB0028D4D100987F1E8F
:101E8000C76051460098FFF75FFA0028CBD184F86D
:101E90000B80FFF754FAA0734FEA1021E1734FEA69
:101EA000104121744FEA1060607400E012E0009964
:101EB00045F0200581F804900EE00028B3D1059C80
:101EC00014B1E07AC10601D50420ACE7A90703D517
:101ED000C00701D00720A6E70098C06AF061059806
:101EE0003062B571A18A608B61F31F403061207F41
:101EF000D4F81D1040EA0120C6E90280FF21F171EB
:101F0000C6F81880009830600098C088B080002023
:101F100089E72DE9F84F4FF0000B8846C3F800B071
:101F20000446818816469946006800F03EFE002867
:101F300003D1A079010602D50220BDE8F88FC007C1
:101F400009D0D4E90210401A04F12401009186421C
:101F500000D9064684E00720EFE7A168C80567D1ED
:101F60002068E27983789A420AD309B36169FFF75E
:101F70007BFA01281ED9411C50D0606184F807B05B
:101F800061692068FFF7BBFBA0B1E1790F18750A02
:101F90002AD020684B198278934200D9551AEBB2A7
:101FA00040789A463A464146FFF777F9B0BB06E0DB
:101FB0002069DEE7A07940F08000A071BCE7A0793D
:101FC00040060AD5A069C01BA84206D208EB4020F3
:101FD0004FF40072009900F0D9FDE1794FEA4525F0
:101FE00001EB0A00E07131E0A07940060BD52068D2
:101FF0000123A26940780099FFF766F970B9A079CA
:1020000020F04000A071A069B8420DD020680123E3
:102010003A4640780099FFF740F928B1A07940F09E
:102020008000A071012088E7A761E079401CE07181
:10203000A068C0F30800C0F50075B54200D9354668
:10204000011924312A46404600F0A0FDA068A844AA
:102050002844A060D9F800004119761BC9F8001087
:10206000002E7FF47AAF002067E72DE9F84F4FF09C
:10207000000B8846C3F800B004468188164699468E
:10208000006800F092FD002803D1A079010601D577
:10209000022052E7800701D407204EE7E06804F1F0
:1020A000240182190091824278D399E0A068C10589
:1020B0007AD12268E179937899420DD3C0B1104664
:1020C0006169FFF7D2FA002868D0012835D0411C99
:1020D0005ED0606184F807B0A079400615D520680D
:1020E0000123A26940780099FFF7EEF8F0BB08E001
:1020F00020690028E9D100211046FFF7B6FA2061D7
:10210000E1E7A07920F04000A07161692068FFF745
:10211000F6FA90B1E1790F18750A2AD020684B19A8
:102120008278934200D9551AEBB240789A463A46E3
:102130004146FFF7C9F8C8B904E0A07940F0800033
:10214000A071A5E7A069C01BA8420AD208EB4021F4
:102150004FF40072009800F019FDA07920F04000C3
:10216000A071E17901EB0A00E07100E010E06D027E
:102170002CE0A069B84213D0D4E9020188420FD202
:10218000206801233A4640780099FFF786F838B175
:10219000A07940F08000A0710120CEE623E003E0AA
:1021A000A761E079401CE071A068C0F30800C0F5A9
:1021B0000075B54200D93546204424302A464146B0
:1021C00000F0E4FCA07940F04000A071A068A844B1
:1021D0002844A060D9F800004119761BC9F8001006
:1021E000002E7FF463AFD4E90201884200D9E06099
:1021F000A07940F02000A07100209EE670B5044652
:102200008188006800F0D1FC00280ED1A1798A06EF
:102210000BD548060ED52068012304F1240140782F
:10222000A269FFF751F808B1012070BDA07920F034
:102230004000A071E1692068FFF786F80028F4D11A
:10224000256AE87A40F02000E872E0682877E068C4
:10225000000A6877E068000CA877E068000EE8776D
:102260002069A8762069000AE8762069000C2875A4
:102270002069000E6875FFF762F8A875010AE97514
:10228000010C2976000E6876A07920F02000A0715C
:102290002168012008712068BDE87040FFF789B807
:1022A00010B50446FFF7AAFF002801D100212160E4
:1022B00010BD2DE9F0410D4604468188006800F00C
:1022C00074FC5FEA000803D1A179080601D5022059
:1022D0008FE4E068A84202D2890700D405460027AF
:1022E000A068FF21A760E171FDB1226891784E02DC
:1022F00068B1691E401EB1FBF6F1B0FBF6F39942DE
:1023000005D3711E8843A0602D1A61690CE0216914
:1023100049B900211046FFF7A8F90146012843D02A
:10232000481C52D021616161D1B92AE0A0798007AF
:10233000206805D5FFF799F9010004D1354611E071
:10234000FFF792F80146481C3FD001292CD920689C
:10235000C069884228D96161A068AD1B3044A06083
:10236000B542E3D8A0682844A060680AE071E80597
:1023700007D02068FFF7C3F9B0B1E1790F18491C05
:10238000E171A068C00527D0A269BA4224D0A07923
:1023900004F12405400610D5206801232946407821
:1023A000FEF792FF88B904E0A07940F08000A071A8
:1023B0008DE7A07920F04000A071206801233A4603
:1023C00040782946FEF769FF28B1A07940F08000E7
:1023D000A07101200DE4A761D4E90201884204D96B
:1023E000E060A07940F02000A071404619E413B5E8
:1023F00084B004460146002205A8FFF7EAFB002846
:102400001AD1C4F818D020460599FFF759FB80B9B6
:10241000606938B1C17AC9060DD5818A408B61F3F4
:102420001F40A06020680021C088A0802046FFF7E0
:1024300072F9042800D1052006B010BDFEB50D4686
:1024400004468188006800F0B0FB002816D1C4F86B
:1024500018D0A5B12046FFF712FA0026042813D0A1
:1024600000280BD129462046FFF7FAFA0021204622
:10247000FFF790F9042801D100202661FEBD00215C
:102480002046FFF748F9FEBD2661EBE733B58BB078
:102490000D46002269460BA8FFF79BFB04000FD1F5
:1024A00007A8069068460B99FFF70AFB040007D1BE
:1024B000059820B129466846FFF7D2FA00E00624C5
:1024C00020460DB030BD2DE9F74315468946002260
:1024D00029466846FFF77DFB00281CD12868C7699C
:1024E0000169BA1E914202D8C9F800104AE090F87A
:1024F00000800024B8F1010F01D0066A17E002261F
:1025000031462868FEF7B0FF411C03D0012804D0F3
:1025100028B105E00120BDE8FE830220FBE7641C32
:102520002868761CC0698642EAD321E051B9314659
:10253000761C2868FEF708FF0028ECD128684FF4C5
:1025400000713030B8F1020F07D00278D0F80130B6
:1025500042EA0322120106D006E0028802B9641C96
:10256000801C891E02E0641C001D091F7F1EDDD136
:102570002868B8F1030F046102D12968012048716D
:10258000C9F800400020C6E770B50446818800689D
:1025900000F00BFB050003D1A079010601D5022054
:1025A00070BD810701D4072070BDD4E902128A42B0
:1025B00030D940F02000E160A07151B1616920681C
:1025C000FEF752FF0646401C0BD0012E0BD065B122
:1025D0001CE021692068FFF718F8054600202061FB
:1025E00013E0012512E0022510E02068C169B14224
:1025F00010D96FF070426169FEF78FFF050005D1B9
:1026000031462068FFF701F805461DB1A07940F07A
:102610008000A071284670BD11B591B001226946B5
:1026200011A8FFF7D6FA00280ED10EA8069068462A
:102630001199FFF745FA002806D1059818B1C17A1B
:10264000CA072FD102E0062012B010BD828A448B47
:10265000C80662F31F4415D5022C01D20220F3E70D
:102660001C22694607A800F091FA022107A80994E4
:10267000FFF751F80028E7D107A8FFF700F988B164
:102680000428E1D16846FFF74FF90028DCD12CB1CE
:1026900021460098FEF7B9FF0028D5D10098FEF733
:1026A00088FED1E70720CFE72DE9F14F90B0012256
:1026B000694610A8FFF78DFA002814D10CA80690DF
:1026C00068461099FFF7FCF960B104280BD100218E
:1026D0000098FEF7CAFF05004FF0000006D0012D5C
:1026E00006D006E0082011B0BDE8F08F072000E01A
:1026F0000220691C4AD00028F5D100210098FEF77D
:1027000023FE0028EFD129460098FEF7F8FF009C31
:10271000064630344FF400720021204600F03EFAA5
:102720000B222021204600F039FA2E272770102096
:10273000E072FEF704FEC1B20791A175C0F307294C
:10274000C0F3074184F8179008912176000E099094
:102750006076E8B20A90A076C5F307200B90E07689
:10276000C5F3074B84F814B04FEA156A84F815A036
:102770002022214604F1200000F008FA84F821709C
:10278000009902980978032902D006E00120AAE7FF
:102790000099496A814200D1002004F134044FEAD3
:1027A0001021A071E1714FEA104121704FEA1060D1
:1027B0006070A4F134044FF000074FF0010813E0FB
:1027C0000098C6620099761C81F804800021009868
:1027D000FEF7BAFD002886D14FF400720021204692
:1027E00000F0DCF97F1CFFB200988078B842E7D88F
:1027F0006846FFF766F8040004D029460098FEF703
:1028000004FF19E005981021C1720799817580F8BD
:10281000179008990176099941760A9981760B9962
:10282000C17680F814B080F815A0009981F8048072
:102830000098FEF7BEFD0446204654E737B58AB03F
:102840000C461546012269460AA8FFF7C2F900287E
:1028500016D107A8069068460A99FFF731F90028B3
:102860000ED1059868B105F02702C17A1440914352
:102870000C43C4720099012008710098FEF799FD7D
:102880001FE606201DE613B58AB00C4601226946F4
:102890000AA8FFF79EF9002819D107A806906846F4
:1028A0000A99FFF70DF9002811D1059888B1E18840
:1028B0008175E188090AC175A1880176A188090A94
:1028C00041760099012008710098FEF772FD0CB066
:1028D00010BD0620FBE733B597B014A80C460D9049
:1028E000012207A917A8FFF774F9002849D1079812
:1028F000009007A81799FFF7E3F8002841D10C983A
:10290000E0B300F10B0115220EA800F03FF91C22E4
:1029100007A9684600F03AF921466846FFF7D0F863
:1029200068B304282DD16846FEF7CBFF002828D1D4
:10293000059C13220DF13A0104F10D0000F026F977
:102940009DF83800012540F02000E07207980571DD
:10295000E07AC00630D5A18A608B01430098FEF76B
:10296000CEFE010011D00098FEF7EEFC0099503128
:10297000002806D148782E2809D01DE000E002E0AA
:10298000042019B030BD0820FBE70220F9E70098C9
:102990000078032806D1009A0298526A904201D129
:1029A000002000E002988876020ACA76020C0A75B6
:1029B000000E48750098057107A8FEF7B5FF0028BE
:1029C000DFD10798FEF7F5FCDBE72DE9F84300259A
:1029D0000746904604464E1E0DE06B4601222146F6
:1029E0004046FFF796FA0098012806D114F8010B2B
:1029F0006D1C0A2801D0B542EFDB0020207015B114
:102A00003846BDE8F8830020FBE71CB50446080003
:102A100008D08DF804406B46012201A9FFF725FB81
:102A2000009808B120461CBD4FF0FF301CBD70B5AA
:102A300004460E46002506E03146FFF7E6FF401C3F
:102A400006D0641C6D1C20780028F5D1284670BD86
:102A50004FF0FF3070BD0FB42DE9FF5F00258346B6
:102A600010AC2E46AA46E94683E00F9F17F8010BEB
:102A70000F9700286AD0252807D05946FFF7C5FFD1
:102A80000646401C74D0012672E0002217F8011B94
:102A900013460F9730290DD117F8011B01220F970C
:102AA00008E003EB830001EB40030F98303B10F884
:102AB000011B0F90A1F130000928F2D96C2905D132
:102AC0000F9842F0020210F8011B0F9073290ED0EC
:102AD00063290ED0002064290DD075290BD0582908
:102AE0000BD098B3960740CC642908D00CE001CCF9
:102AF0003AE001CCC1E70A20F4E71020F2E7002E0B
:102B000002DA764242F004020F218DF80FA0B6FBE4
:102B1000F0F700FB1766303606F0FF08B8F1390F02
:102B200003D908F1070808F0FF08491ECC4609F848
:102B300001803E4607D0002EE9D1500703D52D2055
:102B4000491E09F80100C3F10F0308E014E0D007A3
:102B500001D0302000E02020491E0CF8010009B10E
:102B60009942F4DC0CEB01005946FFF760FF064682
:102B70003544701C7FF479AF701C05D0284604B032
:102B8000BDE8F01F5DF814FB3046F8E703E011F8EC
:102B9000013B00F8013B521EF9D27047C9B201E077
:102BA00000F8011B521EFBD2704710B520B102780D
:102BB00012B1C2888A4201D0092010BD4078FEF7C8
:102BC00068FBC007F9D0032010BD000038B54FF4F2
:102BD000C060FDF7F1FB31208DF8000000248DF876
:102BE00001408DF8024001258DF803506846FDF73D
:102BF000E8FB25208DF800008DF801508DF802408B
:102C00008DF803506846FDF7DCFB38BD70B505460E
:102C10001222FFF7CBF8040008D12846E968FFF735
:102C200048FB040002D02846FFF73AFB204670BD5F
:102C3000ADF58D6D14221FA10DF2544001F0E6FE9A
:102C40000C212148FDF7D9FD0020FEF7FFFA0146CF
:102C50001EA001F035FE89A90020FFF79AF821A1F6
:102C60006846FFF7D3FF08B121A000E026A001F0DD
:102C700027FE68460399FFF71CFB284B14220DF230
:102C800054416846FFF7F1F9014625A001F018FE0E
:102C90006846FFF705FB014627A001F011FEFEE79D
:102CA000FDF7E8FAFDF705FBFFF790FF01F08EFD59
:102CB000FFF7BEFF546869732066696C652069730D
:102CC000204C6F672E0D0A00001001404469736BA1
:102CD00020496E697469616C697A653A25640D0AE8
:102CE000000000006C6F6766696C652E7478740074
:102CF0006C6F6766696C652E747874204D616B65C6
:102D0000206572720D0A000046696C65204D616B8A
:102D10006520537563636573730D0A002C000020F2
:102D2000665F77726974652052657475726E203AB9
:102D30002025640D0A000000665F636C6F736520D8
:102D400052657475726E203A25640D0A0000000009
:102D50007047FEE7FEE7FEE7FEE770477047704703
:102D6000704710B5094C40F225512046FDF7E0FDB3
:102D7000002808D02046FDF744FDC1B2BDE8104050
:102D800003A001F09DBD10BD01F07EBB001001400D
:102D90000A0D55534152542048797065727465721A
:102DA0006D696E616C20496E7465727275707473B2
:102DB0002052656365697665206120776F72643A99
:102DC0002025630A0D00000010B5FF4A2A2411686F
:102DD00011F0450FFBD0480702D50324042003E07F
:102DE000C80705D001242046FEF780F8204610BD14
:102DF00040F2FF50F8E72DE9F84F01202A24ADF802
:102E00000000FDF7E6FFB8B3DFF8C093D9F804007F
:102E100004286ED0EE4D4FF0C00A00260220C5F8FF
:102E200008A0C5E900604FF48068C5E9036828463A
:102E3000FDF7D5FFFFF7C8FF04462A281ED1002062
:102E4000FDF7ECFFA5F1280738600420FDF7E6FF49
:102E500078600820FDF7E2FFB8600C20FDF7DEFF88
:102E6000F860D9F804004F4650B1012808D0062870
:102E700006D0022804D015E0FFE72520BDE8F88F32
:102E80000320C5E9006005F108014020A1E84101E7
:102E9000CF48FDF7A4FF6946032001F0BFFB0446BD
:102EA0002A28EBD17868042823D0BDF80000B86048
:102EB000000428600920C5E9010AC5E90368C4487F
:102EC000FDF78DFFFFF780FF04462A28D6D10020AA
:102ED000FDF7A4FFBE4D383D28600420FDF79EFF9E
:102EE00068600820FDF79AFFA8600C20FDF796FFA8
:102EF000E8602046C2E770B5B34905462A24086851
:102F000010F0450FFBD0410702D50324042003E055
:102F1000C00704D001242046FDF7E8FF59E0FDF783
:102F200078FFA8422BD140F2FF50FDF7DFFF0020D1
:102F3000FDF774FFA74908424BD0002801DA1C2096
:102F400070BD410001D5092070BD810001D50A2066
:102F500070BDC10001D50B2070BD010101D50C2051
:102F600070BD410101D50D2070BDC10101D50E20FC
:102F700070BD010201D50F2070BD410201D51020A6
:102F800070BD810201D5112070BDC10201D5122092
:102F900070BD010301D5132070BD410301D514207C
:102FA00070BD810301D5152070BDC10301D5162068
:102FB00070BD010401D5172070BD410401D5182052
:102FC00070BD810401D5192070BD000701D51A20FC
:102FD00070BD204670BD2DE9F05F00277C4876214A
:102FE0001838BB460175076047608760C7603D467B
:102FF0003E46B8465C460761FDF7C2FE0320FDF77A
:10300000DEFE0120FDF7D8FEDFF8C4A14FF4806199
:103010005046CAF80040CAF80440CAF80840CAE955
:103020000341FDF7DCFE4FF02A094FF4803401E044
:10303000641E24D08020FDF750FF0028F8D0F4B1A2
:1030400040F2FF50FDF752FF48462A287DD14FF449
:10305000D571CAF800100821CAF804104021CAE945
:10306000021B0901D1465A48CAF81010FDF7B7FEF5
:10307000554A2A244FF480301168924605E0032017
:10308000E3E7DAF80010A0F1010011F0450F05D0D8
:1030900008B1480705D50324042006E00028F0D134
:1030A000F9E7480603D52A244020FDF71FFF2A2C04
:1030B00027D048463721C0E900B14021C9E9021BA9
:1030C00009014348C9F81010FDF789FE3720FFF7C2
:1030D00012FF484600223721C0E90021CB464FF0BD
:1030E0004009C0E902924FF480613948CBF81010D2
:1030F000FDF775FE3720FFF7FEFE04462A283ED076
:103100004FE0324801214FF080484160E1E75C46E2
:1031100000263720CBF80890C4E900604FF48067A0
:103120002B48C4E90367FDF75AFE3720FFF7E3FE9B
:103130002A282ED1284948EA010020602920C4E924
:103140000109C4E90367224800E022E0FDF747FED9
:103150002A245146086810F0450FFBD0400702D5DD
:103160000324042001E040F2FF50FDF7BFFE2A2CAB
:1031700017D10020FDF752FEC60F07466D1C1EB981
:103180004FF6FF708542C2D34FF6FF70854202D3DF
:103190001B20BDE8F09F17F0804F02D00B480221A2
:1031A00041602046F5E710B501F06EFAFDF7DCFD51
:1031B000FFF711FF2A2820D1FFF71DFE0446014624
:1031C00006A001F07DFB15E0342C0140300000200A
:1031D000E400002008E0FFFD000010805344204977
:1031E0006E697469616C697A6543617264733A25CA
:1031F000640D0A002A2C01D0204610BDFE4B00228F
:1032000018461A751A605A609A60DA601A61FDF7FA
:10321000B7FDF1E710B52A240020FDF7D0FD2046C8
:1032200010BD2DE9F047F549DFF8CCA34FF02A0C8B
:103230004B6880F84E308968AAF1200AA0F84C103B
:10324000DAF800100A0E95090570C2F3830545707F
:1032500002F0030282700A0CC2700A0A0271417104
:10326000DAF80420110E0901C180C488C2F30741B5
:1032700044EA1114C48001F00F010172C2F3072166
:10328000CC094472C1F380148472C1F34014C47237
:10329000C1F3001404734FF0000880F80D80544609
:1032A0004FF00109A468250EC4F30746C4F30727AD
:1032B00023B1012B02D0022B2BD03CE08907090D52
:1032C0000161D1B2026942EA81010161016941EA09
:1032D00095110161C5F3C201017505F00701417542
:1032E00071098175C6F38201C175B107490F017675
:1032F000027E394642EAD11202760369027E5B1CE5
:10330000921C057A934009FA05F25343C0E9113241
:1033100011E09106890A0161016941EA0521016113
:1033200001693143016102693946521CD204426489
:103330004FF40072826400F11800C1F380124270F1
:103340004FEA81614FEA516181708378E1B243EACB
:10335000D113837001F07F01C170DAF80C204FEABD
:1033600012614FEAD1130371C1F341134371C1F3E9
:10337000820383714FEA81714FEA1171C171C37980
:10338000C2F3074143EA9113C371C1F340130372BF
:1033900080F8098001F001018172C2F307214FEA30
:1033A000D113C372C1F380130373C1F3401343738A
:1033B000C1F300138373C1F38103C37301F00301ED
:1033C0000174C2F3460141744B4680F812908A4A58
:1033D000A2F1100211684FEA11640475C1F30744A9
:1033E0004FEA0424C482C58AC1F3072445EA0405D0
:1033F000C5824FEA01618161516885694FEA1164B4
:1034000045EA044484618569C1F3074445EA04241C
:1034100084618569C1F3072445EA04058561017764
:1034200091684FEA11644477C1F307444FEA04649A
:103430000462056AC1F3072445EA04440462046A8D
:10344000C9B244EA01210162D168046A44EA116404
:10345000046290F82440C1F3074244EA121480F851
:1034600024404FEA02724FEA1252C284C48CC1F364
:10347000072244EA0204C484C1F3460180F82810FC
:1034800080F829306046BDE8F0872DE9FC4700242C
:10349000594F009418374FF0080A019410204FF04C
:1034A0004008C7F800A0C7E901084FF48069C7E9E0
:1034B00003490E4625463846FDF791FC1020FFF7DC
:1034C0001AFD2A2842D14D48806800043860372010
:1034D000C7E90108C7E903593846FDF780FC3720E2
:1034E000FFF709FD2A2831D107F11400611EC0E958
:1034F000001A302181600221C0E9031501214161D8
:10350000FDF790FC3320C7E90050C7F81090C7E9D9
:1035100002853846FDF763FC3320FFF7ECFC0546D7
:103520002A2813D1DFF8D8804FF4001A6F4640F2F2
:103530002A69D8F8000010EA090F09D00820FDF721
:10354000CCFC80B10820FDF7D1FC0420BDE8FC874D
:103550005046FDF7C2FC0028EBD0FDF787FC47F88A
:103560002400641CE5E70220FDF7B7FC20B102202F
:10357000FDF7BCFC0220E9E72020FDF7AEFC20B1FE
:103580002020FDF7B3FC0620E0E74FF4007420464E
:10359000FDF7A3FC20B12046FDF7A8FC0720D5E7E6
:1035A00040F2FF50FDF7A2FC009800BA706001984D
:1035B00000BA30602846C9E72DE9FC47002481465F
:1035C000009420460194FDF729FC800101D50E20CE
:1035D000BCE70A4D6946A86880B2FFF756FF2A2863
:1035E000B4D1054E37204FF0060A18364FF0400888
:1035F0004FF4806706E00000CC000020300000207F
:10360000342C01400199B9F1010F1ED0C90334D502
:10361000A968C6F808800904C6E90010C6E903478E
:103620003046FDF7DCFB3720FFF765FC2A288DD1FB
:10363000C6F80880C6E9004AC6E90347FE48FDF718
:10364000CEFB0620FFF757FC80E7490315D5A96894
:10365000C6F808800904C6E90010C6E90347F64821
:10366000FDF7BDFB3720FFF746FC2A28B0D102202A
:10367000C6F80880C6E9000ADEE7252066E72DE9DE
:10368000F0410146ED482A244068032815D018B1BE
:10369000012801D0022829D1B1F5805F0DD0E64E76
:1036A0004FF400670025183EB9420FD10120FFF703
:1036B00083FF04462A2803D018E02720BDE8F081C4
:1036C000357535607560C6E902570AE00020FFF7DE
:1036D00073FF04462A2809D1357535607560B560D9
:1036E000F560D54835611838FDF74AFB2046E5E717
:1036F0002A2130B1012804D0022802D02621084610
:103700007047CE4AD060FAE7CB4910B50860072071
:103710004860402088600020C8604FF480600861E5
:103720000846FDF75CFBBDE810400720FFF7E3BB50
:1037300030B5C34D04468FB04FF0FA512846FDF71F
:1037400019FD00212846FDF7B1FC2846FDF7EEFBE8
:103750004FF000600090BB48CDE9010400200390C9
:1037600029150490CDE90501890007918900CDE96B
:1037700008104FF440300A9004200B9003200C9066
:1037800048020D9080100E9069462846FDF755FCC2
:1037900069462846FDF751FC20212846FDF79AFC92
:1037A00001212846FDF782FC0FB030BD2DE9F84F0E
:1037B00006460C00154635D0A04F2A2038704FF031
:1037C000000AC7F818A0DFF870B24FF0FF320BF113
:1037D000140B5946C7F810A0C1E9002ACBF808A07D
:1037E000CBF80CA0CBF810A05846CBF814A0FDF7EE
:1037F00019FB0020FDF763FB0020FDF70FFB8001A4
:1038000002D50E20BDE8F88F7868B8464FF40079ED
:10381000022801D14D46760A681EB0F5006F01D22C
:10382000054201D02620EDE7284600F086FF0090F3
:10383000814810215746C0E90051083040214FF41B
:10384000806AA0E882047C48FDF7C9FA1020FFF7DF
:1038500052FB2A28D6D158464FF0FF31C0E9001557
:10386000009975480901CBF808100221CBE903172C
:1038700001211430CBF81410FDF7D4FAC8E904572D
:103880006D481121C8F82440C0E90061083040218A
:10389000A0E882046848FDF7A2FA1120FFF72BFB8D
:1038A00006462A28AED1D8F80C004746022811D087
:1038B00001284FD098B371E05046FDF70EFB78B168
:1038C0000025FDF7D3FA44F825006D1C082DF8D328
:1038D000203405E05B4F4FF4004A4C3F40F22A6829
:1038E000396811EA080FE7D00820FDF7F6FA20B191
:1038F0000820FDF7FBFA042084E70220FDF7EDFA2B
:1039000020B10220FDF7F2FA02207BE72020FDF72C
:10391000E4FA28B12020FDF7E9FA062072E728E052
:103920004D464846FDF7D9FA40B12846FDF7DEFA84
:10393000072067E7FDF79AFA01C401E04FF400158C
:103940002846FDF7CAFA0028F4D140F2FF50FDF7EF
:10395000CDFA23E0012148F22A30FDF7B4FAB86924
:1039600010B938782A28FAD038782A2816D038782A
:1039700048E7012140F22A30FDF7A5FA0120FDF7C2
:103980009EFA29462046FFF7D3FE2D4D4FF0C05436
:1039900021462846FDF7D9FB0028F9D0304631E70B
:1039A0002DE9F84F80460C0017461E4657D0234D90
:1039B0002A2028704FF0000AC5F818A01E494FF0C1
:1039C000FF321431C5F810A0C1E9002AC1F808A0DF
:1039D000C1F80CA0C1F810A00846C1F814A0FDF76A
:1039E00021FA0020FDF76BFA0020FDF717FA80019D
:1039F00001D50E2006E76868A946022802D1070211
:103A00004FEA5828781EB0F5006F28D2074226D119
:103A1000384600F092FEDFF820B0009058461021A2
:103A2000C0E900714021CBE9021A0901CBF810105E
:103A3000FDF7D5F9102007E0E40000203000002059
:103A400058640240802C0140FFF755FA05462A28A9
:103A5000D0D1012E3CD97E43B6F1007F01D3262080
:103A6000D0E64F460121C9F82440F848C7E904616F
:103A70008A1EC0E90026009AD14612018260022205
:103A8000C260C0E904A15546FDF7CCF94146CBF828
:103A900000105846D84612214FF0400BC560C0E9CF
:103AA000011BEA484FF4806A1438C8F810A0FDF7EB
:103AB00096F91220FFF71FFA05462A289AD1F968CD
:103AC00040F22A30022912D0012967D0002975D08E
:103AD0008EE04FF40040FDF700FA40B10026FDF7FC
:103AE000C5F944F82600761C082EF8D32034D848AF
:103AF000006840F22A310842EBD00820FDF7EDF9CA
:103B000020B10820FDF7F2F904207BE60220FDF742
:103B1000E4F920B10220FDF7E9F9022072E6202045
:103B2000FDF7DBF920B12020FDF7E0F9062069E67A
:103B30004FF400763046FDF7D0F940B13046FDF73E
:103B4000D5F907205EE6FDF791F901C401E04FF4D5
:103B500000163046FDF7C1F90028F4D14FF480700B
:103B6000FDF7BBF9A8B1786818B1022801D0012887
:103B70000FD149460C2288E80608B448C8E9039AE0
:103B80001438FDF72CF90C20FFF7B5F905462A2863
:103B9000BBD140F2FF50FDF7A9F929E0012148F21D
:103BA0002A30FDF790F9B86910B938782A28FAD088
:103BB00038782A281CD0387824E6FFE70121FDF761
:103BC00082F90120FDF77BF931462046FFF7B0FD71
:103BD000A04E4FF0C05421463046FDF7B6FA0028FB
:103BE000F9D0B8690028E3D138782A28F9D0DFE77E
:103BF000284607E69648006810F4405000D001209F
:103C000070472DE9F05F944F804600252A200C462E
:103C1000164638702A46BD618D49DFF8349208395E
:103C20007D6105E00A6000E04B4618680005F9D4A4
:103C3000FFF7E0FF0028F7D17868022802D10602DA
:103C40004FEA5828DFF804B21021ABF1140B5846A4
:103C50009246C0E900614021CBE902120901CBF88C
:103C60001010FDF7BCF81020FFF745F907462A2889
:103C700006D0014679A000F023FE3846BDE8F09F4B
:103C800058461821C0E900814021CBE9021A6F484B
:103C9000090157461438CBF81010FDF7A0F818208A
:103CA000FFF729F980462A2804D0014673A000F0C6
:103CB00007FE5DE065484FF0FF31C0E90016902136
:103CC000C0E902170121C0E90471FDF7ABF840F229
:103CD0001A6A22E04FF48040FDF7FFF8E8B1C5F51D
:103CE000007020280FD281074FEA900700D07F1C78
:103CF000002605E02068FDF7BDF8761C241D2D1D6B
:103D0000BE420AD2F6E7002654F82600FDF7B2F8C4
:103D1000761C082EF8D320342035D9F8000010EA9C
:103D20000A0FD7D00820FDF7D8F820B10820FDF7FA
:103D3000DDF80420A2E70220FDF7CFF820B1022031
:103D4000FDF7D4F8022099E71020FDF7C6F820B15E
:103D50001020FDF7CBF8052090E74FF400742046C3
:103D6000FDF7BBF820B12046FDF7C0F8072085E736
:103D7000404683E770B5044637482A258068010429
:103D80003248143801600D214160402181600021DA
:103D9000C1604FF480610161FDF721F82C4908688A
:103DA00010F0450FFBD0410702D50324042003E0A7
:103DB000C00705D001242046FDF798F8204670BDC5
:103DC000FDF727F80D282ED140F2FF50FDF78EF8B1
:103DD0000020FDF723F8C0F3432121702F4908424A
:103DE00077D0002801DA1C2070BD410001D50920E0
:103DF00070BD810001D50A2070BDC10001D50B2026
:103E000070BD010101D50C2070BD410101D50D200F
:103E100070BDC10101D50E2070BD010201D50F207A
:103E200070BD410201D5102070BD810201D5112065
:103E300070BDC10201D5122070BD010301D5132050
:103E400070BD41032CD5142070BD0000F800002087
:103E5000342C014058640240300000205344205765
:103E60007269746520426C6F636B20316572726F8A
:103E700072203A2025640D0A0000000053442057A8
:103E80007269746520426C6F636B20326572726F69
:103E900072203A2025640D0A0000000008E0FFFDB2
:103EA000810301D5152070BDC10301D5162070BD59
:103EB000010401D5172070BD410401D5182070BD43
:103EC000810402D5192070BD03E0000701D51A2036
:103ED000F9E72846F7E72DE9FC5F81464FF000003F
:103EE0000C0016461F468DF80000054662D0DFF82C
:103EF000E8A32A228AF800208046CAF81800F74969
:103F0000421ECAF81000C1E900208860C86008613C
:103F100048610846FCF786FF0020FCF7D0FF002030
:103F2000FCF77CFF800102D50E20BDE8FC9FDAF88B
:103F30000400022802D106024FEA5929701EB0F58A
:103F4000006F37D2064235D1304600F0F6FBDFF87D
:103F50008CB30190ABF1140B58461021C0E90061FD
:103F60004021CBE902180901CBF81010FCF737FF0C
:103F70001020FEF7C0FF2A28D7D1D7484FF4806A17
:103F80008068010458464FF0400B01600D21C0E9E4
:103F9000011B0021C0E9031AFCF721FF0D20FEF7E9
:103FA000AAFF2A28C1D1012F5FD907FB06F8B8F173
:103FB000007F01D32620B8E7C74E706818B10128EA
:103FC00001D0022822D1B0680104C448143801602D
:103FD0003721C0E9011B0021C0E9031AFCF7FFFEED
:103FE0003720FEF788FF2A289FD1BC4817211438B4
:103FF000C0F808B0C0E900710021C0E9031AFCF75D
:10400000EEFE1720FEF777FF2A288ED1B34819213C
:1040100014380027C0F808B0C0E900914FF480615F
:10402000C0E90371FCF7DBFE1920FEF764FF2A28C4
:10403000C1D101223462A948C6E90482911EC0E9B7
:1040400000180199B1460901C0E90217C0E90472DC
:10405000BA46FCF7E7FEF16840F21A3002292AD08E
:104060004D46012973D0002970D09BE04FF4804069
:10407000FCF733FF00B3D9F81000401B20280AD307
:10408000002654F82600FCF7F5FE761C082EF8D31F
:104090002034203510E081074FEA900700D07F1CC4
:1040A000002605E02068FCF7E5FE761C241D2D1D8A
:1040B000BE4201D2F6E780468948006810EA080F40
:1040C000D4D00820FCF709FF20B10820FCF70EFF30
:1040D00004202AE70220FCF700FF20B10220FCF7B1
:1040E00005FF022021E71020FCF7F7FE20B1102089
:1040F000FCF7FCFE052018E74FF400742046FCF79F
:10410000ECFE20B12046FCF7F1FE07200DE74FF44E
:104110008070FCF7E2FEE8B3D9F8040018B101287A
:1041200001D002283ED16D48514614380C2280E857
:1041300006084FF48061C0E903A1FCF750FE0C2093
:10414000FEF7D9FE2A28C4D12CE000E00EE00121C0
:1041500044F21A30FCF7B7FEA86910B928782A286B
:10416000FAD028782A281DD02878DEE60121FCF72D
:10417000AAFE0120FCF7A3FE4146204600F0E6FA25
:10418000584E4FF0C05421463046FCF7DEFF002861
:10419000F9D000E006E0A8690028E2D128782A28B2
:1041A000F7D0DEE740F2FF50FCF7A0FE6846FFF7CD
:1041B000E1FD2A288DD19DF800100729F6D00629A7
:1041C000F4D0B2E6454810B5143800210C22C0E9FD
:1041D00000124022C0E9022111010161FCF7FFFD3C
:1041E000BDE810400C20FEF786BE2DE9F84F0546CD
:1041F0003A4800244C388DF8004040680E464FEA9B
:104200001050A046800601D4252029E434483038D7
:1042100000683549C0B2801CB1FBF0F70020FCF704
:10422000FDFD800101D50E201AE42B48DFF8AC908B
:104230004FF0400B4068A9F114094FF4806A02283E
:1042400005D030B1012804D0022802D025E06D0A43
:10425000760A48462021C0E90051C9E902B81F4842
:104260005D461438C9F810A0FCF7B9FD2020FEF710
:1042700042FE2A28C9D109F104002121C9F80060B1
:10428000A0E822011548C9F810A01438FCF7A7FDD2
:104290002120FEF730FE2A28B7D14146262289E8A0
:1042A00006080E48C9E9038A1438FCF798FD262051
:1042B000FEF721FE2A28A8D100E0641CBC42FCD3F2
:1042C0006846FFF757FD2A289FD19DF8001007295F
:1042D000F6D00629F4D018E430000020F8000020C1
:1042E000342C0140586402404019010070B50500AB
:1042F0001BD0FE4880680104FD4801600D2141602B
:10430000402181600021C1604FF480610161FCF7B0
:1043100066FD0D20FEF7EFFD04462A2804D100209B
:10432000FCF77CFD28602046CDE52620CBE52DE975
:10433000F04704460020FCF771FD800102D50E20F5
:10434000BDE8F087EA4E40251020C6E9005006F18E
:10435000080100274FF48068A1E8A0013046FCF76F
:104360003EFD1020FEF7C7FD2A28E9D1DF48B946F7
:10437000311D80684746000430603720C6F8108041
:10438000A1E821023046FCF72AFD3720FEF7B3FDF5
:104390002A28D5D106F114004FF0FF31C0E90015ED
:1043A000602181600221C0E90319A84601214D4620
:1043B0004161FCF737FD0D20C6F80880C6E90050C2
:1043C000C6E903573046FCF70AFD0D20FEF793FDC2
:1043D00006462A28B4D1C74F4FF4004940F22A6854
:1043E000386810EA080F08D00820FCF776FD98B16D
:1043F0000820FCF77BFD0420A2E74846FCF76DFD92
:104400000028EDD00025FCF731FD44F825006D1C97
:10441000082DF8D32034E3E70220FCF75EFD20B13D
:104420000220FCF763FD02208AE72020FCF755FDFF
:1044300020B12020FCF75AFD062081E74FF40075DB
:104440002846FCF74AFD40B12846FCF74FFD0720FF
:1044500076E7FCF70BFD01C401E04FF40015284698
:10446000FCF73BFD0028F4D140F2FF50FCF73EFD85
:10447000403C002054F8201009BA44F82010401C99
:104480001028F7D330465BE72DE9F041974D002423
:10449000E868012840D1C003FCF72CFD58B1FCF7B7
:1044A000E5FC696A41F82400641C082CF7D3686AAB
:1044B000203068622DE04FF48040FCF71BFD58B3BC
:1044C000E9692869411A202918D2E969411A89073E
:1044D000E969A0EB01004FEA90060CD0761C0AE0D7
:1044E000286A0068FCF7C6FC286A641C001D286264
:1044F000E869001DE861B442F2D30DE0286A50F883
:104500002400FCF7B7FC641C082CF7D3286A203081
:104510002862E8692030E8614FF480763046FCF785
:10452000E9FC00244CF23A3848B3E86890B17703CC
:104530003846FCF7D2FC68B1E8692969884209D29B
:10454000FCF794FC0146686A02C06862E869001DD5
:10455000E861EDE7686901280ED02A20287030460E
:10456000FCF7D1FC00214046FCF7ADFC0120A8611E
:10457000EC612878BDE8F081FFF724FEEEE7022029
:10458000FCF7B8FC50B10220FCF7BDFC002140460E
:10459000FCF799FCEC6102202870EBE70820FCF79F
:1045A000A9FC50B10820FCF7AEFC00214046FCF706
:1045B0008AFCEC6104202870DCE72020FCF79AFCE0
:1045C00050B12020FCF79FFC00214046FCF77BFC0B
:1045D000EC6106202870CDE71020FCF78BFC50B171
:1045E0001020FCF790FC00214046FCF76CFCEC61CD
:1045F00005202870BEE74FF400763046FCF77AFCC1
:1046000050B13046FCF77FFC00214046FCF75BFCD4
:10461000EC6107202870ADE72A20ABE770B50C46A7
:10462000344906462A25086810F0450FFBD041079B
:1046300002D50324042003E0C00705D0012420464E
:10464000FCF754FC20463EE4FCF7E3FBB04213D1F8
:1046500040F2FF50FCF74AFC0020FCF7DFFB10F4AF
:10466000604F03D0810405D513202CE44FEA10409D
:10467000208007E0410401D5102024E4000401D586
:104680000F2020E428461EE47CB501210C20FCF715
:10469000A0FA194D0C2208212846FBF7B6FF0C2280
:1046A00009212846FBF7B1FF0C220A212846FBF717
:1046B000ACFF0C220B212846FBF7A7FF0C2211466A
:1046C0002846FBF7A2FF0D4E0C2202213046FBF7D5
:1046D0009CFF4FF470600121009002208DF80510BE
:1046E0008DF8040000248DF8064009E03000002019
:1046F000E4000020342C014000080240000C02407D
:104700008DF8071069462846FBF70EFF042000903D
:1047100069463046FBF708FFA81400908DF8074063
:1047200069462846FBF700FF0121C802FCF779FA29
:1047300001218805FCF74DFA7CBD002102E040080C
:10474000491CC9B20128FAD10846704730B51D4D41
:1047500004468FB04FF0FA512846FCF70BFD0021BC
:104760002846FCF7A3FC2846FCF7E0FB4FF000606E
:1047700000901548CDE90104402003900020291540
:104780000490CDE90501890007918900CDE9081061
:104790004FF440300A9004200B9003200C90480204
:1047A0000D9080100E9069462846FCF746FC2021AB
:1047B0002846FCF78FFC01212846FCF777FC0FB058
:1047C00030BD000058640240802C014070B50121CA
:1047D00086B00846FCF7FDF901210846FCF7F9F917
:1047E00001211020FCF71DFA324E07220921304624
:1047F000FBF70BFF07220A213046FBF706FF701577
:10480000009002208DF8040000248DF806408DF8F9
:10481000050001258DF8075069463046FBF784FEF8
:10482000A80200908DF806508DF807406946304682
:10483000FBF77AFE4FF4E130ADF80C400290ADF892
:104840000E40ADF81040ADF814400C201A4CADF8F5
:10485000120002A92046FBF734FF012240F2255145
:104860002046FCF743F801212046FBF7A0FF06B0E5
:1048700070BD08B525208DF8000000208DF80100DE
:104880008DF8020001208DF803006846FBF799FDC2
:1048900008BD704770B5084D0446C1B22846FBF705
:1048A000ACFF40212846FCF739F80028F9D0204613
:1048B00070BD000000000240001001407047000081
:1048C0000FB4044910B503AA029800F047F910BCD0
:1048D0005DF814FB580000202DE9F04104460E4617
:1048E00000200AE0E1682046884738B3252806D032
:1048F000D4E901219047206A401C2062F2E7E16878
:10490000204600278847050018D0A5F14100192846
:1049100002D820354FF400673246294620462760EA
:10492000FBF76AFC40B1012804D0F61D26F007060B
:104930000836D7E7361DD5E72846D9E7206ABDE80F
:10494000F08170B505460C46012A05D0286880061E
:1049500000D5EA69002302E0012305E05B1C9342D5
:1049600002D2E05C0028F9D1A869E618C01AA86153
:10497000286A184428622846AFF3008004E0D5E98D
:10498000012114F8010B9047B442F8D32846AFF345
:10499000008070BD2DE9F04107460025106875299B
:1049A000394616A411D0AFF30080002803DAC0F115
:1049B000000013A407E039688A0701D511A402E0BA
:1049C000490704D510A4012501E0AFF300800021C0
:1049D0000A2307F1240607E0B0FBF3F203FB120001
:1049E000303070541046491C0028F5D12B46224621
:1049F0003846BDE8F04100F03FB80000000000007C
:104A00002D0000002B0000002000000010B5203A0F
:104A1000C0F00B80B1E81850203AA0E81850B1E877
:104A20001850A0E81850BFF4F5AF5FEA027C24BF2D
:104A3000B1E81850A0E8185044BF18C918C0BDE824
:104A400010405FEA827C24BF51F8043B40F8043BED
:104A500008BF7047D20728BF31F8023B48BF11F8A2
:104A6000012B28BF20F8023B48BF00F8012B7047FC
:104A700070477047704770472DE9F0470D46044670
:104A80009246994600F124080168880604D5E06939
:104A900021F01001216000E00120A84202DDA0EB1E
:104AA000050700E00027A16907EB050202EB0900FA
:104AB000A1EB0000A0612068C00602D42046AFF33D
:104AC0000080002608E0D4E901211AF8060090478A
:104AD000206A401C761C20624E45F4DB2068C0062C
:104AE0000AD52046AFF3008006E0D4E9012130204A
:104AF0009047206A401C2062381EA7F10107F4DCB1
:104B000007E0D4E9012118F805009047206A401C0D
:104B10002062281EA5F10105F3DC2046AFF30080DA
:104B20002068000602D50220BDE8F0870120FBE7DF
:104B300010B5436913B1AFF3008001E0FFF701FF47
:104B4000012010BD126800F124010A7000224A7091
:104B50000122EDE711684FF0FF32E9E7074B70B52E
:104B60000C467B4400F011F80546204600F020F882
:104B700010B14FF0FF3070BD284670BD2FFDFFFF14
:104B800001694A1C02610878704700B58FB0CDE911
:104B900001310021059105497944CDE90310114601
:104BA0006846FFF799FE0FB000BD0000E5FFFFFF6C
:104BB000C06800F080007047754600F029F8AE46E6
:104BC00005006946534620F00700854618B020B519
:104BD000FBF73EFBBDE820404FF000064FF000071A
:104BE0004FF000084FF0000B21F00701AC46ACE895
:104BF000C009ACE8C009ACE8C009ACE8C0098D4602
:104C000070470446AFF300802046FBF70CFB000022
:104C10000048704710010020004870471401002030
:104C200010B5FFF7F9FF4FF00001016010BD000063
:104C3000504C0008000000205C000000C00100088B
:104C4000AC4C00085C00002014070000DC010008E8
:104C5000000E27070000000000000000010203040E
:104C60000607080900000000010203040102030412
:104C70000607080900000000000000000000000016
:104C80002A000000000000000000000002000000F8
:104C90000000000000000000000000000000000014
:0C4CA00000000000000000000000000008
:040000050800018569
:00000001FF
