:020000040800F2
:1000000068130020AD220008FD070008FF07000864
:1000100001080008030800080508000800000000A7
:1000200000000000000000000000000007080008B9
:1000300009080008000000000B0800080D0800086F
:10004000C7220008C7220008C7220008C7220008EC
:10005000C7220008C7220008C7220008C7220008DC
:10006000C7220008C7220008C7220008C7220008CC
:10007000C7220008C7220008C7220008C7220008BC
:10008000C7220008C7220008C7220008C7220008AC
:10009000C7220008C7220008C7220008C72200089C
:1000A000C7220008C7220008C7220008C72200088C
:1000B000C7220008C7220008C7220008C72200087C
:1000C000C7220008C7220008C7220008C72200086C
:1000D000C72200080F080008C7220008C72200082E
:1000E000C7220008C7220008C7220008C72200084C
:1000F000C7220008C7220008C7220008C72200083C
:10010000C722000837080008C7220008C7220008D5
:10011000C7220008C7220008C7220008C72200081B
:10012000C7220008C7220008C7220008C72200080B
:10013000C7220008C7220008C7220008C7220008FB
:10014000C7220008C7220008C7220008C7220008EB
:10015000C7220008C7220008C7220008C7220008DB
:10016000C7220008C7220008C7220008C7220008CB
:10017000C7220008C7220008C7220008C7220008BB
:10018000C722000800F002F800F047F80AA090E843
:10019000000C82448344AAF10107DA4501D100F042
:1001A0003CF8AFF2090EBAE80F0013F0010F18BFC8
:1001B000FB1A43F001031847203A0000403A0000C0
:1001C000103A24BF78C878C1FAD8520724BF30C883
:1001D00030C144BF04680C60704700000023002455
:1001E00000250026103A28BF78C1FBD8520728BF47
:1001F00030C148BF0B607047642903F00F81782934
:1002000003F04881632903F08682002070471FB500
:1002100003F03FFB1FBD10B510BD03F000FB1146FE
:10022000FFF7F5FF00F039F803F01EFB03B4FFF70A
:10023000F2FF03BC02F025F800E0401E0028FCD1CC
:10024000704708B54FF4C06002F050F831208DF8C7
:10025000000000208DF801008DF8020001208DF8CB
:100260000300684602F047F808BD1CB501212020B4
:1002700002F050FC4FF47070009001208DF80400E3
:1002800000208DF8060003218DF805108DF8070079
:100290006946A54802F0E4F81CBD01F08FFFFFF7A6
:1002A000D0FFA24803F05CF8A14C204602F045FACA
:1002B0007928FAD100F0E0FC9E4C014620709EA007
:1002C00003F04EF82078A64D4FF480694FF4007784
:1002D0002A2876D1A3A003F043F8A5F5056000F025
:1002E000EDFC20700146ABA003F03AF820782A28F4
:1002F00067D1A5F608068D48B279C430316803F09D
:100300002FF8B088000400F04CFF20700146ABA02D
:1003100003F026F820782A2853D1B2A003F020F861
:10032000B80000F0F8FE20700146B9A003F018F8FC
:1003300020782A2845D1C2A003F012F839460020BF
:1003400001F04EFC20700146CBA003F009F82078A4
:100350002A2836D10021D04803F002F8002000F00E
:1003600014FF20700146CDA002F0FAFF20782A2861
:1003700027D1D4A002F0F4FFFE224946284603F01C
:1003800059F902233A462946002001F056F8207018
:100390000146D8A002F0E4FF20782A2811D1BE48F7
:1003A00000214C3002F0DCFF0026314655F82620B3
:1003B000DBA002F0D5FF761CFF2EF6D9CBA002F011
:1003C000CFFF88223946DA4803F034F920782A280A
:1003D00032D13A46D649002001F05BF9207001463F
:1003E000D4A002F0BDFF20782A2825D1AA480021F8
:1003F000A03002F0B5FF3A46D749002000F023FFB5
:1004000020700146D5A002F0ABFF20782A2813D136
:10041000A1480021EC3002F0A3FFDFF83C83002666
:10042000314658F82620BEA002F09AFF761C802E96
:10043000F6D3AEA002F094FF66224E464946D0485D
:1004400003F0F8F820782A2834D102233A46CC4920
:10045000304601F02DFA20700146CAA002F080FF5C
:1004600020782A2826D10221D14802F079FF0223E0
:100470003A463B49304600F0E0FF20700146CDA0EF
:1004800002F06EFF20782A2814D1C94802215C307E
:1004900002F066FF0024214655F82420A0A002F0B7
:1004A0005FFF641CFF2CF6D990A002F059FFCCA08E
:1004B00002F056FFFFF7D9FE1B4ECE4CCE4D4FF447
:1004C00080784021304602F02DF88021304602F03D
:1004D00029F84146304602F025F83946304602F008
:1004E00021F82046401EFDD12046401EFDD1284661
:1004F000401EFDD14021304602F016F880213046E2
:1005000002F012F84146304602F00EF83946304605
:1005100002F00AF82046401EFDD12146491EFDD1B9
:100520002846401EFDD1CCE700140240A038000848
:100530000010014001000020202020200D0A0D0A9B
:1005400030312E202D2D2D2D2D2053445F496E69E5
:1005500074205374617475733A25640D0A000000A9
:10056000A408002020202020202020202020496EC8
:10057000697469616C697A652053442063617264AF
:10058000207375636365737366756C6C79210D0AEE
:100590000D0A000030322E202D2D2D2D2D205344FC
:1005A0005F47657443617264496E666F205374617E
:1005B0007475733A25640D0A0000000030332E2054
:1005C0002D2D2D2D2D2053445F53656C6563744490
:1005D0006573656C656374205374617475733A2533
:1005E000640D0A0020202020202020202020536598
:1005F0006C65637420534420636172642073756377
:100600006365737366756C6C79210D0A0D0A0000C1
:1006100030342E202D2D2D2D2D2053445F456E611D
:10062000626C65576964654275734F706572617479
:10063000696F6E205374617475733A25640D0A00F6
:1006400020202020202020202020456E61626C6523
:10065000207769646520627573206F7065726174BC
:10066000696F6E207375636365737366756C6C79FF
:10067000210D0A0D0A00000030352E202D2D2D2DC4
:100680002D2053445F457261736520537461747506
:10069000733A25640D0A0000C039000830362E2058
:1006A0002D2D2D2D2D2053445F536574446576699F
:1006B00063654D6F6465205374617475733A256486
:1006C0000D0A00002020202020202020202053651B
:1006D000742053442063617264206D6F64652073DD
:1006E00075636365737366756C6C79210D0A0D0A09
:1006F0000000000030372E202D2D2D2D2D205344AD
:100700005F526561644D756C7469426C6F636B73A5
:10071000205374617475733A25640D0A000000005B
:10072000253032783A3078253038782000000000C3
:10073000A400002030382E202D2D2D2D2D205344A7
:100740005F5772697465426C6F636B205374617498
:1007500075733A25640D0A00A402002030392E205A
:100760002D2D2D2D2D2053445F52656164426C6FF9
:10077000636B205374617475733A25640D0A00002D
:10078000A404002031302E202D2D2D2D2D2053445A
:100790005F57726974654D756C7469426C6F636BF9
:1007A00073205374617475733A25640D0A00000058
:1007B000F03A000831312E202D2D2D2D2D205344BF
:1007C0005F526561644D756C7469426C6F636B73E5
:1007D000205374617475733A25640D0A000000009B
:1007E0002D2D2D2D2D205344205375636365656495
:1007F000210D0A00FFFF0F00FFFF05007047FEE715
:10080000FEE7FEE7FEE7704770477047704710B598
:100810000A4C40F22551204602F026F8002809D063
:10082000204601F08AFFC1B205A002F099FD1249ED
:100830000120087010BD01F021BB00000010014034
:100840000A0D55534152542048797065727465728F
:100850006D696E616C20496E746572727570747327
:100860002052656365697665206120776F72643A0E
:100870002025630A0D0000000000002010B5F94A91
:100880002A24D2F8341C11F0450FFAD0480702D5BB
:100890000324042003E0C80705D00124204602F009
:1008A000E7FA204610BD40F2FF50F8E72DE9F84F77
:1008B00001202A24ADF8000002F054FAB8B3DFF8A2
:1008C000A893D9F8040004286ED0E84D4FF0C00A70
:1008D00000260220C5F808A0C5E900604FF4806832
:1008E000C5E90368284602F042FAFFF7C7FF04464D
:1008F0002A281ED1002002F05AFAA5F128073860F4
:10090000042002F054FA7860082002F050FAB8602F
:100910000C2002F04CFAF860D9F804004F4650B1B0
:10092000012808D0062806D0022804D015E0FFE7E9
:100930002520BDE8F88F0320C5E9006005F1080116
:100940004020A1E84101C94802F011FA694603209C
:1009500001F05EFB04462A28EBD17868042823D0F6
:10096000BDF80000B860000428600920C5E9010A4C
:10097000C5E90368BD4802F0FAF9FFF77FFF0446B6
:100980002A28D6D1002002F012FAB84D383D28604E
:10099000042002F00CFA6860082002F008FAA8604F
:1009A0000C2002F004FAE8602046C2E770B5AD49B9
:1009B00005462A24D1F8340C10F0450FFAD041072F
:1009C00002D50324042003E0C00704D001242046FC
:1009D00002F04EFA59E002F0E6F9A8422BD140F2BB
:1009E000FF5002F045FA002002F0E1F9A049084268
:1009F0004BD0002801DA1C2070BD410001D5092030
:100A000070BD810001D50A2070BDC10001D50B2049
:100A100070BD010101D50C2070BD410101D50D2033
:100A200070BDC10101D50E2070BD010201D50F209E
:100A300070BD410201D5102070BD810201D5112089
:100A400070BDC10201D5122070BD010301D5132074
:100A500070BD410301D5142070BD810301D515205F
:100A600070BDC10301D5162070BD010401D517204A
:100A700070BD410401D5182070BD810401D5192035
:100A800070BD000701D51A2070BD204670BD2DE94C
:100A9000F05F00277548B2211838BB460175076022
:100AA00047608760C7603D463E46B8465C46076182
:100AB00002F028F9032002F04BF9012002F045F979
:100AC000DFF8A8A14FF480615046CAF80040CAF888
:100AD0000440CAF80840CAE9034102F048F92A2054
:100AE000814642F2107401E0641E25D0802002F09D
:100AF000B7F90028F8D0FCB140F2FF5002F0B8F985
:100B000048462A287ED14FF4D571CAF80010082132
:100B1000CAF804104021CAE9021B0901D146534812
:100B2000CAF8101002F023F94E4A2A2442F210703B
:100B3000D2F8341C924605E00320E2E7DAF8341CD0
:100B4000A0F1010011F0450F05D008B1480705D507
:100B50000324042006E00028F0D1F9E7480603D575
:100B60002A24402002F084F92A2C27D04846372135
:100B7000C0E900B14021C9E9021B09013B48C9F89D
:100B8000101002F0F4F83720FFF710FFCB4648466C
:100B90004FF0400900223721C0F80890C0E9002139
:100BA0004FF48061C0E90321304802F0E0F83720BB
:100BB000FFF7FCFE04462A283FD050E02A480121D6
:100BC000416088078046E1E75C4600263720CBF885
:100BD0000890C4E900604FF480672448C4E90367C3
:100BE00002F0C5F83720FFF7E1FE2A282FD121496E
:100BF00048EA010020602920C4E90109C4E903672B
:100C00001A4800E023E002F0B2F82A245146D1F855
:100C1000340C10F0450FFAD0400702D5032404200D
:100C200001E040F2FF5002F023F92A2C17D10020F6
:100C300002F0BDF8C60F07466D1C1EB94FF6FF70D7
:100C40008542C1D34FF6FF70854202D31B20BDE819
:100C5000F09F17F0804F02D00348022141602046E8
:100C6000F5E700000020014004000020DC0C00201B
:100C700008E0FFFD0000108010B501F000FA02F05E
:100C800035F8FFF704FF2A2810D1FFF70FFE0446BE
:100C90002A280BD1FF480121017500210160416024
:100CA0008160C160016102F02DF8204610BD10B5D1
:100CB0002A24002002F04CF8204610BD2DE9F04710
:100CC000F549DFF8D0A34FF02A0C4B6880F84E307E
:100CD0008968AAF1200AA0F84C10DAF800100A0E70
:100CE00095090570C2F38305457002F00302827016
:100CF0000A0CC2700A0A02714171DAF80420110E5E
:100D00000901C180C488C2F3074144EA1114C480B8
:100D100001F00F010172C2F30721CC094472C1F343
:100D200080148472C1F34014C472C1F300140473BC
:100D30004FF0000880F80D8054464FF00109A46878
:100D4000250EC4F30746C4F3072723B1012B02D0B5
:100D5000022B2BD03CE08907090D0161D1B2026959
:100D600042EA81010161016941EA95110161C5F31E
:100D7000C201017505F00701417571098175C6F35E
:100D80008201C175B107490F0176027E394642EAF8
:100D9000D11202760369027E5B1C921C057A934095
:100DA00009FA05F25343C0E9113211E09106890AAC
:100DB0000161016941EA0521016101693143016174
:100DC00002693946521CD20442644FF400728264B4
:100DD00000F11800C1F3801242704FEA81614FEABE
:100DE000516181708378E1B243EAD113837001F0DD
:100DF0007F01C170DAF80C204FEA12614FEAD1137B
:100E00000371C1F341134371C1F3820383714FEA4C
:100E100081714FEA1171C171C379C2F3074143EA8D
:100E20009113C371C1F34013037280F8098001F07C
:100E300001018172C2F307214FEAD113C372C1F3DA
:100E400080130373C1F340134373C1F3001383731F
:100E5000C1F38103C37301F003010174C2F34601BE
:100E600041744B4680F812908A4AA2F11002116830
:100E70004FEA11640475C1F307444FEA0424C482A5
:100E8000C58AC1F3072445EA0405C5824FEA01611A
:100E90008161516885694FEA116445EA04448461BF
:100EA0008569C1F3074445EA042484618569C1F377
:100EB000072445EA04058561017791684FEA1164CA
:100EC0004477C1F307444FEA04640462056AC1F33E
:100ED000072445EA04440462046AC9B244EA0121D1
:100EE0000162D168046A44EA1164046290F8244003
:100EF000C1F3074244EA121480F824404FEA027218
:100F00004FEA1252C284C48CC1F3072244EA02049D
:100F1000C484C1F3460180F8281080F82930604667
:100F2000BDE8F0872DE9FC4700245A4F009418379C
:100F30004FF0080A019410204FF04008C7F800A0B5
:100F4000C7E901084FF48069C7E903490E46254601
:100F5000384601F00CFF1020FFF728FD2A2842D167
:100F60004D488068000438603720C7E90108C7E9A8
:100F70000359384601F0FBFE3720FFF717FD2A28FA
:100F800031D107F11400611EC0E9001A30218160DF
:100F90000221C0E903150121416101F00CFF33205A
:100FA000C7E90050C7F81090C7E90285384601F03C
:100FB000DEFE3320FFF7FAFC05462A2813D1DFF8BE
:100FC000DC804FF4001A6F4640F22A69D8F8340CDE
:100FD00010EA090F09D0082001F042FF80B1082073
:100FE00001F046FF0420BDE8FC87504601F038FFC1
:100FF0000028EBD001F003FF47F82400641CE5E76C
:10100000022001F02DFF20B1022001F031FF02206B
:10101000E9E7202001F024FF20B1202001F028FF83
:101020000620E0E74FF40074204601F019FF20B1DC
:10103000204601F01DFF0720D5E740F2FF5001F0E8
:1010400017FF009800BA7060019800BA3060284617
:10105000C9E72DE9FC47002481460094204601940D
:1010600001F0A5FE800101D50E20BCE70A4D6946BE
:10107000A86880B2FFF756FF2A28B4D1054E372062
:1010800018364FF0060A4FF040084FF48067B9F168
:10109000010F05E0C40C00200400002000200140E6
:1010A00001991ED0C90334D5A968C6F8088009047F
:1010B000C6E90010C6E90347304601F058FE372064
:1010C000FFF774FC2A288ED1C6F80880C6E9004ACA
:1010D000C6E90347FF4801F04AFE0620FFF766FC19
:1010E00081E7490315D5A968C6F808800904C6E94F
:1010F0000010C6E90347F74801F039FE3720FFF733
:1011000055FC2A28B1D10220C6F80880C6E9000A99
:10111000DEE7252067E72DE9F0410146EE482A2465
:101120004068032816D018B1012801D002282AD11E
:10113000B1F5805F0ED0E74D4FF40068002601271F
:10114000183D41450FD10120FFF783FF04462A28AF
:1011500003D018E02720BDE8F0812F752E606E6067
:10116000C5E902680AE00020FFF773FF04462A2859
:1011700009D12F752E606E60AE60EE60D5482E618D
:10118000183801F0BFFD2046E5E72A2130B10128DB
:1011900004D0022802D0262108467047CE4AD060EB
:1011A000FAE7CC4910B50860072048604020886005
:1011B0000020C8604FF480600861084601F0D7FD48
:1011C000BDE810400720FFF7F1BB30B5C34D044622
:1011D0008FB04FF0FA51284601F0A7FF00212846B2
:1011E00001F03FFF284601F07BFE4FF000600090C9
:1011F000BB48CDE901040020039029150490CDE9F6
:101200000501890007918900CDE908104FF44030AD
:101210000A9004200B9003200C9048020D9080103F
:101220000E906946284601F0E3FE6946284601F023
:10123000DFFE2021284601F028FF0121284601F089
:1012400010FF0FB030BD2DE9F84F06460C001546D3
:1012500035D0A14F2A2038704FF0000AC7F818A0E7
:10126000DFF870B24FF0FF320BF1140B5946C7F89C
:1012700010A0C1E9002ACBF808A0CBF80CA0CBF84D
:1012800010A05846CBF814A001F095FD002001F005
:10129000D9FD002001F08BFD800102D50E20BDE8B4
:1012A000F88F7868B8464FF40079022801D14D468E
:1012B000760A681EB0F5006F01D2054201D02620E3
:1012C000EDE7284600F029FF00908248102157469C
:1012D000C0E90051083040214FF4806AA0E8820440
:1012E0007C4801F044FD1020FFF760FB2A28D6D18E
:1012F00058464FF0FF31C0E90015009975480901C3
:10130000CBF808100221CBE9031701211430CBF8E8
:10131000141001F050FDC8E904576E481121C8F8B7
:101320002440C0E9006108304021A0E882046948F7
:1013300001F01DFD1120FFF739FB06462A28AED12A
:10134000D8F80C004746022811D001284FD098B396
:1013500071E0504601F084FD70B1002501F04FFDB1
:1013600044F825006D1C082DF8D3203404E05D4FAF
:101370004FF4004A40F22A68D7F8341C11EA080FEB
:10138000E7D0082001F06CFD20B1082001F070FDCD
:10139000042084E7022001F063FD20B1022001F067
:1013A00067FD02207BE7202001F05AFD28B12020B4
:1013B00001F05EFD062072E728E04D46484601F048
:1013C0004FFD40B1284601F053FD072067E701F0CB
:1013D00016FD01C401E04FF40015284601F040FD60
:1013E0000028F4D140F2FF5001F042FD23E001213A
:1013F00048F22A3001F029FDB86910B938782A2856
:10140000FAD038782A2816D0387848E7012140F2F7
:101410002A3001F01AFD012001F014FD2946204672
:10142000FFF7D3FE2D4D4FF0C0542146284601F062
:1014300067FE0028F9D0304631E72DE9F84F8046A5
:101440000C0017461E465AD0234D2A2028704FF014
:10145000000AC5F818A01F494FF0FF321431C5F833
:1014600010A0C1E9002AC1F808A0C1F80CA0C1F879
:1014700010A00846C1F814A001F09DFC002001F066
:10148000E1FC002001F093FC800101D50E2006E76D
:101490006868A946022803D107024FEA582080460F
:1014A000781EB0F5006F2AD2074228D1384600F0E6
:1014B00034FEDFF820B0009058461021C0E90071DA
:1014C0004021CBE9021A0901CBF8101001F04FFCC2
:1014D000102009E0DC0C00200400002058640240C9
:1014E000802C014000200140FFF760FA05462A28C1
:1014F000CDD1012E3BD97E43B6F1007F01D326200A
:10150000CDE64F460121C9F82440FF48C7E90461F0
:101510008A1EC0E90026009AD1461201826002228A
:10152000C260C0E904A1554601F045FC4146CBF834
:101530000010D846584612214FF0400BC0E9011B5D
:101540004FF4806AC0E9035AEF48143801F00FFCE9
:101550001220FFF72BFA05462A2898D1F96840F2A5
:101560002A30022912D0012967D0002975D08EE0D7
:101570004FF4004001F074FC40B1002601F03FFC44
:1015800044F82600761C082EF8D32034DF48006883
:1015900040F22A310842EBD0082001F061FC20B172
:1015A000082001F065FC042079E6022001F058FCD7
:1015B00020B1022001F05CFC022070E6202001F046
:1015C0004FFC20B1202001F053FC062067E64FF4C9
:1015D0000076304601F044FC40B1304601F048FC52
:1015E00007205CE601F00BFC01C401E04FF400169B
:1015F000304601F035FC0028F4D14FF4807001F042
:101600002FFCA8B1786818B1022801D001280FD1A9
:1016100049460C2288E80608BB48C8E9039A1438F2
:1016200001F0A5FB0C20FFF7C1F905462A28BBD124
:1016300040F2FF5001F01CFC29E0012148F22A3061
:1016400001F003FCB86910B938782A28FAD0387844
:101650002A281CD0387822E6FFE7012101F0F5FBAB
:10166000012001F0EFFB31462046FFF7AEFDA84E0A
:101670004FF0C0542146304601F042FD0028F9D019
:10168000B8690028E3D138782A28F9D0DFE728465E
:1016900005E62DE9F05F0C469E49154600262A22F4
:1016A0000A7037468E61DFF870924E61C9F82C6C73
:1016B00049684FF4007A022901D15546400A9249FF
:1016C00014390860182048604020C1E90207000171
:1016D0000861084601F04BFB1820FFF767F98046C8
:1016E0002A283FD188484FF0FF31C0E900159021EA
:1016F000C0E902170121C0E9047101F05CFB40F26E
:101700001A6B22E04FF4804001F0AAFBE8B1C6F565
:10171000007020280FD281074FEA900700D07F1C6D
:10172000002505E0206801F06DFB6D1C241D361DB1
:10173000BD420AD2F6E7002554F8250001F062FB0D
:101740006D1C082DF8D320342036D9F8340C10EA5B
:101750000B0FD7D0082001F083FB28B1082001F03F
:1017600087FB0420BDE8F09F022001F079FB20B147
:10177000022001F07DFB0220F4E7102001F070FB55
:1017800020B1102001F074FB0520EBE754465046D1
:1017900001F066FB20B1204601F06AFB0720E1E77B
:1017A0004046DFE770B504465A482A2580680104A0
:1017B0005548143801600D214160402181600021AD
:1017C000C1604FF48061016101F0D1FA5249D1F852
:1017D000340C10F0450FFAD0410702D50324042041
:1017E00003E0C00705D00124204601F041FB20465C
:1017F00070BD01F0D8FA0D282ED140F2FF5001F053
:1018000037FB002001F0D3FAC0F343212170434994
:1018100008424BD0002801DA1C2070BD410001D5E0
:10182000092070BD810001D50A2070BDC10001D51D
:101830000B2070BD010101D50C2070BD410101D507
:101840000D2070BDC10101D50E2070BD010201D572
:101850000F2070BD410201D5102070BD810201D55D
:10186000112070BDC10201D5122070BD010301D548
:10187000132070BD410301D5142070BD810301D533
:10188000152070BDC10301D5162070BD010401D51E
:10189000172070BD410401D5182070BD810401D509
:1018A000192070BD000701D51A2070BD284670BDF3
:1018B0002DE9FC5F81464FF000000C0016461F46E4
:1018C0008DF8000005466DD0DFF848A02A228AF87E
:1018D00000208046CAF818000B49421ECAF81000C2
:1018E000C1E900208860C86008614861084601F0CD
:1018F00062FA002001F0A6FA002001F058FA8001F7
:101900000ED50E20BDE8FC9FF00C0020342C0140C9
:1019100058640240040000200020014008E0FFFD60
:10192000DAF80400022803D106024FEA5920814662
:10193000701EB0F5006F35D2064233D1304600F04C
:10194000ECFBDFF820B4019058461021C0E900619B
:101950004021CBE902180901CBF8101001F007FA79
:101960001020FFF723F82A28CCD1FF484FF4806AD3
:101970008068010458464FF0400B01600D21C0E91A
:10198000011B0021C0E9031A01F0F1F90D20FFF756
:101990000DF82A28B6D1012F5DD907FB06F8B8F15A
:1019A000007F01D32620ADE7EF4E706818B1012803
:1019B00001D0022820D1B0680104EA480160372133
:1019C000C0E9011B0021C0E9031A01F0D0F937205A
:1019D000FEF7ECFF2A2895D1E2481721C0F808B09D
:1019E000C0E900710021C0E9031A01F0C0F9172015
:1019F000FEF7DCFF2A2885D1DA4819210027C0F834
:101A000008B0C0E900914FF48061C0E9037101F0B2
:101A1000AEF91920FEF7CAFF2A28C4D10122D14805
:101A20003462C6E904821430911EC0E9001801999D
:101A3000B1460901C0E90217C0E90472BA4601F0D3
:101A4000BAF9F16840F21A3002292AD04D4601292C
:101A500072D000297FD09AE04FF4804001F000FA64
:101A600000B3D9F81000401B20280AD3002654F8F0
:101A7000260001F0C7F9761C082EF8D32034203553
:101A800010E081074FEA900700D07F1C002605E098
:101A9000206801F0B7F9761C241D2D1DBE4201D22D
:101AA000F6E78046B148006810EA080FD4D0082055
:101AB00001F0D6F920B1082001F0DAF9042021E77D
:101AC000022001F0CDF920B1022001F0D1F902206D
:101AD00018E7102001F0C4F920B1102001F0C8F976
:101AE00005200FE74FF40074204601F0B9F920B14A
:101AF000204601F0BDF9072004E74FF4807001F0A3
:101B0000AFF9F0B3D9F8040018B1012801D00228C8
:101B10003DD1944851460C2280E806084FF480617C
:101B2000C0E903A101F023F90C20FEF73FFF2A28AA
:101B3000C5D12CE000E00EE0012144F21A3001F0A2
:101B400084F9A86910B928782A28FAD028782A2890
:101B50001DD02878D6E6012101F077F9012001F0A7
:101B600071F94146204600F0E1FA814E4FF0C05431
:101B70002146304601F0C4FA0028F9D0A8690028AF
:101B800000E004E0E2D128782A28F7D0DEE740F22E
:101B9000FF5001F06DF96846FFF704FE2A288ED148
:101BA0009DF800100729F6D00629F4D0AAE66F4860
:101BB000006810F4405000D001207047694810B50B
:101BC00000210C22C0E900124022C0E902211101CB
:101BD000016101F0CCF8BDE810400C20FEF7E6BE34
:101BE0002DE9F84F05465F48002438388DF800404D
:101BF00040680E464FEA1050A046800601D42520CA
:101C000003E45C4800685C49C0B200F10200B1FB2B
:101C1000F0F74FF0000001F0CAF8800101D50E2066
:101C20000AE45148DFF83C914FF0400B40684FF414
:101C3000806A022805D030B1012804D0022802D0E1
:101C400023E06D0A760A48462021C0E90051C9E91F
:101C500002B85D464348C9F810A001F088F820207A
:101C6000FEF7A4FE2A28DBD109F104002121C9F8DE
:101C70000060A0E822013B48C9F810A001F077F805
:101C80002120FEF793FE2A28CAD14146262289E860
:101C90000608C9E9038A334801F069F82620FEF7EF
:101CA00085FE2A28BCD100E0641CBC42FCD36846F7
:101CB000FFF778FD2A28B3D19DF800100729F6D048
:101CC0000629F4D01CE470B505001BD026488068B6
:101CD0000104244801600D21416040218160002100
:101CE000C1604FF48061016101F041F80D20FEF701
:101CF0005DFE04462A2804D1002001F058F828602F
:101D0000204670BD262070BD2DE9F0470446002016
:101D100001F04DF8800102D50E20BDE8F087114E8C
:101D200040251020C6E9005006F1080100274FF4B5
:101D30008068A1E8A001304601F019F81020FEF7F4
:101D400035FE2A28E9D10848311DB94680680004CB
:101D500030603720A1C147463046C6F8108001F0F8
:101D600006F80BE0DC0C002004000020342C0140BD
:101D700058640240042C0140401901003720FEF74E
:101D800015FE2A28C9D106F114004FF0FF31C0E931
:101D90000015602181600221C0E90319A8460121D4
:101DA0004D46416101F007F80D20C6F80880C6E9EC
:101DB0000050C6E90357304600F0D9FF0D20FEF76A
:101DC000F5FD06462A28A8D1F64F4FF4004940F207
:101DD0002A68D7F8340C10EA080F08D0082001F060
:101DE0003FF898B1082001F043F8042095E74846F1
:101DF00001F036F80028ECD0002501F000F844F896
:101E000025006D1C082DF8D32034E2E7022001F0F4
:101E100027F820B1022001F02BF802207DE72020D6
:101E200001F01EF820B1202001F022F8062074E70E
:101E30004FF40075284601F013F840B1284601F030
:101E400017F8072069E700F0DAFF01C401E04FF45A
:101E50000015284601F004F80028F4D140F2FF50A4
:101E600001F006F8403C002054F8201009BA44F86C
:101E70002010401C1028F7D330464EE72DE9F041E2
:101E8000C94D0024E868012840D1C00300F0F3FFE9
:101E900058B100F0B4FF696A41F82400641C082CB2
:101EA000F7D3686A203068622DE04FF4804000F07C
:101EB000E2FF58B3E9692869411A202918D2E96973
:101EC000411A8907E969A0EB01004FEA90060CD09E
:101ED000761C0AE0286A006800F094FF286A641CF7
:101EE000001D2862E869001DE861B442F2D30DE0EC
:101EF000286A50F8240000F085FF641C082CF7D3F2
:101F0000286A20302862E8692030E8614FF4807642
:101F1000304600F0B0FF00244CF23A3848B3E8688D
:101F200090B17703384600F09BFF68B1E8692969F2
:101F3000884209D200F063FF0146686A02C0686205
:101F4000E869001DE861EDE7686901280ED02A20E4
:101F50002870304600F097FF0021404600F075FFE2
:101F60000120A861EC612878BDE8F081FFF726FE2A
:101F7000EEE7022000F07FFF50B1022000F083FF67
:101F80000021404600F061FFEC6102202870EBE781
:101F9000082000F070FF50B1082000F074FF00210D
:101FA000404600F052FFEC6104202870DCE720205E
:101FB00000F061FF50B1202000F065FF0021404695
:101FC00000F043FFEC6106202870CDE7102000F000
:101FD00052FF50B1102000F056FF0021404600F0A3
:101FE00034FFEC6105202870BEE74FF400763046E0
:101FF00000F041FF50B1304600F045FF002140465F
:1020000000F023FFEC6107202870ADE72A20ABE742
:1020100070B50C46634906462A25D1F8340C10F0F9
:10202000450FFAD0410702D50324042003E0C0077E
:1020300005D00124204600F01BFF204670BD00F0B3
:10204000B2FEB04213D140F2FF5000F011FF002069
:1020500000F0ADFE10F4604F03D0810405D51320CD
:1020600070BD4FEA1040208007E0410401D51020E8
:1020700070BD000401D50F2070BD284670BD7CB531
:1020800001210C2000F046FD484D0C220821284675
:1020900000F057FA0C220921284600F052FA0C22CF
:1020A0000A21284600F04DFA0C220B21284600F0A8
:1020B00048FA0C221146284600F043FA3C4E0C2206
:1020C0000221304600F03DFA4FF47060012100908B
:1020D0008DF8051002208DF8040000248DF80640CC
:1020E0008DF807106946284600F0BAF904200090E0
:1020F0006946304600F0B4F9A81400908DF8074006
:102100006946284600F0ACF90121C80200F02EFD16
:102110000121880500F0FEFC7CBD002102E04008A2
:10212000491CC9B20128FAD10846704730B5214D83
:1021300004468FB04FF0FA51284600F0F6FF002118
:10214000284600F08EFF284600F0CAFE4FF00060DF
:1021500000901948CDE90104402003900020291582
:102160000490CDE90501890007918900CDE90810A7
:102170004FF440300A9004200B9003200C9048024A
:102180000D9080100E906946284600F031FF202106
:10219000284600F07AFF0121284600F062FF0FB0C8
:1021A00030BD000000200140040000200008024073
:1021B000000C024058640240802C014070B501219F
:1021C00086B0084600F0A6FC0121084600F0A2FCFB
:1021D0000121102000F0CAFC324E072209213046AE
:1021E00000F0AFF907220A21304600F0AAF9701575
:1021F000009002208DF8040000248DF806408DF830
:10220000050001258DF807506946304600F028F991
:10221000A80200908DF806508DF8074069463046B8
:1022200000F01EF94FF4E130ADF80C400290ADF82B
:102230000E40ADF81040ADF814400C201A4CADF82B
:10224000120002A9204600F0D8F9012240F22551DF
:10225000204600F0E7FA0121204600F044FA06B0DB
:1022600070BD08B525208DF8000000208DF8010014
:102270008DF8020001208DF80300684600F03BF85D
:1022800008BD704770B5084D0446C1B2284600F03D
:1022900050FA4021284600F0DDFA0028F9D0204607
:1022A00070BD000000000240001001400948804756
:1022B00009480047FEE7FEE7FEE7FEE7FEE7FEE728
:1022C000FEE7FEE7FEE7FEE704480549054A064B40
:1022D000704700000132000885010008680D0020E9
:1022E00068130020680F0020680F00202849084369
:1022F00028490860704770B50F24C27801784FF004
:10230000E0230126EAB1D3F80C2D194402F4E0626F
:10231000C2F5E062C2F30722C2F10405D44042785C
:10232000AA408578254015432A0181F800240078C9
:1023300000F01F018E40400903EB8000C0F80061EF
:1023400070BD01F01F008640480903EB8000C0F813
:10235000806170BD104A1140014310480160704710
:102360004FF0E0220029D2F8101D01D0014300E017
:102370008143C2F8101D70474FF0E021042808691E
:1023800003D020F004000861704740F00400FAE731
:102390000000FA050CED00E080FFFF1F08ED00E0F3
:1023A000704910B5884206D10121084600F0E9FBCA
:1023B000002101204FE06C49884206D10121022012
:1023C00000F0DFFB0021022045E06849884206D189
:1023D0000121042000F0D5FB002104203BE06449EA
:1023E000884206D10121082000F0CBFB0021082003
:1023F00031E06049884206D10121102000F0C1FB84
:102400000021102027E05C49884206D101212020CC
:1024100000F0B7FB002120201DE05849884206D17A
:102420000121402000F0ADFB0021402013E0544981
:10243000884206D10121802000F0A3FB00218020EA
:1024400009E0504988420AD184150121204600F054
:1024500098FB00212046BDE8104000F092BB10BD63
:10246000F0B5002201264FF0030C0C6806FA02F3C7
:102470001C409C422DD1056853000CFA03F4A5437F
:1024800005600D7907689D403D4305600D79012D7C
:1024900001D0022D12D18568A54385604C798568ED
:1024A0009C402C438460446806FA02F5AC434460C7
:1024B00044688D799540ADB22C434460C4685500A2
:1024C0000CFA05F7BC43C460CC799C40C3681C433C
:1024D000C460521C102AC8D3F0BD4FF6FF710160D2
:1024E0000021017141718171C171704741F48032E5
:1024F000C261C161C261C169C06970470246002002
:1025000012690A4200D001207047006980B270470A
:102510000246002052690A4200D0012070474069FB
:1025200080B2704701837047418370470AB10183CD
:102530007047418370474161704742694A40426138
:1025400070474B07DB0E9A40C90810B500EB8100BD
:10255000016A0F249C40A1430162016A1143016298
:1025600010BD0000000002400004024000080240CC
:10257000000C02400010024000140240001802400B
:10258000001C024000200240CA4910B5884206D112
:102590000121102000F021FB0021102028E0C64975
:1025A000884202D101214C0410E0C449884202D182
:1025B00001218C040AE0C249884202D10121CC04E5
:1025C00004E0C04988420AD101210C05204600F0F0
:1025D000F9FA2046BDE81040002100F0F3BABA49EC
:1025E000884209D10121202000F0F7FA00212020A3
:1025F000BDE8104000F0F1BA10BD7FB50446008A76
:102600000D4620F44051E88808432082A18941F218
:102610000C608143A8882A8910436A890A431043C1
:10262000A081A08A20F44071A8890843A08268464E
:1026300000F004FA9F48844202D0A348844201D1AA
:10264000039800E00298A1890904002900EBC00169
:1026500001EB0010296802DA4FEA410101E04FEA7C
:102660008101B0FBF1F06422B0FBF2F14FEA0111FD
:102670004FEA11136FF018056B4300EB8300A38939
:102680001D044FF0320306D503EBC000B0FBF2F09F
:1026900000F0070005E003EB0010B0FBF2F000F0E3
:1026A0000F00084320817FBD4FF4165101600021C7
:1026B0008180C18001810C2242818181704710B5E7
:1026C000028A4C8822F470630A8822438C88C98865
:1026D0000C4322431A43028210BD00210180418035
:1026E0008180C18070470029818902D041F4005166
:1026F00001E021F4005181817047028B02F47F4296
:102700000283028B0A43028370470029818902D029
:1027100041F4004101E0C1F30E01818170470029BD
:10272000818A02D041F4006101E021F400618182DC
:102730007047C1F30801818070478088C0F30800AA
:102740007047028A22F00F020282028A0A43028242
:1027500070470029818902D041F0020101E021F097
:10276000020181817047828922F40062828182891C
:102770000A4382817047028A22F020020282028A82
:102780000A43028270470029018A02D041F4804145
:1027900001E021F4804101827047818941F001010B
:1027A000818170470029818A02D041F0080101E04F
:1027B00021F0080181827047028BD2B20283028B22
:1027C00042EA0121018370470029818A02D041F049
:1027D000200101E021F02001818270470029818AD7
:1027E00002D041F0100101E021F010018182704718
:1027F000828A22F004028282828A0A43828270479D
:102800000029818A02D041F0020101E021F0020199
:1028100081827047002A828A01D00A4300E08A43FD
:102820008282704710B5C1F3421301F01F040121E9
:10283000A140012B07D0022B07D01430002A0268D8
:1028400005D00A4304E00C30F8E71030F6E78A437D
:10285000026010BD0246002012880A4200D001200A
:102860007047C9430180704770B501F01F0601250C
:102870000024C1F3421305FA06F2012B0FD0022BFC
:102880000FD0838A4FEA11210088134205FA01F51F
:1028900000EA050001D000B10124204670BD838903
:1028A000F0E7038AEEE70A0A01219140C94301805B
:1028B0007047000000100140004400400048004004
:1028C000004C00400050004000140140F2480168F4
:1028D00041F0010101604FF0000181600268EF4B9F
:1028E00002EA03020260EE4A4260026822F4802299
:1028F0000260C1607047EB4900220A70087070479F
:10290000034600205909E84A01290BD002290CD0BE
:10291000D2F8741803F01F02012393400B4200D039
:1029200001207047D2F80018F4E7D2F87018F1E7E8
:1029300030B500244FF4A0653120FFF7E1FF641C9F
:10294000AC4201D00028F7D03120FFF7D9FF002892
:1029500000D0012030BDD04A116821F0F80141EAD1
:10296000C00010607047D14908607047CE4900220E
:1029700081F8702881F87028012802D0042802D13B
:10298000052081F870087047C9490860704741EA1E
:1029900082115A0810B5C74B029C03EB0242114347
:1029A000014341EA0460C449086010BDBF4908669C
:1029B0007047800140EA0170C04908607047BB4918
:1029C00088667047B949C8647047BD4B1A6840EAC9
:1029D000010022F0EC6240EA020018607047B84B38
:1029E0001A6840EA010022F0784240EA02001860CA
:1029F0007047B34A116821F0030141EA00011160F8
:102A00007047AF48006800F00C007047AC4A11688E
:102A100021F0F00141EA000111607047A84A1168F5
:102A200021F4E05141EA000111607047A44A1168A5
:102A300021F4604141EAC0001060704730B59A4A05
:102A4000D2F808189F4B11F00C0104D09E4D0429B8
:102A500003D0082903D003601DE005601BE0D2F815
:102A60000418C1F38054D2F8041801F03F0114B1E6
:102A7000B5FBF1F101E0B3FBF1F1D2F80438C3F397
:102A800088135943D2F80438C3F301435B1C5B003D
:102A9000B1FBF3F1016002F6080211688B4B01F003
:102AA000F0014FEA11115C5C016821FA04F1416008
:102AB000146804F4E0544FEA94241C5D21FA04F4F1
:102AC0008460126802F460424FEA52329A5C21FA42
:102AD00002F1C16030BDC0F30121734B032908D15D
:102AE000D3F8081821F4F812794901401143C3F8CA
:102AF0000818D3F87018C0F30B000143C3F870181E
:102B0000704774490860704773490860704773499B
:102B100008607047644A0029D2F8301801D0014398
:102B200000E08143C2F8301870475F4A0029D2F8AC
:102B3000341801D0014300E08143C2F834187047D3
:102B4000594A0029D2F8381801D0014300E08143E6
:102B5000C2F838187047544A0029D2F8401801D0FA
:102B6000014300E08143C2F8401870474E4A0029F3
:102B7000D2F8441801D0014300E08143C2F8441860
:102B80007047494A0029D2F8101801D0014300E0EB
:102B90008143C2F810187047434A0029D2F814182C
:102BA00001D0014300E08143C2F8141870473E4A47
:102BB0000029D2F8181801D0014300E08143C2F87F
:102BC00018187047384A0029D2F8201801D001435C
:102BD00000E08143C2F820187047334A0029D2F838
:102BE000241801D0014300E08143C2F82418704743
:102BF0002D4A0029D2F8501801D0014300E081434A
:102C0000C2F850187047284A0029D2F8541801D049
:102C1000014300E08143C2F854187047224A00295A
:102C2000D2F8581801D0014300E08143C2F8581887
:102C300070471D4A0029D2F8601801D0014300E016
:102C40008143C2F860187047174A0029D2F8641807
:102C500001D0014300E08143C2F864187047124A72
:102C6000002992F80D1801D0014300E0814382F859
:102C70000D1870471A48016841F080710160704773
:102C8000184A0146002012680A4200D0012070470D
:102C9000154908707047000000380240FFFFF6FE3B
:102CA0001030002402380240003002400000474249
:102CB000800E47420000FFFF043802408438024083
:102CC000083802400024F40040787D0130000020E4
:102CD000FFFCFF0F3C0E4742400E47425C0147425B
:102CE000743802400C3802400E38024010B5012101
:102CF000CC022046FFF771FF2046BDE810400021BE
:102D0000FFF76BBF30B5614B196847F6FF6221EAE8
:102D10000201027D8468C56842EA0402446844EA0C
:102D2000050442EA04020468006942EA040242EA35
:102D3000000242EA01021A6030BD00210175016003
:102D400041608160C160016170475149086070470E
:102D500050490A6822F003020A600A6842EA000247
:102D60000A6070474B48006800F00300704710B5D8
:102D7000494902680A604A68D0E9013443EA040319
:102D8000D0E9034044EA00046FF30A0243EA040373
:102D900043EA02034B6010BD002101604160816085
:102DA000C160016170473D480068C0B270473B494F
:102DB000091D4058704710B5394902680A604268D9
:102DC0004A608A68D0E9023443EA0403D0E9044047
:102DD00044EA000422F0F70243EA040343EA020350
:102DE0008B6010BD4FF0FF310160002141608160B8
:102DF000C1600161416170472A48006870472A48F4
:102E00000068704728490860704728480068704784
:102E100027490860704727490860704726490860BD
:102E20007047264908607047254908607047254962
:102E3000086070470121814323480160704723499E
:102E400008607047224908607047224A0029D2F87A
:102E50003C1C01D0014300E08143C2F83C1C704798
:102E60001D4A0146002012680A4200D00120704726
:102E70001A4908607047184A0146002012680A4241
:102E800000D001207047154908607047042C0140AC
:102E9000A0802542002C0140082C0140102C01404C
:102EA000242C0140302C0140802C0140482C014052
:102EB000A0852542A4852542A8852542AC852542CA
:102EC000AC812542B0812542B4812542B88125429A
:102ED0008C85254200200140342C0140382C0140D3
:102EE0002DE9F043016821F001010160002101603A
:102EF00041608160C160016121214161B849B84AE6
:102F00003D231039904202D18B60BDE8F083B44A72
:102F10004FF474641832904201D18C60F5E7B04AE6
:102F20004FF474153032904201D18D60EDE7AC4A18
:102F30004FF074664832904201D18E60E5E7A84AAE
:102F4000A84F6032904201D1CF60DEE7A44ADFF89B
:102F500098C27832904202D1C1F80CC0D5E7A04A9D
:102F6000DFF888829032904202D1C1F80C80CCE721
:102F70009B4A4FF03D59A832904202D1C1F80C90C3
:102F8000C3E79B4A904202D1C1F80834BDE7984A92
:102F90001832904202D1C1F80844B6E7944A303260
:102FA000904202D1C1F80854AFE7914A48329042AA
:102FB00002D1C1F80864A8E78D4A6032904202D17C
:102FC000C1F80C74A1E78A4A7832904202D1C1F864
:102FD0000CC49AE7864A9032904202D1C1F80C8420
:102FE00093E7834AA83290428FD1C1F80C948CE7C2
:102FF00030B503687F4ACC6813400A682243D1E9A0
:1030000005452C432243CC6922430C6A22434C6A77
:1030100022438C6A22434C6B22438C6B22431A431B
:103020000260426922F00703D1E90B2422431A43CC
:1030300042610A6942604A6882608968C16030BD45
:103040000021016041608160C16001614161816175
:10305000C161016241628162C16201634163816356
:1030600070470029016802D041F0010101E021F020
:103070000101016070470029016802D041F400415C
:1030800001E021F40041016070470029016802D08D
:1030900041F0200101E021F0200101607047416012
:1030A0007047406880B27047002A026802D042F43C
:1030B000002201E022F40022026001617047002931
:1030C000016802D041F4802101E021F480210160F7
:1030D00070470AB101617047C16070470146002026
:1030E0000968090300D501207047014600200968DE
:1030F000C90700D001207047406900F038007047D0
:1031000002463B4B00209A4202D2354A103A01E077
:10311000374A103A8B0001D5526800E01268364BEE
:103120001A400A4200D001207047314A904202D230
:103130002B48103801E02E4810382F4A8B0001EA46
:10314000020101D5C1607047816070470B0607D549
:10315000436912B143F0800301E023F0800343612F
:10316000802908D0002A026801F01E0101D00A431C
:1031700000E08A430260704730B51D4A0024904247
:1031800002D2174A103A01E0194A103A1B4B194271
:1031900005D01E2303EAD12503682B4002E04069D5
:1031A00000F08003880001D5506800E01068124AE2
:1031B0001040084201D003B10124204630BD0C4A22
:1031C000904202D20648103801E0094810380A4AF5
:1031D0008B0001EA020101D5C16070478160704730
:1031E000106002403D000020400F002000003D2004
:1031F000106402403F801CF07D0F7D0F3C0F3C0FA0
:103200004E4810B5016841F0010101604FF0000126
:10321000816002684A4B02EA03020260494A426046
:10322000026822F480220260C16000F040F84FF092
:10323000E0214FF00060C1F8080D10BD30B5424AE2
:10324000D2F80808414B424910F00C0004D0414D1F
:10325000042803D0082803D00B601DE00D601BE09C
:10326000D2F80408C0F38054D2F8040800F03F00FC
:1032700014B1B5FBF0F001E0B3FBF0F0D2F8043884
:10328000C3F388135843D2F80438C3F301435B1CDB
:103290005B00B0FBF3F00860D2F808082C4AC0F3DA
:1032A0000310121D105C0A68C2400A6030BD264936
:1032B0000020D1F8002842F48032C1F800284FF4F1
:1032C000A063D1F8002800F1010012F4003F01D101
:1032D0009842F6D1D1F8000880032DD501F50061A0
:1032E00088688860886840F400408860886840F496
:1032F000A050886018484860086840F080700860F6
:10330000A1F50061D1F800088001FBD540F20370FF
:10331000C1F8000CD1F8080820F00300C1F8080833
:10332000D1F8080840F00200C1F80808D1F80808F0
:10333000C0F381000228F9D1704700000038024034
:10334000FFFFF6FE10300024003002400024F4009D
:103350004000002040787D01193C40057047000086
:103360000FB4044910B503AA029800F0E1F910BCAB
:103370005DF814FB2C00002070B5044685690068D8
:103380003026C10600D42026C00708D070BDD4E97D
:10339000012130469047206A00F1010020626D1E35
:1033A000F5D570BD70B5044685690068C00708D1C1
:1033B00070BDD4E9012120209047206A00F101006E
:1033C00020626D1EF5D570BD70B505460C46012A0C
:1033D00005D02868800600D5EA69002302E00123B1
:1033E00005E05B1C934202D2E05C0028F9D1A86999
:1033F000E618C01AA861286A184428622846FFF710
:10340000BBFF04E0D5E9012114F8010B9047B44259
:10341000F8D32846FFF7C6FF70BD00002DE9F04144
:103420000746002510687529394616A411D0AFF358
:103430000080002803DAC0F1000013A407E0396817
:103440008A0701D511A402E0490704D510A401257B
:1034500001E0AFF3008000210A2307F1240607E012
:10346000B0FBF3F203FB1200303070541046491CDD
:103470000028F5D12B4622463846BDE8F04100F041
:10348000E5B80000000000002D0000002B00000047
:103490002000000070B504460D4621461068AFF3C9
:1034A00000802168090502D5104A7A4402E00F4ADB
:1034B0007A440E32002104F1240307E000F00F06E5
:1034C0004FEA1010965D5E5401F101010028F5D11C
:1034D00020680023000704D5702D02D009B11132F5
:1034E00002232046BDE8704000F0B0B8EF060000AF
:1034F0002DE9F05F044689464FF0000ADFF830B14D
:10350000FB44C0F820A02046E168884700287ED010
:10351000252806D0D4E901219047206A401C20626A
:10352000F1E700255F462046E168884720280646E7
:1035300009DB312E07D207EB060010F8200C10B182
:1035400028430546EFE7A80701D525F00405C4F890
:103550001CA00027C4F818A02A2E09D0304600F07D
:1035600091F950B304EB8700303E804686611CE041
:10357000D9F8001004EB870209F10400916181463B
:103580002046E1688847012F064618D1E0690028E7
:1035900020DA25F020051DE0D8F8180000EB8000A7
:1035A00006EB40003038C8F818002046E16888472C
:1035B000064600F067F90028EED1012F0AD02E2E22
:1035C00008D12046E16888477F1C0646022F45F057
:1035D0002005C1DBA069002803DA404245F001055F
:1035E000A061E80701D025F0100586B1A6F14100E1
:1035F000192802D8203645F400654A46314620464F
:1036000025604D46FCF7F8FD60B1012800E00BE0B5
:1036100005D0ED1D25F007000830814673E72D1D0C
:10362000A94670E7304675E7206ABDE8F09F0000C4
:10363000C106000002F0FF0343EA032242EA02420D
:1036400000F08AB870477047704770472DE9F0471F
:1036500004460D469246994600F1240080462168B2
:10366000880604D5E06921F01001216000E0012006
:103670000027A84201DDA0EB0507A16907EB0502C1
:1036800002EB0300A1EB0000A0612068C00602D499
:103690002046FFF771FE002608E0D4E901211AF860
:1036A00006009047206A401C761C20624E45F4DBE1
:1036B0002068C0060AD52046FFF75EFE06E0D4E982
:1036C000012130209047206A401C2062381EA7F15B
:1036D0000107F4DC07E0D4E9012118F80500904760
:1036E000206A401C2062281EA5F10105F3DC20465B
:1036F000FFF758FE21680220090600D40120BDE82A
:10370000F08710B5436913B1AFF3008001E0FFF714
:103710005BFE012010BD126800F124010A70002236
:103720004A700122EDE711684FF0FF32E9E700002F
:10373000074B70B50C467B4400F033F80546204635
:1037400000F042F810B14FF0FF3070BD284670BD58
:103750004BEBFFFF4FF000020429C0F0128010F085
:10376000030C00F03780CCF1040CBCF1020F18BF41
:1037700000F8012BA8BF20F8022BA1EB0C0100F0F0
:1037800029B85FEAC17C24BF00F8012B00F8012BA7
:1037900048BF00F8012B704701694A1C0261087894
:1037A000704700B58FB0CDE9013100210591054981
:1037B0007944CDE9031011466846FFF799FE0FB032
:1037C00000BD0000E5FFFFFFC06800F0800070470B
:1037D0004FF0000200B5134694469646203922BFAA
:1037E000A0E80C50A0E80C50B1F12001BFF4F7AFF5
:1037F000090728BFA0E80C5048BF0CC05DF804EBD7
:10380000890028BF40F8042B08BF704748BF20F844
:10381000022B11F0804F18BF00F8012B704775463E
:1038200000F028F8AE4605006946534620F0070030
:10383000854618B020B5FEF747FDBDE820404FF0A3
:1038400000064FF000074FF000084FF0000B21F08A
:103850000701AC46ACE8C009ACE8C009ACE8C00957
:10386000ACE8C0098D4670470446AFF3008020469F
:10387000FCF7DCFC00487047080D0020004870474A
:103880000C0D00200146012030390A2900D3002008
:10389000704710B5FFF7F2FF4FF00001016010BD57
:1038A0000D0A5761726E696E673A207468652074FC
:1038B0006573742070726F6772616D2077696C6CCC
:1038C000206C65616420746F2054462063617264CB
:1038D0002069732073706563696669656420696E29
:1038E0002074686520736563746F7220646174610D
:1038F00020697320726577726974652C207468651D
:10390000206F726967696E616C2066696C652063FF
:10391000616E2062652064616D6167656420286E58
:103920006F742064616D616765207468652054461A
:103930002063617264206861726477617265292C0A
:10394000436F6E74696E756520746F20706C65616D
:10395000736520636C69636B20277927206B657919
:10396000210D0A0020202020202020202020476533
:1039700074205344206361726420696E666F6D61C8
:1039800074696F6E207375636365737366756C6CB1
:1039900079210D0A20202020202020202020426C88
:1039A0006F636B2073697A653A25782C20436172C6
:1039B0006420747970653A25780D0A0D0A000000BC
:1039C00020202020202020202020457261736520A7
:1039D000626C6F636B20256420737563636573731A
:1039E00066756C6C79210D0A202020202020202073
:1039F0002020416C6C2074686520646174612069CA
:103A00007320307830300D0A0D0A0000202020206D
:103A100020202020202052656164203220626C6FBB
:103A2000636B732066726F6D20626C6F636B202511
:103A3000642073756365737366756C6C79210D0A08
:103A400020202020202020202020416C6C20746821
:103A50006520646174612069733A0D0A00000000FA
:103A600020202020202020202020577269746520EB
:103A7000626C6F636B202564207375636365737379
:103A800066756C6C79210D0A2020202020202020D2
:103A90002020416C6C207468652064617461206929
:103AA0007320307838380D0A0D0A000020202020BD
:103AB0002020202020205265616420626C6F636B9F
:103AC000202564207375636365737366756C6C7908
:103AD000210D0A20202020202020202020416C6C55
:103AE0002074686520646174612069733A0D0A006E
:103AF000202020202020202020205772697465205B
:103B00003220626C6F636B732066726F6D20626C23
:103B10006F636B20256420737563636573736675CB
:103B20006C6C79210D0A20202020202020202020CC
:103B3000416C6C2074686520646174612069732035
:103B4000307836360D0A0D0A0000000020202020B3
:103B500020202020202052656164203220626C6F7A
:103B6000636B732066726F6D20626C6F636B2025D0
:103B700064207375636365737366756C6C790D0A85
:103B800020202020202020202020416C6C207468E0
:103B90006520646174612069733A0D0A0030313226
:103BA000333435363738394142434445464030583E
:103BB0000030313233343536373839616263646509
:103BC000664030780004000008000000000000009B
:103BD0000200010000100000F83B00080000002077
:103BE00054000000C00100084C3C000854000020B4
:103BF00014130000DC010008002A00002A00000065
:103C000000000000000000000200000000000000B2
:103C100000000000000000000000000000000000A4
:103C2000000000000000000000000000010203048A
:103C30000102030406070809000E27070000000020
:0C3C400000000000010203040607080950
:040000050800018569
:00000001FF
