:020000040800F2
:10000000E86B0020A5020008FFB500083B89000846
:10001000FBB50008910F0008CBF2000800000000BB
:1000200000000000000000000000000029EC0008B3
:100030009510000800000000270300080DED0008DF
:10004000BF020008BF020008BF020008BF0200088C
:10005000BF020008BF020008BF020008BF0200087C
:10006000BF020008BF020008BF020008BF0200086C
:10007000BF020008BF020008BF020008BF0200085C
:10008000BF020008BF020008BF020008BF0200084C
:10009000BF020008BF020008BF020008BF0200083C
:1000A000BF020008BF020008BF020008BF0200082C
:1000B000BF020008BF020008BF020008BF0200081C
:1000C000BF020008BF020008BF020008BF0200080C
:1000D000BF0200086DF00008BF020008BF02000860
:1000E000BF020008BF020008BF020008BF020008EC
:1000F000BF020008BF020008BF020008BF020008DC
:10010000BF020008BF020008BF020008BF020008CB
:10011000BF020008BF020008BF020008BF020008BB
:10012000BF020008BF020008BF020008BF020008AB
:10013000BF020008BF020008BF020008BF0200089B
:10014000BF020008BF020008BF020008BF0200088B
:10015000BF020008BF020008BF020008BF0200087B
:10016000BF020008BF020008BF020008BF0200086B
:10017000BF020008BF020008BF020008BF0200085B
:10018000BF02000800F002F800F063F80AA090E84F
:10019000000C82448344AAF10107DA4501D100F042
:1001A00058F8AFF2090EBAE80F0013F0010F18BFAC
:1001B000FB1A43F00103184738D3030058D3030058
:1001C0000A444FF0000C10F8013B13F0070408BF7D
:1001D00010F8014B1D1108BF10F8015B641E05D01B
:1001E00010F8016B641E01F8016BF9D113F0080FD0
:1001F0001EBF10F8014BAD1C0C1B09D16D1E58BF62
:1002000001F801CBFAD505E014F8016B01F8016B98
:100210006D1EF9D59142D6D370470000002300240B
:1002200000250026103A28BF78C1FBD8520728BF06
:1002300030C148BF0B607047752900F0F78000207F
:1002400070471FB51AF0CFF900F0CBF91FBD10B5FC
:1002500010BD00F01BFC1146FFF7F3FF19F014F876
:1002600000F039FC03B4FFF7F2FF03BC00F03EFCE2
:100270000B49D1F800C04A685CF8043B1068184488
:1002800042F8040B8C4528BFA1F1DC0C8A4228BF40
:10029000A1F1DC02C1F800C04A6020F000407047C4
:1002A000806500200948804709480047FEE7FEE7CF
:1002B000FEE7FEE7FEE7FEE7FEE7FEE7FEE7FEE716
:1002C00004480549054A064B7047000035ED000813
:1002D00085010008E8650020E86B0020E867002041
:1002E000E8670020EFF3108072B6704780F3108843
:1002F00070471D484FF0FF010170002080F309880E
:100300001A48012101701A484FF08051016062B60D
:10031000FEE717484FF080510160704714484FF0D6
:1003200080510160704772B6EFF3098028B1203820
:1003300080E8F00F0F490968086000B50E48804753
:100340005DF804EB0D480E490A78027009480D4922
:100350000A680260106890E8F00F203080F3098886
:100360004EF0040E62B6704722ED00E066000020F9
:1003700004ED00E06C00002065C300085B00002075
:100380005C0000207400002072B6704762B67047AF
:10039000EFF3108072B6704780F310887047B0FAA0
:1003A00080F0704790FAA0F0704730BF704720BFD0
:1003B000704700000FB41CB5074B06AA7B44694682
:1003C0000090059800F0E3FA0020694600F0F2FA88
:1003D0001CBC5DF814FB0000F505000070B5044678
:1003E000856900683026C10600D42026C00708D0E1
:1003F00070BDD4E9012130469047206A00F1010028
:1004000020626D1EF5D570BD70B504468569006823
:10041000C00708D170BDD4E9012120209047206A8F
:1004200000F1010020626D1EF5D570BD2DE9F0418F
:100430000746002510687529394616A411D0AFF378
:100440000080002803DAC0F1000013A407E0396837
:100450008A0701D511A402E0490704D510A401259B
:1004600001E0AFF3008000210A2307F1240607E032
:10047000B0FBF3F203FB1200303070541046491CFD
:100480000028F5D12B4622463846BDE8F04100F061
:100490001DBA0000000000002D0000002B0000002D
:1004A000200000002DE9F0474FF0000A044689467D
:1004B000C0F820A02046E1688847002879D0252888
:1004C00006D0D4E901219047206A401C2062F1E760
:1004D000E168204600258847C4F81CA0064600278E
:1004E000C4F818A02A2E09D0304618F02FFE50B3B9
:1004F00004EB8700303E804686611CE0D9F800108E
:1005000004EB870209F10400916181462046E1680D
:100510008847012F064618D1E069002820DA25F027
:1005200020051DE0D8F8180000EB800006EB400025
:100530003038C8F818002046E1688847064618F0A9
:1005400005FE0028EED1012F0AD02E2E08D120461C
:10055000E16888477F1C0646022F45F02005C1DB75
:10056000A069002803DA404245F00105A061E807D0
:1005700001D025F01005B6B1A6F14100192802D826
:10058000203645F400654A463146204625604D46F2
:10059000FFF752FE58B1012806D0ED1D25F00700E7
:1005A0000830814686E704E02D1DA94682E73046E3
:1005B00087E7206ABDE8F0870B4910B5A1F17C02FE
:1005C0000A4BC2E93712372106E000EB104442F82B
:1005D0002140074C00FB04300C1EA1F10101F4DCAA
:1005E00010BD0120E8E7000020650020E119D66673
:1005F000CD0D010040EA010310B59B070AD1042A82
:1006000008D310C808C9121F9C42F8D020BA19BAE2
:10061000401A10BD1AB1D30703D0521C07E00020C6
:1006200010BD10F8013B11F8014B1B1B07D110F84E
:10063000013B11F8014B1B1B01D1921EF1D1184651
:1006400010BD40EA0103024630B59B0710D14FF0C0
:10065000013400E008C208C91D1B9D4315EAC41FF0
:10066000F8D013F0FF0102F8011B0DD01B0AF8E7C8
:1006700011F8013B002B02F8013B05D011F8013BBA
:10068000002B02F8013BF3D130BD10B5431C02E052
:1006900010F8011B71B18107FAD14FF0013202C885
:1006A0008C1A8C4314EAC211F9D0C01A0A0603D07E
:1006B000C01E10BDC01A10BD0A0401D0801E10BD9E
:1006C0000902FCD0401E10BD421E12F8013F002B53
:1006D000FBD111F8013B002B02F8013BF9D1704727
:1006E000032A40F2308010F0030C00F0158011F85E
:1006F000013BBCF1020F624498BF11F801CB00F836
:10070000013B38BF11F8013BA2F1040298BF00F889
:1007100001CB38BF00F8013B11F0030300F0678004
:10072000083AC0F0088051F8043B083A51F804CB6D
:10073000A0E80810F5E7121D5CBF51F8043B40F833
:10074000043BAFF30080D20724BF11F8013B11F83E
:1007500001CB48BF11F8012B24BF00F8013B00F882
:1007600001CB48BF00F8012B7047431A28BF9A42BB
:100770007FF6B6AF032A1044114440F2268010F0F1
:10078000030F1EBF11F8013D521E00F8013D10F08D
:10079000030F7FF4F6AF11F0030300F02381083A52
:1007A000C0F00B8051F8043D083A51F804CD40F8F0
:1007B000043D40F804CDFFF7F3BF121D5CBF51F8B4
:1007C000043D40F8043DAFF30080D20724BF11F888
:1007D000013D11F801CD48BF11F8012C24BF00F8EC
:1007E000013D00F801CD48BF00F8012C704710B55D
:1007F000203AC0F00B80B1E81850203AA0E8185019
:10080000B1E81850A0E81850BFF4F5AF5FEA027CD9
:1008100024BFB1E81850A0E8185044BF18C918C048
:10082000BDE810405FEA827C24BF51F8043B40F8E9
:10083000043B08BF7047D20728BF31F8023B48BFCE
:1008400011F8012B28BF20F8023B48BF00F8012B0C
:10085000704702F0FF0343EA032242EA024200F03B
:10086000EDB84FF0000200B5134694469646203985
:1008700022BFA0E80C50A0E80C50B1F12001BFF459
:10088000F7AF090728BFA0E80C5048BF0CC05DF8BF
:1008900004EB890028BF40F8042B08BF704748BF0D
:1008A00020F8022B11F0804F18BF00F8012B704781
:1008B00070477047704710B500F0E0F8006810BD51
:1008C00010B5044600F0DAF8046010BD2DE9F047D9
:1008D00004460D469246994600F124008046216860
:1008E000880604D5E06921F01001216000E00120B4
:1008F0000027A84201DDA0EB0507A16907EB05026F
:1009000002EB0300A1EB0000A0612068C00602D446
:100910002046FFF763FD002608E0D4E901211AF81C
:1009200006009047206A401C761C20624E45F4DB8E
:100930002068C0060AD52046FFF750FD06E0D4E93E
:10094000012130209047206A401C2062381EA7F108
:100950000107F4DC07E0D4E9012118F8050090470D
:10096000206A401C2062281EA5F10105F3DC204608
:10097000FFF74AFD21680220090600D40120BDE8E6
:10098000F087000001694A1C02610878704700B5D1
:100990008FB0CDE901310021059105497944CDE9B8
:1009A000031011466846FFF77DFD0FB000BD000043
:1009B000E5FFFFFF0A6802F8010B0A607047431A5F
:1009C00028BF9A427FF613AF104410F0030F114472
:1009D0001EBF11F8013D521E00F8013D10F0030F3B
:1009E0007FF4F6AF103AC0F00A8010B531E9185024
:1009F000103A20E91850BFF4F9AFBDE81040530792
:100A000024BF31E9081020E9081044BF51F8043D23
:100A100040F8043D12F0030F08BF7047D20728BF0B
:100A200031F8023D48BF11F8012C28BF20F8023DE3
:100A300048BF00F8012C70474FF000020429C0F0B5
:100A4000128010F0030C3FF40EAFCCF1040CBCF19B
:100A5000020F18BF00F8012BA8BF20F8022BA1EB52
:100A60000C01FFF700BF5FEAC17C24BF00F8012B37
:100A700000F8012B48BF00F8012B70470048704771
:100A80008865002000487047886500207546FFF79C
:100A9000F9FFAE4605006946534620F0070085463B
:100AA00018B020B5FFF70CFCBDE820404FF0000661
:100AB0004FF000074FF000084FF0000B21F0070146
:100AC000AC46ACE8C009ACE8C009ACE8C009ACE889
:100AD000C0098D4670470446AFF300802046FFF7FB
:100AE000C1FB7047004870478C6500200149182001
:100AF000ABBEFEE72600020000B585B001218803E9
:100B00000DF0B6FB16480EF023F84FF00000ADF8DC
:100B100000004FF48270ADF802004FF00000ADF815
:100B20000400ADF80600ADF808004FF40070ADF811
:100B30000A004FF01800ADF80C004FF00000ADF8BF
:100B40000E004FF00700ADF81000694604480EF0A3
:100B50003FF8012102480DF0EDFF05B000BD000097
:100B60000038004001B56946024800680AF0FEFFFF
:100B700008BD00000000002000B587B09DF81800F7
:100B800006904FF4E1300CF0A5F811480CF0CEFAC5
:100B90000CF032FA00200AF01DFF0E490860032015
:100BA00000214FF480720C4BCDE90132CDE90310E6
:100BB00039200346094A009009480BF0F3F90690E2
:100BC00006AA08A139200BF059FA07B000BD0000B1
:100BD000650B000800000020581300205417002067
:100BE000499401085461736B204F5356696577200F
:100BF0005465726D696E616C00000000704710B53D
:100C0000FFF7BAFF00F022F810BD10B504462046E9
:100C10000CF06AFA10BD704702F07CFA0CF0D0FCC0
:100C20000BF036F9FFF7EBFF00BF00231A46012156
:100C300018460BF0E1FBF8E7704710B50CF05EFAD0
:100C400010BD10B50CF078FA10BD000008B59DF885
:100C5000000000900523124A002112480BF048F9C9
:100C600000906A4610A105200BF008FA0423114AEF
:100C7000002111480BF03CF900906A460FA10420B6
:100C80000BF0FCF93B23144A002114480BF030F917
:100C900000906A4612A13B200BF0F0F908BD00005D
:100CA000540D0020559501085461736B205543473E
:100CB00055490000541100203D9501085441534B03
:100CC00020546F75636850616E656C204D65737359
:100CD000616765730000000054130020E193010870
:100CE0005461736B204C454420426C696E6B00006C
:100CF00070B50446B4F90450284604F05DFF06467A
:100D0000214628460EF005FB00B970BD20680B286F
:100D10000FD00C2802D00F280FD105E02246314613
:100D2000284615F0F4FDF0E72946304615F04FFF50
:100D3000EBE7304610F0CCFF00BF00BF20460EF0BE
:100D40006DFE00BFE1E72DE9FF4704460D4616465C
:100D50001F46DDE90C890022CDE900293B46CDE99B
:100D6000022832462946204600F01CF804B0BDE8AF
:100D7000F0872DE9FF4704460D4616461F46DDE97C
:100D80000D9ADDF8308000223B46CDE9008ACDE99E
:100D9000022932462946204600F004F804B0BDE896
:100DA000F08700002DE9FF5F06460F469046994602
:100DB000DDE90FAB00BF06F001F93023114A1FFA3D
:100DC0008AF10E988DE80F004B4642463946304670
:100DD0000EF080FD04467CB1204604F0EDFE054691
:100DE0001022284611990EF0DFFC2022064905F159
:100DF0002800FFF7FCFC00BF07F01CFA204604B0F7
:100E0000BDE8F09FF10C00084C0300202DE9FF47DE
:100E100004460D4616461F46DDF8308000BFB4F983
:100E20000830628A0021CDE90051CDE90223B4F9EE
:100E30001030B4F90E20B4F90CC00CEB0701B4F972
:100E40000AC00CEB0600FFF7ADFF8146484661681B
:100E500000F067F8484604B0BDE8F0872DE9F0419E
:100E600005460C4616468DB1022C0FD806F0A6F8A2
:100E7000284604F0A1FE074607F1280040F8246048
:100E800028460FF0C5F907F0D5F900BFBDE8F0819D
:100E900070B505460C4624B1102128460EF0B6FA6E
:100EA00003E0102128460EF012FA70BD70B504461A
:100EB0000D4664B106F082F8204604F07DFE064639
:100EC000356420460FF0A4F907F0B4F900BF70BDF7
:100ED000F8B504460D4616460023324629462046FC
:100EE000009300F001F8F8BD2DE9F04706460F46E3
:100EF00014461D46DDF8208042462946204605F06E
:100F0000F7F9814602463946304600F021F8BDE83F
:100F1000F08770B504460D46294620460EF09DFA2E
:100F200070BD70B504460D468CB106F047F82046FA
:100F300004F042FE0646294606F1480007F051FC3F
:100F400010B120460FF064F907F074F900BF70BDCE
:100F50002DE9F04105460C461646BDB106F02EF8C7
:100F6000284604F029FE0746032C0CD807F14A0155
:100F700001EB440004F08BFD07F14A0020F81460F7
:100F800028460FF045F907F055F900BFBDE8F0819C
:100F900000BFFEE71CB504462448408C2349096C79
:100FA000084400B2214948840846808C496C0844B2
:100FB00000B21E498884204605F0DCFE1B49498C9E
:100FC000ADF800100844401E00B2ADF8040005F072
:100FD00011FF1649898CADF802100844401E00B27A
:100FE000ADF8060068460FF0D5FD38B100BF2046C9
:100FF00001F0B4FD0FF048FD0028F8D10A2C05D00F
:10100000BDF80400401C00B2084948840748408CE1
:101010000649096C401A00B2044948840846808C8D
:10102000496C401A00B2014988841CBD68600020E8
:1010300014488088134991F85C10484300B2124963
:1010400008801048C0880F4991F85C10484300B2EE
:101050000D4948800B480089401C0A4991F85C10F2
:101060004843401E00B20849888006484089401C19
:10107000044991F85C104843401E00B20249C88000
:101080007047000068600020A8020020024641EA84
:1010900002207047704710B54FF0000211460DE076
:1010A0004FF00C031A4600BF1300A2F10104E4B292
:1010B0002246F9D101F1010292B211468142EFD3E9
:1010C00010BD00002DE9F04105460E4617461C46AE
:1010D0003119E819184B9B6D5A6890473119E81B74
:1010E000154B9B6D5A689047F1192819124B9B6D4F
:1010F0005A689047F11B28190F4B9B6D5A6890470F
:10110000BCB1311BE8190C4B9B6D5A689047311BE1
:10111000E81B094B9B6D5A689047F119281B064B39
:101120009B6D5A689047F11B281B034B9B6D5A68B7
:101130009047BDE8F0810000686000202DE9F04193
:1011400004460F4615461E461748007B10F0020F56
:1011500012D10EE028880246B9B2A0B209F0F6FE1C
:10116000A6F10100064604F10100044605F1020063
:101170000546002EEEDC15E012E0B5F80080B8F16F
:10118000000F04D04246B9B2A0B209F0DFFEA6F1CA
:101190000100064604F10100044605F1020005467F
:1011A000002EEADCBDE8F081686000202DE9F84FF0
:1011B00004460F4690469946DDE90A5ABAF80000FF
:1011C0000090BAF80200834698F800000646E64808
:1011D000007B10F0030004D0012828D0022839D168
:1011E00012E009F0070008280DD2DFE800F004053E
:1011F000060708090A0BAFE0BFE0D0E0E1E0F2E04B
:1012000003E114E125E125E009F0070008280DD2EB
:10121000DFE800F00405060708090A0B1CE02AE0D5
:1012200038E046E054E062E070E07EE012E009F071
:10123000070008280DD2DFE800F0040506070809BA
:101240000A0B20E12CE138E144E150E15CE168E186
:1012500074E100BF00BF00BF16F0800F04D05A46F3
:10126000B9B2A0B209F072FEA5F10100050001D1EA
:10127000BDE8F88F00BF16F0400F05D05A46B9B24E
:10128000601C80B209F062FEA5F10100050000D1EA
:10129000EEE700BF16F0200F05D05A46B9B2A01CE9
:1012A00080B209F053FEA5F10100050000D1DFE78F
:1012B00000BF16F0100F05D05A46B9B2E01C80B23C
:1012C00009F044FEA5F10100050000D1D0E700BF00
:1012D00016F0080F05D05A46B9B2201D80B209F0A9
:1012E00035FEA5F10100050000D1C1E700BF16F0F1
:1012F000040F05D05A46B9B2601D80B209F026FE2F
:10130000A5F10100050000D1B2E700BF16F0020F01
:1013100005D05A46B9B2A01D80B209F017FEA5F15A
:101320000100050000D1A3E700BF16F0010F05D0B2
:101330005A46B9B2E01D80B209F008FEA5F10100DD
:10134000050000D194E704F10800044608F101000B
:101350008046007806467FE716F0800F01D0584699
:1013600000E0009882B2B9B2A0B209F0EFFDA5F199
:101370000100050000D17BE700BF16F0400F01D04F
:10138000584600E0009882B2B9B2601C80B209F001
:10139000DDFDA5F10100050000D169E700BF16F0F1
:1013A000200F01D0584600E0009882B2B9B2A01CCC
:1013B00080B209F0CBFDA5F10100050000D157E78F
:1013C00000BF16F0100F01D0584600E0009882B21E
:1013D000B9B2E01C80B209F0B9FDA5F10100050029
:1013E00000D145E700BF16F0080F01D0584600E0D5
:1013F000009882B2B9B2201D80B209F0A7FDA5F114
:101400000100050000D133E700BF16F0040F01D042
:10141000584600E0009882B2B9B2601D80B209F06F
:1014200095FDA5F10100050000D121E700BF16F0F0
:10143000020F01D0584600E0009882B2B9B2A01D58
:1014400080B209F083FDA5F10100050000D10FE78E
:1014500000BF16F0010F01D0584600E0009882B29C
:10146000B9B2E01D80B209F071FDA5F101000500DF
:1014700000D1FDE604F10800044608F101008046B1
:101480000078064668E716F0800F03D039462046FC
:1014900009F007FCA5F10100050000D1E8E600BF56
:1014A00016F0400F03D03946601C09F0FAFBA5F195
:1014B0000100050000D1DBE600BF16F0200F03D0CD
:1014C0003946A01C09F0EDFBA5F10100050000D193
:1014D000CEE600BF16F0100F03D03946E01C09F02D
:1014E000E0FBA5F10100050000D1C1E600BF16F048
:1014F000080F03D03946201D09F0D3FBA5F10100E8
:10150000050000D1B4E600BF16F0040F03D0394641
:10151000601D09F0C6FBA5F10100050000D1A7E69A
:1015200000BF16F0020F03D03946A01D09F0B9FB29
:10153000A5F10100050000D19AE600BF16F0010FE9
:1015400003D03946E01D09F0ACFBA5F10100050010
:1015500000D18DE604F10800044608F10100804640
:10156000007806468FE70000686000202DE9F0470C
:1015700004460E4691469A46DDE9087899F800003F
:101580000546B8F1000F75D0B148007B10F0020F8E
:101590000BD01AF0030004D0012803D0022803D195
:1015A00001E057E068E07BE08EE01AF0030004D031
:1015B000012803D0022803D101E002E010E020E07E
:1015C00030E0A81138F810000246B1B2A0B209F01C
:1015D000BDFCA7F10100070001D1BDE8F08700BF05
:1015E000032000EA251038F810000246B1B2601C52
:1015F00080B209F0ABFCA7F10100070000D1ECE7D5
:1016000000BF032000EAA50038F810000246B1B27E
:10161000A01C80B209F09AFCA7F10100070000D1DC
:10162000DBE700BF05F0030038F810000246B1B256
:10163000E01C80B209F08AFCA7F10100070000D18C
:10164000CBE709F1010081460078054604F104006A
:101650000446B6E715F0C00F07D0A81138F81000FF
:101660000246B1B2A0B209F071FCA7F10100070077
:1016700001D1B2E743E000BF15F0300F0AD00320DC
:1016800000EA251038F810000246B1B2601C80B2A2
:1016900009F05CFCA7F10100070000D19DE700BF45
:1016A00015F00C0F0AD0032000EAA50038F810004E
:1016B0000246B1B2A01C80B209F048FCA7F10100BB
:1016C000070000D189E700BF15F0030F09D005F02E
:1016D000030038F810000246B1B2E01C80B209F0F5
:1016E00035FCA7F10100070000D176E709F1010000
:1016F00081460078054604F104000446AAE75448F0
:10170000007B10F0020F0BD01AF0030004D0012868
:1017100003D0022803D101E04EE05CE06DE07EE002
:101720001AF0030004D0012803D0022803D101E0FD
:1017300002E00DE01BE029E0A8110246B1B2A0B220
:1017400009F004FCA7F10100070000D145E700BF44
:10175000032000EA25100246B1B2601C80B209F0F5
:10176000F5FBA7F10100070000D136E700BF032019
:1017700000EAA5000246B1B2A01C80B209F0E6FB67
:10178000A7F10100070000D127E700BF05F0030023
:101790000246B1B2E01C80B209F0D8FBA7F101000B
:1017A000070000D119E709F10100814600780546DC
:1017B00004F104000446BFE715F0C00F05D0A811DE
:1017C0000246B1B2A0B209F0C1FBA7F101000700C7
:1017D00000D102E700BF15F0300F08D0032000EA67
:1017E00025100246B1B2601C80B209F0AFFBA7F130
:1017F0000100070000D1F0E600BF15F00C0F08D083
:10180000032000EAA5000246B1B2A01C80B209F094
:101810009DFBA7F10100070000D1DEE600BF15F037
:10182000030F07D005F003000246B1B2E01C80B2FE
:1018300009F08CFBA7F10100070000D1CDE609F10A
:10184000010081460078054604F104000446B3E730
:10185000686000202DE9F04704460E469046994600
:10186000DDE9087A98F800000546BAF1000F60D06B
:101870005C48007B10F0020F04D019F0010F00D17A
:101880002CE03BE019F0010F00D100E00EE0281140
:101890003AF810000246B1B2A0B209F057FBA7F126
:1018A0000100070001D1BDE8F08700BF05F00F007F
:1018B0003AF810000246B1B2601C80B209F046FB53
:1018C000A7F10100070000D1EDE704F10200044692
:1018D00008F10100804600780546D8E7281107D0B6
:1018E00028113AF810000246B1B2A0B209F02EFB5E
:1018F000A7F10100070000D1D5E700BF15F00F0FD9
:1019000009D005F00F003AF810000246B1B2601C91
:1019100080B209F01BFBA7F10100070000D1C2E76C
:1019200004F10200044608F10100804600780546F3
:10193000D4E72C48007B10F0020F04D019F0010FFF
:1019400000D127E034E019F0010F00D100E00BE0F6
:1019500028110246B1B2A0B209F0F8FAA7F10100CD
:10196000070000D19FE700BF05F00F000246B1B2AB
:10197000601C80B209F0EAFAA7F10100070000D16B
:1019800091E704F10200044608F101008046007866
:101990000546DDE7281105D028110246B1B2A0B2F4
:1019A00009F0D4FAA7F10100070000D17BE700BFDE
:1019B00015F00F0F07D005F00F000246B1B2601C02
:1019C00080B209F0C3FAA7F10100070000D16AE76D
:1019D00004F10200044608F1010080460078054643
:1019E000D8E70000686000202DE9F04704468846EB
:1019F00015461E46DDF820903048007B10F0020F9F
:101A00002CD1B9F1000F15D011E02F7839F817005B
:101A100002461FFA88F1A0B209F098FAA6F1010077
:101A2000064604F10100044605F101000546002EBA
:101A3000EBDC41E00FE0287802461FFA88F1A0B203
:101A400009F084FAA6F10100064604F101000446FB
:101A500005F101000546002EEDDC2DE0B9F1000F87
:101A600016D012E02F783FB139F8170002461FFA5E
:101A700088F1A0B209F06AFAA6F10100064604F165
:101A80000100044605F101000546002EEADC13E0E2
:101A900010E02F782FB13A461FFA88F1A0B209F072
:101AA00055FAA6F10100064604F10100044605F1CD
:101AB00001000546002EECDCBDE8F08768600020E0
:101AC0002DE9F04107460D46002F71D005F076FA5A
:101AD000384604F071F80446002C6AD0E06C20B15E
:101AE00029463846E26C904794E0122D4AD008DC33
:101AF000082D53D00D2D75D0102D49D0112D73D137
:101B000008E0132D22D01B2D6DD01D2D57D01E2D7A
:101B10006AD14FE0208DC0B1B4F9280004F04CF830
:101B200006463046216C06F02FFA0644304606F091
:101B3000EDF98046B8F17F0F06DA08F10100307048
:101B4000052138460EF0E7FB00BF62E0208DC0B1F2
:101B5000B4F9280004F030F806463046216C06F04F
:101B600013FA0644304606F0D1F98046B8F1200F4A
:101B700006DDA8F101003070052138460EF0CBFBE0
:101B800000BF46E0206C411C204600F003FB40E013
:101B9000206C411E204600F0FDFA3AE0206C411E08
:101BA000204600F0F7FA2146384610F0C4F830E03D
:101BB00036E032E02146384610F0BDF829E094F8CE
:101BC0004800012803D1002084F8480006E00120E5
:101BD00084F848002046216C00F0DCFA19E001E0AE
:101BE00002E000E000BF14E0202D11DB94F8480073
:101BF00018B12146384610F09EF8AAB22146384660
:101C000013F0D6FF20B1206C411C204600F0C2FA30
:101C100000BF00BF38460EF0FBFA06F00BFB00BF1A
:101C2000BDE8F0812DE9F04786B004460D46164622
:101C30001F46DDE90F9ADDF838800021CDE901A1CA
:101C40003B463246CDE9038900912946204600F003
:101C500003F806B0BDE8F0872DE9FF4F85B00746D1
:101C600088469146DDF858B0DDE9135A00BF45F4C7
:101C7000805550231F4AA8B240F0020112988DE807
:101C80000F004A4641463846089B0DF023FE0646A3
:101C900066B305F093F9304603F08EFF0446102238
:101CA000204615990DF080FD1C22134904F15400C3
:101CB000FEF79DFD012084F84900BBF1000F01D122
:101CC000082000E0584600B260850020A0852085ED
:101CD000B4F92A00411C204613F008FF18B9304619
:101CE0000DF0D0FE002606F0A5FA00BF304609B080
:101CF000BDE8F08F0B2100086C0300202DE9F043B4
:101D000085B004460D4616461F46DDF8309000BFEC
:101D1000B4F90820618A00206369CDE9005002A867
:101D20000EC0B4F91030B4F90E20B4F90CC00CEBAD
:101D30000701B4F90AC00CEB0600FFF78DFF8046DF
:101D4000B8F1000F03D0618A404600F0A5F9404683
:101D500005B0BDE8F08300002DE9F047074688464E
:101D600091461E4605F02AF957B3384603F024FF82
:101D700004461548E06415482065C4F83C800020FE
:101D80002064B4F92A50002D03DC304613F078FCAF
:101D90000546202D00DD2025B4F92A00A84203D0F5
:101DA0002946384600F0E2F8C4F830906663012016
:101DB00084F84800384616F01FF938460EF028FA25
:101DC00006F038FABDE8F0876F140108F97F0108C2
:101DD0002DE9F34F83B00C460398002871D005F02D
:101DE000EDF8039803F0E8FE0546288D002865D03D
:101DF000B5F9280003F0E0FE0190E86D05F0D0FE93
:101E0000029003980EF064F88346019805F004F8F8
:101E10008046686D00F00300012809D002280ED129
:101E2000ABEB0801481C00EBD071A4EB61040DE0A2
:101E3000ABEB0801A86D401C081A241A06E0A86D37
:101E4000401C296A49690844241A00BF00BF019850
:101E500006F034FC0646002C04DA0021284600F087
:101E600099F924E0444504DD3146284600F092F912
:101E70001DE04FF00009CA460FE001A806F070F817
:101E80000090009804F076FF07460AEB0700A04296
:101E900000DD06E0BA4409F10109B14501DAA245C5
:101EA000EBDB00BF4946284600F074F900BF0298FA
:101EB00005F076FE03980EF0ABF900BF06F0BAF914
:101EC00000BF05B0BDE8F08F70B505460E4605B9F8
:101ED00070BD05F073F8284603F06EFE04461CB191
:101EE000E66528460EF094F906F0A4F900BFEFE786
:101EF0002DE9F0470746884691461E4605F05EF8F4
:101F00005FB3384603F058FE04461648E0641648AE
:101F10002065C4F83C8000202064B4F92A50002DCC
:101F200003DC304613F0B4FB0546082D00DD082520
:101F3000B4F92A00A84203D02946384600F016F822
:101F4000C4F830906663012084F84800384616F0E3
:101F500065F838460EF05CF900BF06F06BF9BDE895
:101F6000F08700000F1501081D8001082DE9F047DA
:101F700006460D4696B305F021F8304603F01CFEE8
:101F80000446B4F92A00A84225D0B4F92A00A84290
:101F900016DD208DA0B1B4F9280003F00DFE074630
:101FA000384606F08BFB8046A84508DD29463846B2
:101FB00005F0EAFF8146002007F8090000BF00BFD6
:101FC000A08D281A411C204613F090FD28B2608590
:101FD00030460EF01DF906F02DF900BFBDE8F08780
:101FE0002DE9F04780460F46B8F1000F52D004F0BB
:101FF000E5FF404603F0E0FD0446002F3DD04FF0E2
:102000000009208D50B1B4F9280003F0D5FD8246B7
:102010005046FEF73AFB00F1010900BF384606F0D2
:102020004DFB0646B4F92A10B14201DAB4F92A6030
:102030003146384605F0A8FF451CA5EB09012046AE
:1020400013F0ABFEC0B1B4F9280003F0B5FD824631
:102050002A4639465046FEF743FB681E2064B4F911
:102060002A10206C884206D194F84800012802D139
:10207000206C401E206400BF06E004F1280003F03D
:1020800006FD0020A085206440460EF0C1F806F051
:10209000D1F800BFBDE8F08770B505460E4605B91A
:1020A00070BD04F08BFF284603F086FD04461CB18A
:1020B000666528460EF0ACF806F0BCF800BFEFE706
:1020C00070B506460D46FEB104F078FF304603F0C9
:1020D00073FD0446206BA84200DD256B606BA842AF
:1020E00000DA656BE06BA8420CD0E563206D10B19F
:1020F0003046216D884730460EF08AF8052130467B
:102100000EF009F906F096F870BD2DE9F04104468D
:10211000B4F90450284603F04FFD804628460EF0DF
:102120004BFE0746214628460DF0F3F808B9BDE8F6
:10213000F08120680B2811D00C2804D00E2811D073
:102140000F2821D105E022464146284614F003FC21
:102150001AE02946404614F0C7FDE8E740460FF074
:10216000C6FD11E07FB1A068406800280BDDA068C3
:102170000668092E00D104E031462846FFF7A0FC8E
:10218000D5E700BF00BF00BF00BF20460DF046FCF2
:1021900000BFCCE72DE9F04104460D46208D20B369
:1021A000B4F9280003F008FD8046404606F086FAA0
:1021B000064694F8480008B1012000E000200746D8
:1021C000002D00DA0025B54200DD3546B4F92A00BD
:1021D000C01BA84202DAB4F92A00C51B206CA84231
:1021E00000D025640020606400BFBDE8F0812DE9C7
:1021F000F04F8BB00446894615469A464FF0000BC7
:1022000094B3204600F034F90646204600F01FF94A
:10221000049004F0D3FE204603F0CEFC0A9005A9FA
:102220000A9800F0D5F919F0010F07D0BDF9241074
:10223000701E081AA0EB0508822704E0BDF92000F3
:1022400000EB0508022733463246CDE901A700948A
:1022500040460499FEF78DFD834600215846FEF75F
:1022600017FE05F0E7FF00BF58460BB0BDE8F08F42
:102270002DE9F04104460D4616460723324629460D
:102280002046FFF7B4FF0746054A00213846FEF70F
:102290001FFE044938460EF055F93846BDE8F08176
:1022A000192E0108B58E01082DE9F04104460D46AE
:1022B00016460823324629462046FFF798FF074670
:1022C000054A00213846FEF703FE044938460EF061
:1022D00039F93846BDE8F081472E0108EF8E010834
:1022E0002DE9F04786B004460D4616461F46DDE947
:1022F0000F9ADDF8388000210291CDE9031453468E
:102300004A46CDE9001605954146384600F004F8E6
:1023100006B0BDE8F08700002DE9FF4F89B0074601
:1023200088469346DDF86CA0DDE9175945F48055E1
:102330004823304AA9B216988DE80F005A46414604
:1023400038460C9B0DF0C6FA0646002E4ED004F01F
:1023500035FE304603F030FC044630222046199901
:102360000DF022FA2022244904F12800FEF73FFA5A
:10237000002004F148046082C4F800A0A4F814907E
:10238000E082E080E061A4F1480404A9204600F066
:102390001FF90023194A41F28271CDE90061CDE9AC
:1023A0000223BDF91AE0BDF916C0AEEB0C0C0CF11E
:1023B0000103BDF918C0BDF914E0ACEB0E0C0CF133
:1023C0000102BDF9161070460DF084FAA4F84C0015
:1023D00042F20400054202D130460DF0B9FB30460E
:1023E0001A9900F0DEF805F025FF00BF30460DB069
:1023F000BDE8F08FB9480108880300206D28000867
:102400002DE9F04387B004460D4616461F46DDF819
:102410003880B4F90810608A62680023CDE9042886
:10242000CDE90053CDE90201B4F91030B4F90E2022
:10243000B4F90CC00CEB0701B4F90AC00CEB0600B0
:10244000FFF76AFF8146484607B0BDE8F08370B5E4
:102450000446002554B104F0B1FD204603F0ACFB66
:102460000646B6F9425005F0E5FE00BF284670BDAD
:1024700070B586B0044600258CB104F09FFD20465F
:1024800003F09AFB064601A9304600F0A1F8B6F920
:1024900040500DB9BDF9045005F0CCFE00BF2846F0
:1024A00006B070BD70B5044664B104F087FD2046E7
:1024B00003F082FB05462946204613F0F7FE05F09F
:1024C000B9FE00BF70BD70B5044664B104F076FD7E
:1024D000204603F071FB05462946204613F03CFFD9
:1024E00005F0A8FE00BF70BD70B5044684B104F0CD
:1024F00065FD204603F060FB05462946204615F0A1
:10250000A2F82946204615F06BF805F093FE00BFAF
:1025100070BD70B504460D463CB104F04FFD294630
:10252000204615F0B8F905F085FE70BD2DE9F041A3
:1025300004460D4604F042FD9CB1204603F03CFBEE
:102540000646304600F0CAF80746B562304600F04D
:1025500054F93946304600F0D1F820460DF058FEC7
:1025600000BF05F067FEBDE8F08170B505460E4678
:10257000B5B104F023FD284603F01EFB044636B136
:10258000B4F85C0040F01000A4F85C0005E0B4F87A
:102590005C0020F01000A4F85C0005F04BFE00BFCA
:1025A00070BD70B504460D468CB104F007FD2046A1
:1025B00003F002FB0646294606F1500006F011F929
:1025C00010B120460DF024FE05F034FE00BF70BDB2
:1025D0002DE9F04F85B005460C460020049003908D
:1025E000B5F9426028460EF0C4FA029028460EF073
:1025F000C8FA0190E88C10F0200F02D0B5F9440021
:102600000390284600F06AF88046B5F84E0020B1E5
:10261000B5F94E000DF070FC04900FFA88F02080A0
:10262000049800B2608030B2A0800298801B401EE7
:1026300001B221810398304400EB0801049808445A
:1026400001B2E1800198801B401E01B2618130B26D
:10265000A0810298801B401E01B2218231B2E1812B
:1026600006EB0800401E01B26182B5F918902FE018
:10267000484603F0A1FA0746B7F90000B5F9001083
:10268000A0EB010AB7F90400B5F90010A0EB010BAB
:10269000B7F90200B5F90210401A00900098B04254
:1026A00014D1B88B10F0800F08D0B4F91000504549
:1026B0000CDBAAF1010001B2218207E0B4F90C00A1
:1026C000584503DC0BF1010000B2A081B7F91A9064
:1026D000B9F1000FCCD105B0BDE8F08F70B504465C
:1026E0000025E08C10F0200F06D0B4F940501DB941
:1026F000A06A04F0DEFB851C284670BD2DE9F04F72
:1027000085B0044688462046FFF7E8FF0490049809
:10271000A0EB0805002D6DD04FF0000B00BF00208E
:102720008246814640F6FF70019040420090B4F925
:10273000186037E0304603F03FFA0746D7E900015A
:10274000CDE90201B4F902004242B4F9000041426D
:1027500002A805F0EAF8BDF90A10B4F94200814276
:102760001ED1BDF90E00BDF90A10401A401C4045AB
:1027700016D1B88B10F0800F09D0BDF90C1000985D
:1027800081420DDDB246BDF90800009008E0BDF9B8
:1027900008100198814203DAB146BDF908000190A2
:1027A000B7F91A60002EC5D1B9F1000F0AD02A4638
:1027B000294648460DF0E2FD0BFB05F10022484694
:1027C0000DF09BFDBAF1000F0BD02A46294650466A
:1027D0000DF0D4FD0BFB05F04142002250460DF0F8
:1027E0008CFD0BF1010BB9F1000F98D1BAF1000F7C
:1027F00095D100BF05B0BDE8F08F30B585B0044677
:10280000B4F84C0010B9B4F84E0068B369462046DD
:10281000FFF7DEFEB4F84C00B8B1BDF90620BDF9F3
:102820000410B4F94C000DF02EFDBDF90A50BDF9AD
:102830000630EB1A5A1CBDF90830BDF904505B1B79
:10284000591CB4F94C000DF0C4FFB4F84E0050B15F
:10285000BDF90630BDF902505A1BBDF90410B4F998
:102860004E000DF010FD00BF05B030BD2DE9FE4358
:102870000446B4F90470B4F904000DF0D9FA8046A6
:10288000404603F099F90546AE6C2068172858D0E9
:1028900008DC0E283ED00F280BD014284FD0152866
:1028A00053D14DE01F281AD020282ED022284CD1F9
:1028B00042E06FF07041E86B884204D0E86B08F0AA
:1028C00023FA03F05BFC46B194E807008DE80700AB
:1028D000ADF804706846B04700BFBDE8FE83A0684D
:1028E00090B1B5F85E0040B1B5F95E00B84204D0D1
:1028F000B5F95E000DF0D2FE04E038460DF026FF7B
:10290000A5F85E000020A060E7E7214640460CF0F5
:1029100000FDE2E7A068406800280CDDA068D0F860
:102920000090B9F1090F05D138460DF00FFFA5F859
:102930005E00D2E700BF08E0E86BA060CDE700BF13
:1029400000BF20460DF06AF8C7E700BF26B1A4F823
:1029500004802046B04702E020460DF05FF800BF3B
:10296000BBE7000051B14FF0204252F8202042F066
:1029700001024FF0204343F820200AE04FF02042AC
:1029800052F82020034B02EA03024FF0204343F8A1
:1029900020207047FEFF0F00D0E9011241EA02013A
:1029A000C26841EA0201026941EA0201426941EA60
:1029B0000201826941EA0201C26941EA0201026A36
:1029C00041EA0201426A41EA0201826A41EA0201E5
:1029D000C26A41EA0201026B41EA02014FF0204360
:1029E000026843F822108168082908D11A46016854
:1029F00052F8211041F04001026843F82210416B67
:102A00000968426B526841EA0211426B926841EADE
:102A10000221426BD26841EA0241426B126941EAEB
:102A20000251426B526941EA0261426B926941EA8A
:102A30000201026802F101024FF0204343F8221024
:102A4000C16AB1F5804F1BD1816B0968826B5268F6
:102A500041EA0211826B926841EA0221826B12699B
:102A600041EA0251826B526941EA0261826B9269CA
:102A700041EA0201026803EB8202C2F8041108E095
:102A80006FF070414FF02043026803EB8202C2F8FE
:102A9000041170472DE9F84F074688461446204632
:102AA00004EBD471491004FB04110091A8EB040954
:102AB00008EB040A2848006998B127480069B0F972
:102AC0000600504503DA24480069B0F906A0224800
:102AD0000069B0F90200484503DD1F480069B0F9FC
:102AE00002900026254616E0A8EB060BCB4511DB2D
:102AF000D3450FDC00E06D1E06FB06F005FB05016B
:102B000000988142F7DC7A19781B1349896D0B68AC
:102B100059469847761CA642E6DB0026254616E075
:102B200008EB060BCB4511DBD3450FDC00E06D1E37
:102B300006FB06F005FB050100988142F7DC7A19D7
:102B4000781B0549896D0B6859469847761CA64243
:102B5000E6DBBDE8F88F00006860002010B5044691
:102B60000A2C02D103F0A8FC11E00D2C0FD004F0C8
:102B700025FA0748806901682046884705480068AB
:102B800018B1204603490968884705F053FB10BD7A
:102B9000686000200C0300202DE9F04387B0044654
:102BA0000E461746D4F80C80002004F0EDFF0546D1
:102BB000B8F1000F05D098F8041011B145F00201EA
:102BC00001E025F00201084604F0DEFF206970B143
:102BD0000123D4E902018DE80B0003936388228866
:102BE00020693946D0F800C03046E0471EE0E06872
:102BF00006F027FB8146B9F1000F06D1E0880128D5
:102C000001D0002000E00C488146A188E088A2683D
:102C100001230093CDE90429CDE9013003916388B4
:102C200022883946304605F093FF00BF284604F05D
:102C3000ABFF07B0BDE8F083686000202DE9FF4FCF
:102C40008FB004460D4600200E9001907B48B0F9ED
:102C5000060006907948B0F90A00059020880B908C
:102C600060880A901D98002802DA1D98404200E012
:102C70001D9808901D98002804DA12990B98401AA4
:102C8000401E00E01298089948434FF47A7190FB77
:102C9000F1F02D1A1C9949421E9A01FB02F04FF4E3
:102CA0007A7105F0ACFC119900EB010B0BF10100FE
:102CB00004901E98002802DA4FF0FF3000E0012057
:102CC0000390E06820B1E068007908B1012001902C
:102CD0004FF00009AAE05E4609F101011C9A891A29
:102CE0001E9A01FB02F04FF47A7105F088FC1199ED
:102CF00000EB010B049886427ED0049600BF069834
:102D000086427EDB059886427BDC4FF0FF3A4FF02F
:102D100000080020079002900C9061E0DDE90701B7
:102D2000084407900798B0F57A7F56DB1D98002875
:102D300001DD0C9803E0DDE90B01401A401E09900B
:102D40004A462046099903F0B2FF87B20E9887429F
:102D500002D11AF1010035D177B9019860B102981A
:102D600078B305EB08014A1E05EB0A00314606F070
:102D70000FF80020029024E0029850B11AF10100EF
:102D800007D005EB08014A1E05EB0A00314605F0A5
:102D9000FFFFC24601200290206928B120694168E6
:102DA000384688470D9004E0E068806850F82700B6
:102DB0000D902248806C01680D988847009007F0BC
:102DC000EDFF0E9700BF08F101080798A0F57A7093
:102DD00007900798B0F57A7FF5DA0C98401C0C90B4
:102DE000DDE90B10884299DB029830B105EB080150
:102DF0004A1E05EB0A0001E016E002E0314605F04C
:102E0000C7FF039806441E98002805DA5E4501DDD9
:102E1000012006E0002004E05E4501DA012000E028
:102E2000002000287FF46BAF09F101090A98814561
:102E3000FFF651AF13B0BDE8F08F000068600020CE
:102E40002DE9F04707468846144640F2C320604308
:102E50004FF47A7190FBF1F000F1010904EBD471A9
:102E6000491004FB041A26460023224641463846F0
:102E7000FEF728F9012513E005FB05F006FB060027
:102E8000504506DD33462A4641463846FEF71AF9D4
:102E9000761E33462A4641463846FEF713F96D1C26
:102EA0004D45E9DDBDE8F0872DE9F0470546884648
:102EB000164640F2C32070434FF47A7190FBF1F054
:102EC00000F1010906EBD671491006FB061A3446DB
:102ED000AA19A81B2649896D0B6841469847012706
:102EE00041E007FB07F004FB0400504524DD4C459E
:102EF00021DD05EB070CACF1010208EB0401A5EBA9
:102F0000070C0CF10100DFF868C0DCF858C0DCF8F1
:102F10000030984705EB070CACF10102A8EB040167
:102F2000A5EB070C0CF10100DFF844C0DCF858C039
:102F3000DCF800309847641E2A1908EB0701281BAB
:102F4000DFF82CC0DCF858C0DCF8003098472A19AC
:102F5000A8EB0701281BDFF818C0DCF858C0DCF824
:102F6000003098477F1C4F45BBDDBDE8F08700006F
:102F70006860002070B504460E4615466119601B56
:102F800002F012FD2A4631462046FFF783FD02F08B
:102F900035FC70BD2DE9F04F87B006468946924654
:102FA0001F4640F6FF7006904042059000250CE059
:102FB00006EB8500B0F902400698844200DA0694D8
:102FC0000598844200DD05946D1C4D45F0DB4148B9
:102FD0000069D8B13F480069B0F90600C11B0598E7
:102FE000814205DA3B480069B0F90600C01B059034
:102FF00038480069B0F90200C11B0698814205DD1E
:1030000034480069B0F90200C01B0690069C5BE0E2
:1030100012F098FD002550E0A9F10100A84201DD61
:10302000681C00E00020049006EB8500B0F902B0B7
:10303000049806EB8000B0F90280A34524D1A04596
:103040000CD1049B36F9233003EB0A02E11936F95F
:10305000253003EB0A0010F0FFFD2DE023464A4621
:103060002946304612F079FB03900398A0420AD01B
:10307000A8EB0403CDE900A703990A1B36F9250044
:1030800021460EF087FA17E0A04515D0A04501DBD8
:10309000A34503DDA3450FDBA0450DDC049806EB3B
:1030A000800306EB850203A920460EF025FD10B132
:1030B00003980EF05FF900BF6D1C4D45ACDBE119C4
:1030C000504611F0EDFF641C05988442A0DD07B066
:1030D000BDE8F08F6860002010B5002004F027FDE7
:1030E0006FF07F4004F02DFD012004F077FD0020FB
:1030F00004F082FD002004F08FFD002004F044FD68
:10310000034804F04DFD002004F05AFD10BD0000FE
:10311000787302081CB5012120200BF07DF84FF4D4
:10312000707000904FF001008DF804004FF0000027
:103130008DF806004FF003008DF805004FF00100F8
:103140008DF807006946024800F004F81CBD000035
:1031500000140240F0B50A464FF0000529462B4600
:103160002C4600BF5CE04FF0010505FA01F52B4647
:10317000156805EA03052C469C424ED105684FEAC6
:1031800041074FF0030606FA07F625EA0605056033
:1031900015794FEA410605FA06F5066845EA06057F
:1031A00005601579012D02D01579022D22D185688F
:1031B0004FEA41074FF0030606FA07F625EA06052F
:1031C000856055794FEA410605FA06F5866845EAB5
:1031D0000605856045684FF0010606FA01F625EA06
:1031E000060545604568967906FA01F6B6B245EAE5
:1031F00006054560C5684FEA41074FF0030606FA29
:1032000007F625EA0605C560D5794FEA410605FAB5
:1032100006F5C66845EA0605C56001F101052946BF
:103220001029A0D3F0BDF0B54FF000052B462C4679
:103230004FEA41754FEAD56502FA05F52B464FEA8C
:10324000E10600F1200555F826504FEA41764FEA95
:10325000D6674FF00F0606FA07F625EA06054FEA8D
:10326000E10700F1200646F827504FEAE10600F199
:10327000200555F8265045EA03052C464FEAE1069D
:1032800000F1200545F82640F0BD02464FF000034E
:10329000184613690B4203D04FF00103184602E0B1
:1032A0004FF0000318467047418370470183704711
:1032B0002DE9F04F9DB067A170A001F011FC01F065
:1032C00041F9002004F033FC02F058FF02F08EFABE
:1032D000032002F07DFB4FF0000004460AE004EBFF
:1032E000C40101AA02EB4101084603F0B9FF04F151
:1032F00001000446022CF2DB03F099FD0746DFF8DB
:1033000090B1CDF870B04FF000067EE0404611F06D
:10331000B3FF6049009017F09FF812901298014691
:10332000584617F031F81ED01298834603F07FFDFF
:103330008246129803464FF0050257490DF12A00C4
:1033400004F072FB0AAB554A0AA901A804F06EF812
:1033500003F06DFDA0EB0A05322D04DAC5F1320150
:10336000084602F0FAFF404611F0D2FF49490090AA
:1033700017F072F81B901B9801461C9817F004F880
:1033800018D01B981C9003F052FD82461B980346F0
:103390004FF0040242490DF14E0004F045FB13AB1F
:1033A000404A13A90DF1160004F040F803F03FFD68
:1033B000A0EB0A09142096FBF0F100FB116008BB9A
:1033C0006FF07F4004F0BDFB002004F025FC364880
:1033D00004F0E6FB0A22114634A003F047F937480F
:1033E00004F0DEFB0A2003F069FD0321284603F008
:1033F00003F803F061F80A2003F060FD032148465A
:1034000002F0FAFF06F10100064603F010FDA0EB02
:10341000070847F23050804504DA00F05DFA0028D2
:103420003FF474AF4FF47A7000F056FB4FF0000099
:1034300004460AE004EBC40101AA02EB410108467C
:1034400003F06EFF04F101000446022CF2DB1DB014
:10345000BDE8F08F0A4578616D706C657320666F0A
:1034600072207468650A6175746F6D6F7469766532
:1034700020696E6475737472696500004175746FBC
:103480006D6F746976652073616D706C6573000093
:10349000000080BF35FA8E3CF0E20108514201087D
:1034A00004E30108C9420108CC7902086D73656321
:1034B0002F706963747572653A0A000078730208A8
:1034C0002DE9F04F89B005F0B7FE804605F0B7FE54
:1034D0008146C9A1D6A001F003FB4FF47F0004F0A0
:1034E00026FB02F04BFE0CF0DFFB04460CF043FB26
:1034F00032221421D04803F025F9D04804F050FBC3
:103500000A221146CEA003F0B1F801F044FE02F009
:1035100035FE0A221146D0A003F0A8F83222142169
:10352000D24803F00FF94FF47A6000F0D5FA01F0B9
:1035300009F84FF0000004461BE04FF0000005467C
:103540000DE0CA48408800FB05F2C848008800FB2F
:1035500004F1C64803F0F6F805F101000546C3483A
:10356000408899FBF0F0401CA842EADC04F101001D
:103570000446BE48008898FBF0F0401CA042DCDC0A
:103580004FF4FA6000F0A8FA00F0DCFFB8A001F0F8
:10359000DDF9022004F040FBC04804F001FB4FF0CD
:1035A000C800834647E003F042FC8246AF48CDE9BD
:1035B000058900880790AD484088089000EBD070DE
:1035C0004FEA6000CDE9000BCDF808B0079800EB9A
:1035D000D0704FEA6000034609EBD9704FEA6000F3
:1035E0000246DDF8148008EBD8704FEA600001460F
:1035F0009E4803F0D9F808EBD870401001466422C9
:10360000A7A0CDF8208003F051F803F0ACFA00BF7A
:1036100003F00DFC0AF10A01884203DA00F05CF9BC
:103620000028F5D003F003FCA0EB0A0000EB4000FB
:103630000BEB4000834640F6B830834503DA00F0D8
:103640004BF90028AFD04FF4FA6000F045FA00F0D3
:1036500079FF02F093FD8548CDF8208040884844EA
:10366000052303EB6000024608EBD87040100146CA
:1036700092A003F01BF84FF00004254680E003F011
:10368000D6FB82462046294615F090FD00228F4B3E
:10369000CDE9060116F042FA06460F46DFF8CCC126
:1036A000BCF802C0CC444FEA6C0C6346DFF8BCC1E6
:1036B000BCF800C0C4444FEA6C0C6246DFF8ACC1F1
:1036C000BCF802C0A9EB0C0C4FEA6C0C6146DFF8A9
:1036D0009CC1BCF800C0A8EB0C0C4FEA6C0C604617
:1036E00002F05AFD3046394616F082F9CDE90589D7
:1036F00004905E48008807905C4840884FF47A72D6
:103700000890089901EBD17149100498CDE90102A4
:103710000091079800EBD07040100346DDF8189038
:1037200009EBD97040100246DDF8148008EBD87020
:10373000401001464D4803F037F803F014FA00BF7B
:1037400003F075FB0AF10A01884203DA00F0C4F8BD
:103750000028F5D003F06BFBA0EB0A00039016F0F5
:1037600063FE5B49049016F04DFD059016F0B0FC29
:1037700022462B46CDE9060115F026FF04460D46EC
:103780004FF0C042534B2046294616F08BF904D225
:1037900000F0A2F800283FF472AF3448CDE9058963
:1037A00000880790314840884FF47A71089000EB08
:1037B000D0704010CDE900010291079800EBD07065
:1037C00040100346DDF8189009EBD970401002460E
:1037D000DDF8148008EBD87040100146234802F051
:1037E000E3FF01F0D8FC0CF05FFA04460CF0B0F9EE
:1037F00009B0BDE8F08F000053686F77696E670A03
:10380000646966666572656E74206269746D617064
:103810007320776974680A616E6420776974686FD1
:10382000757420636F6D7072657373696F6E0000DD
:103830004269746D617073003CF6010838BB020880
:10384000524C4520436F6D707265737365642062DE
:1038500069746D6170730000312F322F342F38205E
:10386000627070206269746D6170730084EE01088B
:103870004269746D617073206D617920616C736F42
:103880002062650A6D61676E696669656420616EB4
:103890006420726F7461746564000000CCE90208F2
:1038A0004269746D6170732063616E206265206D82
:1038B00061676E69666965642E2E2E002E2E2E615C
:1038C0006E6420726F74617465642E0000408F40D6
:1038D00000007A43FB21294010B503F095FA044615
:1038E0000CF05BF96E2C01D04E2C03D14FF001008F
:1038F0000B490870732C01D0532C0ED14FF4FA7081
:1039000002F02BFD00BF0A2002F027FD0CF045F964
:1039100003F07AFA0446002CF5D00148007810BD77
:10392000640100202DE9F04105F086FC044605F015
:1039300086FC054628A130A001F0D2F802F01EFC5A
:103940002F4804F02DF96FF07F4004F0FAF80022C0
:1039500011462CA002F08AFE27462E4605EBD672B1
:103960005210114604EBD77252101046322203F067
:1039700017F901F010FC012004F006F905EBD672EE
:103980005210114604EBD772521010463C2203F03D
:1039900007F9002004F0F8F801F0FDFB1BA000F08F
:1039A000D5FF02F0EBFB6FF07F4004F0CAF8002275
:1039B00011461DA002F05AFE05EBD67252101146B8
:1039C00004EBD772521010462F2201F025FF01F0B0
:1039D000E2FBBDE8F08100000A4172626974726125
:1039E000727920636972636C65730A616E64206129
:1039F0007263732E00000000436972636C6573008C
:103A000038A40208436972636C65000043697263FD
:103A10006C657320776974680A416E7469616C69BA
:103A20006173696E67000000416E7469616C696161
:103A30007365640A636972636C65000010B54FF0CA
:103A40000000044617A120A001F04AF84FF47F00BF
:103A500004F06DF802F092FB0EF04AFF4FF4FA60AA
:103A600000F03AF800F06EFD02F056FB4FF0000057
:103A7000044608E0164951F82410084612F0AAFC42
:103A800004F101000446042C03D2FFF725FF0028AF
:103A9000F0D00021084602F017FA0E4802F0BEF9F5
:103AA00010BD00000A75432F47554920737570708B
:103AB0006F7274730A736F667477617265206375D1
:103AC00072736F7200000000437572736F720000B2
:103AD0006C010020C46802082DE9FE4304464FF043
:103AE000000080461F49B1F9001008460BF0C2FEE5
:103AF000642C0EDD0E2100221B48B0F902000723C2
:103B0000CDE9012100903C220A2108460AF017FA6B
:103B100001E04FF0000007B22246002138460AF0CB
:103B200099FA03F084F9054600BF03F080F9A0EB91
:103B30000506314638460AF0FAFA0CF02EF80A204B
:103B400002F00BFCA64203DAFFF7C6FE0028ECD019
:103B500038460BF097FF14F087FA0CF01EF8404639
:103B6000BDE8FE8344010020540100202DE9F04F00
:103B700087B005F061FB834605F061FB06904D4878
:103B8000059000214CA000F0ABFFFF2000F0ECFC02
:103B9000049004980CF064FD04904FF00A0007466E
:103BA0004FF04B008046ABEB0700A0F10A008146C6
:103BB0000698A0EB0800A0F10A008246B9F18C0F2C
:103BC00002DD4FF08C008146BAF1780F02DD4FF034
:103BD000780082463B46022200213DA08DE8000786
:103BE000FEF77EFB05464FF001012846FEF791FCEB
:103BF00001212846FEF7B9FC002201212846FEF7E4
:103C000037FB012211462846FEF74EFB3449284671
:103C1000FEF78CFC28460CF039F8039040F28270D5
:103C2000002100910B460A46CDE901102D48039969
:103C300007F014FA064630460CF030FD3046059980
:103C400007F0A6FB01F0A7FA4FF0000408E03046A9
:103C500007F0A0FAFA20FFF73FFF04F10100044645
:103C60000A2C03DAFFF738FE0028F0D04FF00000EE
:103C7000044608E0304607F06FFAFA20FFF72CFF01
:103C800004F1010004460A2C03DAFFF725FE0028A0
:103C9000F0D04FF4FA70FFF71FFF30460BF0F2FE42
:103CA00028460BF0EFFE04980CF0DAFC07B0BDE8F4
:103CB000F08F0000306403084672616D652057691B
:103CC0006E646F772026204C697374626F780000F1
:103CD00053656C656374206C616E67756167650020
:103CE00058C30208E4FD01087047000070B505F0F4
:103CF000A3FA064600EBD6704FEA6000044605F0D2
:103D00009EFA064600EBD6704FEA6000054620A1F9
:103D100026A000F0E5FE6FF07F4003F012FF284878
:103D200003F03EFF0022114626A002F09FFCA4F102
:103D30003200024605F128030721274802F050FF10
:103D400005F1280304F132020721234802F048FF5D
:103D50004FF47F4003F0F5FE05F13C0322460321BA
:103D60001E4802F03DFF6FF07F4003F0EAFE01F0D5
:103D70003DFDA5F1280000EB4000034604EB4400A4
:103D800002460421164801F08BFD01F004FA70BDD3
:103D90000A5374616E6461726420616E6420616EA6
:103DA0007469616C696173656400000041726269E5
:103DB000747261727920506F6C79676F6E73000056
:103DC000287203084172626974726172790A506FD5
:103DD0006C79676F6E730000EC4E0208084F0208A2
:103DE000340200202DE9F04387B005F025FA814622
:103DF00000EBD9704FEA6000054605F020FA8146D5
:103E000000EBD9704FEA60000646A14903C9CDE92D
:103E100005019F4901F1080103C9CDE903014FF0F4
:103E2000020080469BA1A3A000F05AFE02F0A6F972
:103E30006FF07F4003F085FEA04803F0B1FEA6F1CD
:103E40002800024629469EA002F030FC0220009085
:103E5000DDF814C0E1460CEBD97CA5EB6C0C604698
:103E6000DDF80CC06346DDF814C06246A6F10F0C05
:103E700061460AF04EF8ADF808000220009006995D
:103E8000894601EBD971A5EB6101084604990B46FF
:103E900006990A4606F114010AF03BF8ADF80A004B
:103EA000BDF9081008460BF066FEBDF90A10084679
:103EB0000BF061FE4FF47A70FFF70EFEBDF90A10A9
:103EC00008464FF4FA7200210AF0C4F84FF00000DF
:103ED0000746C1E0BDF90810084678490AF0A9F87C
:103EE000BDF9081008464FF47F4200210AF088F817
:103EF000BDF908100846FF2201210AF081F84FF0B1
:103F00000000044611E0BDF90810084621460AF0F9
:103F10000EF9BDF90A10084621460AF008F90520F5
:103F200002F01BFA04F101000446642C03DCFFF7E5
:103F3000D3FC0028E7D0BDF90810084664A10AF0B8
:103F4000A6F813E0BDF90810084621460AF0EFF87C
:103F5000C4F1C8021146BDF90A2010460AF0E7F87C
:103F6000052002F0FAF9A4F101000446002C03DB5D
:103F7000FFF7B2FC0028E5D0BDF90810084657A1AC
:103F80000AF085F8BDF90810084600210AF0BCF8CF
:103F900013E0BDF90810084621460AF0C8F804F1FC
:103FA000C8021146BDF90A2010460AF0C0F80520E3
:103FB00002F0D3F904F101000446642C03DCFFF79E
:103FC0008BFC0028E5D013E0BDF908100846214617
:103FD0000AF0ADF8C4F5C8721146BDF90A201046C2
:103FE0000AF0A5F8052002F0B8F9A4F10100044692
:103FF000002C03DBFFF770FC0028E5D0BDF90810AA
:1040000008463A490AF015F8BDF90810084638A1E3
:104010000AF03DF813E0BDF90810084621460AF001
:1040200086F804F5C8721146BDF90A2010460AF058
:104030007EF8052002F091F904F101000446642C99
:1040400003DCFFF749FC0028E5D04FF47A70FFF756
:1040500043FD07F1010007464745FFF63BAF4FF42C
:104060007A70FFF739FDBDF9081008460BF00AFD1C
:10407000BDF90A1008460BF005FD4FF47A70FFF702
:104080002BFD1F4803F08CFD07B0BDE8F083000056
:10409000144F02080A50726F67726573736261721F
:1040A0007320696E0A616C6C207661726961746953
:1040B0006F6E7300576964676574730038A40208F3
:1040C00050726F6772657373206261720000000046
:1040D00054616E6B20656D7074790000416E7920BB
:1040E00074657874202E2E2E0000000030640308C2
:1040F000416E7920666F6E74202E2E2E0000000017
:10410000D0B202082DE9FC413AA143A000F0E8FC3E
:1041100000F0C8F8FF200CF0A3FA06464FF00000AC
:1041200000900346404A4FF00E0101903F4802F0D4
:10413000A4F805464FF00000044610E03C4901EBAE
:10414000C40149680846FFF7C7FC394911F8341023
:104150000846012103F0DEFC04F1010004460C2CAA
:10416000ECD34FF47A70FFF7B7FC4FF00000044631
:1041700012E028460CF07BF840B14FF498712846C5
:104180000BF098FD074621460AF0B4FC6420FFF7C7
:10419000A3FC04F10A000446642CEADD4FF44870E5
:1041A000FFF79AFC28460CF062F840B11422114641
:1041B00028460CF094F84FF4FA70FFF78DFC28466F
:1041C0000CF055F840B114223C2128460CF087F839
:1041D0004FF44870FFF780FC28460CF048F810B107
:1041E00028460BF04FFC00F0ADF930460CF038FAE1
:1041F000BDE8FC810A4469616C6F6720626F786575
:10420000730A63616E20656173696C792062652051
:1042100063726561746564004469616C6F672062F4
:104220006F78657300000000218B0108B0F601086B
:104230007C01002010B509A115A000F051FC01F08F
:104240009DFF11F083FE0EF057F800F07BF90EF0A1
:10425000D5FA00F077F90EF005F810BD0A4F70742A
:10426000696D697A65642064726177696E6720722E
:104270006F7574696E6520666F720A647261776922
:104280006E6720677261706820646174610000006D
:1042900044726177696E672061206772617068009F
:1042A0007047000010B50349B1F9001008460BF043
:1042B000F5FE10BD48010020F0B58DB004F0BCFF44
:1042C000064600EBD6704FEA600005464FF0340218
:1042D0004D496846FCF78BFA02F0AEFD06463146C2
:1042E0006846FCF7F1F94FF47F0003F020FC4748E3
:1042F00003F027FC01F042FF454803F051FC0F207A
:1043000004460246294643A002F0D0F96FF07F40F0
:1043100003F017FC414803F043FC04F11E0004467F
:10432000024629463EA002F0C1F9384803F009FCD4
:10433000494803F035FC04F12800044602462946AA
:1043400046A002F0B3F94E4803F02AFC04F119002C
:104350000446024629464BA002F0A8F9514803F052
:104360001FFC6FF07F4003F0ECFB04F115000446E6
:1043700002462946684602F099F94B4803F010FCC2
:10438000FF2003F0DEFB04F05AFF2838074604F054
:1043900053FF064600EBD670401001463A4643A054
:1043A00002F084F904F048FF45490988401A06469E
:1043B00000EBD670401001469622414802F0C2F947
:1043C0006FF07F4003F0BDFB2D4803F0E9FBD222E4
:1043D00000213CA002F04AF9012002F02BF8DC2277
:1043E00000213BA002F042F942F2107002F022F8E4
:1043F000E62200213BA002F039F941F28830FFF7B4
:104400006BFB0DB0F0BD000014FE0108FF808000C2
:1044100044400308B5432F47554900000CD5020816
:10442000556E6976657273616C2067726170686938
:104430006320736F6674776172650A666F722065B8
:104440006D626564646564206170706C6963617439
:10445000696F6E730000000068F40208416E7920F5
:10446000435055202D20416E79204C4344202D206F
:10447000416E79204170706C69636174696F6E0080
:10448000D0B20208436F6D70696C6564204D61792C
:1044900020203620323031342031353A34373A3129
:1044A0003900000090DE0208306403087777772E29
:1044B0007761766573686172652E6E6574000000C1
:1044C0005C6802084755495F4F533A2000000000DE
:1044D0004755495F414C4C4F435F53495A453A2039
:1044E00000000000436F6D70696C65723A4D444B7B
:1044F0002D41524D20342E323000000010B503A162
:104500000BA000F0EDFA13F06BFB10BD0A53616DC8
:10451000706C6573207573656420696E0A4E6176F0
:1045200069676174696F6E2073797374656D730068
:104530004E617669676174696F6E20737973746513
:104540006D00000010B54FF000000549087013F031
:104550008BFD0448006800F101000249086010BDAD
:10456000640100206001002070B505464FF0FF0097
:1045700001F077FE08B12C4601E04FF00004204620
:1045800003F0D5FA204670BD2DE9FC5F4FF00D0019
:10459000834604F054FE82464FF046000446AAEBE0
:1045A0000400BAF5A07F02DA4FF0000101E04FF0FD
:1045B0003C01A0EB010090FBFBF54FF03C084FF0F5
:1045C000000004F089FD0190012004F085FD814682
:1045D000A9EB08008146B449B4A000F081FA6FF05D
:1045E0007F4003F0AEFA002003F0A1FA01F0C6FD0F
:1045F000B14803F0D5FAB1A001F094FFB24803F03E
:10460000CFFAB2A001F08EFF42F21D3001F012FF8E
:10461000B3A001F087FF102001F00CFFB1A001F062
:1046200081FFB2A001F07EFF019801F003FFB0A06E
:1046300001F078FFB1A001F075FF40F2352001F0E4
:10464000F9FEB24803F0ACFA6FF07F4003F079FA5C
:10465000601902460021AEA002F008F8032000FB1A
:1046600005420021ABA002F001F8052000FB054245
:104670000021AAA001F0FAFF062000FB054200215C
:10468000A8A001F0F3FF082000FB05420021A7A02D
:1046900001F0ECFF0A2000FB05420021A5A001F07B
:1046A000E5FF0C2000FB05420021A4A001F0DEFF85
:1046B0004FF00007EDE0C7EB0720B0FBF9F080B248
:1046C000064608EB070080B20090304603F039FA46
:1046D0006019401E02462146009802F007FAC6F112
:1046E000FF0101EB0121FF2202EB0121084603F04B
:1046F00028FA022000FB0540401E024660190146D0
:10470000009802F0F3F93102084603F01AFA032088
:1047100000FB0540401E0246022000FB05410098B8
:1047200002F0E4F9C6F1FF0101EB014101F57F411F
:10473000084603F006FA042000FB0540401E02462E
:10474000032000FB0541009802F0D0F9310408462F
:1047500003F0F7F9052000FB0540401E0246042047
:1047600000FB0541009802F0C1F9C6F1FF0101EB21
:10477000012101F57F01084603F0E3F9062000FB63
:104780000540401E0246052000FB0541009802F04E
:10479000ADF906EB062101EB0641084603F0D1F91D
:1047A000072000FB0540401E0246062000FB054195
:1047B000009802F09BF906EB0621084603F0C1F9C8
:1047C000082000FB0540401E0246072000FB054173
:1047D000009802F08BF9C6F1FF014FF6FF7202EB71
:1047E0000141084603F0ADF9092000FB0540401ED9
:1047F0000246082000FB0541009802F077F906EB1D
:1048000006210902084603F09CF90A2000FB054036
:10481000401E0246092000FB0541009802F066F99F
:10482000C6F1FF01474A1144084603F08AF90B20FC
:1048300000FB0540401E02460A2000FB054100988F
:1048400002F054F906EB0641084603F07AF90C2011
:1048500000FB0540401E02460B2000FB054100986E
:1048600002F044F9C6F1FF014FF0FF1202EB012103
:10487000084603F066F90D2000FB0540401E024685
:104880000C2000FB0541009802F030F907F101000F
:1048900007464F4504DAFFF71FF800283FF40BAF37
:1048A00000F079FCBDE8FC9F50F60108436F6C6F87
:1048B000722062617200000038A40208436F6C6FBE
:1048C0007220626172730A00E87F02080A4C434456
:1048D0005F434F4E54524F4C4C45523A200000001B
:1048E0000A00000020627070000000002C20000010
:1048F00020636F6C6F72730A000000004669786570
:10490000642070616C657474653A2000FC8602084E
:1049100052656400477265656E000000426C756503
:1049200000000000477265790000000059656C6C5A
:104930006F7700004379616E000000004D6167658C
:104940006E74610000FFFF007047000010B5044660
:104950000248046013F092FB10BD000068010020C3
:1049600010B511A120A000F0BBF813F0F9F80D224A
:10497000224923A013F088F810222B492BA013F012
:1049800083F82F4A2FA13CA013F0C0F83F4A40A162
:1049900048A013F0BBF84C4A4CA14FA013F0B6F856
:1049A000FFF7D0FD10BD000075432F475549207318
:1049B0007570706F72747320554E49434F44450AA9
:1049C00028616C6C2063686172616374657273291D
:1049D000616E640A5368696674204A495320284A04
:1049E0006170616E29000000496E7465726E6174B9
:1049F000696F6E616C20666F6E74730038BB02085D
:104A000041534349492063686172616374657273FD
:104A10000A26204575726F7065616E0A6578746547
:104A20006E73696F6E730000080F03084869726146
:104A300067616E6120260A4B6174616B616E610073
:104A4000DC010020466F6E74436F6E76657274658C
:104A50007220617661696C61626C6520746F20639D
:104A6000726561746520796F7572206F776E20664C
:104A70006F6E74732E2E2E0050726F706F72746989
:104A80006F6E616C0A466F6E74730000F80100204F
:104A9000466F6E7473207769746820666978656400
:104AA00020636861726163746572207769647468F9
:104AB0002E2E2E004D6F6E6F7370616365640A4613
:104AC0006F6E747300000000140200200A2B2D206A
:104AD000302E31323334000044696769747300004A
:104AE0002DE9F04198B004460D46684602F0FCFFFF
:104AF0002F4804602F48056003F03EF8FFF7D2FB13
:104B00004FF47F0003F013F86FF07F4003F019F8C3
:104B100001F034FB284803F043F804F090FB032134
:104B200090FBF1F00A38074604F086FB064600EBDE
:104B3000D670401001463A46204601F0B7FD1D48A8
:104B40000068B0B11D4803F02BF804F078FB06466E
:104B500000EBD67040100A38804604F06DFB074623
:104B600000EBD7704010014642461248006801F041
:104B70009DFD1049096811B14FF4FA6101E04FF44D
:104B80007A610846FEF7A8FF13F078FA13F06CFA82
:104B9000684602F03FFF0BF000F8FFF7D3FCFF2060
:104BA00002F0C5FF01F0EAFA18B0BDE8F08100009C
:104BB000580100206801002028720308E87F0208DD
:104BC0002DE9F0418AB042A14DA0FFF789FFFFF720
:104BD000B9FC4FF47F4002F0AAFF01F0CFFA06A81B
:104BE00002F0D8F8FF2001F03CFB10B14FF0FF00BD
:104BF00001E04FF000000746384602F098FF01F050
:104C0000BDFA02F014F906464FF0000435E04FF00B
:104C1000320095FBF0F000F15A00089002F04EFAD5
:104C20008046404602F090FA4FF00000099008A834
:104C30000EF002F806A9404602F06EFA404602F075
:104C40005DFADDE90601CDE9020124B104AA06A955
:104C500006A802F025FEDDE90201CDE904014FF0CE
:104C6000010009904FF0000308AA2949009006A806
:104C700002F058FB04F10100044602F0D8F8A0EB62
:104C80000605B5F5FA5F04DAFEF726FE08B901203D
:104C900000E000200028BAD11E4802F081FF6FF02A
:104CA0007F4002F04EFFC8220A211BA001F0DEFC6B
:104CB00024B195FBF4F0804601F0BCFB4FF47A7010
:104CC000FEF70AFF01F05AFA0AB0BDE8F0810000D1
:104CD000466F7220666C69636B65722066726565EB
:104CE00020616E696D6174696F6E0A616E64206F18
:104CF0007468657220707572706F73657300000060
:104D00004D656D6F72792064657669636573000027
:104D1000392C0108049D03086D732F55706461746C
:104D2000653A20002DE9F04786B002F080F807468A
:104D30004FF00000044604F07FFA054604F07FFAC5
:104D400006464FF0000080466BA177A0FFF7C8FE33
:104D50004FF0000004460BE0764951F82410084655
:104D600001F063FA02A921F8140004F101000446DD
:104D7000082CF1DB4FF0000004467CE004F0070152
:104D800002AA32F81110084602F0E6FEFBF770FAAC
:104D900090FBF5F105FB1100A94605EBD971A0EBDD
:104DA000610000B2ADF80000FBF762FA90FBF6F18B
:104DB00006FB1100B14606EBD971A0EB610000B211
:104DC000ADF80200FBF754FA90FBF5F105FB11007A
:104DD000BDF80010084400B2ADF80400FBF748FA33
:104DE00090FBF6F106FB1100BDF80210084400B27A
:104DF000ADF80600BDF906C06346BDF904C06246C1
:104E0000BDF902C06146BDF900C0604601F00CFF6B
:104E1000BDF90400A84204DBA5F1010000B2ADF821
:104E20000400BDF90600B04204DBA6F1010000B2A7
:104E3000ADF80600BDF90000002803DA4FF00000CD
:104E4000ADF80000BDF90600002803DA4FF00000BD
:104E5000ADF80600BDF90400BDF90010A0EB01009B
:104E6000BDF90610BDF90220A1EB020100FB01888B
:104E700004F10100044601F0DAFF07F5FA51081ABF
:104E8000002804DDFEF728FD00283FF477AF01F08D
:104E9000CEFFA0EB07004FF0640190FBF1F0074656
:104EA00001F06CF9FFF74EFB234802F079FE6FF03A
:104EB0007F4002F046FE04F0C2F9824601F09AFFFC
:104EC000AAEB0000814600EBD970401002460A218F
:104ED0001AA001F0CBFB17B907F10100074698FBB8
:104EE000F7F000EB80004000814601F0A3FA00F0EB
:104EF00052F906B0BDE8F0874D756C7469206C619D
:104F000079657220636C697070696E670A486967B9
:104F1000686C79206F7074696D697A656420647259
:104F20006976657273000000486967682073706570
:104F300065640000244F0208049D030850697865E9
:104F40006C732F7365633A20000000002DE9F04771
:104F500086B004F071F9054604F071F981462846DF
:104F600005EBD0714FEA61010F46484609EBD0715D
:104F70004FEA61018846FFF7E5FAFFF793F900BFB2
:104F80004FF00000ADF810004FF03200ADF8120005
:104F900028B2ADF814004FF05A00ADF816004FF4E7
:104FA0007F0002F0C4FD01F0E9F8681E4D49098850
:104FB000401A824600EBDA70401001460F22494841
:104FC00001F0C0FB484802F0EBFD0E2204A947A007
:104FD00001F086FB02200321A8F11E02CDE900109A
:104FE0001146A7F13202104632236422FBF7ABFED2
:104FF000ADF8080002200121CDE90010A7F15A0107
:1050000008461E23502208F11E01FBF79CFEADF856
:105010000A00022000901E23502208F11E01019078
:1050200007F10A00FBF78FFEADF80C00BDF9081080
:10503000084635A1FBF775FFBDF908100846FF22A9
:105040000021FBF70BFFBDF90A10084631A1FBF761
:1050500068FFBDF90C10084631A1FBF762FFBDF9EE
:10506000081008463349FBF721FF00F09CF804467E
:105070006CB94FF001000446BDF90A1008464FF420
:105080008071FBF746FF4FF4FA70FEF725FD4FF0F5
:105090000000064608E002A931F9161008460AF099
:1050A000F1FC06F101000646032EF4D3012C04D0D6
:1050B000022C09D0032C0AD103E00FF0F3FA0446C6
:1050C00005E00FF0ADF902E012F0BAFE00BF00BF3C
:1050D00024B16E2C02D04E2C7FF452AF06B0BDE846
:1050E000F08700005C680208F0190308B5432F47F9
:1050F000554920546F7563682073637265656E202F
:1051000064656D6F0000000043616C6962726174D8
:10511000650000004B6579626F61726400000000F9
:10512000546573742063616C6962726174696F6E37
:10513000000000002872030810B5FFF703FA0020F2
:1051400002F0F5FC01F01AF804200BF077FA0AF0EF
:10515000ABFD04460AF00FFDFFF7A4F80DF026FBA7
:105160000CF046FE0CF08EFE0CF08AFF0CF026FED2
:105170000CF0AAFF0CF006FE0DF012F80CF032FF56
:105180000CF0F6FE0DF01CF90DF026FA0DF0B4FA55
:105190000CF0AAFE10BD10B54FF47A60FEF79CFC2F
:1051A000FFF7D0F910BD2DE9F8434FF00000054698
:1051B00001F03DFE00F57A60064604F040F828381C
:1051C000804604F039F846388146022005235022F3
:1051D00041460090484608F09CFE074604E001F076
:1051E00013FE050000D00DE001F021FEA6EB000447
:1051F000002C04DDFEF770FB08B9012000E0002060
:105200000028ECD100BF38460AF03CFC0AF0C5FC8F
:105210002846BDE8F88300002DE9F04798B000F07B
:105220007BFF00F0ABFF04200BF008FA4FF01E00EC
:10523000704908604FF014006F49086003F0FFFFE9
:105240003C38814603F0F8FF503882463C2050211C
:1052500053460A22CDE900910290002167A0FDF794
:105260003FF868494880B1F9021008460AF032FD5B
:105270008146002064490A220346CDE90092CDE927
:105280000210024601460AF025FB604948800E21C3
:1052900053225E48B0F90200CDE901210090564842
:1052A00003685448142102680420FBF762FD584942
:1052B00008800E224E215548B0F902008DE8070003
:1052C0004D4803684B48142102682820FBF751FD24
:1052D0004F494880B1F9001008464EA1FBF721FE66
:1052E0004B49B1F9021008464CA1FBF71AFE12F027
:1052F000BBFE0AF052FCFEF7DFFF03F09DFF814684
:1053000000EBD9704FEA600005464FF041000646B9
:1053100003F092FFA0EB050007464FF00000804627
:105320003B464FF0080201463EA0CDE900850296BB
:10533000FCF7D6FF33490880B1F9001008460AF09F
:10534000C9FC814600200A22CDE90120034602461D
:105350000146CDF8009003900AF0BCFA2B49088072
:105360000AF01BFC4FF00000314908601CE0684661
:1053700002F0BAFB4FF000002E49086012F074FEF4
:105380002D492B4A126851F82210084680474FF0E9
:1053900000002A490870684602F03CFB2448006877
:1053A00000F101002249086023482149096850F8AA
:1053B00021000028DBD1044608E0124931F914101D
:1053C00008460AF05FFB04F101000446022CF4D306
:1053D0004FF00000044608E00C4931F9141008466B
:1053E0000AF050FB04F101000446022CF4D318B07B
:1053F000BDE8F0874C01002050010020436F6E741F
:10540000726F6C0048010020158D010854010020C6
:105410004401002053746F70000000004E657874E2
:1054200000000000B5432F4755492044656D6F00CB
:105430005C01002060010020F400002064010020D5
:105440002DE9F04F8BB005465C48B0F922000A9078
:105450005A48B0F924A080698469B4F80C804545A5
:1054600009DBE089A84206DBD4F80090A5EB08062A
:105470004FF0FF371DE0A068D4F80490A8B1B0F851
:10548000008045450DDB4188A9420ADB0288AA1A43
:1054900095B2416801EB8501B1F90060B1F9027084
:1054A00006E04FF0FF36374602E04FF0FF36374652
:1054B00000BF701C77D041488069007DA17C4843C3
:1054C0000990207C08903D488069007D07903B480A
:1054D000B0F92AB0584605F0B1FCC0B20690374B7F
:1054E000099806FB0092A17C0120CDE90423CDE9B7
:1054F000020118468069C37D30488069827DCDE90C
:1055000000235146DDE907320A9803F021FB781C9D
:105510001BD04BF0020005F091FC284B099807FBCB
:105520000092A17C0120CDE90423CDE902011846B7
:105530008069C37D21488069827DCDE90023514681
:10554000DDE907320A9803F003FB1C488069407DBF
:105550001A498969097D884221DDBBF1020F1ED0FD
:105560008BF0040005F06AFC14488069007DDFF8C8
:105570004CC0DCF818C09CF815C000FB0CA10F480B
:105580008069407D00EB0A030C48806990F816E0C2
:10559000DDF820C00A980CFB0E0203F057FD0698B8
:1055A00005F04CFC00BF0548408C617C084400B20B
:1055B000024948840BB0BDE8F08F0000686000200D
:1055C000014603488069826900BF507C7047000033
:1055D0006860002000BF02220A80704730B5044690
:1055E000A2699589A94204DBD089884201DB0120A8
:1055F00030BD93683BB11888884204DC58888842E3
:1056000001DB0120F4E700BF0020F1E72DE9F04FB6
:1056100087B005464348B0F92A8001468969886900
:10562000294600F081F80646002E77D03188691AA5
:10563000706800EBC104A778404605F0FFFB0690B8
:10564000384B01206268CDE9037205930290184639
:105650008069C37D33488069827DDFF8C8C0CDE9A9
:105660000023DCF818C09CF814302278DFF8B4C0AE
:10567000BCF92410BCF9220003F06AFA29488069B9
:10568000407D28498969097D884237DD2548806940
:1056900090F8179023488069407D00FB09FA214863
:1056A0008069007D00FB09FBB8F1020F25D001F0F5
:1056B0007AFB059001F050FB049002F042FADFF80B
:1056C00064C0BCF922C094F800E00CEB0E02DFF8D5
:1056D00054C0BCF924C00CEB0A03DFF848C0BCF985
:1056E00024C00CEB0B01DFF83CC0BCF9220003F036
:1056F000ADFC059802F025FA00BF00BF069805F042
:105700009DFB0848B0F922006178064A9269927DB3
:1057100001FB020000B20349488400BF07B0BDE8A6
:10572000F08F00006860002007E002888A4203DCF6
:1057300042888A4200DB02E080680028F5D100BF81
:105740007047000070B50446094989698869214697
:10575000FFF7EAFF05464DB12988611A686810F81D
:10576000310003498969897D484370BD0020FCE709
:105770006860002000BF01220A80704770B50446AF
:105780000D462946A069FFF7CFFF06460EB101205E
:1057900000E00020C0B270BD10B5002414E004EB9E
:1057A000C40101EB04110A4A02EB8101081D6022C9
:1057B0000849FBF71CF8002004EBC40101EB0411BD
:1057C000034A42F82100641C042CE8DB10BD0000F1
:1057D000086100206860002010B54FF0FF300249DA
:1057E000086002F059FD10BD140400200120024998
:1057F00081F85D00704700006860002010B50FF070
:1058000075FC0348006803498865081D086110BDE0
:10581000B8020020686000207CB505460E4614469C
:1058200001F0CCFB0BF072F905440BF07BF9064458
:105830001A4890F85D0058B9184890F85C00454344
:10584000164890F85C004643144890F85C004443C6
:10585000281B00F057F8ADF80000281900F052F8A6
:10586000ADF80400301B00F04DF8ADF8020030191F
:1058700000F048F8ADF8060068460BF08BF948B127
:1058800000BF224631462846FDF774FB0BF0FCF8BA
:105890000028F6D102F0CEFC7CBD0000686000203C
:1058A0002DE9F04106460F4614461D4601F086FBE1
:1058B0000BF02CF904440BF035F9054400200BF0F3
:1058C00069F9C0B100BF0E48806C406B48B10C480C
:1058D000806C2B4622463946D0F834C03046E0472B
:1058E00005E02B462246394630460FF0B3F80BF060
:1058F000CBF80028E7D102F09DFCBDE8F081000064
:10590000686000200146064890F85C0028B1044811
:1059100090F85C0091FBF0F000E0084600B27047A0
:105920006860002070B504460D460026002C00DAA1
:105930000024281BB0F5A07F01DB04F23F15A5422F
:1059400001DA254601260F48826D0F4806CA06C0B7
:105950000C48806D0D4908600D480B4908600846E9
:10596000084988650B480C4908600C4804600C48DD
:1059700005600CF01DF9FBF75BFB0A480149086163
:10598000304670BD68600020B0020020B8020020E0
:10599000D93A0108002E0020900200209402002035
:1059A00098020020A802002070B504460D46074862
:1059B00090F85C0094FBF0F4044890F85C0095FBD0
:1059C000F0F529462046FFF7ADFF70BD6860002066
:1059D00010B50446024981F85C40FBF729FB10BD75
:1059E000686000202DE9F04105460C4601F0E6FA1A
:1059F00014B90020BDE8F081204600F017F80646F3
:105A000086B1304600F0D8F807462DB12246294627
:105A10003846FAF765FE04E022460021384602F0D7
:105A200008FF00BF02F006FC3046E3E770B504460D
:105A30000CB9002070BD01F0C1FA20460BF0FCFD4E
:105A4000054602F0F7FB2846F4E770B5044601F07E
:105A5000B5FA2046FFF7EAFF05463DB1284600F0BB
:105A6000ABF806462246002102F0E3FE02F0E2FB1C
:105A7000284670BD10B5044604B910BD01F09EFA69
:105A800020460FF09DFB02F0D5FB00BFF5E710B5F7
:105A9000044601F093FAB4F90000FFF7EBFF002091
:105AA000208002F0C7FB10BD2DE9F041002701F076
:105AB00085FA0CF017F8002510E0154830F835008D
:105AC000134901EBC50149880844114931F83610E2
:105AD000081A04B2BC4200DD274635460C4800EBEC
