:020000040800F2
:10000000F8060020192A0008A9060008AB06000817
:10001000AD060008AF060008B106000800000000A9
:10002000000000000000000000000000B30600080F
:10003000B506000800000000B7060008B906000871
:10004000332A0008332A0008332A0008332A00081C
:10005000332A0008332A0008332A0008332A00080C
:10006000332A0008332A0008332A0008332A0008FC
:10007000332A0008332A0008332A0008332A0008EC
:10008000332A0008332A0008332A0008332A0008DC
:10009000332A0008332A0008332A0008332A0008CC
:1000A000332A0008332A0008332A0008332A0008BC
:1000B000332A0008332A0008332A0008332A0008AC
:1000C000332A0008332A0008332A0008332A00089C
:1000D000332A0008BB060008332A0008332A000828
:1000E000332A0008332A0008332A0008332A00087C
:1000F000332A0008332A0008332A0008332A00086C
:10010000332A0008332A0008332A0008332A00085B
:10011000332A0008332A0008332A0008332A00084B
:10012000332A0008332A0008332A0008332A00083B
:10013000332A0008332A0008332A0008332A00082B
:10014000332A0008332A0008332A0008332A00081B
:10015000332A0008332A0008332A0008332A00080B
:10016000332A0008332A0008332A0008332A0008FB
:10017000332A0008332A0008332A0008332A0008EB
:10018000332A000800F002F800F04FF80AA090E8C7
:10019000000C82448344AAF10107DA4501D100F042
:1001A00044F8AFF2090EBAE80F0013F0010F18BFC0
:1001B000FB1A43F001031847EC6E00000C6F0000BF
:1001C000103A24BF78C878C1FAD8520724BF30C883
:1001D00030C144BF04680C60704700000023002455
:1001E00000250026103A28BF78C1FBD8520728BF47
:1001F00030C148BF0B607047662906F074836429DC
:1002000004F0D880632904F08984002070471FB56A
:1002100006F0E7FA04F0D2FC04000020002105F00B
:1002200047FCE0601FBD10B510BD04F0E7FD1146AE
:10023000FFF7EDFF00F068F904F005FE03B4FFF7E7
:10024000F2FF03BC00F0CBFA00E0401E0028FCD116
:1002500070472DE9FC41D74C61684FF47A70B1FBCF
:10026000F0F16268B2FBF0F300FB13206422B0FBF4
:10027000F2F2D1A004F040F82188D5A004F03CF8B7
:10028000606805F0F1FE02460B460020D44905F0F7
:1002900013FDD44D00222B4606F004F802460B460F
:1002A0000020D14905F008FD05F018FCCF4906F003
:1002B00071F906F0E1F805F045FA0022CC4B05F0A3
:1002C000FBFCCC4ACC4B05F03BFC02460B46002025
:1002D000294605F0F1FC0022C84B05F0E3FF05F0CC
:1002E000FDFB074606F0C8F805460E460B462A46B3
:1002F000C3A004F001F8C849384606F04BF9C749D5
:1003000006F0E6F806F008FA8DF80400384606F024
:1003100003FAC0B20A21B0FBF1F201FB1200002780
:1003200030308DF805004FF6FF78434601AA394674
:100330003846009701F083FF4346B9A20021102000
:10034000009701F07CFF4346B6A2102100200097E1
:1003500001F075FFB94ABA4B2846314605F0ACFCAE
:1003600005F03EFE0546E0684FF47842E0B1A16832
:100370004B1B012B02D86B1A012B0CD90092C5F133
:10038000E00293B2203082B2C1F1E00189B280B2C2
:1003900001F0BEFE06E0C5F1E001203089B280B276
:1003A00001F0A6FEA56005E0C5F1E00081B22020C5
:1003B00001F09EFE6FF07F40A560401EFDD1E06819
:1003C000401CA0F58071E0603F3900D1E760BDE8D6
:1003D000FC8138B54FF6FF751F22E023202110461F
:1003E000009501F095FEE02340F23F1219461F20D0
:1003F000009501F08DFE00242B4692A2BA212046E2
:10040000009401F01CFF4FF6E0738FA293210020AF
:10041000009401F014FF4FF6C0438CA26C21002021
:10042000009401F00CFF4FF6801389A246210020B2
:10043000009401F004FF4FF4784386A21F210020AE
:10044000009401F0FCFE38BD70B59CB001218248DB
:1004500002F00FFF0121880202F033FF4FF08060AD
:1004600000907E480190534802A90024012531C123
:10047000E802CDE9064080000890401109900AA9E1
:100480000594400231C1764E0D94694630460E9473
:1004900003F0EBF90121304603F020FA68021990CD
:1004A00003208DF868008DF86B4019A96D4802F0A3
:1004B0008BFB15941694179415A8189402F0DBFF83
:1004C0000F948DF84040119412941394634C8DF85E
:1004D00041504C3C8DF850500FA9204602F0A0FF2F
:1004E000002301220721204603F012F801212046B3
:1004F00003F08AF80121204603F07CF80121204610
:1005000002F0D3FF1CB070BD08B503F051FE03F03C
:100510006EFE00F001F900F052F900F027FAFFF743
:1005200093FF4E484C3803F02DF84FF47846304690
:1005300001F075FD4FF6FF773B464BA26821842002
:10054000009601F07CFE6FF07F452C46641EFDD1C5
:10055000304601F064FD3B4646A278214C200096CF
:1005600001F06DFE6D1EFDD1002001F058FD47A089
:1005700003F0C2FE01F0B2FE02F0D5F9FFF729FF49
:100580000C4C474D40F6FF76208840F6E441484346
:10059000B0FBF6F06060FFF75CFE02F033F8014656
:1005A000404A3F4802F06CF96988288801F08FFFC3
:1005B000EAE7000000000020566F6C746167652058
:1005C0003D2025642C256420562020200D0A0000A3
:1005D000414443203D2025642020200D0A000000D6
:1005E00000C8A9400000F03F00408F4000007A445E
:1005F00000DCAE408B33DA3D6C7D6B3F0010714008
:1006000054656D7065726174757265203D20253387
:10061000662020200D0A000000002041000040421A
:10062000430000004144432054656D70657261745D
:100630007572652053656E73696E6700CDCCCCCC46
:10064000CCCCF43F35300000313030003135300053
:100650003230300032353000200040004C22014062
:1006600010640240001402404F70656E3230375AF9
:1006700000000000446576656C6F706D656E7420D7
:10068000426F6172642056312E3000000D0A426FB5
:100690006F7420537563636573730D0A0000000067
:1006A00028000020500000207047FEE7FEE7FEE72C
:1006B000FEE7704770477047704710B5084C40F22E
:1006C0002551204602F084FC002808D0204602F084
:1006D000E8FB0146BDE8104002A003F00DBE10BDCE
:1006E000001001405553415254204879706572748E
:1006F00065726D696E616C20496E74657272757099
:1007000074732052656365697665206120776F7226
:10071000643A2025630D0A0070B5012186B00846B1
:1007200002F0A7FD0121084602F0A3FD01211020DF
:1007300002F0C7FD324E07220921304602F0B5FA19
:1007400007220A21304602F0B0FA7015009002200C
:100750008DF8040000248DF806408DF80500012571
:100760008DF807506946304602F02EFAA802009034
:100770008DF806508DF807406946304602F024FA9D
:100780004FF4E130ADF80C400290ADF80E40ADF8FA
:100790001040ADF814400C201A4CADF8120002A91C
:1007A000204602F0DEFA012240F22551204602F0F6
:1007B000EDFB0121204602F04AFB06B070BD08B5F2
:1007C00025208DF8000000208DF801008DF8020032
:1007D00001208DF80300684602F043F908BD704718
:1007E00070B5084D0446C1B2284602F056FB4021C0
:1007F000284602F0E3FB0028F9D0204670BD000037
:100800000000024000100140034A02EB0111A1F573
:100810000071102203F091BEDA6900081CB50121B5
:10082000582002F026FD0121084602F036FDFF4C5B
:100830000C220021204602F038FA0C220121204629
:1008400002F033FA0C220421204602F02EFA0C2288
:100850000521204602F029FA0C220821204602F048
:1008600024FA0C220921204602F01FFA0C220A2148
:10087000204602F01AFA0C220E21204602F015FA48
:100880000C220F21204602F010FA02218DF80410EC
:100890008DF8051000214CF233708DF80610009091
:1008A0008DF807106946204602F08EF9E04C0C22C4
:1008B0000221204602F0F9F90C220721204602F01D
:1008C000F4F90C220821204602F0EFF90C2209214C
:1008D000204602F0EAF90C220A21204602F0E5F94E
:1008E0000C220B21204602F0E0F90C221146204692
:1008F00002F0DBF90C220D21204602F0D6F90C2281
:100900000E21204602F0D1F90C220F21204602F0E0
:10091000CCF94FF6847100916946204602F054F9F3
:10092000C44C0C220521204602F0BFF90C221146CE
:10093000204602F0BAF90C220D21204602F0B5F94A
:1009400043F2200100916946204602F03DF91CBDAA
:10095000002240F2754306E00021491C89B2994209
:10096000FBD3521C92B28242F6D370472DE9F05F5E
:10097000B14CFFF753FF641EFDD201F083FC4FF032
:10098000DE43AE4A00201880DFF8B4C2BCF8000095
:100990005080A0F513414FF4807440F2272840F2B4
:1009A000077540F23F164FF4887B253901D0C91EE8
:1009B0007ED1012010701021E72004F04BFE0121B0
:1009C000002004F047FE2146012004F043FE4FF4CE
:1009D000E061022004F03EFE41F23001032004F009
:1009E00039FE0021042004F035FE40F207210820E2
:1009F00004F030FE0021092004F02CFE00210A2022
:100A000004F028FE01210C2004F024FE00210D201A
:100A100004F020FE00210F2004F01CFE0021102015
:100A200004F018FE0721112004F014FE002112200A
:100A300004F010FE0021132004F00CFE3220FFF71A
:100A400087FF41F29051102004F004FE414611202E
:100A500004F000FE3220FFF77BFF9C21122004F0FF
:100A6000F9FD3220FFF774FF4FF4C851132004F052
:100A7000F1FD2321292004F0EDFD0E212B2004F0AF
:100A8000E9FD3220FFF764FF0021202004F0E2FDA1
:100A90000021212004F0DEFD3220FFF759FF07215D
:100AA000302004F0D7FD2946312004F0D3FD00E0CA
:100AB00080E00621322004F0CDFD40F204713520A3
:100AC00004F0C8FD41F60471362004F0C3FD042192
:100AD000372004F0BFFD0021382004F0BBFD40F2B8
:100AE0000671392004F0B6FD40F201713C2004F09B
:100AF000B1FD0F213D2004F0ADFD3220FFF728FFAE
:100B00000021502004F0A6FDEF21512004F0A2FDA9
:100B10000021522004F09EFD3146532004F09AFD3E
:100B20004FF42741602004F095FD0121612004F07D
:100B300091FD00216A2004F08DFD0021802004F049
:100B400089FD0021812004F085FD0021822004F030
:100B500081FD0021832004F07DFD0021842004F02C
:100B600079FD0021852004F075FD1021902004F00E
:100B700071FD0021922004F06DFD0321932004F00B
:100B800069FD5946952004F065FD0021972004F089
:100B900061FD0021982004F05DFD40F23311072033
:100BA00004F058FD0021202004F054FD00212120F4
:100BB00001F0FCB9A0F5134120397CD0B0F5134FFA
:100BC000FBD04FF40177113976D10320107041F238
:100BD0001401E72004F03EFD2146012004F03AFD17
:100BE000391F022004F036FD41F23001032004F0E9
:100BF00031FDB91E082004F02DFD0021092004F06C
:100C000029FD00210A2004F025FD00210C2004F01C
:100C100021FD00210D2004F01DFD00210F2004F016
:100C200019FD0021102004F015FD0BE0000C02401E
:100C30000010024000180240FFFF1F0014000020B7
:100C40000000016F0721112004F004FD0021122093
:100C500004F000FD0021132004F0FCFCC820FFF785
:100C600077FE41F29061102004F0F4FC414611201F
:100C700004F0F0FC3220FFF76BFE0C21122004F090
:100C8000E9FC3220FFF764FE4FF40061132004F00A
:100C9000E1FC1121292004F0DDFC0B212B2004F0C4
:100CA000D9FC3220FFF754FE0021202004F0D2FCB2
:100CB0000021212001E07CE020E104F0CBFC0021B8
:100CC000302004F0C7FC4FF483742146312004F037
:100CD000C1FC0021322004F0BDFC3946352004F06F
:100CE000B9FC41F20A61362004F0B4FC29463720F1
:100CF00004F0B0FC2146382004F0ACFC2946392031
:100D000004F0A8FC40F202413C2004F0A3FC40F6B1
:100D10000F413D2004F09EFC0021502004F09AFC7D
:100D2000EF21512004F096FC0021522004F092FCA7
:100D30003146532004F08EFC4FF41C51602004F027
:100D400089FC0121612004F085FC00216A2004F067
:100D500081FC0021802004F07DFC0021812004F032
:100D600079FC0021822004F075FC0021832004F02E
:100D700071FC0021842004F06DFC0021852004F02A
:100D800069FC1021902004F065FC4FF4C0619220B2
:100D900004F060FC2121072004F05CFC3220FFF706
:100DA000D7FD6121072004F055FC3220FFF7D0FD6C
:100DB000F6E300201070014604F04CFC21460120AF
:100DC00004F048FC4FF4E061022004F043FC41F2DF
:100DD0001801032004F03EFC0021042004F03AFC3A
:100DE00040F20221082004F035FC0021092004F023
:100DF00031FC00210A2004F02DFC01210C2004F01C
:100E000029FC00210D2004F025FC00210F2004F016
:100E100021FC6420FFF79CFD40F20111072004F043
:100E200019FC6420FFF794FD4FF48651102004F064
:100E300011FC0721112004F00DFC5C4659461220DC
:100E400004F008FC4FF43061132004F003FC00218F
:100E5000292004F0FFFB44F210012B2004F0FAFBE0
:100E60000021502004F0F6FBEF21512004F0F2FBAA
:100E70000021522004F0EEFB3146532004F0EAFB3F
:100E80004FF41C51602004F0E5FB0121612004F0C7
:100E9000E1FB00216A2004F0DDFB0021802004F04A
:100EA000D9FB0021812004F0D5FB0021822004F031
:100EB000D1FB0021832004F0CDFB0021842004F02D
:100EC000C9FB0021852004F0C5FB1021902004F00F
:100ED000C1FB0021922004F0BDFB0121932004F00E
:100EE000B9FB2146952004F0B5FB0021972004F0C2
:100EF000B1FB00219820FCE3072059E6A0F5194139
:100F000040F2055919397DD10D2010700621282095
:100F100004F0A0FB0121002004F09CFB0021102024
:100F200004F098FB47F2EF21012004F093FB4FF40B
:100F3000C061022004F08EFB46F63821032004F045
:100F400089FB46F67401112004F084FB00210F2078
:100F500004F080FB45F208310B2004F07BFB0321F9
:100F60000C2004F077FB0A210D2004F073FB4FF4F2
:100F700038510E2004F06EFBBE211E2004F06AFBE7
:100F80004FF40041252004F065FB4FF4F04126208A
:100F900004F060FB7821272004F05CFB00214E2048
:100FA00004F058FB00214F2004F054FB40F6D90117
:100FB000122004F04FFB0021302004F04BFB4FF4D3
:100FC0008271312004F046FB2146322004F042FBBE
:100FD00040F205342146332004F03CFB49463420DE
:100FE00004F038FB2146352004F034FB2946362036
:100FF00004F030FB611F372004F02CFB4FF49051BC
:101000003A2000E008E004F025FB4FF400613B20AB
:1010100004F020FB33216FE7A0F5A851053901D07A
:1010200048457DD1092010700021072004F012FBF3
:101030003220FFF78DFC4FF48E71122004F00AFB72
:101040000121A42004F006FB0F21082004F002FB7C
:1010500008210A2004F0FEFA08210D2004F0FAFA13
:101060002946302004F0F6FA0721312004F0F2FA84
:1010700040F20361322004F0EDFA4FF4E0673946A4
:10108000332004F0E7FA40F20221342004F0E2FABF
:101090000221352004F0DEFA41F60F71362004F00B
:1010A000D9FA2946372004F0D5FA0021382004F077
:1010B000D1FA0021392004F0CDFA29463A2004F073
:1010C000C9FA00213B2004F0C5FA07213C2004F0B6
:1010D000C1FA00213D2004F0BDFA3220FFF738FCB0
:1010E0000121072004F0B6FA0121172004F0B2FA1A
:1010F0003220FFF72DFC4FF4BD51102004F0AAFA66
:1011000040F21721112004F0A5FA4FF48F7112203C
:1011100004F0A0FA4FF47061132004F09BFA00E091
:101120008AE000212A2004F095FA0A21292004F0FF
:1011300091FA4FF49F71122004F08CFA0021502094
:1011400004F088FAEF21512004F084FA00215220A3
:1011500004F080FA3146532004F07CFA4FF41C511D
:10116000602004F077FA0121612004F073FA002175
:101170006A2004F06FFA0021802004F06BFA00214D
:10118000812004F067FA0021822004F063FA002134
:10119000832004F05FFA0021842004F05BFA002130
:1011A000852004F057FA1321902004F053FA4FF4ED
:1011B0004071922004F04EFA0521932004F04AFA7F
:1011C0000021952004F046FA0021972004F042FA0D
:1011D0000021982004F03EFA2146012004F03AFA5A
:1011E0003946022004F036FA41F23001032004F0BF
:1011F00031FA0021042004F02DFA00210C2004F023
:1012000029FA00210F2004F025FA0021202004F003
:1012100021FA0021212004F01DFA2121072004F0E9
:1012200019FAC820FFF794FB6121072004F012FA95
:10123000C820FFF78DFB9EE2A0F5094140F202585D
:1012400040F2023A89397CD105201070012100203A
:1012500004F000FA3220FFF77BFB4AF6A4010320DA
:1012600004F0F8F93220FFF773FB00210C2004F0A2
:10127000F1F93220FFF76CFB40F60C010D2004F071
:10128000E9F93220FFF764FB4FF42C510E2004F0F3
:10129000E1F93220FFF75CFBB0211E2004F0DAF9FF
:1012A0003220FFF755FB42F63F31012004F0D2F91E
:1012B0003220FFF74DFB4FF4C061022004F0CAF961
:1012C0003220FFF745FB0021102004F0C3F9322043
:1012D000FFF73EFB46F27001112004F0BBF932200B
:1012E000FFF736FB0021052004F0B4F93220FFF7A8
:1012F0002FFB0021062004F0ADF93220FFF728FB78
:101300004EF61C71162004F0A5F93220FFF720FBE1
:101310000321172004F09EF93220FFF719FB40F259
:101320003311072004F096F93220FFF711FB00215A
:101330000B2004F08FF93220FFF70AFB00210F2069
:1013400000E0AAE004F086F93220FFF701FB00215B
:10135000412004F07FF93220FFF7FAFA0021422001
:1013600004F078F93220FFF7F3FA0021482004F066
:1013700071F93220FFF7ECFA3146492004F06AF99E
:101380003220FFF7E5FA00214A2004F063F9322009
:10139000FFF7DEFA00214B2004F05CF93220FFF762
:1013A000D7FA4FF46F41442004F054F93220FFF78C
:1013B000CFFA0021452004F04DF93220FFF7C8FA9A
:1013C0003146462004F046F93220FFF7C1FA29469B
:1013D000302004F03FF93220FFF7BAFA39463120C5
:1013E00004F038F93220FFF7B3FA3946322004F01E
:1013F00031F93220FFF7ACFA44464146332004F07D
:1014000029F93220FFF7A4FA40F20751342004F002
:1014100021F93220FFF79CFA3946352004F01AF9F9
:101420003220FFF795FA3946362004F013F93220BE
:10143000FFF78EFA2146372004F00CF93220FFF72F
:1014400087FA544651463A2004F004F93220FFF757
:101450007FFA21463B2004F0FDF83220FFF778FAAE
:101460000021232004F0F6F83220FFF771FA002162
:10147000242004F0EFF83220FFF76AFA4FF400411D
:10148000252004F0E7F83220FFF762FA00214F2010
:1014900004F0E0F800214E202FE5A0F5094199392C
:1014A0007DD1042010700621282004F0D3F80121FA
:1014B000002004F0CFF84AF6A461032004F0CAF833
:1014C00004210C2004F0C6F80C210D2004F0C2F811
:1014D0004FF420510E2004F0BDF8B5211E2004F079
:1014E000B9F843F63F31012004F0B4F84FF4C0617D
:1014F000022004F0AFF80021102004F0ABF846F60B
:101500003001112004F0A6F80021052004F0A2F813
:101510000021062004F09EF84EF61C71162004F0FF
:1015200099F83321072004F095F800210B2004F0EE
:1015300091F800210F2004F08DF80021412004F0E3
:1015400089F80021422004F085F80021482004F0A9
:1015500081F83146492004F07DF800214A2004F04A
:1015600079F800214B2004F075F84FF46F414420C6
:1015700004F070F80021452004F06CF83146462054
:1015800004F068F800214E2004F064F800214F2098
:1015900004F060F82946302004F05CF801E042E0F5
:1015A000FEE240F20221312004F054F839463220A4
:1015B00004F050F844464146332004F04BF840F222
:1015C0000751342004F046F83946352004F042F83B
:1015D0003946362004F03EF82146372004F03AF828
:1015E000544651463A2004F035F821463B2004F099
:1015F00031F80021232004F02DF80021242004F0EC
:1016000029F84FF40041252004F024F84FF4E0417C
:10161000262004F01FF84BF2EB01202004F01AF80A
:101620007C21272069E4A0F5A84108397ED1082053
:1016300010702146012004F00DF84FF4E061022003
:1016400004F008F841F23001032004F003F800210F
:10165000042003F0FFFF40F20721082003F0FAFF07
:101660000021092003F0F6FF00210A2003F0F2FF19
:1016700000210C2003F0EEFF00210D2003F0EAFF13
:1016800000210F2003F0E6FF3220FFF761F940F25E
:101690000111072003F0DEFF3220FFF759F941F274
:1016A000B061102003F0D6FF0121112003F0D2FF1A
:1016B0000121172003F0CEFF4FF49C71122003F09C
:1016C000C9FF4FF40061132003F0C4FF0921292052
:1016D00003F0C0FF09212A2003F0BCFF0021A42051
:1016E00003F0B8FF0021502003F0B4FFEF21512098
:1016F00000E03EE003F0AEFF0021522003F0AAFF1D
:101700003146532003F0A6FF4FF41C51602003F034
:10171000A1FF0321612003F09DFF00216A2003F057
:1017200099FF0021802003F095FF00E026E00021D2
:10173000812003F08FFF0021822003F08BFF002126
:10174000832003F087FF0021842003F083FF002122
:10175000852003F07FFF1321902003F07BFF002101
:10176000922003F077FF0321932003F073FF594683
:10177000952003F06FFF40F273114CE4A0F58A410D
:1017800031397CD1072010700121002003F062FF65
:101790004FF4C561102003F05DFF0621122003F015
:1017A00059FF40F63221132003F054FF402111204D
:1017B00003F050FF5021152003F04CFF162112209A
:1017C00003F048FF3220FFF7C3F845F260611020B4
:1017D00003F040FF3220FFF7BBF842F64E21132002
:1017E00003F038FF2146012003F034FF4FF440712D
:1017F000022003F02FFF41F23001032003F02AFF03
:1018000040F20221082003F025FF00210A2003F006
:1018100021FF0021302003F01DFF40F20241312062
:1018200003F018FF4FF48371322003F013FF4FF4DD
:10183000E061332003F00EFF4FF48271342003F097
:1018400009FF40F20131352003F004FF294636201C
:1018500003F000FF40F20531372003F0FBFE4FF4A8
:101860000271382003F0F6FE40F60B71392003F0C8
:10187000F1FE3220FFF76CF80221412000E02AE05F
:1018800003F0E8FE4FF41C51602003F0E3FE012159
:10189000612003F0DFFE40F21911902003F0DAFE20
:1018A0004FF48571922003F0D5FE0421932003F0BC
:1018B000D1FE2146A02003F0CDFE3220FFF748F8EC
:1018C00040F23311072003F0C5FE3220FFF740F845
:1018D0000021A0206AE3A0F58A4135397ED10C2091
:1018E00010703021152003F0B5FE10219A2003F06E
:1018F000B1FE2021112003F0ADFE43F2284110205B
:1019000003F0A8FE0221122003F0A4FE41F23801E8
:10191000132003F09FFE2820FFF71AF81221084633
:1019200003F098FE2820FFF713F843F2204110201F
:1019300003F090FE43F24501132003F08BFE462096
:10194000FFF706F80021302003F084FE40F2024148
:10195000312003F07FFE40F20731322003F07AFE9F
:101960004FF44171332003F075FE0421342003F05D
:1019700071FE40F20141352003F06CFE294636200D
:1019800003F068FE40F20531372003F063FE4FF4A8
:10199000C2652946382003F05DFE2946392003F050
:1019A00059FE2146012003F055FE4FF440710220FC
:1019B00003F050FE41F23001032003F04BFE40F6ED
:1019C0000801082003F046FE08210A2003F042FE29
:1019D0004FF41C51602003F03DFE00E028E001219F
:1019E000612003F037FE4FF49F71902003F032FE28
:1019F0002146922003F02EFE2146932003F02AFE7A
:101A00004FF44051A02003F025FE1021A32003F045
:101A100021FE0121072003F01DFE2121072003F0F4
:101A200019FE2321072003F015FE33210720B5E01E
:101A300047287DD0A0F5EE4183397AD10620107079
:101A40000121FF2003F006FE0821F32003F002FE2F
:101A50002146012003F0FEFD4FF4E061022003F077
:101A6000F9FD41F23001032003F0F4FD5146082056
:101A700003F0F0FD40F20721082003F0EBFD002108
:101A8000092003F0E7FD00210A2003F0E3FD002117
:101A9000102003F0DFFD0521112003F0DBFD002104
:101AA000122003F0D7FD0021132003F0D3FD3220D4
:101AB000FEF74EFF41F2B021102003F0CBFD3220A3
:101AC000FEF746FF0721112003F0C4FD3220FEF788
:101AD0003FFF8B21122003F0BDFD3220FEF738FFBF
:101AE0004FF4B851132003F0B5FD3220FEF730FF5C
:101AF0002221292003F0AEFD0021302003F0AAFDB1
:101B00002946312003F0A6FD4946322003F0A2FD0C
:101B100040F20711352003F09DFD0821362003F027
:101B200099FD0021372003F095FD40F2022401E0E9
:101B300039E018E12146382003F08CFD4FF4837121
:101B4000392003F087FD21463C2003F083FD4FF44C
:101B500081613D2003F07EFD3220FEF7F9FE002179
:101B6000502003F077FDEF21512003F073FD002199
:101B7000522003F06FFD3146532003F06BFD4FF40C
:101B80002741602003F066FD0121612003F062FD22
:101B90003321902003F05EFD0B212B2003F05AFD32
:101BA00040F23311E9E50A2010700021EA2003F029
:101BB00051FD2021EB2003F04DFD0C21EC2003F022
:101BC00049FDC421ED2003F045FD4021E82003F04C
:101BD00041FD3821E92003F03DFD0121F12003F012
:101BE00039FD1021F22003F035FDA321272003F059
:101BF00031FD0121402003F02DFD0021412003F0A3
:101C000029FD0021422003F025FD1021432003F08F
:101C100021FD0E21442003F01DFD2421452003F069
:101C200019FD0421462003F015FD5021472003F043
:101C300011FD0221482003F00DFD1321492003F07E
:101C400009FD19214A2003F005FD19214B2003F05D
:101C500001FD16214C2003F0FDFC1B21502003F058
:101C6000F9FC3121512003F0F5FC2F21522003F023
:101C7000F1FC3F21532003F0EDFC3F21542003F001
:101C8000E9FC3E21552003F0E5FC2F21562003F00E
:101C9000E1FC7B21572003F0DDFC0921582003F0F3
:101CA000D9FC0621592003F0D5FC06215A2003F067
:101CB000D1FC0C215B2003F0CDFC1D215C2003F046
:101CC000C9FCCC215D2003F0C5FC18211B2003F0CA
:101CD000C1FC01211A2003F0BDFC1521242003F0D2
:101CE000B9FC5021252003F0B5FC8B21232003F003
:101CF000B1FC3621182003F0ADFC0121192003F0BE
:101D0000A9FC0021012003F0A5FC88211F2003F07D
:101D1000A1FC3220FEF71CFE80211F2003F09AFC5C
:101D20003220FEF715FE90211F2003F093FC322095
:101D3000FEF70EFED0211F2003F08CFC3220FEF7B0
:101D400007FE0521172003F085FC0021362003F053
:101D500081FC3821282003F07DFC3220FEF7F8FDBD
:101D60003C21282022E167201880BCF80000508028
:101D700047287DD10B2010700821422003F06AFC17
:101D8000B421462003F066FC4321472003F062FCA7
:101D90001321482003F05EFC4721492003F05AFC40
:101DA00014214A2003F056FC36214B2003F052FC4C
:101DB00003214C2003F04EFC46214D2003F04AFC49
:101DC00005214E2003F046FC10214F2003F042FC79
:101DD0000821502003F03EFC0A21512003F03AFC78
:101DE0000021022003F036FC0021032003F032FC26
:101DF0000021042003F02EFCEF21052003F02AFC33
:101E00000021062003F026FC0021072003F022FC1D
:101E10000121082003F01EFC3F21092003F01AFCD9
:101E20000A20FEF795FD0621012003F013FCC821CE
:101E3000162003F00FFC9521232003F00BFC9521C5
:101E4000242003F007FCFF21252003F003FC0221DE
:101E5000272003F0FFFB0221282003F0FBFB0221D7
:101E6000292003F0F7FB02212A2003F0F3FB00E016
:101E70009EE002212C2003F0EDFB02212D2003F037
:101E8000E9FB01213A2003F0E5FB01213B2003F0AF
:101E9000E1FBF0213C2003F0DDFB00213D2003F0BD
:101EA000D9FB1420FEF754FD3821352003F0D2FB76
:101EB0007821362003F0CEFB38213E2003F0CAFB08
:101EC0000F21402003F0C6FBF021412003F0C2FBAC
:101ED0000021382003F0BEFB4921192003F0BAFB92
:101EE0000A21932003F0B6FB0A20FEF731FD2021E2
:101EF000084603F0AFFB03211D2003F0ABFB0021DC
:101F00001E2003F0A7FB09211F2003F0A3FB532190
:101F1000442003F09FFB1021452003F09BFB0A2087
:101F2000FEF716FD04211C2003F094FB1420FEF79D
:101F30000FFD8021432003F08DFB0520FEF708FDF7
:101F40000A211B2003F086FB2820FEF701FD122149
:101F50001B2003F07FFB2820FEF7FAFC7F21902056
:101F600003F078FB0421262003F074FB2820FEF701
:101F7000EFFC2421262003F06DFB2C21262003F00A
:101F800069FB2820FEF7E4FC0821702003F062FBC7
:101F90003C21262003F05EFB0221572003F05AFB70
:101FA0000021552003F056FB0021572003F052FB7F
:101FB000BDE8F05F3220FEF7CBBC70B50546C548E2
:101FC000C1F1EF018CB20078001F0A2806D2DFE8C9
:101FD00000F00C0C050505051313052521462020EE
:101FE00003F038FB2946212014E021464E2003F05F
:101FF00031FB29464F200DE0210A022003F02AFB85
:102000002146032003F026FB290A062003F022FBC9
:1020100029460720BDE8704003F01CBB70BD70B5B9
:102020000546AC48002400780A2811D00B280FD0B0
:1020300000210846FFF7C1FF4FF0DE412220088053
:10204000A5484FF496310580641C8C42FBD370BDCB
:102050000021022003F0FEFA0021032003F0FAFA27
:102060000021042003F0F6FAEF21052003F0F2FA34
:102070000021062003F0EEFA0021072003F0EAFA1F
:102080000121082003F0E6FA3F21092003F0E2FADB
:10209000D2E710B5FFF791FF4FF0DE412220088014
:1020A0008C4801788C48091F092917D2DFE801F014
:1020B000050505051616080805000188008810BDED
:1020C0000188C1F3C70201880088C908C0F38700EE
:1020D000C90241EA4010104380B210BD0188008857
:1020E000C0F34511C20AC00200EB41101044F3E7EF
:1020F00010B51446B0F5A07F09D2F02907D2FFF73A
:102100005CFF2146BDE81040222003F0A3BA10BDB9
:102110002DE9F04704469046DDF820A00D4699468B
:102120001046444501D9A04684B218464D4501D910
:10213000894685B2A8EB0400A9EB050100B20EB2F6
:1021400050B1A6B1B04230DDC0EB46010FB2710014
:10215000404201EB400925E0524629462046FFF760
:10216000C7FF6D1CADB2A945F6D2BDE8F087524657
:1021700029462046FFF7BCFF641CA4B2A045F6D256
:10218000F3E7524629462046FFF7B2FF641CA4B28B
:10219000002F04DD6D1CADB209EB070001E007EB79
:1021A000460007B24445ECD11AE0C6EB40010FB23D
:1021B0007100404201EB400810E05246294620469B
:1021C000FFF796FF6D1CADB2002F04DD641CA4B2B6
:1021D00008EB070001E007EB460007B24D45ECD1E4
:1021E000524629462046BDE8F04781E72DE9FF5FCA
:1021F0000746894611469B466846FEF705FB0025C3
:10220000EA4600241AF8058009EB0506C4F1070127
:1022100028FA01F0C00707EB0400B1B280B201D088
:102220005A4600E00E9AFFF763FF641CA4B2082C24
:10223000ECD36D1CADB2102DE3D3BDE8FF9F2DE9AB
:10224000F8430446089F0D46164699464FF49C787D
:1022500016F8012B4B46294620460097FFF7C6FF8C
:10226000444502D20834A4B207E0E02D4FF0000448
:1022700002D21035ADB200E0002530780028E7D159
:10228000BDE8F88300B597B006200090002010212B
:10229000CDE90201049009020190CDE90801069000
:1022A00007900A900FA905900F220B90CDE90C0121
:1022B000CDE90F20CDE911201390149015900E91C7
:1022C000684601F0EDFB0121062001F07AFC17B011
:1022D00000BD0000140000200000016F2DE9F04156
:1022E00088B00121022000F0C4FF0121042000F089
:1022F000C0FF01218F03384600F0D9FFDFF8988432
:1023000005220D21404600F0D0FC05220E2140465A
:1023100000F0CBFC05220F21404600F0C6FC7810EF
:10232000009002208DF8040003268DF8056000243B
:102330008DF8064001258DF807506946404600F0AB
:1023400043FC69464046009700F03EFCE8030090DD
:102350006946404600F038FC8DF8045010208DF896
:102360000640DFF8388400908DF805608DF807503E
:102370006946404600F028FC8DF8044020208DF886
:10238000064000908DF805608DF80750694640467C
:1023900000F01AFC1021404600F078FC012138467C
:1023A00000F085FFFE4D284601F0ACFDADF8084079
:1023B0004FF48270ADF80A00ADF810406815ADF822
:1023C00012001820ADF814000720ADF80C40ADF84D
:1023D0001800ADF80E40ADF8164002A9284601F0ED
:1023E000B5FD0121284601F03DFE08B0BDE8F081B1
:1023F00070B5EB4D0221284601F0AAFE0028F9D065
:102400000021284601F077FE0121284601F0A0FEB8
:102410000028F9D0284601F06CFE0006040C0120CB
:1024200000F0BFFA0221284601F092FE0028F9D000
:102430000021284601F05FFE0121284601F088FEB8
:102440000028F9D0284601F054FE0443C4F3CB0021
:1024500070BD70B5D14C1021204600F019FC012050
:1024600000F09FFA902000F0A9FA012000F099FAFC
:10247000FFF7BEFF05461021204600F007FC284666
:1024800070BD70B5C54C1021204600F001FC012044
:1024900000F087FAD02000F091FA012000F081FAD4
:1024A000FFF7A6FF05461021204600F0EFFB284667
:1024B00070BD70B505460E46FFF7CBFF0446012000
:1024C00000F06FFAFFF7DDFF2C60306070BD70B573
:1024D00004460E461F22FFF70BFE601C80B21F222F
:1024E00031460546FFF704FE761CB1B21F220E46A8
:1024F0002046FFF7FDFD31462846BDE870401F220B
:10250000FFF7F6BD2DE9FC5F8046801E82B2A8F180
:102510000F004FF6FF7780B289460B4604460097BE
:10252000FFF7F6FD08F10F0082B24B460D38154655
:10253000194680B20097FFF7EBFDA9F1020083B2C4
:102540000D3881B242460E4610460097FFF7E0FD77
:1025500009F10F0083B20D380097424681B21F4641
:102560001046FFF7D5FDA8F1070082B24BF6F04AFE
:102570003B46934619462046CDF800A0FFF7C8FD1C
:1025800009F1070081B2CDE900A122463B46104681
:10259000FFF7BEFD33465A4619462046CDF800A047
:1025A000FFF7B6FDA9F1070081B2224633468946FE
:1025B0001046CDF800A0FFF7ABFD08F107003B4641
:1025C00080B22A4619460446CDF800A0FFF7A0FDC8
:1025D0002A463B46CDF800A010460199FFF798FD2A
:1025E00033462A4619462046CDF800A0FFF790FD55
:1025F0002A464B4631461046CDF800A0FFF788FD2D
:10260000BDE8FC9FF0B595B000244821684601F074
:10261000D9FF624E6D4613A912A8FFF74AFF129820
:1026200045F8240005EB840113984862641CE4B269
:102630002021304600F016FB08B9092CEBD3092CF9
:1026400071D1DDE900010844029903270844DDE95E
:1026500003121144059A90FBF7F0114491FBF7F235
:10266000DDE906131944089B861A194491FBF7F11A
:10267000541A0D1A002E00DC7642002C00DC644255
:10268000002D00DC6D42022E03DD022C01DD022D47
:1026900049DC444BA64205DAB54201DA084404E0BD
:1026A000104402E0A542F9DB501800EBD070401056
:1026B0001880DDE9090108440B990844DDE90C1292
:1026C00011440E9A90FBF7F0114491FBF7F2DDE90B
:1026D0000F142144119C214491FBF7F1841A561ADE
:1026E0000D1A002C00DC6442002E00DC7642002D26
:1026F00000DC6D42022C03DD022E01DD022D12DC16
:10270000B44205DAA54201DA084404E0104402E0CC
:10271000B542F9DB501800EBD070401058802148CA
:1027200015B0F0BDFFE70020FAE72DE9F0470C46B1
:1027300005460988208916460A1AE38861894FF000
:1027400001095B1A5A43A388C01A6388591A00FB0F
:10275000012003F072FC00221346C6E90C0103F0CD
:1027600003FC02D14FF0000987E029882889E3881B
:102770000A1A61895B1A5A43AB88C01A6388591ACE
:1027800000FB012003F059FCC6E9000121882089E3
:10279000AB880A1A298907E00004024000080240B9
:1027A00000380040180000205B1A5A432B88C91AD1
:1027B000A388181A01FB002003F03FFCC6E90201C0
:1027C0002389B5F80480A188288903FB08F201FB5E
:1027D000102762885743228894464243288803FB87
:1027E00010224143E3880CFB181002FB037361893C
:1027F00000FB013003F021FCC6E904016988688907
:10280000E3880A1A61895B1A5A43EB88C01A638805
:10281000591A00FB012003F010FCC6E906012188CB
:102820002089EB880A1A69895B1A5A436B88C91A8E
:10283000A388181A01FB002003F0FFFBC6E908017A
:102840002189B5F806C0A2886B8901FB0CF002FB58
:10285000130760886D88474320886A43434301FB20
:102860001531E38800FB1C2001FB0371628900FB2A
:10287000021003F0E2FBC6E90A014846BDE8F08712
:102880002DE9F047144680460D46D4E90C0100229C
:102890004FF00109134603F067FB40D0688803F04E
:1028A000E3FBD4E9022303F0F3FB06460F46288836
:1028B00003F0DAFBD4E9002303F0EAFB32463B469F
:1028C00003F03EF9D4E9042303F03AF9D4E90C23E8
:1028D00003F0F2F903F084FBA8F80000688803F025
:1028E000C3FBD4E9082303F0D3FB06460F46288830
:1028F00003F0BAFBD4E9062303F0CAFB32463B4699
:1029000003F01EF9D4E90A2303F01AF9D4E90C23E1
:1029100003F0D2F903F064FBA8F8020001E04FF0E5
:1029200000094846AAE7F8B5002427464FF49676F2
:102930004FF6FF750020FFF772FB2B462BA20A21F2
:102940002C200097FFF77BFC00210020401C80B268
:10295000A842FBD3491C89B2B142F6D32B4800EB05
:10296000840130F824004988FFF7CCFDFFF74AFEC8
:102970000028FBD02649028821F8242001EB84019D
:10298000641C4088E4B24880032CD3D3204A2049F9
:10299000383A1E48FFF7C9FEBDE8F8400020FFF7AF
:1029A0003EBB002207E00C210B00A1F10101C9B2DE
:1029B000FAD1521C92B28242F5D3704770B5154CD1
:1029C00005460221204601F0C3FB0028F9D0294624
:1029D000204601F090FB0121204601F0B9FB0028C0
:1029E000F9D02046BDE8704001F083BB546F756399
:1029F000682063726F73736861697220746F2063FB
:102A0000616C696272617465000000001C00002046
:102A100088000020003800400948804709480047E6
:102A2000FEE7FEE7FEE7FEE7FEE7FEE7FEE7FEE77E
:102A3000FEE7FEE704480549054A064B70470000DB
:102A4000B141000885010008F8000020F8060020C8
:102A5000F8020020F80200202749084327490860AF
:102A6000704770B50F23C278017801254FF0E0263A
:102A7000E2B1224A126802F4E062C2F5E062C2F3F7
:102A80000722C2F10404D3404278A24084781C405B
:102A90001B4B14432201CA54007800F01F018D40E3
:102AA000400906EB8000C0F8005170BD01F01F0026
:102AB0008540480906EB8000C0F8805170BD114A7E
:102AC000114001430D48001F016070470B4A121D61
:102AD0000029116801D0014300E081431160704773
:102AE0004FF0E0210428086903D020F004000861B9
:102AF000704740F00400FAE70000FA050CED00E032
:102B000000E400E080FFFF1F704910B5884206D145
:102B10000121084600F0DFFB002101204FE06C4955
:102B2000884206D10121022000F0D5FB00210220BD
:102B300045E06849884206D10121042000F0CBFB22
:102B4000002104203BE06449884206D1012108208D
:102B500000F0C1FB0021082031E06049884206D125
:102B60000121102000F0B7FB0021102027E05C4974
:102B7000884206D10121202000F0ADFB0021202059
:102B80001DE05849884206D10121402000F0A3FBF6
:102B90000021402013E05449884206D101218020C1
:102BA00000F099FB0021802009E0504988420AD1B9
:102BB00084150121204600F08EFB00212046BDE84F
:102BC000104000F088BB10BDF0B5002201264FF088
:102BD000030C0C6806FA02F31C409C422DD10568D8
:102BE00053000CFA03F4A54305600D7907689D4076
:102BF0003D4305600D79012D01D0022D12D185686C
:102C0000A54385604C7985689C402C43846044686A
:102C100006FA02F5AC43446044688D799540ADB244
:102C20002C434460C46855000CFA05F7BC43C460EB
:102C3000CC799C40C3681C43C460521C102AC8D382
:102C4000F0BD4FF6FF71016000210171417181718A
:102C5000C171704741F48032C261C161C261C16912
:102C6000C06970470246002012690A4200D0012064
:102C70007047006980B270470246002052690A42DC
:102C800000D001207047406980B2704701837047CF
:102C9000418370470AB101837047418370474161A6
:102CA000704742694A40426170474B07DB0E9A40C9
:102CB000C90810B500EB8100016A0F249C40A143B4
:102CC0000162016A1143016210BD00000000024070
:102CD0000004024000080240000C024000100240C4
:102CE0000014024000180240001C02400020024074
:102CF000CA4910B5884206D10121102000F013FB0B
:102D00000021102028E0C649884202D101214C044C
:102D100010E0C449884202D101218C040AE0C24972
:102D2000884202D10121CC0404E0C04988420AD182
:102D300001210C05204600F0ECFA2046BDE81040C9
:102D4000002100F0E6BABA49884209D101212020C9
:102D500000F0E9FA00212020BDE8104000F0E3BABD
:102D600010BD7FB50446008A0D4620F44051E88826
:102D700008432082A18941F20C608143A8882A89F6
:102D800010436A890A431043A081A08A20F440714D
:102D9000A8890843A082684600F007FA9F48844249
:102DA00002D0A348844201D1039800E00298A1898F
:102DB0000904002900EBC00101EB0010296802DAC8
:102DC0004FEA410101E04FEA8101B0FBF1F06422DA
:102DD000B0FBF2F14FEA01114FEA11136FF0180541
:102DE0006B4300EB8300A3891D044FF0320306D52B
:102DF00003EBC000B0FBF2F000F0070005E003EBCE
:102E00000010B0FBF2F000F00F00084320817FBDFE
:102E10004FF41651016000218180C18001810C2294
:102E200042818181704710B5028A4C8822F4706318
:102E30000A8822438C88C9880C4322431A430282A1
:102E400010BD0021018041808180C1807047002930
:102E5000818902D041F4005101E021F400518181C7
:102E60007047028B02F47F420283028B0A43028383
:102E700070470029818902D041F4004101E0C1F38B
:102E80000E01818170470029818A02D041F40061DE
:102E900001E021F4006181827047C1F30801818063
:102EA00070478088C0F308007047028A22F00F0242
:102EB0000282028A0A43028270470029818902D075
:102EC00041F0020101E021F0020181817047828915
:102ED00022F40062828182890A4382817047028AD9
:102EE00022F020020282028A0A43028270470029ED
:102EF000018A02D041F4804101E021F48041018245
:102F00007047818941F00101818170470029818AE0
:102F100002D041F0080101E021F0080181827047F0
:102F2000028BD2B20283028B42EA012101837047F5
:102F30000029818A02D041F0200101E021F0200126
:102F4000818270470029818A02D041F0100101E09E
:102F500021F0100181827047828A22F0040282826D
:102F6000828A0A43828270470029818A02D041F016
:102F7000020101E021F0020181827047002A828A69
:102F800001D00A4300E08A438282704710B5C1F342
:102F9000421301F01F040121A140012B07D0022B95
:102FA00007D01430002A026805D00A4304E00C3030
:102FB000F8E71030F6E78A43026010BD02460020B1
:102FC00012880A4200D001207047C943018070472F
:102FD00070B501F01F0601250024C1F3421305FA64
:102FE00006F2012B0FD0022B0FD0838A4FEA11215A
:102FF0000088134205FA01F500EA050001D000B18E
:103000000124204670BD8389F0E7038AEEE70A0AAF
:1030100001219140C9430180704700000010014028
:103020000044004000480040004C00400050004078
:1030300000140140E948016841F001010160E74ADC
:103040000021083211600268E54B1A400260031D3E
:10305000E44A1A60026822F480220260DF480C30E1
:1030600001607047DD490022891C0A7008707047B2
:1030700002460020510901290CD002290CD0D74961
:103080007431096802F01F02012393400B4200D003
:1030900001207047D149F4E7D0497031F1E730B5EC
:1030A00000244FF4A0653120FFF7E2FF641CAC421E
:1030B00001D00028F7D03120FFF7DAFF002800D038
:1030C000012030BDC54A116821F0F80141EAC00075
:1030D00010607047C44908607047C04900227031D1
:1030E0000A700A70012802D0042801D10520087056
:1030F0007047BE490860704741EA82115A0810B50E
:10310000BB4B029C03EB02421143014341EA0460C2
:10311000B249091D086010BDB349086670478001B7
:1031200040EA0170AD49843108607047AE49886655
:103130007047AD49C8647047A84B08331A68084304
:1031400022F0EC62104318607047A44B08331A68F1
:10315000084322F078421043186070479F4A0832B3
:10316000116821F003010143116070479B4808304A
:10317000006800F00C007047984A0832116821F08E
:10318000F001014311607047944A0832116821F43C
:10319000E051014311607047904A0832116821F4F0
:1031A000604141EAC0001060704770B58B4B083336
:1031B0001968904C11F00C0104D08F4E042903D0F3
:1031C000082903D004601BE0066019E0834A121D41
:1031D0001168C1F38055116801F03F0115B1B6FBCC
:1031E000F1F101E0B4FBF1F114681268C4F3881442
:1031F0006143C2F30142521C5200B1FBF2F1016083
:1032000019687E4A01F0F0010909545C0168E14047
:1032100041601C6804F4E054A40A145D21FA04F42B
:1032200084601B6803F460435B0BD25CD140C160D7
:1032300070BDC0F30121032908D1684B0833196818
:103240006F4A21F4F81102400A431A606349703151
:103250000A68C0F30B0002430A60704763494439AF
:1032600008607047614940390860704765490860E7
:1032700070475A4A30320029116801D0014300E0FA
:10328000814311607047554A34320029116801D0DA
:10329000014300E0814311607047504A38320029F1
:1032A000116801D0014300E08143116070474B4A2F
:1032B00040320029116801D0014300E081431160D0
:1032C0007047464A44320029116801D0014300E0AA
:1032D000814311607047414A10320029116801D0C2
:1032E000014300E08143116070473C4A14320029D9
:1032F000116801D0014300E0814311607047374AF3
:1033000018320029116801D0014300E081431160A7
:103310007047324A20320029116801D0014300E091
:103320008143116070472D4A24320029116801D071
:10333000014300E0814311607047284A5032002960
:10334000116801D0014300E0814311607047234AB6
:1033500054320029116801D0014300E0814311601B
:1033600070471E4A58320029116801D0014300E01D
:10337000814311607047194A60320029116801D0F9
:10338000014300E0814311607047144A6432002910
:10339000116801D0014300E08143116070470F4A7A
:1033A0000D320029117801D0014300E081431170F2
:1033B00070470A487430016841F0807101607047BD
:1033C0000146064A00200C3212680A4200D0012051
:1033D000704702490E310870704700000038024003
:1033E000FFFFF6FE1030002400004742800E4742E7
:1033F0000000FFFF0024F40040787D012C00002035
:10340000FFFCFF0F5C01474210B501210C02204672
:10341000FFF789FF2046BDE810400021FFF783BF7A
:1034200030B54268C64B0C791A400B6842EA042258
:10343000134343608268C34B4D791A40D1E903437B
:1034400023438C6844EA4504234313438360C26AE0
:10345000097D22F47002491EC9B242EA0151C162DB
:1034600030BD00210160017141718160C160016165
:10347000012101757047B44B10B51968B34A01EAD0
:103480000201D0E9002442EA0402D0E9024044EA01
:10349000000442EA040242EA01021A6010BD00215F
:1034A000016041608160C16070470029816802D07D
:1034B00041F0010101E021F00101816070474268A3
:1034C000A34B1A400A4342607047416282627047D0
:1034D000426822F01F020A43426070479D4900285B
:1034E000D1F8040302D040F4000001E020F4000011
:1034F000C1F80403704797490028D1F8040302D0AB
:1035000040F4800001E020F48000C1F8040370471B
:1035100070B5072609290AD9C568A1F10A0404EB88
:103520004404A640B543A3401D43C56007E00569B8
:1035300001EB4104A640B543A3401D4305611F2391
:10354000072A09D2446B521E02EB820293409C432D
:1035500091400C43446370BD0D2A09D2046BD21F05
:1035600002EB820293409C4391400C43046370BD84
:10357000C46A0D3A02EB820293409C4391400C4393
:10358000C46270BD816841F080418160704701462E
:1035900000208968490200D5012070470029816810
:1035A00002D041F4806101E021F4806181607047C4
:1035B0000029816802D041F0020101E021F00201FE
:1035C000816070474268491E22F4604242EA4131FC
:1035D000416070470029416802D041F4006101E078
:1035E00021F4006141607047C06C80B270475A4856
:1035F000006870470029816802D041F4807101E0C1
:1036000021F48071816070470029816802D041F403
:10361000007101E021F40071816070474D4900287C
:10362000D1F8040302D040F4005001E020F400502F
:10363000C1F80403704770B5072609290AD9C5687F
:10364000A1F10A0404EB4404A640B543A3401D4382
:10365000C56007E0056901EB4104A640B543A340FE
:103660001D430561836BC3F30154121B921C02EBD3
:1036700082021F249440A34391400B43836370BD97
:10368000826B491E22F4401242EA01518163704765
:1036900042507047826822F470220A438260704769
:1036A000826822F440120A4382607047816841F4C4
:1036B000800181607047014600208968490200D579
:1036C000012070470029416802D041F4806101E087
:1036D00021F48061416070470029416802D041F4C3
:1036E000805101E021F48051416070470844806AB4
:1036F00080B2704701238B4041680AB1194300E052
:103700009943416070470246002012680A4200D087
:1037100001207047C9430160704730B50246002060
:1037200053680C0A01258D4011682B40214202D0BC
:10373000002B00D0012030BD6FEA112101607047DD
:10374000FFFEFFFCFDF7FFC004230140E030FCFF5B
:10375000FFFD3FFF00200140082301402DE9F04319
:10376000016821F001010160002101604160816078
:10377000C160016121214161B849B84B3D22103936
:10378000984202D18A60BDE8F083B44C4FF4746370
:103790001834A04201D18B60F5E7B04D4FF474149A
:1037A0003035A84201D18C60EDE7AC4E4FF0746526
:1037B0004836B04201D18D60E5E7A84FA84E60378A
:1037C000B84201D1CE60DEE7A44FDFF898C2783767
:1037D000B84202D1C1F80CC0D5E7A04FDFF888820B
:1037E0009037B84202D1C1F80C80CCE79B4F4FF024
:1037F0003D59A837B84202D1C1F80C90C3E79B49A4
:103800009A4F0839B84201D10A60BCE7974A18328A
:10381000904201D10B60B6E7944A3032904201D118
:103820000C60B0E7914A4832904201D10D60AAE79E
:103830008E4A8E496032091F904201D10E60A2E784
:103840008A4A7832904202D1C1F800C09BE7874A89
:103850009032904202D1C1F8008094E7834AA832A6
:10386000904290D1C1F800908DE730B50368804A4E
:10387000CC6813400A682243D1E905452C43224312
:10388000CC6922430C6A22434C6A22438C6A22434D
:103890004C6B22438C6B22431A430260426922F034
:1038A0000703D1E90B2422431A4342610A694260AB
:1038B0004A6882608968C16030BD00210160416052
:1038C0008160C160016141618161C16101624162E8
:1038D0008162C162016341638163704700290168AD
:1038E00002D041F0010101E021F0010101607047C7
:1038F0000029016802D041F4004101E021F40041B7
:10390000016070470029016802D041F0200101E008
:1039100021F020010160704741607047406880B22B
:103920007047002A026802D042F4002201E022F42B
:1039300000220260016170470029016802D041F451
:10394000802101E021F48021016070470AB101610A
:103950007047C1607047014600200968090300D51F
:1039600001207047014600200968C90700D00120E6
:103970007047406900F03800704702463B4B00201A
:103980009A4202D2354A103A01E0384A103A8B0086
:1039900001D5526800E01268364B1A400A4200D046
:1039A00001207047314A904202D22C48103801E081
:1039B0002E4810382F4A8B0001EA020101D5C16060
:1039C0007047816070470B0607D5436912B143F019
:1039D000800301E023F080034361802908D0002A9E
:1039E000026801F01E0101D00A4300E08A43026030
:1039F000704730B51D4A0024904202D2174A103A4F
:103A000001E01A4A103A1C4B194205D01E2303EA62
:103A1000D12503682B4002E0406900F08003880054
:103A200001D5506800E01068124A1040084201D0E9
:103A300003B10124204630BD0C4A904202D207480F
:103A4000103801E0094810380A4A8B0001EA0201E7
:103A500001D5C1607047816070470000106002406E
:103A60003D000020400F002000003D201064024077
:103A70003F801CF07D0F7D0F3C0F3C0F4FF020422C
:103A800002EB800140B143F2D20008606FF0704059
:103A90004860C1F80401704743F2DB001060F5E7AD
:103AA00030B5D0E901121143D0E903231A43114381
:103AB00042690368114382691143C2691143026A72
:103AC0001143426A1143826A1143C26A1143026B75
:103AD00011434FF0204242F823108168082906D193
:103AE000016802EB81010B6843F040030B60416BFE
:103AF000D1E9003443EA04138C68CD68240244EA17
:103B0000054423430C6943EA04534C69896943EA39
:103B100004630B43016802EB81014B60C16AB1F59C
:103B2000804F07D000686FF0704102EB8000C0F852
:103B3000041130BD816B0068D1E9003443EA0413FD
:103B40008C680D69240244EA055423434C69896951
:103B500043EA046302EB80000B43C0F8043130BD3C
:103B600010B500210222C0E900128160C16001612C
:103B700041618161D202C161C0E908125200C0E90D
:103B80000A210163436B0F221A60436B5A60446B36
:103B9000FF23A360446BE260446B2261446B62616B
:103BA000446BA161846B2260846B6260846BA36050
:103BB000836BDA60836B1A61836B5A61806B8161FE
:103BC00010BD4FF0204202EB80000029016802D0B6
:103BD00041F0010101E0C94A11400160704710B590
:103BE000182340244FF020414FF0FC32102805D01C
:103BF00041F8803F4C608A60CA6010BD0B664C661D
:103C00008A66CA6610BD30B5D0E901121143D0E909
:103C100003231A431143426941EA4221826941EA7E
:103C2000423141F00804C169D1E9002342EA03228C
:103C30008B68C9681B0443EA01610A43016AD1E940
:103C4000003543EA05238D68C9682D0445EA016102
:103C50000B4301684FF02040102904D040F8804FFA
:103C60008260C36030BD04668266C36630BD1021C9
:103C70000160002141608160C16001614161816139
:103C8000C269FC211160C2695160C2699160C26958
:103C9000D160026A1160026A5160026A9160006A32
:103CA000C16070474FF0204251B1102804D052F843
:103CB000800F40F004000AE0106E40F004000AE0BB
:103CC0008E49C91E102804D052F8800F0840106099
:103CD0007047106E0840106670474FF0204251B197
:103CE000102804D052F8800F40F040000AE0106E17
:103CF00040F040000AE081493F39102804D052F8D2
:103D0000800F084010607047106E084010667047C2
:103D10004FF02041102802D0D1F894007047486F2E
:103D200070477748182101604FF0000141604FF063
:103D3000FC318160C1600161704710B5D0E90012AB
:103D400041EA42218268102343EA423211436C4A1D
:103D50001160C168D1E9003443EA04238C68C96862
:103D60004FEA044444EA016143EA010393600169B4
:103D7000D1E9003443EA04238C68C9684FEA04445B
:103D800044EA016143EA0103D3604069D0E90013CA
:103D900041EA03218368C0684FEA034343EA0060B5
:103DA00041EA0001116110BD0021016041608160A4
:103DB000C268FC211160C2685160C2689160C2682B
:103DC000D160026911600269516002699160026903
:103DD000D1604269116042695160426991604069F5
:103DE000C160704746490028086802D040F00400CE
:103DF00002E0424AD21E10400860704710B54FF4EE
:103E000080744FF0204382B1102804D0A04205D125
:103E100003F1840304E0586E08430FE003F1A403A8
:103E2000186840EA0100186010BD102804D0A042B4
:103E300006D103F1840305E0586E8843586610BD2F
:103E400003F1A403186820EA0100ECE70346002010
:103E50004FF02042102B08D0B3F5807F07D0D2F866
:103E6000A4200A4200D001207047526EF9E7D2F830
:103E70008420F6E74FF02042102809D0B0F5807F6B
:103E80000AD002F1A402106820EA01001060704715
:103E9000506E88435066704702F18402F3E7034690
:103EA00000204FF02042102B0CD0B3F5807F0BD0B8
:103EB000D2F8A4200A4202EAD10102D0002900D09F
:103EC00001207047526EF5E7D2F88420F2E74FF0F8
:103ED0002042102809D0B0F5807F0BD002F1A40257
:103EE000106820EAD10010607047506E20EAD100BF
:103EF0005066704702F18402F2E70000FEFF0F00F7
:103F0000A00000A0A54910B588420AD1841401215F
:103F10002046FFF708FA2046BDE810400021FFF7D1
:103F200002BA9F49884202D10121041404E09D494C
:103F300088420AD10121C4132046FFF7EAF920463E
:103F4000BDE810400021FFF7E4B910BD30B502888C
:103F50004C8802F441530A88CD8822438C882C4334
:103F600022430C8922434C8922438C892243CC89E9
:103F700022431A430280828B22F400628283098AE0
:103F8000018230BDF0B502220023858B01244FF25F
:103F90004006354085830284858B8E68022E35D09D
:103FA0008A8802B10224804A13681B0203D5136871
:103FB00023F4000313607C4A7C3213681268C3F355
:103FC0008813C2F30276784A121F1268774F02F004
:103FD0003F02B7FBF2F25A43B2FBF6F2CB88B3F5DD
:103FE000007F28D06301B2FBF3F202EB82028B6800
:103FF0005200B2FBF3F2521D92B20A23B2FBF3F26B
:1040000002F00103D21AC2F34F021B02941EFE2CCF
:1040100001D302220023CC881A43144304840A8863
:104020004B881A438B8889890B431A432A4342F4ED
:1040300000618183F0BD120AD7E700210180418031
:104040008180C180018141818181C18107210182FB
:1040500070470021018041808180C18002228260FE
:10406000818170470029018802D041F0400101E0C0
:1040700021F04001018070470029818B02D041F47A
:10408000806101E021F4806181837047028822F41D
:104090000062028002880A4302807047B1F5804FB7
:1040A000018803D021F480410180704741F48041B0
:1040B000FAE7A1F57E420188FF3A02D041F480710F
:1040C00001E021F48071018070470029818802D0CD
:1040D00041F0040101E021F00401818070470029D2
:1040E000818802D041F0100101E021F010018180AF
:1040F000704780897047818170470029018802D00C
:1041000041F4005101E021F4005101807047018821
:1041100041F4805101807047012901D0008B704724
:10412000808A7047008A7047002A828801D00A433B
:1041300000E08A4382807047090901238B40002AEE
:10414000828899B201D00A4300E08A438280704796
:104150000246002012890A4200D001207047C9435C
:104160000181704710B501F00F03012404FA03F335
:104170000246002009098C4091889BB2A4B21289A2
:1041800021401A4202D0002900D0012010BD01F0C8
:104190000F0201219140C943018170470030014065
:1041A00000380040003C00400838024040787D0163
:1041B000474810B5016841F001010160444A0021FF
:1041C000083211600268434B1A400260031D424AE4
:1041D0001A60026822F4802202603D480C300160BF
:1041E00000F03BF83D494FF00060086010BD70B52D
:1041F000374D083528683A4B3A4910F00C0004D086
:10420000394E042803D0082803D00B601BE00E6051
:1042100019E02F4A121D1068C0F38054106800F096
:104220003F0014B1B6FBF0F001E0B3FBF0F013680F
:104230001268C3F388135843C2F30142521C520060
:10424000B0FBF2F008602868264AC0F30310121D84
:10425000105C0A68C2400A6070BD1D4A00201168E7
:1042600041F4803111604FF4A063116800F1010046
:1042700011F4003F01D19842F7D11068800326D590
:104280001348083001680160016841F40041016091
:10429000016841F4A0510160031F144919601168BD
:1042A00041F08071116011688901FCD5104A40F21B
:1042B00003711160016821F003010160016841F0A0
:1042C000020101600168C1F381010229FAD170473E
:1042D00000380240FFFFF6FE1030002408ED00E039
:1042E0000024F4003C00002040787D01193C40058A
:1042F000003C0240704700000FB4044910B503AA07
:10430000029800F017FC10BC5DF814FB10000020B0
:1043100070B5044685690068C10601D5302600E005
:104320002026C00708D070BDD4E90121304690474F
:10433000206A00F1010020626D1EF5D570BD70B5D8
:10434000044685690068C00708D170BDD4E9012121
:1043500020209047206A00F1010020626D1EF5D5F3
:1043600070BD70B505460C46012A05D02868800648
:1043700000D5EA69002302E0012305E05B1C9342BB
:1043800002D2E05C0028F9D1A869E618C01AA86139
:10439000286A184428622846FFF7BAFF04E0D5E9E6
:1043A000012114F8010B9047B442F8D32846FFF7D7
:1043B000C6FF70BD2DE9F04107460025106875293C
:1043C000394616A411D0AFF30080002803DAC0F1FB
:1043D000000013A407E039688A0701D511A402E0A0
:1043E000490704D510A4012501E0AFF300800021A6
:1043F0000A2307F1240607E0B0FBF3F203FB1200E7
:10440000303070541046491C0028F5D12B46224606
:104410003846BDE8F04100F00BB900000000000094
:104420002D0000002B000000200000002DE9F047C7
:104430004FF0000A04468946C0F820A02046E168F3
:104440008847002876D0252806D0D4E90121904756
:10445000206A401C2062F1E7E16820460025884779
:10446000C4F81CA006460027C4F818A02A2E09D0BC
:10447000304601F060F938B304EB8708303EC8F8E5
:10448000186019E059F8041B204604EB870291617B
:10449000E1688847012F064618D1E069002820DA34
:1044A00025F020051DE0D8F8180000EB800006EB91
:1044B00040003038C8F818002046E16888470646B2
:1044C00001F039F90028EED1012F0AD02E2E08D1A3
:1044D0002046E16888477F1C0646022F45F02005EC
:1044E000C4DBA069002803DA404245F00105A06161
:1044F000E80701D025F01005B6B1A6F14100192852
:1045000002D8203645F400654A46314620462560EB
:104510004D46FBF771FE58B1012806D0ED1D25F080
:10452000070000F1080989E704E005F1040985E7BF
:1045300030468AE7206ABDE8F087032A40F23080DF
:1045400010F0030C00F0158011F8013BBCF1020FD4
:10455000624498BF11F801CB00F8013B38BF11F855
:10456000013BA2F1040298BF00F801CB38BF00F86C
:10457000013B11F0030300F0EF82083AC0F008801D
:1045800051F8043B083A51F804CBA0E80810F5E7CD
:10459000121D5CBF51F8043B40F8043BAFF30080B0
:1045A000D20724BF11F8013B11F801CB48BF11F825
:1045B000012B24BF00F8013B00F801CB48BF00F8F5
:1045C000012B70474FF0000200B513469446964603
:1045D000203922BFA0E80C50A0E80C50B1F1200116
:1045E000BFF4F7AF090728BFA0E80C5048BF0CC0C4
:1045F0005DF804EB890028BF40F8042B08BF704722
:1046000048BF20F8022B11F0804F18BF00F8012B93
:104610007047704770477047704710B500F0D2FA86
:10462000006810BD10B5044600F0CCFA046010BD5F
:104630002DE9F0470D4604469246994600F12408BC
:104640000168880604D5E06921F01001216000E0CE
:104650000120A84202DDA0EB050700E00027A169C8
:1046600007EB050202EB0900A1EB0000A061206846
:10467000C00602D42046FFF74BFE002608E0D4E92E
:1046800001211AF806009047206A401C761C20621F
:104690004E45F4DB2068C0060AD52046FFF738FEF9
:1046A00006E0D4E9012130209047206A401C2062B6
:1046B000381EA7F10107F4DC07E0D4E9012118F85E
:1046C00005009047206A401C2062281EA5F10105C4
:1046D000F3DC2046FFF733FE2068000602D50220F7
:1046E000BDE8F0870120FBE770472DE9FF4F0C463E
:1046F0001E464FF0FF378BB0D2E90001DDF8608035
:104700000A908A46C1F30A5505B93D46002108467C
:104710004FF00000BAF1000F00F4400005DA00EBA2
:1047200080004FF4400101EA50004FEA9059B9F17E
:10473000010F00DDB9460A9850EA4A000FD044F64E
:104740001050A5F2FF3545432F14B8F1000F1FD0CC
:104750007542291E1FDD4846C9F100021CE0B8F170
:10476000010F4FF0000001D1F24307E0302101E0DA
:104770002154401CB042FBDB304600220021215472
:104780000B99C1F80880C1E900200FB0BDE8F08F97
:10479000BD1B6D1CDDE74A4600DA694206A800F041
:1047A000B3FA06AB07CB03AB07C350460A9900F038
:1047B00095FB8DE80700A0F500501F380090039886
:1047C000002D09DD42F21F014A46084403A9039067
:1047D000684600F0F4FD08E0A0F500504A461F3896
:1047E00003A90390684600F0FEFD8DE80700000471
:1047F000000C03D04FF0FF30410800E01046B8F144
:10480000000F03D00022009215461FE0751E06D44B
:1048100000F0DCF902F1300262556D1EF8D5B346A6
:104820000122084302D000227F1C04E020783028B7
:1048300001D100227F1E002A099786D01DE0112D8C
:1048400007DA00F0C3F9303262556D1C50EA0102FC
:10485000F5D108430FD10021681E05E0235C625C9E
:104860006354491C2254401E8142F7DBAB46A81B0F
:10487000401E099001E0009848B1002004F80B00A8
:104880000B98099AC0F80880C0E9002B7DE7112633
:104890004FF0000859E72DE9F04F88460446D21D35
:1048A00022F0070191B0D1E90001CDE90A0100F041
:1048B000D9FE02460B98C00F01D02D2007E02068DA
:1048C000810701D52B2002E0202101EAC000032A44
:1048D000099001D0072A05DB03464146204600F037
:1048E000D3F90EE12068800601D5E06900E00620DA
:1048F000B8F1650F814606D0B8F1660F18D0B8F14F
:10490000670F72D132E00020B9F1110F009001DB86
:10491000112301E009F101030AAA01A90CA8FFF77C
:10492000E4FEDDE90C70002609F10105834648E04C
:1049300001204B4600904FF000470AAA01A90CA89D
:10494000FFF7D3FEDDE90C050E990026AB4619B939
:1049500009F1010100EB0105B9EB050003D4C0F139
:10496000FF3609F10105A5EB09002BE0B9F1010FB4
:1049700001DA4FF001090020B9F1110F009048460B
:1049800001DD112300E003460AAA01A90CA8FFF7E4
:10499000ACFEDDE90C704D4600268346206800071A
:1049A0000AD4AB4500DA5D4601A8012D04DD4119AA
:1049B00011F8011C302907D04F4502DA17F1040F16
:1049C00004DA0120824610E06D1EEEE7002F02DCC3
:1049D000ED1B3E4403E0781CA84200DD0546A7EB32
:1049E000060000F1010A4FF000472068000703D4D9
:1049F000AA4501DB4FF0FF3A0021B7F1004F0DF15E
:104A000043088DF8431022D002202B23002F01DA17
:104A10007F422D230A22011EA0F1010000DC4FB1CC
:104A200097FBF2F102FB117C0F460CF1300C08F8F9
:104A300001CDF0E7A8F1010003702168090501D557
:104A4000452100E06521A0F1010800F8011C09984A
:104A50000FA9A1EB080707F1070700B1012000EB40
:104A6000050101EBEA70A1693844A1EB0000A0F157
:104A70000100A0612068C00602D42046FFF748FC70
:104A8000099830B1D4E901219047206A00F1010072
:104A900020622068C00620D52046FFF739FC1CE0C4
:104AA000002E04DBB34502DD01A8805D00E030206C
:104AB000D4E901219047206A761C401CBAF1010A12
:104AC00020620AD100F07AF8C0680168405CD4E93D
:104AD00001219047206A401C2062281EA5F1010593
:104AE000DEDC07E0D4E9012118F8010B9047206AC9
:104AF000401C2062381EA7F10107F3DC2046FFF7B7
:104B00001EFC022011B041E610B5436913B1AFF3AA
:104B1000008001E0FFF725FC012010BD126800F1C4
:104B200024010A7000224A700122EDE711684FF05B
:104B3000FF32E9E7074B70B50C467B4400F091F873
:104B40000546204600F052F910B14FF0FF3070BD1D
:104B5000284670BDA3BCFFFF10B5203AC0F00B8003
:104B6000B1E81850203AA0E81850B1E81850A0E871
:104B70001850BFF4F5AF5FEA027C24BFB1E81850CB
:104B8000A0E8185044BF18C918C0BDE810405FEA3B
:104B9000827C24BF51F8043B40F8043B08BF7047B7
:104BA000D20728BF31F8023B48BF11F8012B28BFBC
:104BB00020F8023B48BF00F8012B704700487047BF
:104BC000B4000020004870479400002030B5B0F1D8
:104BD0000A024FEA900E71F100034EEA817EB0EBBB
:104BE0000E0061EB91014FEA101E4EEA017E10EBC0
:104BF0000E0041EB11114FEA102E4EEA016E10EB40
:104C00000E0041EB11214FEA104E4EEA014E10EB1F
:104C10000E0041EB1141401841F100014FEAD00074
:104C200040EA41704FEAD10110EB80054FEA810460
:104C300044EA907444EB01046D1944EB0404521BE4
:104C4000A3414FF0000348BF0A3200D530BD401CDD
:104C500041F1000130BD000001694A1C0261087881
:104C6000704700B58FB0CDE90131002105910549AC
:104C70007944CDE9031011466846FFF7D7FB0FB022
:104C800000BD0000E5FFFFFF2DE9F04104461F468F
:104C900003260168072A01F4006004DB08B116A5A9
:104CA00005E016A503E008B115A500E015A521F063
:104CB00010002060A069C01EA0610FB1401EA0615D
:104CC0002046FFF725FB4FB1D4E901213846904734
:104CD000206A401C2062C01C206206E0206AFAE7BD
:104CE000D4E9012115F8010B9047761EF8D2204631
:104CF000FFF725FBBDE8F0814E414E006E616E006E
:104D0000494E4600696E66002DE9F0478146164619
:104D10008AB035487844D0E9002380680092CDE914
:104D20000130314878440C38D0E9022300690392FD
:104D30004FF03702CDE9043041F69B30014491FB3E
:104D4000F2F0A0F1800502FB10141B3C02D5644276
:104D5000012000E00020DFF890A080460027FA4400
:104D6000AAF1C60A0DE0E00709D03246684607EB13
:104D700047010AEB810100F036FB8DE80700641063
:104D80007F1C002CEFD1184F7F44B43F17E0E80799
:104D900013D007EB04100DF1180A90E80E00AAE8F2
:104DA0000E00C068F04201D198190890324606A959
:104DB00003A800F018FB03AB07C36D10641C002DA3
:104DC000E5D132466946B8F1000F03A802D000F0E1
:104DD000F6FA01E000F007FBC9E90001C9F8082074
:104DE0000AB0BDE8F087000074230000C06800F03E
:104DF0008000704700487047940000207546FFF718
:104E0000F9FFAE4605006946534620F00700854687
:104E100018B020B5FDF70EFEBDE820404FF00006AB
:104E20004FF000074FF000084FF0000B21F0070192
:104E3000AC46ACE8C009ACE8C009ACE8C009ACE8D5
:104E4000C0098D4670470446AFF300802046FBF74B
:104E5000F5F900004FF0013C50F8042B51F8043BE9
:104E60009A4221D1A2EB0C03934313EACC1317D13E
:104E700050F8042B51F8043B9A4215D1A2EB0C03D5
:104E8000934313EACC130BD150F8042B51F8043B95
:104E90009A4209D1A2EB0C03934313EACC13DBD063
:104EA0004FF00000704700BFD01A01BAB1FA81F18B
:104EB00001F0180122FA01F0CB40C1F12001DBB270
:104EC000C0B2C01A2CFA01F3D11A914311EAC311EE
:104ED000E6D1704700487047980000205FEA400C18
:104EE00008BF91F0000F4FEA8C234FEAC12243EA3A
:104EF00051514FEA1C5018BF00F5F0404FEA300006
:104F000018BF41F000415FEA6C5C00F02980BCF101
:104F1000FF3F08BF40F080407047130C06BF1204EB
:104F20004FF0100C4FF0000C130E04BF12020CF1E6
:104F3000080C130F04BF12010CF1040C930F04BFF3
:104F400092000CF1020CD30F04BF52000CF1010CC3
:104F500011464FF00002A0F11F00A0EB0C007047BB
:104F600011F0004F08BF704731F000413FF4D5AF5A
:104F70000B0C06BF09044FF0100C4FF0000C0B0E89
:104F800004BF09020CF1080C0B0F04BF09010CF15E
:104F9000040C8B0F04BF89000CF1020CCB0F04BF73
:104FA00049000CF1010CCCF12003A0EB0C0022FA1B
:104FB00003F302FA0CF241EA030100F10100704729
:104FC00020F07F4C80EA030023F07F47ACEB07031F
:104FD00003F57C5300F0004003F1FF032DE9804905
:104FE0004FEA154B09B44FEA144325EA0B4E24EA65
:104FF00003480FF2042606EB132749083E785FEAC0
:10500000320203FB0667C7F5000707FB06F64FEA07
:1050100054374FEAD64606F1020607FB066CCCF180
:10502000005C4FEA1C472CEA074C07FB06F40CFB1C
:1050300006F504EB15464FEA961634BF00204FF0F4
:1050400000404FEAD13706FB07FC4FEA1C4C0CFB33
:105050000BF7D21B03FB0CF761EB07010CFB0EF700
:10506000B0EB074072EB17420CFB08F734BFA2EB22
:105070000742B2EB074261EB17414FEA0C444FEA9B
:10508000910706FB07FC4FEA1C4C0CFB0BF7B0EB3F
:10509000C74072EB573203FB0CF734BFA2EBC74299
:1050A000B2EBC74261EB57310CFB0EF7B0EBC70018
:1050B00072EB57720CFB08F734BFA2EBC702B2EBDE
:1050C000C70261EB5771039F4FEA816141EA921178
:1050D00004EBCC044FEAD1374FEA826206FB07FCAF
:1050E00042EA90124FEA80604FEA1C4C0CFB0BF72F
:1050F000D21B03FB0CF761EB07010CFB0EF7B0EBC7
:10510000074072EB17420CFB08F734BFA2EB0742D3
:10511000B2EB074261EB17414FEA8C554FEA91071A
:1051200004EB9C2406FB07FC4FEA1C4C0CFB0BF722
:10513000B0EBC74072EB573203FB0CF734BFA2EB66
:10514000C742B2EBC74261EB57310CFB0EF7B0EB35
:10515000C70072EB57720CFB08F734BFA2EBC70213
:10516000B2EBC70261EB577115EB4C254FEA816139
:1051700041EA92114FEA82624FEAD13742EA901235
:1051800006FB07FC44F100044FEA80604FEA1C4C28
:105190000CFB0BF7D21B03FB0CF761EB07010CFBBD
:1051A0000EF7B0EB074072EB17420CFB08F734BF69
:1051B000A2EB0742B2EB074261EB174115EB1C155E
:1051C0004FEA813141EA92414FEA823242EA90420B
:1051D0004FEA80304FEA0C7644F1000448EA03437A
:1051E0004EEA0B484FF0000EB2EB080C71EB0307D0
:1051F00024BF624639464EEB0E0E4FF0000B0018EE
:10520000524149414BEB0B0BB2EB080C71EB03071E
:105210007BF1000B24BF624639464EEB0E0E4FF079
:10522000000B0018524149414BEB0B0BB2EB080C41
:1052300071EB03077BF1000B24BF624639464EEB4E
:105240000E0E51EA020718BF46F0010616EB0E7665
:1052500055F1000254F1000103D5BDE88901BDE814
:105260000088BDE88901BDE80048B619524141EB0C
:105270000101A3F10103704780807F7E7D7C7B7AF2
:105280007978777676757473727171706F6E6E6DF2
:105290006C6C6B6A6A696868676666656464636398
:1052A00062616160605F5F5E5E5D5D5C5C5B5B5A1E
:1052B0005A5959585857575656555555545453538B
:1052C00052525251515050504F4F4F4E4E4D4D4DE6
:1052D0004C4C4C4B4B4B4A4A4A4949494848484731
:1052E000474747464646454545444444444343436F
:1052F0004342424242414141002B26D4770021D013
:105300001CB54FEA370703B44FF010004FF01001FF
:105310004FF000000FBCBDE810400BF1010BBBF1DA
:10532000010F08BF5FEA170722BF12F1010211F156
:1053300001014FF0004143F1000300F0004043EA57
:1053400000007047F9D35708DAE746EA064613F13A
:10535000400F4FEA16461FDD13F1200FDFBF164343
:105360000A46002120335B42C8D0C3F1200746EA39
:10537000064602FA07F74FEA164646EA0706C3F161
:10538000200722FA03F201FA07F721FA03F14FF09E
:10539000000342EA0702B1E746EA020646EA064689
:1053A0004FEA164646EA0106BCBF46EA0646360CF8
:1053B0004FF000034FF000024FF000019EE72DE98F
:1053C000C048934630B491E8380007C831EA400C31
:1053D00048BF34EA430C03D5FFF7F2FDFFF78CFF1B
:1053E000F0BCBDE800882DE9C048934630B491E890
:1053F000380007C810F0804F08BF13F0804F03D16A
:1054000000F005F8FFF778FFF0BCBDE8008820F059
:105410007F4780EA030023F07F4C07EB0C03A3F5E2
:105420007C5300F00040A3F1FE0392F0000F00F067
:10543000B38095F0000F00F077802DE901494FEA25
:1054400011404FEA144621EA004800FB06FC24EA1A
:10545000064708FB06F607FB08F800FB07F718EB02
:1054600006484CEB164C4FEA124B18EB07484FEA34
:1054700015464CEB174022EA0B4E0BFB06FC25EAC7
:1054800006470EFB06F607FB0EFE0BFB07F71EEBAF
:10549000064E4CEB164C4FF000061EEB074E4CEB45
:1054A000174B18EB0B0840F1000018EB0E0B58EBF4
:1054B000000840F100008F1A4FF000013CBFC943C3
:1054C000661B14BFB5EB040C00213CBFC943F61B9F
:1054D0004FEA17444EEA8E0E27EA04454FEA1C476E
:1054E00004FB07622CEA074C05FB07F70CFB05F6EB
:1054F00004FB0CFC16EB074642EB174216EB0C467E
:1055000042EB1C421BEB060658EB0202414146EA05
:105510009E0601D5BDE80189B619524141EB010152
:10552000A3F10103BDE801894FEA14454FEA114791
:1055300024EA054621EA074C05FB07F406FB07F7BA
:105540000CFB06F105FB0CFC11EB074144EB174487
:105550004FEA124711EB0C4144EB1C4422EA074C82
:1055600005FB07F206FB07F70CFB06F605FB0CFC38
:1055700016EB074642EB174216EB0C4642EB1C4576
:105580006A1854F1000148BF7047B619524141EB07
:105590000101A3F10103704795F0000F37D04FEAE6
:1055A00011424FEA144721EA024624EA074C02FB63
:1055B00007F106FB07F70CFB06F402FB0CFC14EBEF
:1055C000074441EB17414FEA154714EB0C4441EBFC
:1055D0001C4125EA074C02FB07F506FB07F70CFB0D
:1055E00006F602FB0CFC16EB074645EB174516EBDF
:1055F0000C4645EB1C42121951F1000148BF70479F
:10560000B619524141EB0101A3F1010370474FEA82
:1056100014454FEA114724EA054621EA074C05FBE9
:1056200007F106FB07F70CFB06F24FF0000605FB3F
:105630000CFC12EB074241EB174112EB0C4251EB11
:105640001C4148BF7047921841EB0101A3F10103CF
:10565000704700004FF0DE42108001480180704723
:105660000000016F490050EAC12018BF04204A0D14
:1056700018BF40F0010040F2FF72B2EB515F08BF6B
:1056800040F00200012808BF052070472DE9F041D5
:105690004F1E00EBC7010446D1E9000115461E4626
:1056A00037F006020DD02A46334600F0F1FC7F1E8B
:1056B00004EBC703D3E9002300F042FA37F00602F7
:1056C000F1D1022F25D0042F13D0062F18BFBDE82B
:1056D000F0812A46334600F0DBFCD4E90A2300F0CF
:1056E0002FFA2A46334600F0D3FCD4E9082300F011
:1056F00027FA2A46334600F0CBFCD4E9062300F013
:105700001FFA2A46334600F0C3FCD4E9042300F014
:1057100017FA2A46334600F0BBFCD4E9022300F016
:105720000FFA2A46334600F0B3FCD4E90023BDE863
:10573000F04100F005BA30380A2801D20120704744
:10574000002070472DE9F04DCB4B002492B09942D8
:1057500005DA21F000429A4201D807D130B112B0E7
:105760004FF00102BDE8F04D01F0F1B8B1F5801F36
:1057700020DA02430DD0002917DA0120FEF752FF8C
:1057800012B00022BDE8F04D13461046114600F05D
:1057900093BA0220FEF746FF12B00022BDE8F04D9A
:1057A00013461046B54900F087BA6FF0350436222B
:1057B00001F0CDF804EB2152C1F31308B049A2F275
:1057C000FF33414401F4801282F07F6103EB2252E7
:1057D00081F04051009241EA08010022A94B00F0FB
:1057E00061FD044608F10200A74EC0F313000D4608
:1057F0007E44032867D2D6E90023204600F0B4FB9C
:105800001ED10098002802BFD6E9000112B0BDE801
:10581000F08D00F012FC04460D469C4A9C4B00F0B3
:1058200037FC06460F469B4A9B4B2046294600F014
:105830002FFC12B032463B46BDE8F04D00F080B977
:105840004FF05532954B2046294600F021FC0022AE
:10585000934B00F01BFD07460E4622462B46104692
:10586000194600F015FC3A46334600F011FC064696
:1058700000980F46F0B100F0E0FB80468A46834A6C
:10588000834B00F005FC32463B4600F0FFFC22460D
:105890002B4600F007FD04460D467E4A7E4B4046EF
:1058A000514600F0F5FB12B022462B46BDE8F04D04
:1058B00000F0F8BC0B4612B0324620462946BDE83F
:1058C000F04D00F0EFBC00224FF08043204600F086
:1058D00037F902460B462046294600F0EDF9064608
:1058E0000F46009800F0A9FBCDE9040132463B4683
:1058F0001046194600F0CCFB0C906A480A9108EB60
:10590000000201920C9A0B46104600F0C1FB824641
:10591000024665488B46C8F151080B4608F5D72862
:1059200003217844FFF7B2FE52465B4600F0B0FB1D
:105930000E905E48089152465B4604217844FFF77A
:10594000A5FE0A9B0C9A00F0A3FB019A089B42EA71
:1059500008080E9A00F0F4F883460991B8F1000F98
:105960004EDD4FF0FF322046294600F0F0FF224680
:105970002B4600F08DFB804600988A4660B3DDE937
:105980000401424A424B00F083FB0B9100905A46BF
:1059900040465146099B00F0D3F832463B4600F0A2
:1059A00077FB0B9B009A00F0CBF84246534600F081
:1059B0006DFC22462B4600F075FC05460C46DDE9E1
:1059C0000401344A344B00F063FB12B02A462346EC
:1059D000BDE8F04D00F066BC5A464046099B00F019
:1059E000AFF832463B4600F053FB4246534600F0C8
:1059F0004DFC12B022462B46BDE8F04D00F046BCEF
:105A0000009840B3DDE90401204A214B00F040FB3F
:105A1000824688465A4620462946099B00F042FCA9
:105A200032463B4600F034FB5246434600F03AFC17
:105A300022462B4600F036FC04460D46DDE9040103
:105A4000144A154B00F024FB12B022462B46BDE849
:105A5000F04D00F027BC0B465A462046294600F080
:105A600021FC32463B4600F013FB12B022462B4687
:105A7000BDE8F04D00F00ABC0000F07F0000F0BF70
:105A8000645F09000000F03F14180000763C79358F
:105A9000EF39EA3D0000E0FE422EE63F5555D53F86
:105AA0000000E03F86EBF9FFAA160000A8160000F0
:105AB00010B500290AD00878002807D00548784496
:105AC000FFF7C8F9002801D0002010BD0248784433
:105AD00010BD000006160000FE15000021F0004277
