:020000040800F2
:10000000900A0020790E0008810E0008830E000877
:10001000850E0008870E0008890E00080000000009
:100020000000000000000000000000008B0E00082F
:100030008D0E0008000000008F0E0008D722000877
:10004000930E0008930E0008930E0008930E00080C
:10005000930E0008930E0008930E0008930E0008FC
:10006000930E0008930E0008930E0008930E0008EC
:10007000930E0008930E0008930E0008930E0008DC
:10008000930E0008930E0008930E0008930E0008CC
:10009000930E0008930E0008930E0008930E0008BC
:1000A000930E0008930E0008930E0008930E0008AC
:1000B000930E0008930E0008930E0008930E00089C
:1000C000930E0008930E0008930E0008930E00088C
:1000D000930E0008930E0008930E0008930E00087C
:1000E000930E0008930E0008930E0008930E00086C
:1000F000930E0008930E0008930E0008930E00085C
:10010000930E0008930E0008930E0008930E00084B
:10011000930E0008930E0008930E0008930E00083B
:10012000930E0008930E0008930E0008930E00082B
:1001300000F002F800F03CF80AA090E8000C8244BD
:100140008344AAF10107DA4501D100F031F8AFF29A
:10015000090EBAE80F0013F0010F18BFFB1A43F0A5
:100160000103184794480000B4480000103A24BF27
:1001700078C878C1FAD8520724BF30C830C144BF0C
:1001800004680C607047000000230024002500264E
:10019000103A28BF78C1FBD8520728BF30C148BFEA
:1001A0000B6070471FB503F04CFA1FBD10B510BDB2
:1001B00002F090F91146FFF7F5FF02F0D4F802F0D3
:1001C000AEF903B4FFF7F2FF03BC02F0B3F970B568
:1001D00005460E46002406E0601CC0B20446C8284E
:1001E00001DD002070BD0221284601F0A1FB00289E
:1001F000F2D03146284601F048FB002406E0601C9E
:10020000C0B20446C82801DD0020EBE701212846E2
:1002100001F08EFB0028F2D0284601F038FBC0B276
:10022000E0E7000070B504460D4600224FF480510F
:10023000F94800F0BEFF2DB101225103F64800F04D
:10024000B8FF05E000224FF40051F34800F0B1FF81
:100250002146F248FFF7BBFF01225103EE4800F0B0
:10026000A8FF01221103EC4800F0A3FF70BD10B5F8
:1002700000218D20FFF7D6FF00211420FFF7D2FFC9
:100280000021AF20FFF7CEFF10BD10B500218D205B
:10029000FFF7C8FF00211020FFF7C4FF0021AE20A8
:1002A000FFF7C0FF10BD70B500241EE004F1B001DF
:1002B000C8B20021FFF7B6FF00BF00210846FFF7D4
:1002C000B1FF00211020FFF7ADFF00BF002508E0BF
:1002D000D34901EBC501085D0121FFF7A3FF681CAD
:1002E000C5B2802DF4DB601CC4B2082CDEDB70BD0F
:1002F00070B5064600241BE004F1B001C8B200212D
:10030000FFF790FF00BF00210846FFF78BFF002199
:100310001020FFF787FF00BF002505E0C04800EB75
:10032000C5000655681CC5B2802DF7DB601CC4B241
:10033000082CE1DBFFF7B7FF70BDF0B514460026CF
:100340007F2801DC3F2900DDF0BD0B46CF1701EB14
:100350005777FF10C7F10707FAB2CF1701EB5777AE
:10036000FF10A1EBC707FDB2C5F107070123BB4092
:10037000DEB24CB1AA4B03EBC0039B5C3343A84FE6
:1003800007EBC007BB5408E0A54B03EBC0039B5C25
:10039000B343A34F07EBC007BB5400BFD4E72DE91D
:1003A000F04706460F4690469946DDF820A03446B1
:1003B0000CE03D4606E0524629462046FFF7BDFFC9
:1003C000681CC5B24D45F6DD601CC4B24445F0DD85
:1003D000FFF769FFBDE8F0872DE9FF4F0E46144691
:1003E0001F46DDF83480B346A4F12000C4B20025D6
:1003F00051E00C2F14D1B8F1000F07D004EB4400EA
:10040000884901EB800010F805A019E004EB4400D6
:10041000844901EB8000405DC04300F0FF0A0FE01B
:10042000B8F1000F05D0804800EB041010F805A0CB
:1004300006E07D4800EB0410405DC04300F0FF0A79
:100440004FF0000921E01AF0800F05D0012231465B
:100450000098FFF772FF04E0002231460098FFF792
:100460006CFF4FEA4A604FEA106A701CC6B2A6EBF6
:100470000B00B84205D15E460098401CC0B2009007
:1004800006E009F1010000F0FF09B9F1080FDADB1D
:1004900000BF681CC5B2BD42ABDBBDE8FF8F10B525
:1004A0000246012000E050430B00A1F10104E1B23B
:1004B000F9D110BD2DE9FF4F81B0074691461E4688
:1004C0000E9D4FF0000A002439E0301B401EC1B2DF
:1004D0000A20FFF7E4FFB9FBF0F00A21B0FBF1F2CC
:1004E00001FB1208BAF1000F16D1701EA04213DDF5
:1004F000B8F1000F0ED10120AB4605EBDB714910BE
:1005000001FB04710090C8B22B4620220299FFF72C
:1005100063FF12E04FF0010A0120AB4605EBDB71EF
:10052000491001FB04710090C8B22B4608F130015C
:10053000CAB20299FFF750FF00BF601CC4B2B442B8
:10054000C3DB05B0BDE8F08F2DE9F84306460F4642
:1005500015461C46DDF8208021E004EBD4714910DB
:10056000C1F18001B1420BDA00263819C7B2C4F1DB
:100570004000B84204DA002006460746FFF7B8FEFE
:10058000CDF800802A78234639463046FFF724FF0D
:10059000204604EBD07106EB6101CEB26D1C2878C9
:1005A0000028DAD1BDE8F8832DE9F04F06460C4665
:1005B00017464FF00009A246CB46002528E0A7F1D8
:1005C00030001A4901EB401010F805904FF0000878
:1005D00018E04FEAD91B5A4621463046FFF7ADFED8
:1005E0004FEA49604FEA1069601CC4B2A4EB0A00EC
:1005F000102803D15446701CC6B206E008F1010071
:1006000000F0FF08B8F1080FE3DB00BF681CC5B2BB
:10061000202DD4DBBDE8F08F000C014000300140FC
:10062000300000204A370008BE3B0008AE410008F9
:100630002DE9F04F06460C4617464FF00009A2463A
:10064000CB46002528E0A7F13000704901EB80106F
:1006500010F805904FF0000818E04FEAD91B5A46F1
:1006600021463046FFF769FE4FEA49604FEA1069BC
:10067000601CC4B2A4EB0A00202803D15446701CAD
:10068000C6B206E008F1010000F0FF08B8F1080F5B
:10069000E3DB00BF681CC5B2402DD4DBBDE8F08FA2
:1006A0002DE9F04F0746884691461E46DDF824A006
:1006B000F01DC11700EB51714FEAE10B00251CE062
:1006C000002416E0E11704EB5171C91005FB0B92F1
:1006D000515C04F0070380221A41114207D008EB55
:1006E0000502D1B23A19D0B20122FFF726FE601CF2
:1006F00084B2B442E6DB681C85B25545E0DBBDE858
:10070000F08F10B501221103414800F052FD002284
:100710004FF400513E4800F04CFD012291033C484B
:1007200000F047FD0021AE20FFF77CFD00210846C8
:10073000FFF778FD00211020FFF774FD0021402015
:10074000FFF770FD00218120FFF76CFD0021CF2015
:10075000FFF768FD0021A120FFF764FD0021C02004
:10076000FFF760FD0021A620FFF75CFD0021A82017
:10077000FFF758FD00213F20FFF754FD0021D32053
:10078000FFF750FD00210846FFF74CFD0021D52062
:10079000FFF748FD00218020FFF744FD0021D9200C
:1007A000FFF740FD0021F120FFF73CFD0021DA209A
:1007B000FFF738FD00211220FFF734FD0021DB2078
:1007C000FFF730FD00214020FFF72CFD0021202005
:1007D000FFF728FD00210220FFF724FD00218D20D6
:1007E000FFF720FD00211420FFF71CFD0021A420AD
:1007F000FFF718FD0021A620FFF714FD0021AF2010
:10080000FFF710FD0020FFF773FD10BD0E43000839
:10081000000C014010B504466FF0040000F09CFB92
:100820002948B4FBF0F029490870084600784FF4D5
:100830007A7148432649088010BD0146234A127840
:100840004A434FF0E0235A6100229A611A46126926
:1008500042F001021A6100BF4FF0E022106910F06F
:10086000010F02D010F4803FF6D04FF0E022126961
:1008700022F001024FF0E0231A6100229A617047D2
:100880000146134A12884A434FF0E0235A6100227E
:100890009A611A46126942F001021A6100BF4FF0D4
:1008A000E022106910F0010F02D010F4803FF6D062
:1008B0004FF0E022126922F001024FF0E0231A61AA
:1008C00000229A617047000000127A0000000020A8
:1008D0000200002010B501225103F44800F069FC29
:1008E0000122D103F14800F064FC0120FFF7C8FFAA
:1008F00010BD08B500BF4FF40040ADF80000032064
:100900008DF8020010208DF803006946E74800F0DA
:10091000A1FB00BF0122D103E44800F04AFC012200
:100920005103E24800F045FC0120FFF786FF00225A
:100930004FF40041DD4800F03CFC0120FFF77DFF53
:1009400000224FF40051D94800F033FC0120FFF79A
:1009500074FF08BD10B500224FF40051D34800F0D9
:1009600028FC00224FF40041D04800F022FC012076
:10097000FFF763FF01225103CC4800F01AFC01206D
:10098000FFF75BFF0122D103C84800F012FC0120F1
:10099000FFF753FF10BD08B500224FF40051C348C4
:1009A00000F007FC00BF4FF40040ADF8000003204A
:1009B0008DF8020010208DF803006946BB4800F056
:1009C00049FB00BF00224FF40041B84800F0F1FBA2
:1009D0000120FFF732FF01225103B44800F0E9FB88
:1009E0000120FFF72AFF00224FF40051AF4800F02A
:1009F000E0FB08BD08B500224FF40051AB4800F001
:100A0000D8FB00BF4FF40040ADF8000003208DF884
:100A1000020010208DF803006946A44800F01AFB7C
:100A200000BF0122D103A14800F0C3FB0120FFF762
:100A300004FF012251039D4800F0BBFB0120FFF79A
:100A4000FCFE00224FF40051984800F0B2FB08BDB4
:100A500010B5002400224FF40051944800F0A9FB87
:100A600001225103914800F0A4FB08E0601CC4B2CD
:100A7000C82C04DD0024FFF76DFF002010BD4FF4EB
:100A800000418A4800F077FB20B9200004F1010101
:100A9000CCB2EBD100224FF40051844800F089FB26
:100AA0000120EBE738B5044600BF4FF40040ADF835
:100AB000000003208DF8020010208DF80300694625
:100AC0007A4800F0C7FA00BF002520E000224FF46A
:100AD0000051764800F06DFB14F0800F05D0012224
:100AE000D103724800F065FB05E000224FF400419D
:100AF0006E4800F05EFB6006040E012251036B4855
:100B000000F057FB0120FFF798FE681CC5B2082DC6
:100B1000DCDB38BD70B504460D461646FFF7E9FE2E
:100B20002046FFF7BFFFFFF793FF2846FFF7BAFF06
:100B3000FFF78EFF3046FFF7B5FFFFF789FFFFF79E
:100B400009FF70BD2DE9F0410546884616461F464F
:100B500006B117B90020BDE8F081FFF7CAFE2846AC
:100B6000FFF7A0FFFFF774FF4046FFF79BFFFFF77B
:100B70006FFF002406E0385DFFF794FFFFF768FF82
:100B8000601CC4B2B442F6DBFFF7E4FE0120E2E7EA
:100B9000F8B50646002400BF4FF40040ADF8000051
:100BA00003208DF8020048208DF8030069463F4875
:100BB00000F050FA00BF002519E000224FF4005168
:100BC0003A4800F0F6FA01225103384800F0F1FAF1
:100BD0006006040E4FF40041344800F0CCFA10B126
:100BE00044F0010401E024F00104681CC5B2082DA2
:100BF000E3DB16B9FFF7CFFE01E0FFF7FBFE20466F
:100C0000F8BD70B504460D460026FFF772FE20467B
:100C1000FFF748FFFFF71CFF2846FFF743FFFFF7EA
:100C200017FFFFF766FE44F00100FFF73BFFFFF7F9
:100C30000FFF0120FFF7ACFF0646FFF78BFE3046A3
:100C400070BD2DE9F0410546884616461F4606B19F
:100C500017B90020BDE8F081FFF74BFE2846FFF7EB
:100C600021FFFFF7F5FE4046FFF71CFFFFF7F0FE00
:100C7000FFF73FFE45F00100FFF714FFFFF7E8FE26
:100C800000240DE0701EA04204D10120FFF780FF78
:100C9000385503E00020FFF77BFF3855601CC4B2D5
:100CA000B442EFDBFFF756FE0120D3E7000C014012
:100CB00000210020674A126842F48032654B1A60B6
:100CC00000BF644A126802F40030491C10B9B1F543
:100CD000A06FF6D15F4A126812F4003F01D00120E4
:100CE00000E00020012842D15B4A126842F0100265
:100CF000594B1A601A46126822F003021A601A460B
:100D0000126842F002021A60524A5268514B5A600D
:100D10001A4652685A601A46526842F480625A6013
:100D20001A46526822F47C125A601A46526842F4FB
:100D3000E8125A601A46126842F080721A6000BFC8
:100D4000444A126812F0007FFAD0424A526822F0F8
:100D50000302404B5A601A46526842F002025A603F
:100D600000BF3C4A526802F00C02082AF9D17047D1
:100D700010B5FFF79DFF10BD10B53648006840F074
:100D80000100344908600846406834490840314948
:100D9000486008460068324908402E490860084605
:100DA000006820F4802008600846406820F4FE00B7
:100DB00048604FF41F008860FFF7DAFF4FF00060D3
:100DC0002849086010BD10B5002100200022214BE9
:100DD0005B6803F00C0121B1042906D0082928D151
:100DE00007E0214B214C236027E01F4B1F4C236061
:100DF00023E0184B5B6803F47010164B5B6803F438
:100E00008032022303EB904022B9194B4343174C25
:100E100023600DE00F4B5B6813F4003F04D0144BCC
:100E20004343124C236003E00F4B43430F4C2360BA
:100E300003E00D4B0D4C236000BF00BF054B5B680A
:100E4000C3F303130B4CE15C084B1B68CB40074C0E
:100E5000236010BD00100240002002400000FFF897
:100E6000FFFFF6FE08ED00E000127A00040000200B
:100E700000093D0008000020094880470948004754
:100E8000FEE7FEE7FEE7FEE7FEE7FEE7FEE7FEE73A
:100E9000FEE7FEE704480549054A064B7047000097
:100EA000790D00083101000890040020900A00200C
:100EB000900600209006002031490143314A11601C
:100EC000704770B5002100230F22C4780CB32D4C5D
:100ED000246804F4E064C4F5E064210AC1F1040369
:100EE000CA40447804FA03F184781440214309018C
:100EF000254C0678A155047804F01F050124AC4068
:100F000005786D114FF0E02606EB8505C5F8004128
:100F100009E0047804F01F050124AC401B4D06785D
:100F2000761145F8264070BD194A0A400243154B18
:100F30001B1F1A60704739B1124A121D1268024312
:100F4000104B1B1D1A6006E00E4A121D12688243E8
:100F50000C4B1B1D1A607047042808D14FF0E0218C
:100F6000096941F004014FF0E022116107E04FF000
:100F7000E021096921F004014FF0E022116170477E
:100F80000000FA050CED00E000E400E080E100E084
:100F900080FFFF1F10B50446CA48844208D10121D2
:100FA000042000F025FB0021042000F021FB46E096
:100FB000C548844208D10121082000F019FB002116
:100FC000082000F015FB3AE0C048844208D1012116
:100FD000102000F00DFB0021102000F009FB2EE096
:100FE000BB48844208D10121202000F001FB0021F0
:100FF000202000F0FDFA22E0B648844208D1012109
:10100000402000F0F5FA0021402000F0F1FA16E04F
:10101000B148844208D10121802000F0E9FA002182
:10102000802000F0E5FA0AE0AC48844207D10121B3
:10103000801500F0DDFA0021A01500F0D9FA10BDEE
:1010400010B50121084600F0D3FA0021012000F07C
:10105000CFFA10BD2DE9F041024600250026002000
:1010600000230024002791F803C00CF00F0591F82D
:1010700003C01CF0100F03D091F802C04CEA050524
:10108000B1F800C01CF0FF0F31D0146800202BE035
:101090004FF0010C0CFA00F3B1F800C00CEA0306A3
:1010A0009E4220D183004FF00F0C0CFA03F7BC4393
:1010B00005FA03FC4CEA040491F803C0BCF1280FC4
:1010C00006D14FF0010C0CFA00FCC2F814C00AE083
:1010D00091F803C0BCF1480F05D14FF0010C0CFA98
:1010E00000FCC2F810C0401C0828D1D31460B1F82D
:1010F00000C0BCF1FF0F34DD546800202EE000F189
:10110000080C4FF0010808FA0CF3B1F800C00CEA23
:1011100003069E4221D183004FF00F0C0CFA03F717
:10112000BC4305FA03FC4CEA040491F803C0BCF18B
:10113000280F05D100F1080C08FA0CF8C2F8148049
:1011400091F803C0BCF1480F07D100F1080C4FF033
:10115000010808FA0CF8C2F81080401C0828CED309
:101160005460BDE8F0814FF6FF710180022181706B
:101170000421C17070470246002093680B4201D0E1
:10118000012000E0002070470146886880B2704767
:1011900002460020D3680B4201D0012000E000206D
:1011A00070470146C86880B270470161704741616D
:1011B00070470AB1016100E041617047C16070474A
:1011C0004FF480320A43826181618261826982695F
:1011D000704702460020424B18684FF68073184053
:1011E00040EA021008433E4B186070473D49C86111
:1011F0007047F0B50A46002300240021002500F0C6
:101200000046B6F1004F02D1354EF16901E0344E8F
:101210007168C0F3034583B200F44016B6F5401F71
:1012200008D121F070612E4E766826F070662C4F42
:101230007E6012E000F48016B6F5801F06D103260A
:1012400006FA05F4A14341F0706106E0460D36014F
:1012500003FA06F6B14341F0706122B1460D360142
:1012600003FA06F6314300F00046B6F1004F02D112
:101270001B4EF16101E01A4E7160F0BD30B50022E5
:101280008B071C0F0F2303FA04F2154B08338C1045
:1012900053F824309343124C08348D1044F8253011
:1012A00023468C1053F824308C07240F00FA04F4E2
:1012B00023430B4C08348D1044F8253030BD0A49C7
:1012C0000860704700080140000C01400010014018
:1012D0000014014000180140001C014000200140A2
:1012E0000000014000002042DC002042DC48006891
:1012F00040F00100DA49086008464068D9490840D2
:10130000D749486008460068D7490840D449086072
:101310000846006820F4802008600846406820F4F1
:10132000FE0048604FF41F0088607047CC49096890
:1013300021F48031CA4A11601146096821F48021E4
:101340001160B0F5803F03D0B0F5802F0ED106E0DC
:10135000C349096841F48031C14A116007E0C049BE
:10136000096841F4A021BE4A116000E000BF00BF3F
:10137000704710B501460022002300204A11012ABF
:1013800002D1B74C236806E0022A02D1B44C236A8A
:1013900001E0B34C636A01F01F02012494401C4237
:1013A00001D0012000E0002010BD70B50024002510
:1013B000002600BF3120FFF7DCFF0646641CB4F5B1
:1013C000A06F01D0002EF5D03120FFF7D2FF08B179
:1013D000012500E00025284670BD01460020A04AF6
:1013E000106820F0F80040EAC100106070479F4983
:1013F0000860704702460020994B586820F47C1022
:1014000042EA01031843964B5860704797490866B3
:10141000704701460020924A506820F003000843BC
:10142000506070478E48406800F00C0070470146DD
:1014300000208B4A506820F0F0000843506070474D
:1014400001460020864A506820F4E060084350605E
:10145000704701460020824A506820F4605040EAFC
:10146000C1005060704729B17D4A527A02437C4BDB
:101470005A7206E07A4A527AC343DBB21A40784B7A
:101480005A7270477A490860704701460020744AD2
:10149000506820F440400843506070470021754A6E
:1014A00011706F4A82F82010012802D0042808D158
:1014B00003E001216F4A117004E005216D4A1170AB
:1014C00000E000BF00BF70476B4908607047644987
:1014D000096A0143624A11627047674944390860EA
:1014E000704730B500210022002400235C4D6D6858
:1014F00005F00C0121B1042905D0082923D105E00C
:101500005E4D056022E05D4D05601FE0544D6D6845
:1015100005F47012524D6D6805F48034022505EB18
:1015200092421CB9564D554305600BE04C4D6D6819
:1015300015F4003F03D0524D5543056002E04F4D76
:101540005543056002E04D4D056000BF00BF444DAE
:101550006D6805F0F00109094A4D6B5C0568DD40D6
:1015600045603F4D6D6805F4E061090A454D6B5CCF
:101570004568DD4085603A4D6D6805F46051C90AE3
:10158000404D6B5C4568DD40C560354D6D6805F4C8
:101590004041890B3C4D6B5CC568B5FBF3F50561BB
:1015A00030BD29B12E4A526902432D4B5A6104E0E5
:1015B0002B4A526982432A4B5A61704729B1284A03
:1015C00092690243264B9A6104E0254A926982435C
:1015D000234B9A61704729B1214AD2690243204BBB
:1015E000DA6104E01E4AD26982431D4BDA6170471A
:1015F00029B11B4AD2680243194BDA6004E0184A49
:10160000D2688243164BDA60704729B1144A1269D6
:101610000243134B1A6104E0114A12698243104BD2
:101620001A61704714494039086070470F49C8640F
:1016300070470B49C87170470948406A40F0807094
:1016400007494862704701460020054A92680A42ED
:1016500001D0012000E000207047014988727047E6
:10166000001002400000FFF8FFFFF6FE00004242BB
:10167000D8004242201002408004424200127A0008
:1016800000093D00180000202800002010B5044685
:10169000BF48844208D101218014FFF7A9FF00212F
:1016A000A014FFF7A5FF16E0BA48844208D1012133
:1016B0000014FFF7AAFF00212014FFF7A6FF0AE09D
:1016C000B548844207D10121C013FFF79EFF0021D6
:1016D000E013FFF79AFF10BD10B50022028802F454
:1016E00041520B884C8823438C882343CC88234366
:1016F0000C8923434C8923438C892343CC8923437E
:101700001A430280838B4FF2FF74234083830B8A3A
:10171000038210BD2DE9F04F85B005460C464FF011
:10172000000902274FF000084FF0010B0026B246D7
:10173000A88B4FF240010840A88302202884B5F806
:101740001C90A068022801D100BF36E0A08810B923
:101750004FF0010B01E04FF0020B8E48854200D1A3
:1017600000E000BF6846FFF7BCFEDDF800A0E0889F
:10177000B0F5007F0AD14FEA1A2000EB800040004C
:10178000A168B0FBF1F0401D86B20BE04FEA4B10B0
:10179000BAFBF0F000EB80004000A168B0FBF1F074
:1017A000401D86B20A20B6FBF0F606F00108A6EB53
:1017B0000800C0F34F074FEA0828022F01DBFF2F74
:1017C00002DD02274FF00008E08840EA08003843B5
:1017D0002884A088A1890843618808432188084398
:1017E00040F4006040EA0909A5F81C9005B0BDE886
:1017F000F08F0021018041808180C1800181418181
:101800008181C181072101827047002101804180CF
:101810008180C1800221816000218181704721B1D6
:10182000028842F04002028004E002884FF6BF7353
:101830001A400280704721B1828B42F48062828319
:1018400004E0828B4FF6FF331A408283704770B5F5
:10185000002400230C110125A540ABB21AB18588E4
:101860001D43858004E08588DE43B6B2354085801F
:1018700070BD10B51AB183880B43838004E0838860
:10188000CC43A4B22340838010BD818170470146C0
:1018900088897047A1F57E42FF3A04D0028842F45D
:1018A0008072028004E002884FF6FF631A400280D3
:1018B000704721B1828842F00402828004E082886D
:1018C0004FF6FB731A408280704702884FF2FF7315
:1018D0001A40028002880A4302807047018841F45E
:1018E00080510180704721B1028842F40052028089
:1018F00004E002884DF6FF731A40028070470246EA
:101900000020012901D0108B00E0908A7047014629
:10191000088A7047B1F5804F04D1028842F48042B2
:10192000028004E002884BF6FF731A400280704781
:101930000246002013890B4201D0012000E0002064
:101940007047CA4302817047F0B502460020002468
:101950000023002501F00F070126BE40B4B20B1191
:1019600001269E40B3B2968806EA030516892642F0
:1019700002D00DB1012000E00020F0BD10B5002222
:1019800001F00F040123A3409AB2D343038110BD99
:101990000030014000380040003C004010B50446D3
:1019A000F948844208D101214015FFF721FE0021AA
:1019B0006015FFF71DFE17E0F448844208D10121AD
:1019C0000015FFF715FE00212015FFF711FE0BE0B3
:1019D000EF48844208D10121C803FFF709FE002126
:1019E0004FF40040FFF704FE10BD30B50246002062
:1019F00000235068E74C20400D790C6844EA052428
:101A0000204350609068E44C2040D1E902542C43BC
:101A10004D7944EA450420439060D06A20F4700078
:101A20000C7C641EE4B2234340EA0350D06230BD14
:101A300000210160017141718160C1600121017467
:101A4000704721B1826842F00102826003E082683F
:101A500022F001028260704721B1826842F48072F4
:101A6000826003E0826822F480728260704710B561
:101A70000023CBB21AB144681C43446002E04468BE
:101A80009C43446010BD816841F00801816070474B
:101A9000014600208A6812F0080F01D0012000E002
:101AA00000207047816841F0040181607047014661
:101AB00000208A6812F0040F01D0012000E000200D
:101AC000704721B1826842F4A002826003E082681C
:101AD00022F4A00282607047014600208A6812F456
:101AE000800F01D0012000E00020704710B50A46A9
:101AF00000210023416821F46041531E41EA433133
:101B0000416010BD21B1426842F40062426003E0CE
:101B1000426822F4006242607047F0B504460D4608
:101B200000200021092D11DDE068A5F10A0606EB71
:101B30004607072606FA07F18843A5F10A0606EBD1
:101B4000460603FA06F10843E0600CE0206905EB65
:101B50004507072606FA07F1884305EB450603FA11
:101B600006F108432061072A0FDA606B561E06EB68
:101B700086071F2606FA07F18843561E06EB8606DF
:101B800005FA06F10843606322E00D2A0FDA206BA4
:101B9000D61F06EB86071F2606FA07F18843D61FD5
:101BA00006EB860605FA06F10843206310E0E06ABA
:101BB000A2F10D0606EB86071F2606FA07F18843F9
:101BC000A2F10D0606EB860605FA06F10843E0626F
:101BD000F0BD21B1826842F48012826003E0826825
:101BE00022F48012826070470146C86C80B2704750
:101BF00065484C300068704721B1426842F4806209
:101C0000426003E0426822F480624260704721B182
:101C1000426842F48052426003E0426822F48052FB
:101C2000426070470A460021816821F4E041114377
:101C30008160704721B1826842F40042826003E013
:101C4000826822F400428260704721B1826842F4C7
:101C50000212826003E0826822F4021282607047FE
:101C6000014600208A6812F4001F01D0012000E024
:101C700000207047F0B504461546002000220026DB
:101C8000092911DDE068A1F10A0707EB470C0727D6
:101C900007FA0CF29043A1F10A0707EB470703FA92
:101CA00007F21043E0600CE0206901EB410C0727CC
:101CB00007FA0CF2904301EB410703FA07F21043D5
:101CC0002061A06BC0F30156EF1C06F1010CA7EBDD
:101CD0000C0707EB870C1F2707FA0CF29043EF1C49
:101CE00006F1010CA7EB0C0707EB870701FA07F2D7
:101CF0001043A063F0BD10B50A4600210023816B9C
:101D000021F44011531E41EA0351816310BD10B507
:101D1000002303460B441A6010BD024600231346FD
:101D200001F128000344186880B270470A46002178
:101D300041681A4B19401143416070474162826209
:101D400070470A460021416821F01F01114341609C
:101D5000704740B10C490831096841F400010A4A52
:101D60000832116007E008490831096821F40001D0
:101D7000054A0832116070470246002013680B4282
:101D80000ED001200DE00000002401400028014099
:101D9000003C0140FFFEF0FFFDF7F1FFFFFD3FFFBC
:101DA00000207047CA430260704770B502460020A9
:101DB000002300240B125568CEB205EA060415680C
:101DC0001D4202D00CB1012000E0002070BD0022B5
:101DD0000A12D3430360704701684FF6FE72114048
:101DE00001600021016041608160C1608C498842CE
:101DF00008D18B490839496841F00F01884A083AEF
:101E000051608AE086491431884208D184490839F2
:101E1000496841F0F001824A083A51607DE080490A
:101E20002831884208D17E490839496841F47061F7
:101E30007B4A083A516070E079493C31884208D1C8
:101E400077490839496841F47041754A083A516048
:101E500063E073495031884208D1714908394968B3
:101E600041F470216E4A083A516056E06C49643181
:101E7000884208D16A490839496841F47001684AC2
:101E8000083A516049E066497831884208D164498E
:101E90000839496841F07061614A083A51603CE094
:101EA0006049884206D1011F096841F00F01021FF5
:101EB000116032E05B491431884208D15949091F49
:101EC000096841F0F001574A121F116025E0554999
:101ED0002831884208D15349091F096841F47061CB
:101EE000504A121F116018E04E493C31884208D117
:101EF0004C49091F096841F470414A4A121F116098
:101F00000BE048495031884207D14649091F09680A
:101F100041F47021434A121F1160704710B500222E
:101F2000026847F6F0739A430C6A8B6823430C6986
:101F300023434C6923438C692343CC6923434C6A74
:101F400023438C6A23431A430260CB6843600B68C7
:101F500083604B68C36010BD0021016041608160F7
:101F6000C160016141618161C1610162416281625F
:101F7000704721B1026842F00102026004E0026889
:101F80004FF6FE731A40026070471AB103680B43A4
:101F9000036002E003688B43036070474160704751
:101FA0000146486880B2704701460020002211F0C7
:101FB000805F03D01B4B083B1A6802E0184B083BBC
:101FC0001A680A4201D0012000E00020704710F09A
:101FD000805F03D01349091F086002E010490839E7
:101FE0004860704701460020002211F0805F03D056
:101FF0000C4B083B1A6802E0094B083B1A680A427E
:1020000001D0012000E00020704710F0805F03D075
:102010000449091F086002E0014908394860704717
:10202000080002400804024010B5FEF76AFB10BD2C
:1020300000B591B001214802FFF7C0FA012108461E
:10204000FFF7AFFA0220ADF8000000208DF8030082
:102050006946A148FEF7FEFF0420ADF8000000200D
:102060008DF8030069469C48FEF7F4FF9B48FFF794
:10207000B3FE9B4801909B480290002003900120F2
:1020800004900020059006904FF480700790800027
:1020900008902020099000020A9000200B9001A9CE
:1020A0008E48FFF73BFF01218C48FFF762FF0020BD
:1020B0000C908DF8340001208DF835004FF460202D
:1020C0000E9000200F9001208DF840000CA984484C
:1020D0004C38FFF78AFC05230122114680484C3812
:1020E000FFF71BFD01217E484C38FFF7B5FC0121AD
:1020F0007B484C38FFF7A5FC79484C38FFF7C3FC08
:1021000000BF77484C38FFF7C3FC0028F9D174486A
:102110004C38FFF7C7FC00BF71484C38FFF7C7FCCD
:102120000028F9D101216E484C38FFF7CAFC002085
:102130000C9001208DF834008DF835004FF46020AC
:102140000E9000200F9002208DF840000CA96448EA
:102150004C38FFF74AFC05230222114660484C38F0
:10216000FFF7DBFC01215E484C38FFF76AFC5C4856
:102170004C38FFF788FC00BF59484C38FFF788FC03
:102180000028F9D156484C38FFF78CFC00BF544862
:102190004C38FFF78CFC0028F9D111B000BD00B518
:1021A00085B001210803FFF709FA0020ADF800000F
:1021B0004FF48270ADF802000020ADF80400022058
:1021C000ADF806000120ADF808004002ADF80A00A5
:1021D0001020ADF80C000020ADF80E000720ADF87F
:1021E000100069464048FFF777FA01213E48FFF7A3
:1021F00016FB05B000BD08B501211D20FFF7DEF973
:102200002020ADF8000003208DF8020018208DF882
:10221000030069463048FEF71DFF8020ADF800003E
:1022200003208DF8020018208DF8030069462A4823
:10223000FEF710FF4FF48050ADF8000003208DF83A
:10224000020010208DF8030069462848FEF702FFBF
:102250004FF48040ADF8000003208DF802001020FC
:102260008DF8030069462148FEF7F4FE4FF4005054
:10227000ADF8000003208DF8020010208DF8030057
:1022800069461A48FEF7E6FE4FF40050ADF800002C
:1022900003208DF8020010208DF8030069461448D1
:1022A000FEF7D8FE08BD10B5FFF7A5FFFFF777FFD3
:1022B000FEF710FBFFF7BCFE10BD00B585B0684609
:1022C000FFF70FF90198FEF7A5FAFFF7ECFFFFF70C
:1022D000ABFE05B000BD7047000801400800024099
:1022E0004C2401402C00002000300140000C014033
:1022F000001001402DE9F84F814600240025A24638
:102300000027A34600200090804600BF24E0E80696
:102310004FEA106A002419E0584810F808700026A7
:102320000CE04FEAD71B0AEB0600C1B25A46204622
:10233000FEF703F87806070E701CC6B2082EF0DD13
:1023400008F101001FFA80F8601CC4B2802CE3DBA6
:10235000FDF7A9FF681CC5B2062DD8DB4846FEF77D
:102360008FFABDE8F88F88B0FFF7A7FF0020FDF7D0
:10237000BFFF4FF47A70FFF7BDFF7DE04048008853
:1023800000F083FD824652460B4600203D4900F096
:10239000D1FB00223C4BCDE9060100F093FE06463E
:1023A00032460B460020394900F0C4FB044600F0D9
:1023B000D3FA80463649404600F09AFF019000F07B
:1023C0006BFFCDE9020100F011F904460022314B08
:1023D00000F0B0FB304A314BCDE9040100F0EEFAD9
:1023E000064632460B460020274900F0A3FB002298
:1023F0002B4BCDE9060100F065FE824600F0ACFAF9
:102400008146484601F036F8044610200323224650
:10241000322100900220FEF74DF801200C232E22DD
:10242000352100901A20FDF7D7FF1E49484601F0DC
:1024300041F8054601F01EF80646484601F01AF834
:10244000C0B200EBC00101EB0010A6EB800410202D
:1024500002232246322100901E20FEF72BF8012095
:102460000C234322322100902F20FDF7B5FFFDF70A
:102470001AFF6420FEF704FA80E7000076460008A1
:102480002C00002000C8A9400000F03F00408F4011
:1024900000007A4400DCAE408B33DA3D6C7D6B3F4C
:1024A000001071400000C84270477047704710B577
:1024B00000F008F8006810BD10B5044600F002F8FE
:1024C000046010BD00487047300400200048704789
:1024D000300400207546FFF7F9FFAE460500694657
:1024E000534620F00700854618B020B5FEF7D2FC11
:1024F000BDE820404FF000064FF000074FF0000805
:102500004FF0000B21F00701AC46ACE8C009ACE885
:10251000C009ACE8C009ACE8C0098D467047044664
:10252000AFF300802046FDF74CFE000000487047E6
:102530003404002001491820ABBEFEE7260002004B
:1025400070472DE9F0414F1E00EBC7010446D1E969
:10255000000115461E4637F006020DD02A463346C6
:1025600000F0A6FC7F1E04EBC703D3E9002300F0B4
:1025700025FA37F00602F1D1022F25D0042F13D00F
:10258000062F18BFBDE8F0812A46334600F090FCC4
:10259000D4E90A2300F012FA2A46334600F088FCF8
:1025A000D4E9082300F00AFA2A46334600F080FCFA
:1025B000D4E9062300F002FA2A46334600F078FCFC
:1025C000D4E9042300F0FAF92A46334600F070FCFF
:1025D000D4E9022300F0F2F92A46334600F068FC01
:1025E000D4E90023BDE8F04100F0E8B92DE9F04D51
:1025F000CB4B002492B0994205DA21F000429A4276
:1026000001D807D130B112B04FF00102BDE8F04D52
:1026100001F055B8B1F5801F20DA02430DD0002932
:1026200017DA0120FFF748FF12B00022BDE8F04D95
:1026300013461046114600F07DBA0220FFF73CFF1A
:1026400012B00022BDE8F04D13461046B54900F027
:1026500071BA6FF03504362201F031F804EB2152E3
:10266000C1F31308B049A2F2FF33414401F48012D0
:1026700082F07F6103EB225281F04051009241EAE7
:1026800008010022A94B00F01DFD044608F10200DC
:10269000A74EC0F313000D467E44032867D2D6E947
:1026A0000023204600F09EFB1ED10098002802BFA8
:1026B000D6E9000112B0BDE8F08D00F0CFFB044672
:1026C0000D469C4A9C4B00F0F3FB06460F469B4A86
:1026D0009B4B2046294600F0EBFB12B032463B46AE
:1026E000BDE8F04D00F06AB94FF05532954B2046E9
:1026F000294600F0DDFB0022934B00F0D7FC074693
:102700000E4622462B461046194600F0D1FB3A46AB
:10271000334600F0CDFB064600980F46F0B100F0BE
:102720009DFB80468A46834A834B00F0C1FB3246BC
:102730003B4600F0BBFC22462B4600F0C3FC04469F
:102740000D467E4A7E4B4046514600F0B1FB12B02A
:1027500022462B46BDE8F04D00F0B4BC0B4612B04B
:10276000324620462946BDE8F04D00F0ABBC0022C1
:102770004FF08043204600F021F902460B462046E8
:10278000294600F0D7F906460F46009800F066FB90
:10279000CDE9040132463B461046194600F088FB5D
:1027A0000C906A480A9108EB000201920C9A0B46C1
:1027B000104600F07DFB8246024665488B46C8F114
:1027C00051080B4608F5D72803217844FFF7B9FED6
:1027D00052465B4600F06CFB0E905E4808915246F4
:1027E0005B4604217844FFF7ACFE0A9B0C9A00F08C
:1027F0005FFB019A089B42EA08080E9A00F0DEF897
:1028000083460991B8F1000F4EDD4FF0FF322046AC
:10281000294600F054FF22462B4600F049FB804633
:1028200000988A4660B3DDE90401424A424B00F059
:102830003FFB0B9100905A4640465146099B00F0E1
:10284000BDF832463B4600F033FB0B9B009A00F08C
:10285000B5F84246534600F029FC22462B4600F0CC
:1028600031FC05460C46DDE90401344A344B00F0E6
:102870001FFB12B02A462346BDE8F04D00F022BCF3
:102880005A464046099B00F099F832463B4600F014
:102890000FFB4246534600F009FC12B022462B467D
:1028A000BDE8F04D00F002BC009840B3DDE9040142
:1028B000204A214B00F0FCFA824688465A462046C0
:1028C0002946099B00F0FEFB32463B4600F0F0FA39
:1028D0005246434600F0F6FB22462B4600F0F2FB40
:1028E00004460D46DDE90401144A154B00F0E0FAF8
:1028F00012B022462B46BDE8F04D00F0E3BB0B467C
:102900005A462046294600F0DDFB32463B4600F0A1
:10291000CFFA12B022462B46BDE8F04D00F0C6BB00
:102920000000F07F0000F0BF645F09000000F03F8E
:1029300054230000763C7935EF39EA3D0000E0FE93
:10294000422EE63F5555D53F0000E03F86EBF9FFAC
:10295000EA210000E821000021F00042A2F16052CB
:10296000B2F5801F01F0004328BFD2F17F6C0BD974
:102970005FEA001C43EAC20242EB507018BF704786
:1029800028BF20F001007047B2F5801FBCBF184679
:1029900070474FEA410C1CF5001F02D2084600F0B8
:1029A00057BE70B500F02EFB00000089FFF7F6BFA0
:1029B0004FF00040A0F580007047000010B591EA8C
:1029C000030F48BF83F0004300F18483841A71EB46
:1029D000030C05D2121943EB0C03001B61EB0C0135
:1029E000DFF824E14FEA1154A4EB135C1EEA430F15
:1029F00018BF9EEA445F73D023EA0E03DCF1200E79
:102A000021EA045143F4801332D322FA0CFE10EB76
:102A10000E0023FA0CFE41EB0E01CCF1200E03FA5E
:102A20000EFE10EB0E0051F10001B1F5801FCCF14C
:102A3000200E32D201EB045112FA0EF2BDE8104022
:102A400058BF7047401C38BF5FEA420218BF70474A
:102A5000002814BF20F0010041F100014FEA4103BA
:102A600013F5001F38BF7047A1F1C04100F018BB3B
:102A7000012A43EB0302ACF1200CDCF11F0E32BF44
:102A80004FF0000E23FA0CF310EB030041EB04515E
:102A9000B4EB115FD0D0A1EB045101F580114908CE
:102AA0005FEA300001EB04510ED350F1000038BF53
:102AB00012FA0EFE08D1BDE81040C9E7401C38BF2D
:102AC0005FEA4202CAD1C3E7BDE810404FEA4103C2
:102AD00013F5001F38BF7047A1F1C04100F0E0BA04
:102AE0009EEA445F08D011EA5E0FBDE8104004BFC3
:102AF00001F0004100207047BDE8104070B500F0C3
:102B000081FA00BF64FBBE3E0000E0FF02494FF0C7
:102B1000000000F0A2BD00BF0000F87F491058BFC0
:102B2000C1F140415B1058BFC3F140438B42EFF30A
:102B3000008070472DE9C04130B4DFF8A0C23CEA04
:102B4000111418BF3CEA131400F0EC8081EA03056D
:102B50001CEA111444EAD57418BF1CEA131500F0DE
:102B6000C780A4EB05044FF0004545EAC12145EAC2
:102B7000C32341EA505143EA525304F17F7499420E
:102B800004F500344FEAC0204FEAC22208BF904249
:102B900000F09C804FEA13650FF24016765D4FEA15
:102BA000134506FB05F7C7F1807706FB07F74FEAE9
:102BB000D737A7FB03687642C8F58038A7FB06CE57
:102BC00038BFA8F1010807FB08E64FF0000EA6FB8E
:102BD000028CE6FB03CEDCF1000CCEF1004E38BFD8
:102BE000AEF1010EA6FB0C584FF000074FF00005A8
:102BF000E6FB0E87A1FB08C6A0FB07CE16EB0E0670
:102C000045F10005E1FB076515F1E04E7EBFA4F537
:102C100080345FEA46066D4116F1800745F10005F4
:102C20004FEA17274FEA066647EA0567A6F1DE4630
:102C3000B6F1805F4FEA15251FD9384624F0010C04
:102C400005EBC471BCF1FE6F01EB0C1102D8F0BCB6
:102C5000BDE8008124425CBF01F5801E9EEAC47F6E
:102C600002D4F0BCBDE80081244238D4F0BCA1F10C
:102C7000C041BDE8004100F013BA4FEAD22242EA57
:102C800043524FEAD323A7FB02864FEAD02040EA03
:102C9000415007FB03661EEA0E0F4FEAD12105FBE8
:102CA000026658BFA6EB0056B6EB00564FEA520E2E
:102CB0004EEAC37E18EB0E0E56EB530EBDD518EB45
:102CC00002085E417F1C55F10005B6E74FF4801500
:102CD0004FF000074FF000064FF00008ADE7F0BCE2
:102CE0004FF0000001F1C04101F00041BDE800815A
:102CF00011EA0C1F0CEA131500D00CE013EA0C1FAC
:102D000000F025804FF00000F0BC81EA030101F0E3
:102D10000041BDE80081F0BCBDE8004181EA03014B
:102D200000F0BEB9F0BCBDE8004170B500F06AF932
:102D3000097EFC3E00F007B881EA03014FF0000075
:102D400001F00041704781EA030100F0A9B9F0BC2D
:102D5000BDE800414FF0000021497047FFFDFBF93D
:102D6000F7F5F4F2F0EEEDEBE9E8E6E4E3E1E0DEBE
:102D7000DDDBDAD8D7D5D4D3D1D0CFCDCCCBCAC830
:102D8000C7C6C5C4C2C1C0BFBEBDBCBBBAB9B8B757
:102D9000B6B5B4B3B2B1B0AFAEADACABAAA9A8A84A
:102DA000A7A6A5A4A3A3A2A1A09F9F9E9D9C9C9B18
:102DB0009A999998979796959594939392919190C3
:102DC0008F8F8E8E8D8C8C8B8B8A89898888878754
:102DD0008685858484838382828181800000FF07C9
:102DE0000000F87F51EA030C17D41CF5801F58BF70
:102DF000BCF5801F00F10680994218BF704708BFDC
:102E00009042704707D711F5801F58BF13F5801FF8
:102E100019D499427047894270471CF5801F08D524
:102E2000BCF5801FF7D58B4218BF704708BF8242A0
:102E300070474FF4001C1CEB410F38BF1CEB430FD5
:102E400001D28B42704770B500F0DCF89224490043
:102E50004FF000514FF08053FFF760BE10F000427A
:102E600048BF4042B0FA80F310FA03F10AD0C3F130
:102E70001D0303F580634FEA415002EB035202EB5E
:102E8000D12170474FF000007047B0FA80F310FA7C
:102E900003F10AD0C3F11D0303F580634FEA4150EB
:102EA0004FEA035202EBD12170474FF00000704708
:102EB000DFF848C170B51CEA111E1EBF1CEA1315CD
:102EC0009EEA0C0F95EA0C0F00F06F8081EA030474
:102ED00023EA4C134EEAD47E21EA4C1141F48011CE
:102EE00043F48013AE44A1FB024CA0FB0365AEF19A
:102EF0007F7E361955EB0C05A1FB034C4CF100030A
:102F0000A0FB021C16EB0C06654153F100030942BD
:102F100018BF46F0010613F4007F0BD14FEA0331CE
:102F20004FEA0530340341EA155140EA16506FF07C
:102F300003020AE04FEAC3214FEAC520F40241EA46
:102F4000555140EA56506FF0020202EB2E4201EB5F
:102F5000025585EACE710AD05FEA440C18BF24F00E
:102F6000004450F1000041F1000120EAD47040F229
:102F7000FE7C624500D270BDA84214BF4FF0804471
:102F80004FF04044002E08BF0024BEF1806FA8BF60
:102F9000A1F1C041BDE8704080F282804FF0000096
:102FA00001F1C04101F0004170479EEA0C0F0CEAAC
:102FB000131518BF95EA0C0F06D04FF0000081EAF8
:102FC000030E0EF0004170BD00F01CF88900013EB8
:102FD00000F007B800F009B84FEA430C5FEA5C5C08
:102FE00008D081EA030100F05BB84FEA410C5FEAC8
:102FF0005C5CF6D14FF00000014970470000FF070C
:103000000000F87F0EF1020E2EF0030E5EF8046B46
:10301000364205D4012A43EB030515F5001F12D8EB
:10302000012841EB010C1CF5001F0CD80ED14FEA12
:10303000D17C15F5001F0CEB4C0C0CF1020C08BFF9
:103040004CEBD37C04E04FF0080C01E04FEAD37C5A
:103050000CEB4C0526FA05F606F00706B6F1040C53
:1030600006D20EEB860CBDE870404CF0010C6047B8
:10307000DFE80CF0090B02024FF000414FF00000B6
:10308000A1F5002170BD19461046012851EB01043D
:1030900018BFD4F5001484BF002001F0004170BDBA
:1030A0000808A0F500114FEA3101704791EA030FBB
:1030B00010B581F000413FF589AC83F0004300F08A
:1030C00009B8000010B591EA030F48BF83F0004330
:1030D0003FF57CAC841A71EB030C07D212198CF00B
:1030E000004C43EB0C03001B61EB0C01DFF8A4E187
:1030F0004FEA1154A4EB135C1EEA430F18BF9EEA7B
:10310000445F00F0B08023EA6E03524221EA04518A
:10311000C3EB6E0338BF5B1EDCF1200E25D322FA11
:103120000CFE10EB0E0043FA0CFE41EB0E01CCF14D
:10313000200E03FA0EFE10EB0E0051F10001CCF14F
:10314000200E29D412FA0EF201EB0451BDE8104012
:1031500058BF7047401C1CBFB2F1004F7047002899
:103160000CBF491C20F00100704712EB020E43EB2C
:10317000030218BF4FF0010E4EEA4202ACF1200CE0
:10318000DCF11E0E54D943FA0CFE10EB0E0051F187
:10319000FF31CCF11E0ED5D50EF1010E12FA0EFE46
:1031A000404141EB010101EB445C5FEA5C5C10D9FA
:1031B00010EBDE7001EB045138BFBEF1004FBDE8EB
:1031C000104018BF704700280CBF491C20F00100B8
:1031D000704730D24FEAD42C11F5001124F400646A
:1031E0001BD0B1FA81F20B3AA41AA41ED2F120032B
:1031F000914030FA03F31943904001EBCC71002C5D
:1032000001EB0451BDE81040A8BF704701F1C04177
:103210004FF0000001F000417047B0FA80F310FA5F
:1032200003F100D110BDE41A173C4805C90AE4E7D0
:1032300001EB045110BD491001EB0451BDE81040F1
:103240004FEA300002E04FF0000170474A0008BF2B
:103250000042F8D0B2F5001F28BF704701F00041CE
:103260004FF0000070479EEA445F07D011EA5E0FFE
:10327000BDE8104004BF002100207047BDE81040A9
:1032800070B5FFF7BFFE00BF40DFF63E83F00041A0
:10329000104670470000E0FF43004FEAD30C4FEAAE
:1032A0003C0C43401FBF40070CF1605113F0FE4F30
:1032B00070471CF0006F03D100200CF000417047F4
:1032C0000CF0004343EA507010B540EACC0000F027
:1032D00072F900BF000000924FEA0001FFF7E0BE64
:1032E0004FF000414FF00000A1F5002170470000B1
:1032F0004FF47F0C1CEAD0121EBF1CEAD11392EAD5
:103300000C0F93EA0C0F00F0858090EA010F48BF84
:1033100042F4807240F4000C41F400002CF07F4134
:1033200020F07F4000B58142A2EB03020FF2081C9F
:10333000ACEB504EC0F100009EF800E04FEA4E0E9C
:1033400000FB0EFC38BF49004FEA2C1C02F5FA02C4
:103350000CFB0EF34FEACE1E4FEA112C4FEAC121AF
:103360000EEB635E42EB22420EFB0CFC4FEA1C5359
:1033700000FB03114FEA112C4FEA01310EFB0CFC4C
:103380004FEADC4C00FB0C11C14228BF09184CEB82
:1033900003335DF804EB10EB410143EBC250B2F58F
:1033A0007C0F38BF704729D512F0F00F1CBF00F119
:1033B000C04000F00040704700818283848586878A
:1033C00088898B8C8D8E8F919293959697999A9CE4
:1033D0009D9FA0A2A3A5A7A8AAACAEB0B2B3B5B753
:1033E000B9BCBEC0C2C5C7C9CCCED1D4D7D9DCDF29
:1033F000E2E6E9ECF0F3F7FAFE0000004FEA400CD9
:103400000CF1807CBCF17E4F28BF7047B0F1C0400A
:1034100000F01EB990EA010F0CEAD11348BF42F444
:103420008072624538BF634507D213F47F0F16D010
:1034300080EA010000F00040704710B500F0BBF8D2
:10344000097EFC3E00F005B880EA010000F0004073
:10345000704780EA010000F0004000F0F9B812F473
:103460007F0F04BF0248704780EA010000F0F0B807
:103470000000C07FC10DD1F19E0206DB4FEA0023A0
:1034800043F0004323FA02F07047004207D54FEAA9
:103490004001B1F1FE4F02D24FF00000704710B56D
:1034A00000F089F849922480002070476FEA2000DC
:1034B000704700004FF47F0C1CEAD0121EBF1CEABC
:1034C000D11392EA0C0F93EA0C0F00F0478090EAB8
:1034D000010F48BF42F480724FF0004C4CEA0020CC
:1034E0004CEA012102EB0302A0FB0113A2F500024A
:1034F000002918BF43F001035B0028BF4FEA3303E4
:1035000042EB22425FEA132C4CEBC2502EBFBCEBC5
:10351000436FB2F57C0F70474FEA036CBCF1004F6C
:1035200008BF20F00100B2F57C0F38BF70470BD503
:1035300082F0FF0212F5803FC8BF704700F1C04023
:10354000D8BF00F00040704700F5000C5FEA4C0C5B
:1035500048BF7047B0F1C04000F07AB890EA010F60
:103560000CEAD11348BF42F48072624538BF63450C
:1035700004D280EA010000F00040704710B500F06E
:103580001AF800BF8900013E00F007B800F009B842
:103590005FEA410C5FEA1C6C08D080EA010000F091
:1035A00057B85FEA400C5FEA1C6CF6D14FF0004060
:1035B000A0F5800070470EF1020E2EF0030E5EF8AB
:1035C000044B244204D44FEA4102B2F17F4F11D898
:1035D0004FEA4003B3F17F4F0CD80ED14FEAD07CB5
:1035E000B2F17F4F0CEB4C0C0CF1020C08BF4CEB12
:1035F000D17C04E04FF0080C01E04FEAD17C0CEBE9
:103600004C0324FA03F404F00704B4F1040C06D2CA
:103610000EEB840CBDE810404CF0010C6047DFE875
:103620000CF0070802024FF00040A0F5800010BD2A
:103630000846420018BFD2F1807288BF00F00040F7
:1036400010BD10B5FEF772FF4FF00001016010BD14
:10365000FF2141EAD050C00570470CF00F03092B41
:1036600008BF082000F059800A2B0BD0082B18BF88
:10367000704708BF1CF0400F0AD04FF000004FF019
:10368000000170471CF0400F18BF4FF0004070471A
:103690001CF0100F08D020F0704300F07F4242EA87
:1036A000D3014FEA4370704700F0604021F07F4241
:1036B00042EA000201F07F4040EA727070474FF02A
:1036C000FF0C4CF4E06C1CEA11531CBF9CEA030C89
:1036D0009445C2BFDA4201EB02517047002B0DD076
:1036E000BCF1000F0FD0002A01F00041A4BF41F04F
:1036F000E04141F07F614FF00000704701F0004170
:103700004FF00000704750EA01334FF09B0C18BF98
:103710004CF0806C7FF4FAA970471CF4801F11D024
:103720001CF4E02F03D06FEACC31490070474FF012
:103730004050EFF3008222F0704242EA000282F32E
:10374000008870474FF00000704700000000000044
:10375000000000000000000000003F4000000000EA
:103760000000000030004000300040000000090070
:103770000BC03D000BC03D00090018C024407FE095
:10378000224031800000180024C01B000D80324010
:10379000018003801C4027401C800740004010002F
:1037A00060000000000000000000000000000000B9
:1037B0001F80204040200000402020401F8000004B
:1037C0000000090006001F80060009000000040038
:1037D00004003F80040004000000001000600000AE
:1037E00000000000000004000400040004000400C5
:1037F0000000000000400000000000000000002069
:1038000001C006003800400000001F80204020401A
:1038100020401F800000000010403FC0004000001A
:10382000000018C0214022402440184000001080B1
:103830002040244024401B80000002000D001100A5
:103840003FC0014000003C802440244024402380AD
:1038500000001F80244024403440038000003000DA
:10386000200027C03800200000001B802440244096
:1038700024401B8000001C0022C0224022401F80E8
:1038800000000000000008400000000000000000F0
:1038900000000460000000000000000004000A00B6
:1038A00011002080404009000900090009000900BA
:1038B000000000004040208011000A0004001800B1
:1038C000200023402400180000001F8020402740D3
:1038D00029401F400000004007C039000F0001C010
:1038E000004020403FC0244024401B8000001F8037
:1038F0002040204020403080000020403FC0204039
:1039000020401F80000020403FC024402E4030C097
:10391000000020403FC024402E00300000000F0077
:103920001080204022403380020020403FC004002D
:1039300004003FC02040204020403FC020402040A5
:1039400000000060202020203FC0200020002040F8
:103950003FC024400B0030C0204020403FC02040EA
:103960000040004000C03FC03C0003C03C003FC0DE
:10397000000020403FC00C4023003FC020001F80BB
:103980002040204020401F80000020403FC02440B5
:103990002400180000001F802140214020E01FA0CB
:1039A000000020403FC02440260019C0004018C03D
:1039B00024402440224031800000300020403FC09D
:1039C00020403000000020003F80004000403F8049
:1039D000200020003E0001C0070038002000380011
:1039E00007C03C0007C038000000204039C0060076
:1039F00039C0204000002000384007C03840200077
:103A00000000304021C02640384020C000000000A7
:103A100000007FE0402040200000000070000C000B
:103A20000380004000000000402040207FE00000B4
:103A300000000000200040002000000000000010F6
:103A400000100010001000100010000000004000E6
:103A5000000000000000000002800540054003C097
:103A6000004020003FC004400440038000000000EC
:103A7000038004400440064000000000038004402E
:103A800024403FC000400000038005400540034043
:103A90000000000004401FC024402440200000001B
:103AA00002E0055005500650042020403FC004406D
:103AB000040003C000400000044027C00040000094
:103AC000000000100010041027E00000000020405B
:103AD0003FC00140070004C00440204020403FC0D8
:103AE00000400040000007C0040007C0040003C0FD
:103AF0000000044007C00440040003C00040000070
:103B000003800440044003800000041007F00450C8
:103B1000044003800000000003800440045007F0CC
:103B20000010044007C00240040004000000000030
:103B300006400540054004C00000000004001F804E
:103B4000044000400000040007800040044007C01B
:103B500000400400070004C00180060004000600C5
:103B600001C0070001C006000000044006C00100BB
:103B700006C0044000000410071004E001800600A5
:103B800004000000044005C006400440000000009E
:103B9000000004007BE04020000000000000000066
:103BA000FFF000000000000040207BE00400000067
:103BB0000000400080004000200020004000000085
:103BC00000000000000000000000000000000000F5
:103BD000000000001FCC000C0000000000000000EE
:103BE0000800300060000800300060000000022083
:103BF00003FC1E20022003FC1E2002200000000007
:103C00000E1811043FFF10840C78000000000F0014
:103C100010840F3800C007781884007800000078FE
:103C20000F8410C411240E9800E4008400080800DA
:103C300068007000000000000000000000000000AC
:103C40000000000007E018182004400200000000F7
:103C500040022004181807E00000000000000240A5
:103C6000024001800FF0018002400240000000800D
:103C7000008000800FF800800080008000000001BC
:103C8000000D000E00000000000000000000000019
:103C900000800080008000800080008000800000A4
:103CA000000C000C000000000000000000000000FC
:103CB00000060018006001800600180020000000C7
:103CC00007F0080810041004080807F000000000BE
:103CD000080408041FFC00040004000000000000A9
:103CE0000E0C10141024104411840E0C000000005F
:103CF0000C1810041104110412880C70000000004C
:103D000000E00320042408241FFC0024000000001D
:103D10001F98108411041104108810700000000016
:103D200007F00888110411041888007000000000D2
:103D30001C00100010FC13001C001000000000000C
:103D40000E3811441084108411440E380000000015
:103D50000700088C10441044088807F00000000099
:103D600000000000030C030C000000000000000035
:103D7000000000010106000000000000000000003B
:103D800000800140022004100808100400000220F6
:103D90000220022002200220022002200000000057
:103DA00010040808041002200140008000000000F8
:103DB0000E001200100C106C10800F00000003E0C9
:103DC0000C1813E4142417C4082807D000000004BA
:103DD000003C03C41C40074000E4001C0004100425
:103DE0001FFC1104110411040E880070000003E090
:103DF0000C1810041004100410081C10000010040B
:103E00001FFC100410041004080807F00000100440
:103E10001FFC1104110417C410040818000010043A
:103E20001FFC1104110017C010000800000003E07F
:103E30000C181004100410441C78004000001004FA
:103E40001FFC10840080008010841FFC1004000000
:103E5000100410041FFC10041004000000000003F4
:103E60000001100110011FFE1000100000001004DE
:103E70001FFC110403801464181C100400001004BB
:103E80001FFC1004000400040004000C00001004D7
:103E90001FFC1F0000FC1F001FFC1004000010048A
:103EA0001FFC0C04030000E010181FFC100007F0BA
:103EB0000808100410041004080807F0000010049B
:103EC0001FFC10841080108010800F00000007F08D
:103ED000081810241024101C080A07F2000010040F
:103EE0001FFC1104110011C011300E0C0004000061
:103EF0000E1C11041084108410441C38000018009B
:103F0000100010041FFC1004100018000000100026
:103F10001FF810040004000410041FF81000100023
:103F20001E0011E0001C007013801C0010001FC058
:103F3000103C00E01F0000E0103C1FC00000100417
:103F4000180C163401C001C01634180C10041000EF
:103F50001C00130400FC13041C00100000000804E3
:103F6000101C1064108413041C04101800000000BE
:103F7000000000007FFE40024002400200000000FE
:103F800030000C0003800060001C000300000000F3
:103F90004002400240027FFE0000000000000000DE
:103FA0000000200040004000400020000000000110
:103FB00000010001000100010001000100010000FA
:103FC0004000400020000000000000000000000051
:103FD0000098012401440144014400FC0004100045
:103FE0001FFC00880104010400880070000000002C
:103FF0000070008801040104010400880000000032
:10400000007000880104010411081FFC0004000076
:1040100000F8014401440144014400C800000000CC
:10402000010401040FFC1104110411001800000028
:1040300000D601290129012901C901060000100447
:104040001FFC008401000100010400FC00040000CA
:104050000104190419FC0004000400000000000021
:10406000000300010101190119FE00000000100405
:104070001FFC0024004001B4010C010400000000FA
:10408000100410041FFC00040004000000000104E0
:1040900001FC0104010001FC0104010000FC010419
:1040A00001FC008401000100010400FC0004000088
:1040B00000F8010401040104010400F800000101FA
:1040C00001FF008501040104008800700000000069
:1040D0000070008801040104010501FF00010104D2
:1040E000010401FC008401040100018000000000C3
:1040F00000CC0124012401240124019800000000C7
:104100000100010007F801040104000000000100A3
:1041100001F8000400040004010801FC000401008F
:1041200001800170000C001001600180010001F0AD
:10413000010C003001C00030010C01F00100000052
:104140000104018C00740170018C01040000010164
:1041500001810171000E0018016001800100000062
:104160000184010C013401440184010C00000000B1
:1041700000000000000001003EFC40024002000080
:10418000000000000000FFFF000000000000000031
:10419000400240023EFC0100000000000000000060
:1041A00060008000800040004000200020000000EF
:1041B0003FFC3FFC300C300C300C300C300C300C21
:1041C000300C300C300C300C3FFC3FFC0000000089
:1041D000000000000000000000000000300030007F
:1041E0003FFC3FFC00000000000000000000000059
:1041F00039FC39FC318C318C318C318C318C318CE7
:10420000318C318C318C318C3F8C3F8C0000000024
:10421000381C381C318C318C318C318C318C318C88
:10422000318C318C318C318C3FFC3FFC0000000024
:104230003F803F80018001800180018001800180FA
:1042400001800180018001803FFC3FFC00000000F4
:104250003FBC3FBC318C318C318C318C318C318CFA
:10426000318C318C318C318C31FC31FC0000000000
:104270003F9C3F9C318C318C318C318C318C318C1A
:10428000318C318C318C318C31FC31FC00000000E0
:10429000380038003000300030003000300030008E
:1042A00030003000300030003FFC3FFC00000000D8
:1042B0003FFC3FFC318C318C318C318C318C318C1A
:1042C000318C318C318C318C3FFC3FFC0000000084
:1042D0003F9C3F9C318C318C318C318C318C318CBA
:1042E000318C318C318C318C3FFC3FFC0000000064
:1042F000000000000000000000000000183018302E
:1043000000000000000000000000000000000000AD
:104310000000000000003FFFFFFC3FFFFFFC3000FB
:10432000000C3000000C3000000C3000000C30009D
:10433000000C3000000C3000000C3000000C3FFF7F
:10434000FFFC3FFFFFFC0000000000000000000039
:10435000000000000000000000000000000000005D
:1043600000000000000030000000300000003FFFAF
:10437000FFFC3FFFFFFC0000000000000000000009
:10438000000000000000000000000000000000002D
:104390000000000000003C01FFFC3C01FFFC30017C
:1043A000800C3001800C3001800C3001800C300119
:1043B000800C3001800C3001800C3001800C3FFFFC
:1043C000800C3FFF800C0000000000000000000097
:1043D0000000000000003800003C3800003C3001C4
:1043E000800C3001800C3001800C3001800C3001D9
:1043F000800C3001800C3001800C3001800C3FFFBC
:10440000FFFC3FFFFFFC0000000000000000000078
:104410000000000000003FFF80003FFF800000011F
:104420008000000180000001800000018000000188
:1044300080000001800000018000000180003FFF3B
:10444000FFFC3FFFFFFC0000000000000000000038
:104450000000000000003FFF803C3FFF803C300137
:10446000800C3001800C3001800C3001800C300158
:10447000800C3001800C3001800C3001800C300148
:10448000FFFC3001FFFC0000000000000000000005
:104490000000000000003FFFFFFC3FFFFFFC300179
:1044A000800C3001800C3001800C3001800C300118
:1044B000800C3001800C3001800C3001800C3C01FC
:1044C000FFFC3C01FFFC00000000000000000000B9
:1044D0000000000000003C0000003C000000300034
:1044E000000030000000300000003000000030000C
:1044F00000003000000030000000300000003FFFEE
:10450000FFFC3FFFFFFC0000000000000000000077
:104510000000000000003FFFFFFC3FFFFFFC3001F8
:10452000800C3001800C3001800C3001800C300197
:10453000800C3001800C3001800C3001800C3FFF7A
:10454000FFFC3FFFFFFC0000000000000000000037
:104550000000000000003FFF803C3FFF803C300136
:10456000800C3001800C3001800C3001800C300157
:10457000800C3001800C3001800C3001800C3FFF3A
:10458000FFFC3FFFFFFC00000000000000000000F7
:10459000000000000000000000000000000000001B
:1045A00000000FF00FF00FF00FF00C0000300C00C7
:1045B00000300FF00FF00FF00FF0000000000000CF
:1045C00000000000000000000000000000000000EB
:1045D00000000000000000003FF1818FFC3FF181EE
:1045E0008FFC3031818C0C3001818C0C3001818C3E
:1045F0000C3FF1818C0C3FF1818C0C0031818C0CD3
:104600000031818C0C3031818C0C3FF1FF8C0C3FE0
:10461000F1FF8C0C00000000000000000000000012
:104620000000000000000000000000000000FE028A
:10463000920A542A38AA12AA12AA12AA12AA1FF877
:1046400010081818142813C8100810081FF80FFEB7
:10465000300226DA26DA26DA26DA30020FFE18547D
:10466000321C1C325418C39924202C2499C3C3BD76
:1046700042524E423CC3000000000000000303030E
:1046800003030303030303030303030303030303FA
:104690000300000000000000000000000000000017
:1046A00000000000000000000000000303030303FB
:1046B00003030000000000000000000000000000F4
:1046C00000000000000000000003030303030300D8
:1046D00000000000000000000000000000000000DA
:1046E000030303030303030303030303030303039A
:1046F00003030000000000000F7F7FFFFFFFFFFFAC
:10470000FFFFFFFFFFFFFEFCF1F1F2E2E2ECF1E25E
:10471000E2E3DFFFFF7F0F0F00000000000000005A
:104720000003031F3F7F7F7FFFFEFEFEFCFCFCFCBF
:10473000FEFEFEFF7F7F7F3F3F1F03000000000063
:1047400000000000007FFFFFFFC3C1C1C3FFFFFFE8
:104750007E00000000000000000000007F7FFFFFDF
:10476000FFFFFFFFFFE3E1E1E1E1E0E0E0E0E0E0A7
:10477000E0E0000000000000FFFFFFFDF9FBFBE3AD
:10478000C5C599222424449923234747479F3F7F47
:104790007FFFFFFFFFFFFFFF0000000000000000A1
:1047A00000FFFFFFFFFFFFFFC0000001010101014B
:1047B000010103FFFFFFFFFFFFFFFE0000000000FD
:1047C00000011F1F3F7FFCFCF8F8FCFCFEBFBF1F71
:1047D000071F1F1F1E000000000000008080C0C0D7
:1047E000E0E0E0F8F8F8F8F8F8FCFEFFFFFF7F7F64
:1047F0007F3F07070000000000F0F0F8F8FCFCEC39
:104800008C8C1C7CFCFCFCFCFCFCFCFCFCFCFCFC28
:10481000FCFCF8F8F8F080800000000000000000C8
:1048200000FFFFFFFFFFFFFF000000FCFCFCFCFCA3
:10483000FCFCF8F8F8F8F0E0E08000000000000070
:104840000000F0F0F8F8FCFC1C1C1C1C7CF8F8F8CC
:10485000F0F0F0F8FC707000000000007C7CFCFCC4
:10486000FCFCFCFCFC7C7CFCFCFCFCFCFCF8F8F894
:10487000F0F0808000000000000000000000000058
:104880000000000000000000000000000000000028
:104890000000000000000000000000000000000018
:1048A00000FFFFFFFFFFFFFF00000000000000000F
:1048B00000000000000000000000000000000000F8
:1048C00000000000000000000000000000000000E8
:1048D00000000000000000000000000000000000D8
:1048E00000000000000000000000000000000000C8
:1048F00000000000000000000000000000000000B8
:1049000000000000000000000000000000000000A7
:104910000000000000000000000000000000000097
:1049200000FFFFFFFFFFFFFF090000000000000085
:104930000000000000000000000000000000000077
:104940000000000000000000000000000000000067
:104950000000000000000000000000000000000057
:104960000000000000000000000000000000000047
:104970000000000000000F0F0F0F0F0F0F0F0F0FA1
:104980000F0F0F0F0F0F0F0F0F0F0F0F0F0F0F0F37
:104990000F0F0F0F0F0F0F0F0F0F0F0F0F0F0F0F27
:1049A0000F0F0F0F0F0F0F0F0F0F0F0F0F0F0F0F17
:1049B0000F0F0F0F0F0F000004FA97999999D93F25
:1049C000AF788E1DC571CC3F9FC678D0099AC33F82
:1049D000935555555555E53F599322942449D23F57
:1049E000DE03CB966446C73F44523EDF12F1C23F1E
:1049F0000000000000000000184A0008000000202D
:104A0000300000006C010008484A00083000002017
:104A1000600A0000880100080000000000A24A04AB
:104A2000000000000000000001020304060708095E
:104A30000000000001020304010203040607080944
:084A400002040608000000005A
:0400000508000131BD
:00000001FF
