:020000040800F2
:10000000880600203507000865020008670200081E
:10001000690200086B0200086D0200080000000081
:100020000000000000000000000000006F02000857
:100030007102000800000000730200087502000849
:100040004F0700084F0700084F0700084F07000838
:100050004F0700084F0700084F0700084F07000828
:100060004F0700084F0700084F0700084F07000818
:100070004F0700084F0700084F0700084F07000808
:100080004F0700084F0700084F0700084F070008F8
:100090004F0700084F0700084F0700084F070008E8
:1000A0004F0700084F0700084F0700084F070008D8
:1000B0004F0700084F0700084F0700084F070008C8
:1000C0004F0700084F0700084F0700084F070008B8
:1000D0004F070008770200084F0700084F07000885
:1000E0004F0700084F0700084F0700084F07000898
:1000F0004F0700084F0700084F0700084F07000888
:100100004F0700084F0700084F0700084F07000877
:100110004F0700084F0700084F0700084F07000867
:100120004F0700084F0700084F0700084F07000857
:100130004F0700084F0700084F0700084F07000847
:100140004F0700084F0700084F0700084F07000837
:100150004F0700084F0700084F0700084F07000827
:100160004F0700084F0700084F0700084F07000817
:100170004F0700084F0700084F0700084F07000807
:100180004F07000800F002F800F041F80AA090E8DC
:10019000000C82448344AAF10107DA4501D100F042
:1001A00036F8AFF2090EBAE80F0013F0010F18BFCE
:1001B000FB1A43F001031847F8120000181300005F
:1001C000103A24BF78C878C1FAD8520724BF30C883
:1001D00030C144BF04680C60704700000023002455
:1001E00000250026103A28BF78C1FBD8520728BF47
:1001F00030C148BF0B607047632901F0E3800020E5
:1002000070471FB501F04CF91FBD10B510BD01F0CE
:1002100013F91146FFF7F5FF00F008F801F031F986
:1002200003B4FFF7F2FF03BC00F0E3F800F0A2FF15
:1002300000F0BEFF00F04EF800F0CBF800F0EEF852
:1002400003A001F047F800F04BF900F07FF9FAE75E
:100250000D0A426F6F7420537563636573730D0AE3
:10026000000000007047FEE7FEE7FEE7FEE770478C
:1002700070477047704710B5084C40F22551204632
:1002800000F036FD002808D0204600F09AFC014618
:10029000BDE8104002A001F01DB810BD00100140E3
:1002A00055534152542048797065727465726D6976
:1002B0006E616C20496E7465727275707473205231
:1002C000656365697665206120776F72643A2025E1
:1002D000630D0A00F0B5012187B0084600F05EFE0C
:1002E0000121084600F05AFE0121102000F082FE94
:1002F000484F07220921384600F067FB07220A21F0
:10030000384600F062FB02258DF804500024781571
:100310008DF8064000908DF8055001268DF8076095
:100320006946384600F0E0FA680200908DF80660F1
:100330008DF807406946384600F0D6FA0121084694
:1003400000F02CFE0121084600F028FE07220C21B7
:10035000384600F03AFB07220B21384600F035FB07
:100360008DF80450E8028DF8064000908DF8055095
:100370008DF807606946384600F0B6FAA80200908A
:100380008DF806608DF807406946384600F0ACFAF3
:100390004FF4E1300290ADF80C404FF44070ADF8EE
:1003A0000E40ADF81040ADF814000C201A4CADF81A
:1003B000120002A9204600F064FB012240F2255100
:1003C000204600F073FC0121204600F0D0FB07B06E
:1003D000F0BD08B525208DF8000000208DF8010043
:1003E0008DF8020001208DF80300684600F0C7F97F
:1003F00008BD704770B5084D0446C1B2284600F0EC
:10040000DCFB4021284600F069FC0028F9D020469A
:1004100070BD000000000240001001402DE9FC41C9
:100420000121202000F0BAFD01248DF804400025B0
:1004300040208DF806500326BA4F00908DF80560D5
:100440008DF807406946384600F04EFA802000904B
:100450006946384600F048FA20020090694638465E
:1004600000F042FA600200906946384600F03CFA1B
:100470000121252000F092FD8DF80450A0028DF896
:10048000065000908DF805608DF8074069463846A3
:1004900000F02AFAA44D69462846009400F024FA98
:1004A0000094A24C6946204600F01EFA04210091F7
:1004B0006946204600F018FA02200090694620465E
:1004C00000F012FA082000906946204600F00CFA6D
:1004D000202000906946284600F006FABDE8FC811D
:1004E00070B54FF480618F4800F04CFA002820D09E
:1004F0008D4C0121204600F045FAD8B18B4D0121E9
:10050000284600F03FFAB8B10421284600F03AFA34
:10051000A0B10221284600F035FA88B1082128460A
:1005200000F030FA70B12021204600F02BFA58B1CB
:10053000072070BD012070BD022070BD032070BD7A
:10054000042070BD052070BD062070BD2DE9F0416E
:100550004FF400746510764E724F072817D2DFE80B
:1005600000F004182B3E507AAB0025462146384651
:1005700000F01CFA30460400A0F10100FBD129462E
:10058000384600F015FA3000A6F10106FBD1BDE8AF
:10059000F0814021384600F009FA30460400A0F10D
:1005A0000100FBD14021384600F002FA35462E000A
:1005B000A5F10105FBD1EAE78021384600F0F6F904
:1005C00030460400A0F10100FBD18021384600F044
:1005D000EFF935462E00A5F10105FBD1D7E72946F5
:1005E000384600F0E3F931460800A1F10101FBD1E2
:1005F0002946384600F0DCF93400A6F10106FBD1AB
:10060000C5E74021384600F0D1F98021384600F096
:10061000CDF92946384600F0C9F92146384600F0A0
:10062000C5F931460800A1F10101FBD1402138464E
:1006300000F0BEF98021384600F0BAF92946384664
:1006400000F0B6F92146384600F0B2F93000A6F1C4
:100650000106FBD19BE74021384600F0A7F931465F
:100660000800A1F10101FBD14021384600F0A0F9BA
:100670008021384600F09AF931460800A1F10101C5
:10068000FBD18021384600F093F92946384600F026
:100690008DF931460800A1F10101FBD12946384608
:1006A00000F086F92146384600F080F93200A6F1C4
:1006B0000106FBD1214630E02146384600F076F9AC
:1006C00031460800A1F10101FBD12146384600F076
:1006D0006FF92946384600F069F930460400A0F168
:1006E0000100FBD12946384600F062F980213846E6
:1006F00000F05CF930460400A0F10100FBD180213C
:10070000384600F055F94021384600F04FF935469B
:100710002E00A5F10105FBD140213846BDE8F0418E
:1007200000F046B9001402400000024000080240F8
:10073000FFFF1F000948804709480047FEE7FEE722
:10074000FEE7FEE7FEE7FEE7FEE7FEE7FEE7FEE781
:1007500004480549054A064B70470000751100081A
:1007600085010008880000208806002088020020FB
:10077000880200202849084328490860704770B55E
:100780000F24C27801784FF0E0230126EAB1D3F8B4
:100790000C2D194402F4E062C2F5E062C2F30722B4
:1007A000C2F10405D4404278AA408578254015431B
:1007B0002A0181F80024007800F01F018E404009D2
:1007C00003EB8000C0F8006170BD01F01F0086409F
:1007D000480903EB8000C0F8806170BD104A1140E9
:1007E00001431048016070474FF0E0220029D2F821
:1007F000101D01D0014300E08143C2F8101D704775
:100800004FF0E0210428086903D020F004000861BB
:10081000704740F00400FAE70000FA050CED00E034
:1008200080FFFF1F08ED00E0704910B5884206D137
:100830000121084600F0E9FB002101204FE06C494E
:10084000884206D10121022000F0DFFB00210220B6
:1008500045E06849884206D10121042000F0D5FB1B
:10086000002104203BE06449884206D10121082090
:1008700000F0CBFB0021082031E06049884206D11E
:100880000121102000F0C1FB0021102027E05C496D
:10089000884206D10121202000F0B7FB0021202052
:1008A0001DE05849884206D10121402000F0ADFBEF
:1008B0000021402013E05449884206D101218020C4
:1008C00000F0A3FB0021802009E0504988420AD1B2
:1008D00084150121204600F098FB00212046BDE848
:1008E000104000F092BB10BDF0B5002201264FF081
:1008F000030C0C6806FA02F31C409C422DD10568DB
:1009000053000CFA03F4A54305600D7907689D4078
:100910003D4305600D79012D01D0022D12D185686E
:10092000A54385604C7985689C402C43846044686D
:1009300006FA02F5AC43446044688D799540ADB247
:100940002C434460C46855000CFA05F7BC43C460EE
:10095000CC799C40C3681C43C460521C102AC8D385
:10096000F0BD4FF6FF71016000210171417181718D
:10097000C171704741F48032C261C161C261C16915
:10098000C06970470246002012690A4200D0012067
:100990007047006980B270470246002052690A42DF
:1009A00000D001207047406980B2704701837047D2
:1009B000418370470AB101837047418370474161A9
:1009C000704742694A40426170474B07DB0E9A40CC
:1009D000C90810B500EB8100016A0F249C40A143B7
:1009E0000162016A1143016210BD00000000024073
:1009F0000004024000080240000C024000100240C7
:100A00000014024000180240001C02400020024076
:100A1000CA4910B5884206D10121102000F021FBFF
:100A20000021102028E0C649884202D101214C044F
:100A300010E0C449884202D101218C040AE0C24975
:100A4000884202D10121CC0404E0C04988420AD185
:100A500001210C05204600F0F9FA2046BDE81040BF
:100A6000002100F0F3BABA49884209D101212020BF
:100A700000F0F7FA00212020BDE8104000F0F1BAA4
:100A800010BD7FB50446008A0D4620F44051E88829
:100A900008432082A18941F20C608143A8882A89F9
:100AA00010436A890A431043A081A08A20F4407150
:100AB000A8890843A082684600F004FA9F4884424F
:100AC00002D0A348844201D1039800E00298A18992
:100AD0000904002900EBC00101EB0010296802DACB
:100AE0004FEA410101E04FEA8101B0FBF1F06422DD
:100AF000B0FBF2F14FEA01114FEA11136FF0180544
:100B00006B4300EB8300A3891D044FF0320306D52D
:100B100003EBC000B0FBF2F000F0070005E003EBD0
:100B20000010B0FBF2F000F00F00084320817FBD01
:100B30004FF41651016000218180C18001810C2297
:100B400042818181704710B5028A4C8822F470631B
:100B50000A8822438C88C9880C4322431A430282A4
:100B600010BD0021018041808180C1807047002933
:100B7000818902D041F4005101E021F400518181CA
:100B80007047028B02F47F420283028B0A43028386
:100B900070470029818902D041F4004101E0C1F38E
:100BA0000E01818170470029818A02D041F40061E1
:100BB00001E021F4006181827047C1F30801818066
:100BC00070478088C0F308007047028A22F00F0245
:100BD0000282028A0A43028270470029818902D078
:100BE00041F0020101E021F0020181817047828918
:100BF00022F40062828182890A4382817047028ADC
:100C000022F020020282028A0A43028270470029EF
:100C1000018A02D041F4804101E021F48041018247
:100C20007047818941F00101818170470029818AE3
:100C300002D041F0080101E021F0080181827047F3
:100C4000028BD2B20283028B42EA012101837047F8
:100C50000029818A02D041F0200101E021F0200129
:100C6000818270470029818A02D041F0100101E0A1
:100C700021F0100181827047828A22F00402828270
:100C8000828A0A43828270470029818A02D041F019
:100C9000020101E021F0020181827047002A828A6C
:100CA00001D00A4300E08A438282704710B5C1F345
:100CB000421301F01F040121A140012B07D0022B98
:100CC00007D01430002A026805D00A4304E00C3033
:100CD000F8E71030F6E78A43026010BD02460020B4
:100CE00012880A4200D001207047C9430180704732
:100CF00070B501F01F0601250024C1F3421305FA67
:100D000006F2012B0FD0022B0FD0838A4FEA11215C
:100D10000088134205FA01F500EA050001D000B190
:100D20000124204670BD8389F0E7038AEEE70A0AB2
:100D300001219140C943018070470000001001402B
:100D40000044004000480040004C0040005000407B
:100D500000140140F248016841F0010101604FF0C8
:100D6000000181600268EF4B02EA03020260EE4A72
:100D70004260026822F480220260C1607047EB4941
:100D800000220A7008707047034600205909E84A9B
:100D900001290BD002290CD0D2F8741803F01F02DD
:100DA000012393400B4200D001207047D2F8001875
:100DB000F4E7D2F87018F1E730B500244FF4A065DD
:100DC0003120FFF7E1FF641CAC4201D00028F7D0CE
:100DD0003120FFF7D9FF002800D0012030BDD04AD4
:100DE000116821F0F80141EAC00010607047D14954
:100DF00008607047CE49002281F8702881F8702879
:100E0000012802D0042802D1052081F8700870471B
:100E1000C9490860704741EA82115A0810B5C74BAA
:100E2000029C03EB02421143014341EA0460C449BE
:100E3000086010BDBF4908667047800140EA017034
:100E4000C04908607047BB4988667047B949C864A3
:100E50007047BD4B1A6840EA010022F0EC6240EA9C
:100E6000020018607047B84B1A6840EA010022F08F
:100E7000784240EA020018607047B34A116821F0D6
:100E8000030141EA000111607047AF48006800F0BB
:100E90000C007047AC4A116821F0F00141EA0001F2
:100EA00011607047A84A116821F4E05141EA00013D
:100EB00011607047A44A116821F4604141EAC00002
:100EC0001060704730B59A4AD2F808189F4B11F05D
:100ED0000C0104D09E4D042903D0082903D00360DF
:100EE0001DE005601BE0D2F80418C1F38054D2F86D
:100EF000041801F03F0114B1B5FBF1F101E0B3FBBF
:100F0000F1F1D2F80438C3F388135943D2F8043806
:100F1000C3F301435B1C5B00B1FBF3F1016002F61C
:100F2000080211688B4B01F0F0014FEA11115C5C73
:100F3000016821FA04F14160146804F4E0544FEAB6
:100F400094241C5D21FA04F48460126802F4604267
:100F50004FEA52329A5C21FA02F1C16030BDC0F30F
:100F60000121734B032908D1D3F8081821F4F81292
:100F7000794901401143C3F80818D3F87018C0F339
:100F80000B000143C3F8701870477449086070473C
:100F9000734908607047734908607047644A0029C4
:100FA000D2F8301801D0014300E08143C2F8301874
:100FB00070475F4A0029D2F8341801D0014300E09D
:100FC0008143C2F834187047594A0029D2F83818BA
:100FD00001D0014300E08143C2F838187047544AF9
:100FE0000029D2F8401801D0014300E08143C2F843
:100FF000401870474E4A0029D2F8441801D00143E6
:1010000000E08143C2F844187047494A0029D2F8E9
:10101000101801D0014300E08143C2F81018704756
:10102000434A0029D2F8141801D0014300E081435B
:10103000C2F8141870473E4A0029D2F8181801D097
:10104000014300E08143C2F818187047384A00296C
:10105000D2F8201801D0014300E08143C2F82018E3
:101060007047334A0029D2F8241801D0014300E028
:101070008143C2F8241870472D4A0029D2F850182D
:1010800001D0014300E08143C2F850187047284A5C
:101090000029D2F8541801D0014300E08143C2F87E
:1010A00054187047224A0029D2F8581801D0014339
:1010B00000E08143C2F8581870471D4A0029D2F851
:1010C000601801D0014300E08143C2F86018704706
:1010D000174A0029D2F8641801D0014300E0814387
:1010E000C2F864187047124A002992F80D1801D00E
:1010F000014300E0814382F80D1870471A480168E7
:1011000041F0807101607047184A01460020126862
:101110000A4200D00120704715490870704700004E
:1011200000380240FFFFF6FE103000240238024073
:101130000030024000004742800E47420000FFFF9F
:101140000438024084380240083802400024F40089
:1011500040787D0104000020FFFCFF0F3C0E474259
:10116000400E47425C014742743802400C3802404E
:101170000E3802404E4810B5016841F0010101608F
:101180004FF00001816002684A4B02EA03020260EC
:10119000494A4260026822F480220260C16000F085
:1011A00040F84FF0E0214FF00060C1F8080D10BD8D
:1011B00030B5424AD2F80808414B424910F00C00C1
:1011C00004D0414D042803D0082803D00B601DE053
:1011D0000D601BE0D2F80408C0F38054D2F8040874
:1011E00000F03F0014B1B5FBF0F001E0B3FBF0F00C
:1011F000D2F80438C3F388135843D2F80438C3F341
:1012000001435B1C5B00B0FBF3F00860D2F80808F8
:101210002C4AC0F30310121D105C0A68C2400A6019
:1012200030BD26490020D1F8002842F48032C1F8B0
:1012300000284FF4A063D1F8002800F1010012F457
:10124000003F01D19842F6D1D1F8000880032DD596
:1012500001F5006188688860886840F40040886013
:10126000886840F4A050886018484860086840F0DA
:1012700080700860A1F50061D1F800088001FBD5FD
:1012800040F20370C1F8000CD1F8080820F0030008
:10129000C1F80808D1F8080840F00200C1F80808B1
:1012A000D1F80808C0F381000228F9D17047000086
:1012B00000380240FFFFF6FE1030002400300240EC
:1012C0000024F4001400002040787D01193C400502
:1012D000704700000FB4044910B503AA029800F04B
:1012E0007DF810BC5DF814FB000000202DE9F041F2
:1012F00004460E4600200AE0E1682046884738B3DD
:10130000252806D0D4E901219047206A401C20629C
:10131000F2E7E168204600278847050018D0A5F1CC
:101320004100192802D820354FF40067324629467B
:1013300020462760FEF760FF40B1012804D0F61D6B
:1013400026F007060836D7E7361DD5E72846D9E741
:10135000206ABDE8F08170B505460C46012A05D02B
:101360002868800600D5EA69002302E0012305E031
:101370005B1C934202D2E05C0028F9D1A869E61810
:10138000C01AA861286A184428622846AFF3008072
:1013900004E0D5E9012114F8010B9047B442F8D3D9
:1013A0002846AFF3008070BD7047704770477047A4
:1013B00010B5436913B1AFF3008001E0FFF7CBFF35
:1013C000012010BD126800F124010A7000224A7049
:1013D0000122EDE711684FF0FF32E9E7074B70B5E6
:1013E0000C467B4400F011F80546204600F020F83A
:1013F00010B14FF0FF3070BD284670BD0FF0FFFFF9
:1014000001694A1C02610878704700B58FB0CDE9C8
:1014100001310021059105497944CDE903101146B8
:101420006846FFF763FF0FB000BD0000E5FFFFFF58
:10143000C06800F080007047754600F029F8AE469D
:1014400005006946534620F00700854618B020B5D0
:10145000FFF77EF9BDE820404FF000064FF000078F
:101460004FF000084FF0000B21F00701AC46ACE84C
:10147000C009ACE8C009ACE8C009ACE8C0098D46B9
:1014800070470446AFF300802046FEF7C9FE000017
:101490000048704728000020004870472C000020BA
:1014A00010B5FFF7F9FF4FF00001016010BD00001B
:1014B000D01400080000002028000000C00100082F
:1014C000F81400082800002060060000DC01000875
:1014D00000000000000000000102030401020304F8
:1014E00006070809000E27070000000000000000A2
:0814F0000102030406070809CC
:040000050800018569
:00000001FF
