:020000040800F2
:10000000900600209D250008AD030008AF030008FE
:10001000B1030008B3030008B503000800000000A6
:10002000000000000000000000000000B70300080E
:10003000B903000800000000BB030008BD0300086E
:10004000B7250008B7250008B7250008B725000820
:10005000B7250008B7250008B7250008B725000810
:10006000B7250008B7250008B7250008B725000800
:10007000B7250008B7250008B7250008B7250008F0
:10008000B7250008B7250008B7250008B7250008E0
:10009000B7250008B7250008B7250008B7250008D0
:1000A000B7250008B7250008B7250008B7250008C0
:1000B000B7250008B7250008B7250008B7250008B0
:1000C000B7250008B7250008B7250008B7250008A0
:1000D000B7250008BF030008B7250008B7250008AA
:1000E000B7250008B7250008B7250008B725000880
:1000F000B7250008B7250008B7250008B725000870
:10010000B7250008B7250008B7250008B72500085F
:10011000B7250008B7250008B7250008B72500084F
:10012000B7250008B7250008B7250008B72500083F
:10013000B7250008B7250008B7250008B72500082F
:10014000B7250008B7250008B7250008B72500081F
:10015000B7250008B7250008B7250008B72500080F
:10016000B7250008B7250008B7250008B7250008FF
:10017000B7250008B7250008C9030008B7250008FF
:10018000B725000800F002F800F041F80AA090E856
:10019000000C82448344AAF10107DA4501D100F042
:1001A00036F8AFF2090EBAE80F0013F0010F18BFCE
:1001B000FB1A43F0010318470046000020460000E8
:1001C000103A24BF78C878C1FAD8520724BF30C883
:1001D00030C144BF04680C60704700000023002455
:1001E00000250026103A28BF78C1FBD8520728BF47
:1001F00030C148BF0B607047782903F0B1850020FB
:1002000070471FB503F01CFF1FBD10B510BD03F0F4
:10021000DBFE1146FFF7F5FF00F008F803F0F9FEEA
:1002200003B4FFF7F2FF03BC02F0A3F91CB502F020
:100230003DF900F084FC4FF4784001F0D8FF2CA089
:1002400003F04CFD3AA003F049FD00F016FB50B15D
:100250003BA003F043FD01A800F038FB01A800F02B
:1002600035FB10B114E03CA0F3E79DF804107F29A2
:1002700032D09DF80500A2282ED09DF806007328E4
:100280002AD09DF80700762826D039A003F026FD55
:1002900046F27801112003F0CBFE0021084601F060
:1002A00076FF4FF0DE41222008800121364803F01E
:1002B000A1FB012002F0C0FE012002F0C8FE802157
:1002C000712000F0EFF845F6FF7000F02AFC0021E5
:1002D000712000F0E7F8FEE79DF8060000909DF819
:1002E00007309DF8052029A003F0F8FCD0E70000B6
:1002F0000D0A0D0A57656C636F6D6520746F20578A
:1003000061766553686172652053544D33324632CD
:1003100020736572696573204D435520426F617289
:1003200064204F70656E3230375A0D0A00000000AD
:100330004F563736373020496E69742E2E0D0A001D
:100340004F563736373020496E6974206661696CC4
:100350007321210D0A00000043616D657261204820
:1003600061766520496E69742E2E0D0A000000002A
:100370004F56373637302049442069732045727212
:100380006F72210D0A000000286402404F56373674
:1003900037302049443A3078257820307825782045
:1003A0003078257820307825780D0A007047FEE7F0
:1003B000FEE7FEE7FEE7704770477047704740F280
:1003C0002551124802F0C6BB10B5082002F06CFEA1
:1003D00010B1082002F070FE102002F065FE10B18E
:1003E000102002F069FE012002F05EFE10B1012033
:1003F00002F062FE042002F057FE002804D0BDE89F
:100400001040042002F058BE10BD00000010014052
:1004100030B587B00121022002F0EDFC01218805F2
:1004200002F007FD8E4D04220A21284602F0FFF952
:1004300004220B21284602F0FAF94FF440600490A0
:1004400002208DF8140001208DF8160000248DF88C
:1004500015408DF8174004A9284602F077F9814D20
:10046000284602F02FFEFE20ADF808002815ADF852
:100470000A000001ADF80C00ADF804404BF6FF7126
:100480007948ADF8061000900121284602F09AFE46
:100490006946284602F032FE0121284602F0B8FEE5
:1004A00007B030BD2DE9F047704D80468946286879
:1004B0006C4F0121384602F08FFE2C686C4E01E033
:1004C000641E3AD33146384602F04CFF0028F7D07C
:1004D00000224221384602F093FE2C68654E01E06E
:1004E000641E2AD33146384602F03CFF0028F7D07C
:1004F0004146384602F0F1FE2C685E4EB61C01E023
:10050000641E1AD33146384602F02CFF0028F7D07B
:100510004946384602F0E1FE2C6801E0641E0CD327
:100520003146384602F01EFF0028F7D00121384638
:1005300002F05CFE0020BDE8F087FF20FBE72DE91C
:10054000F05F4A4F834689463868464E14363088F5
:1005500040F480603080DFF80C810121404602F0D9
:100560003BFE3C68424D01E0641E77D3294640467D
:1005700002F0F8FE0028F7D000224321404602F0A6
:100580003FFE3C68DFF8ECA001E0641E66D35146F4
:10059000404602F0E7FE0028F7D05946404602F0F8
:1005A0009CFE3C68DFF8CCA00AF1020A01E0641E60
:1005B00054D35146404602F0D5FE0028F7D030888B
:1005C00040F48060308001214446404602F00EFE37
:1005D0000121204602F000FEB8463F6801E07F1E80
:1005E0003CD32946204602F0BDFE0028F7D0012268
:1005F00043212746204602F003FED8F80040454636
:10060000DFF86C8008F1010801E0641E26D3414642
:10061000384602F0A7FE0028F7D00021384602F045
:10062000F7FD2C68124D3F3501E0641E16D32946B4
:10063000384602F097FE0028F7D00121384602F034
:10064000D5FD384602F04BFE89F80000308840F4B2
:10065000806030800020BDE8F09FFFE7FF20FAE7D0
:100660000004024000580040A08601000000002065
:1006700001000300820007002DE9F04796B0012138
:10068000172002F0B8FB0121084602F0BEFBCA4F5A
:100690000D220421384602F0CAF80D220621384600
:1006A00002F0C5F8DFF814830D220621404602F05F
:1006B000BEF80D220721404602F0B9F8DFF800939A
:1006C0000D220621484602F0B2F80D2207214846C5
:1006D00002F0ADF80D220821484602F0A8F80D22DC
:1006E0000921484602F0A3F8DFF8D8A20D22002124
:1006F000504602F09CF80D220121504602F097F876
:100700000D220421504602F092F850200F90022052
:100710008DF8400003268DF8416000248DF842409A
:1007200001258DF843500FA9384602F00FF84FF419
:1007300070700F900FA9484602F008F8C0200F9083
:100740000FA9404602F002F813200F900FA950465F
:1007500001F0FCFFADF848408020ADF84A00402091
:10076000ADF84C00ADF84440ADF84640ADF84E4011
:10077000ADF8504011A802F014FC0121082002F04D
:1007800074FC700201F02AFF4E208DF854008DF8A1
:1007900055508DF856508DF8575015A801F023FF8D
:1007A0000121880502F027FB874D284603F062F8F7
:1007B00038020090854801908548CDE902044FF445
:1007C000A070CDE90404A814CDE9064040000890CB
:1007D0004011099040020A900420CDE90C640B906E
:1007E000694628460E9403F0CCF816B0BDE8F087B1
:1007F0001CB50121084602F0FEFA4FF4807000900B
:1008000003208DF8050002208DF8040000208DF8EB
:1008100006008DF807006946674801F097FF4FF022
:10082000A0614FF4C00002F049FA1CBD1CB50121C3
:10083000022002F0E0FA0320009002208DF805006B
:1008400001208DF8040000218DF806105C4C8DF815
:1008500007006946204601F079FF0121204601F09A
:10086000D9FF0221204601F0D5FF0A2000F09BF8B5
:100870000221204601F0CCFF1CBD70B5FFF7C8FD7A
:10088000FFF7FAFEFFF7B4FF40F6FF76304600F0C0
:100890008AF880211220FFF705FE60B9304600F08B
:1008A00082F84C4D002405EB4400417815F8140003
:1008B000FFF7F8FD08B1FF2070BD641CE4B2A82C5E
:1008C000F1D3304600F06FF8002070BD38B5044613
:1008D00069461C20FFF733FEB8B99DF80000207070
:1008E00069461D20FFF72BFE78B99DF80000607067
:1008F00069460B20FFF723FE38B99DF80000A07071
:1009000069460A20FFF71BFE08B1FF2038BD9DF89D
:100910000000E070002038BD2DE9FC4104460D4682
:10092000861801EB430769460320FFF708FE9DF890
:10093000000001A900F0C0008DF800003220FFF790
:10094000FEFD9DF8040006F0070100F0C0008DF8E0
:10095000040040EAC10104F0070001433220FFF720
:10096000A1FDC4F3C7011720FFF79CFDC6F3C70123
:100970001820FFF797FD9DF8001007F0070041EAE7
:10098000C00105F0070001430320FFF78BFDC5F30D
:10099000C7011920FFF786FDC7F3C7011A20FFF72B
:1009A00081FDBDE8FC814FF47A7302E01946491ECF
:1009B000FDD2401EFAD270470000024000080240FB
:1009C0000004024000100240286402402800055044
:1009D0000000016F4E400008034A02EB0111A1F52F
:1009E0000071102203F0EAB99E4100081CB50121F4
:1009F000582002F000FA0121084602F010FAFF4CDC
:100A00000C220021204601F012FF0C220121204679
:100A100001F00DFF0C220421204601F008FF0C22FA
:100A20000521204601F003FF0C220821204601F099
:100A3000FEFE0C220921204601F0F9FE0C220A21BB
:100A4000204601F0F4FE0C220E21204601F0EFFEBC
:100A50000C220F21204601F0EAFE02208DF804004E
:100A60004CF23371032000918DF8050000218DF8C0
:100A700006108DF807106946204601F067FEE04C2D
:100A80000C220221204601F0D2FE0C220721204632
:100A900001F0CDFE0C220821204601F0C8FE0C22F8
:100AA0000921204601F0C3FE0C220A21204601F054
:100AB000BEFE0C220B21204601F0B9FE0C2211468D
:100AC000204601F0B4FE0C220D21204601F0AFFEBD
:100AD0000C220E21204601F0AAFE0C220F212046F6
:100AE00001F0A5FE4FF6847100916946204601F0A1
:100AF0002DFEC44C0C220521204601F098FE0C224C
:100B00001146204601F093FE0C220D21204601F0F3
:100B10008EFE43F2200100916946204601F016FE48
:100B20001CBD002240F2754306E00021491C89B239
:100B30009942FBD3521C92B28242F6D370472DE900
:100B4000F05FB14CFFF752FF641EFDD201F082FC52
:100B50004FF0DE43AD4A00201880DFF8B4C2BCF885
:100B600000005080A0F513414FF4807440F2272814
:100B700040F2077540F23F164FF4887B253901D0CB
:100B8000C91E7CD1012010701021E72003F050FA1B
:100B90000121002003F04CFA2146012003F048FA1D
:100BA0004FF4E061022003F043FA41F230010320E8
:100BB00003F03EFA0021042003F03AFA40F2072144
:100BC000082003F035FA0021092003F031FA002152
:100BD0000A2003F02DFA01210C2003F029FA00214C
:100BE0000D2003F025FA00210F2003F021FA002147
:100BF000102003F01DFA0721112003F019FA00213B
:100C0000122003F015FA0021132003F011FA32200C
:100C1000FFF787FF41F29051102003F009FA414697
:100C2000112003F005FA3220FFF77BFF9C211220F0
:100C300003F0FEF93220FFF774FF4FF4C851132080
:100C400003F0F6F92321292003F0F2F90E212B20DD
:100C500003F0EEF93220FFF764FF0021202003F0BB
:100C6000E7F90021212003F0E3F93220FFF759FFD3
:100C70000721302003F0DCF92946312000E082E032
:100C800003F0D6F90621322003F0D2F940F20471C4
:100C9000352003F0CDF941F60471362003F0C8F990
:100CA0000421372003F0C4F90021382003F0C0F9F3
:100CB00040F20671392003F0BBF940F201713C208B
:100CC00003F0B6F90F213D2003F0B2F93220FFF70F
:100CD00028FF0021502003F0ABF9EF21512003F051
:100CE000A7F90021522003F0A3F93146532003F065
:100CF0009FF94FF42741602003F09AF90121612008
:100D000003F096F900216A2003F092F90021802077
:100D100003F08EF90021812003F08AF9002182205E
:100D200003F086F90021832003F082F9002184205A
:100D300003F07EF90021852003F07AF9102190203C
:100D400003F076F90021922003F072F90321932039
:100D500003F06EF95946952003F06AF900219720B7
:100D600003F066F90021982003F062F940F2331194
:100D7000072003F05DF90021202003F059F900213C
:100D8000212001F0FDB9A0F5134120397DD0B0F547
:100D9000134FFBD04FF40177113977D10320107036
:100DA00041F21401E72003F043F92146012003F04A
:100DB0003FF9391F022003F03BF941F230010320D3
:100DC00003F036F9B91E082003F032F9002109209A
:100DD00003F02EF900210A2003F02AF900210C204B
:100DE00003F026F900210D2003F022F900210F2045
:100DF00003F01EF9002110200CE00000000C02405E
:100E00000010024000180240FFFF1F0004000020F5
:100E10000000016F03F00CF90721112003F008F91D
:100E20000021122003F004F90021132003F000F93F
:100E3000C820FFF776FE41F29061102003F0F8F829
:100E40004146112003F0F4F83220FFF76AFE0C212E
:100E5000122003F0EDF83220FFF763FE4FF400613B
:100E6000132003F0E5F81121292003F0E1F80B210C
:100E70002B2003F0DDF83220FFF753FE0021202065
:100E800003F0D6F80021212001E07CE020E103F00E
:100E9000CFF80021302003F0CBF84FF483742146C3
:100EA000312003F0C5F80021322003F0C1F83946A3
:100EB000352003F0BDF841F20A61362003F0B8F89E
:100EC0002946372003F0B4F82146382003F0B0F863
:100ED0002946392003F0ACF840F202413C2003F0EF
:100EE000A7F840F60F413D2003F0A2F80021502062
:100EF00003F09EF8EF21512003F09AF800215220D0
:100F000003F096F83146532003F092F84FF41C5149
:100F1000602003F08DF80121612003F089F80021A1
:100F20006A2003F085F80021802003F081F8002179
:100F3000812003F07DF80021822003F079F8002160
:100F4000832003F075F80021842003F071F800215C
:100F5000852003F06DF81021902003F069F84FF41C
:100F6000C061922003F064F82121072003F060F8AB
:100F70003220FFF7D6FD6121072003F059F8322017
:100F8000FFF7CFFDF6E300201070014603F050F8A4
:100F90002146012003F04CF84FF4E061022003F0F9
:100FA00047F841F21801032003F042F80021042021
:100FB00003F03EF840F20221082003F039F8002146
:100FC000092003F035F800210A2003F031F801214F
:100FD0000C2003F02DF800210D2003F029F800214A
:100FE0000F2003F025F86420FFF79BFD40F201116C
:100FF000072003F01DF86420FFF793FD4FF486519E
:10100000102003F015F80721112003F011F85C46B9
:101010005946122003F00CF84FF43061132003F00E
:1010200007F80021292003F003F844F210012B20D7
:1010300002F0FEFF0021502002F0FAFFEF215120C4
:1010400002F0F6FF0021522002F0F2FF3146532059
:1010500002F0EEFF4FF41C51602002F0E9FF012185
:10106000612002F0E5FF00216A2002F0E1FF00218B
:10107000802002F0DDFF0021812002F0D9FF002155
:10108000822002F0D5FF0021832002F0D1FF002151
:10109000842002F0CDFF0021852002F0C9FF10213D
:1010A000902002F0C5FF0021922002F0C1FF012133
:1010B000932002F0BDFF2146952002F0B9FF0021E8
:1010C000972002F0B5FF00219820FCE3072058E6A6
:1010D000A0F5194140F2055919397DD10D20107044
:1010E0000621282002F0A4FF0121002002F0A0FF29
:1010F0000021102002F09CFF47F2EF21012002F0B6
:1011000097FF4FF4C061022002F092FF46F63821AB
:10111000032002F08DFF46F67401112002F088FFD3
:1011200000210F2002F084FF45F208310B2002F06D
:101130007FFF03210C2002F07BFF0A210D2002F02B
:1011400077FF4FF438510E2002F072FFBE211E20AF
:1011500002F06EFF4FF40041252002F069FF4FF4CA
:10116000F041262002F064FF7821272002F060FF82
:1011700000214E2002F05CFF00214F2002F058FFBA
:1011800040F6D901122002F053FF0021302002F076
:101190004FFF4FF48271312002F04AFF2146322086
:1011A00002F046FF40F205342146332002F040FFB2
:1011B0004946342002F03CFF2146352002F038FF3A
:1011C0002946362002F034FF611F372002F030FF3D
:1011D0004FF490513A2000E008E002F029FF4FF46C
:1011E00000613B2002F024FF33216FE7A0F5A851F6
:1011F000053901D048457DD1092010700021072014
:1012000002F016FF3220FFF78CFC4FF48E71122093
:1012100002F00EFF0121A42002F00AFF0F21082096
:1012200002F006FF08210A2002F002FF08210D202B
:1012300002F0FEFE2946302002F0FAFE072131209E
:1012400002F0F6FE40F20361322002F0F1FE4FF4AC
:10125000E0673946332002F0EBFE40F202213420F1
:1012600002F0E6FE0221352002F0E2FE41F60F71A7
:10127000362002F0DDFE2946372002F0D9FE00219B
:10128000382002F0D5FE0021392002F0D1FE294697
:101290003A2002F0CDFE00213B2002F0C9FE0721DA
:1012A0003C2002F0C5FE00213D2002F0C1FE3220AC
:1012B000FFF737FC0121072002F0BAFE01211720B9
:1012C00002F0B6FE3220FFF72CFC4FF4BD51102087
:1012D00002F0AEFE40F21721112002F0A9FE4FF4F9
:1012E0008F71122002F0A4FE4FF47061132002F0FF
:1012F0009FFE00E08AE000212A2002F099FE0A21E8
:10130000292002F095FE4FF49F71122002F090FE0A
:101310000021502002F08CFEEF21512002F088FEC7
:101320000021522002F084FE3146532002F080FE5C
:101330004FF41C51602002F07BFE0121612002F07D
:1013400077FE00216A2002F073FE0021802002F067
:101350006FFE0021812002F06BFE0021822002F04E
:1013600067FE0021832002F063FE0021842002F04A
:101370005FFE0021852002F05BFE1321902002F029
:1013800057FE4FF44071922002F052FE0521932047
:1013900002F04EFE0021952002F04AFE0021972027
:1013A00002F046FE0021982002F042FE2146012074
:1013B00002F03EFE3946022002F03AFE41F23001D0
:1013C000032002F035FE0021042002F031FE00214E
:1013D0000C2002F02DFE00210F2002F029FE00213A
:1013E000202002F025FE0021212002F021FE2121F3
:1013F000072002F01DFEC820FFF793FB61210720A4
:1014000002F016FEC820FFF78CFB9EE2A0F5094112
:1014100040F2025840F2023A89397CD1052010701E
:101420000121002002F004FE3220FFF77AFB4AF689
:10143000A401032002F0FCFD3220FFF772FB002123
:101440000C2002F0F5FD3220FFF76BFB40F60C019B
:101450000D2002F0EDFD3220FFF763FB4FF42C511D
:101460000E2002F0E5FD3220FFF75BFBB0211E20CD
:1014700002F0DEFD3220FFF754FB42F63F3101203F
:1014800002F0D6FD3220FFF74CFB4FF4C061022082
:1014900002F0CEFD3220FFF744FB0021102002F0C5
:1014A000C7FD3220FFF73DFB46F27001112002F02C
:1014B000BFFD3220FFF735FB0021052002F0B8FD0B
:1014C0003220FFF72EFB0021062002F0B1FD322072
:1014D000FFF727FB4EF61C71162002F0A9FD322003
:1014E000FFF71FFB0321172002F0A2FD3220FFF7B8
:1014F00018FB40F23311072002F09AFD3220FFF76B
:1015000010FB00210B2002F093FD3220FFF709FBB6
:1015100000210F2000E0AAE002F08AFD3220FFF750
:1015200000FB0021412002F083FD3220FFF7F9FA91
:101530000021422002F07CFD3220FFF7F2FA002168
:10154000482002F075FD3220FFF7EBFA31464920C2
:1015500002F06EFD3220FFF7E4FA00214A2002F08B
:1015600067FD3220FFF7DDFA00214B2002F060FD1D
:101570003220FFF7D6FA4FF46F41442002F058FDB5
:101580003220FFF7CEFA0021452002F051FD322033
:10159000FFF7C7FA3146462002F04AFD3220FFF736
:1015A000C0FA2946302002F043FD3220FFF7B9FA95
:1015B0003946312002F03CFD3220FFF7B2FA3946BD
:1015C000322002F035FD3220FFF7ABFA44464146A7
:1015D000332002F02DFD3220FFF7A3FA40F207512D
:1015E000342002F025FD3220FFF79BFA39463520E2
:1015F00002F01EFD3220FFF794FA3946362002F041
:1016000017FD3220FFF78DFA2146372002F010FD3A
:101610003220FFF786FA544651463A2002F008FD80
:101620003220FFF77EFA21463B2002F001FD3220F6
:10163000FFF777FA0021232002F0FAFC3220FFF7AF
:1016400070FA0021242002F0F3FC3220FFF769FA3F
:101650004FF40041252002F0EBFC3220FFF761FA45
:1016600000214F2002F0E4FC00214E202FE5A0F5E0
:10167000094199397DD1042010700621282002F0FB
:10168000D7FC0121002002F0D3FC4AF6A46103201C
:1016900002F0CEFC04210C2002F0CAFC0C210D202B
:1016A00002F0C6FC4FF420510E2002F0C1FCB5211F
:1016B0001E2002F0BDFC43F63F31012002F0B8FCD1
:1016C0004FF4C061022002F0B3FC0021102002F0B0
:1016D000AFFC46F63001112002F0AAFC00210520E3
:1016E00002F0A6FC0021062002F0A2FC4EF61C71BE
:1016F000162002F09DFC3321072002F099FC002106
:101700000B2002F095FC00210F2002F091FC00213B
:10171000412002F08DFC0021422002F089FC0021D2
:10172000482002F085FC3146492002F081FC00216E
:101730004A2002F07DFC00214B2002F079FC4FF49E
:101740006F41442002F074FC0021452002F070FC3F
:101750003146462002F06CFC00214E2002F068FC6D
:1017600000214F2002F064FC2946302002F060FC8A
:1017700001E042E0FEE240F20221312002F058FC9A
:101780003946322002F054FC44464146332002F0F0
:101790004FFC40F20751342002F04AFC3946352014
:1017A00002F046FC3946362002F042FC2146372042
:1017B00002F03EFC544651463A2002F039FC2146E4
:1017C0003B2002F035FC0021232002F031FC0021F7
:1017D000242002F02DFC4FF40041252002F028FCCB
:1017E0004FF4E041262002F023FC4BF2EB012020D5
:1017F00002F01EFC7C21272069E4A0F5A8410839ED
:101800007ED1082010702146012002F011FC4FF417
:10181000E061022002F00CFC41F23001032002F0F2
:1018200007FC0021042002F003FC40F207210820FD
:1018300002F0FEFB0021092002F0FAFB00210A2041
:1018400002F0F6FB00210C2002F0F2FB00210D203B
:1018500002F0EEFB00210F2002F0EAFB3220FFF73E
:1018600060F940F20111072002F0E2FB3220FFF79D
:1018700058F941F2B061102002F0DAFB0121112089
:1018800002F0D6FB0121172002F0D2FB4FF49C712D
:10189000122002F0CDFB4FF40061132002F0C8FBD0
:1018A0000921292002F0C4FB09212A2002F0C0FBF3
:1018B0000021A42002F0BCFB0021502002F0B8FB64
:1018C000EF21512000E03EE002F0B2FB0021522067
:1018D00002F0AEFB3146532002F0AAFB4FF41C513C
:1018E000602002F0A5FB0321612002F0A1FB002192
:1018F0006A2002F09DFB0021802002F099FB00E0AD
:1019000026E00021812002F093FB0021822002F0DA
:101910008FFB0021832002F08BFB0021842002F04A
:1019200087FB0021852002F083FB1321902002F029
:101930007FFB0021922002F07BFB0321932002F029
:1019400077FB5946952002F073FB40F273114CE48B
:10195000A0F58A4131397CD1072010700121002087
:1019600002F066FB4FF4C561102002F061FB062116
:10197000122002F05DFB40F63221132002F058FBEA
:101980004021112002F054FB5021152002F050FBA1
:101990001621122002F04CFB3220FFF7C2F845F26C
:1019A0006061102002F044FB3220FFF7BAF842F6E3
:1019B0004E21132002F03CFB2146012002F038FBAF
:1019C0004FF44071022002F033FB41F2300103205A
:1019D00002F02EFB40F20221082002F029FB002138
:1019E0000A2002F025FB0021302002F021FB40F20A
:1019F0000241312002F01CFB4FF48371322002F0CF
:101A000017FB4FF4E061332002F012FB4FF48271B8
:101A1000342002F00DFB40F20131352002F008FBCA
:101A20002946362002F004FB40F20531372002F04F
:101A3000FFFA4FF40271382002F0FAFA40F60B7107
:101A4000392002F0F5FA3220FFF76BF8022141202D
:101A500000E02AE002F0ECFA4FF41C51602002F0A2
:101A6000E7FA0121612002F0E3FA40F21911902017
:101A700002F0DEFA4FF48571922002F0D9FA0421C7
:101A8000932002F0D5FA2146A02002F0D1FA3220AC
:101A9000FFF747F840F23311072002F0C9FA32206D
:101AA000FFF73FF80021A0206AE3A0F58A4135390D
:101AB0007ED10C2010703021152002F0B9FA1021CF
:101AC0009A2002F0B5FA2021112002F0B1FA43F277
:101AD0002841102002F0ACFA0221122002F0A8FAEC
:101AE00041F23801132002F0A3FA2820FFF719F879
:101AF0001221084602F09CFA2820FFF712F843F260
:101B00002041102002F094FA43F24501132002F024
:101B10008FFA4620FFF705F80021302002F088FAFE
:101B200040F20241312002F083FA40F207313220C4
:101B300002F07EFA4FF44171332002F079FA042169
:101B4000342002F075FA40F20141352002F070FABB
:101B50002946362002F06CFA40F20531372002F0B7
:101B600067FA4FF4C2652946382002F061FA294627
:101B7000392002F05DFA2146012002F059FA4FF4B3
:101B80004071022002F054FA41F23001032002F0C9
:101B90004FFA40F60801082002F04AFA08210A200C
:101BA00002F046FA4FF41C51602002F041FA00E0C6
:101BB00028E00121612002F03BFA4FF49F71902050
:101BC00002F036FA2146922002F032FA21469320A2
:101BD00002F02EFA4FF44051A02002F029FA102111
:101BE000A32002F025FA0121072002F021FA212189
:101BF000072002F01DFA2321072002F019FA3321F1
:101C00000720B5E047287DD0A0F5EE4183397AD191
:101C1000062010700121FF2002F00AFA0821F320AB
:101C200002F006FA2146012002F002FA4FF4E061C8
:101C3000022002F0FDF941F23001032002F0F8F930
:101C40005146082002F0F4F940F20721082002F082
:101C5000EFF90021092002F0EBF900210A2002F03F
:101C6000E7F90021102002F0E3F90521112002F02C
:101C7000DFF90021122002F0DBF90021132002F02D
:101C8000D7F93220FEF74DFF41F2B021102002F0CB
:101C9000CFF93220FEF745FF0721112002F0C8F9E5
:101CA0003220FEF73EFF8B21122002F0C1F93220D4
:101CB000FEF737FF4FF4B851132002F0B9F9322084
:101CC000FEF72FFF2221292002F0B2F90021302057
:101CD00002F0AEF92946312002F0AAF94946322035
:101CE00002F0A6F940F20711352002F0A1F908210F
:101CF000362002F09DF90021372002F099F940F2D8
:101D0000022401E039E018E12146382002F090F980
:101D10004FF48371392002F08BF921463C2002F008
:101D200087F94FF481613D2002F082F93220FEF7FD
:101D3000F8FE0021502002F07BF9EF21512002F043
:101D400077F90021522002F073F93146532002F056
:101D50006FF94FF42741602002F06AF901216120F8
:101D600002F066F93321902002F062F90B212B205A
:101D700002F05EF940F23311E9E50A20107000210B
:101D8000EA2002F055F92021EB2002F051F90C2154
:101D9000EC2002F04DF9C421ED2002F049F9402178
:101DA000E82002F045F93821E92002F041F901214B
:101DB000F12002F03DF91021F22002F039F9A321BF
:101DC000272002F035F90121402002F031F90021ED
:101DD000412002F02DF90021422002F029F91021C2
:101DE000432002F025F90E21442002F021F924219C
:101DF000452002F01DF90421462002F019F9502176
:101E0000472002F015F90221482002F011F91321B0
:101E1000492002F00DF919214A2002F009F919218F
:101E20004B2002F005F916214C2002F001F91B218C
:101E3000502002F0FDF83121512002F0F9F82F2155
:101E4000522002F0F5F83F21532002F0F1F83F2133
:101E5000542002F0EDF83E21552002F0E9F82F2140
:101E6000562002F0E5F87B21572002F0E1F8092125
:101E7000582002F0DDF80621592002F0D9F8062199
:101E80005A2002F0D5F80C215B2002F0D1F81D2178
:101E90005C2002F0CDF8CC215D2002F0C9F81821B9
:101EA0001B2002F0C5F801211A2002F0C1F815210B
:101EB000242002F0BDF85021252002F0B9F88B2132
:101EC000232002F0B5F83621182002F0B1F80121E4
:101ED000192002F0ADF80021012002F0A9F88821B4
:101EE0001F2002F0A5F83220FEF71BFE80211F20E4
:101EF00002F09EF83220FEF714FE90211F2002F01F
:101F000097F83220FEF70DFED0211F2002F090F846
:101F10003220FEF706FE0521172002F089F8002185
:101F2000362002F085F83821282002F081F832208E
:101F3000FEF7F7FD3C21282022E167201880BCF83D
:101F40000000508047287DD10B20107008214220CE
:101F500002F06EF8B421462002F06AF843214720CF
:101F600002F066F81321482002F062F84721492068
:101F700002F05EF814214A2002F05AF836214B2074
:101F800002F056F803214C2002F052F846214D2071
:101F900002F04EF805214E2002F04AF810214F20A1
:101FA00002F046F80821502002F042F80A215120A0
:101FB00002F03EF80021022002F03AF8002103204E
:101FC00002F036F80021042002F032F8EF2105205B
:101FD00002F02EF80021062002F02AF80021072046
:101FE00002F026F80121082002F022F83F21092002
:101FF00002F01EF80A20FEF794FD0621012002F0EF
:1020000017F8C821162002F013F89521232002F0BA
:102010000FF89521242002F00BF8FF21252002F073
:1020200007F80221272002F003F80221282001F0FE
:10203000FFFF0221292001F0FBFF02212A2001F0ED
:10204000F7FF00E09EE002212C2001F0F1FF0221C9
:102050002D2001F0EDFF01213A2001F0E9FF0121DF
:102060003B2001F0E5FFF0213C2001F0E1FF0021E1
:102070003D2001F0DDFF1420FEF753FD382135200F
:1020800001F0D6FF7821362001F0D2FF38213E2022
:1020900001F0CEFF0F21402001F0CAFFF0214120C6
:1020A00001F0C6FF0021382001F0C2FF49211920AC
:1020B00001F0BEFF0A21932001F0BAFF0A20FEF7CB
:1020C00030FD2021084601F0B3FF03211D2001F05F
:1020D000AFFF00211E2001F0ABFF09211F2001F0FE
:1020E000A7FF5321442001F0A3FF1021452001F058
:1020F0009FFF0A20FEF715FD04211C2001F098FF28
:102100001420FEF70EFD8021432001F091FF0520F1
:10211000FEF707FD0A211B2001F08AFF2820FEF7A9
:1021200000FD12211B2001F083FF2820FEF7F9FC9F
:102130007F21902001F07CFF0421262001F078FF10
:102140002820FEF7EEFC2421262001F071FF2C212F
:10215000262001F06DFF2820FEF7E3FC0821702007
:1021600001F066FF3C21262001F062FF022157208A
:1021700001F05EFF0021552001F05AFF0021572099
:1021800001F056FFBDE8F05F3220FEF7CABC70B523
:102190000546C4480C460178091F0A2906D2DFE823
:1021A00001F00C0C05050505131305252946202013
:1021B00001F03EFF2146212014E029464E2001F087
:1021C00037FF21464F200DE0290A022001F030FFA1
:1021D0002946032001F02CFF210A062001F028FFE8
:1021E00021460720BDE8704001F022BF70BD70B5E8
:1021F0000546AC48002400780A2811D00B280FD0DF
:1022000000210846FFF7C3FF4FF0DE41222008807F
:10221000A5484FF496310580641C8C42FBD370BDF9
:102220000021022001F004FF0021032001F000FF43
:102230000021042001F0FCFEEF21052001F0F8FE52
:102240000021062001F0F4FE0021072001F0F0FE3D
:102250000121082001F0ECFE3F21092001F0E8FEF9
:10226000D2E710B5FFF793FF4FF0DE412220088040
:102270008C4801788C48091F092917D2DFE801F042
:10228000050505051616080805000188008810BD1B
:102290000188C1F3C70201880088C908C0F387001C
:1022A000C90241EA4010104380B210BD0188008885
:1022B000C0F34511C20AC00200EB41101044F3E71D
:1022C00010B51446F0280AD2B1F5A07F07D2FFF767
:1022D0005EFF2146BDE81040222001F0A9BE10BDDE
:1022E0002DE9F04704469046DDF820A00D469946BA
:1022F0001046444501D9A04684B218464D4501D93F
:10230000894685B2A8EB0400A9EB050100B20EB224
:1023100050B1A6B1B04230DDC0EB46010FB2710042
:10232000404201EB400925E0524629462046FFF78E
:10233000C7FF6D1CADB2A945F6D2BDE8F087524685
:1023400029462046FFF7BCFF641CA4B2A045F6D284
:10235000F3E7524629462046FFF7B2FF641CA4B2B9
:10236000002F04DD6D1CADB209EB070001E007EBA7
:10237000460007B24445ECD11AE0C6EB40010FB26B
:102380007100404201EB400810E0524629462046C9
:10239000FFF796FF6D1CADB2002F04DD641CA4B2E4
:1023A00008EB070001E007EB460007B24D45ECD112
:1023B000524629462046BDE8F04781E72DE9FF5FF8
:1023C0000746894611469B466846FEF705FB0025F1
:1023D000EA4600241AF8058009EB0506C4F1070156
:1023E00028FA01F0C00707EB0400B1B280B201D0B7
:1023F0005A4600E00E9AFFF763FF641CA4B2082C53
:10240000ECD36D1CADB2102DE3D3BDE8FF9F2DE9D9
:10241000F8430446089F0D46164699464FF49878AF
:1024200016F8012B4B46294620460097FFF7C6FFBA
:10243000E82C02D20834A4B207E045454FF000046E
:1024400002D21035ADB200E0002530780028E7D187
:10245000BDE8F88300B597B0062000900020102159
:10246000CDE90201049009020190CDE9080106902E
:1024700007900A900FA905900F220B90CDE90C014F
:10248000CDE90F20CDE911201390149015900E91F5
:10249000684600F0BDFF0121062001F04AF817B0A0
:1024A00000BD0000040000200000016F70B5012194
:1024B00086B0084600F09FFC0121084600F09BFC16
:1024C0000121102000F0BFFC324E072209213046C6
:1024D00000F0ADF907220A21304600F0A8F9701586
:1024E000009002208DF8040000248DF806408DF83D
:1024F000050001258DF807506946304600F026F9A1
:10250000A80200908DF806508DF8074069463046C5
:1025100000F01CF94FF4E130ADF80C400290ADF83A
:102520000E40ADF81040ADF814400C201A4CADF838
:10253000120002A9204600F0D6F9012240F22551EE
:10254000204600F0E5FA0121204600F042FA06B0EC
:1025500070BD08B525208DF8000000208DF8010021
:102560008DF8020001208DF80300684600F03BF86A
:1025700008BD704770B5084D0446C1B2284600F04A
:102580004EFA4021284600F0DBFA0028F9D0204618
:1025900070BD000000000240001001400948804763
:1025A00009480047FEE7FEE7FEE7FEE7FEE7FEE735
:1025B000FEE7FEE7FEE7FEE704480549054A064B4D
:1025C00070470000953B000885010008900000203E
:1025D0009006002090020020900200202749084326
:1025E00027490860704770B50F23C278017801252C
:1025F0004FF0E026E2B1224A126802F4E062C2F52E
:10260000E062C2F30722C2F10404D3404278A24040
:1026100084781C401B4B14432201CA54007800F0FC
:102620001F018D40400906EB8000C0F8005170BDCD
:1026300001F01F008540480906EB8000C0F880517A
:1026400070BD114A114001430D48001F01607047E1
:102650000B4A121D0029116801D0014300E081439B
:10266000116070474FF0E0210428086903D020F082
:1026700004000861704740F00400FAE70000FA0522
:102680000CED00E000E400E080FFFF1F704910B592
:10269000884206D10121084600F0DFFB002101201D
:1026A0004FE06C49884206D10121022000F0D5FBA1
:1026B0000021022045E06849884206D1012104201A
:1026C00000F0CBFB002104203BE06449884206D1A6
:1026D0000121082000F0C1FB0021082031E0604901
:1026E000884206D10121102000F0B7FB0021102004
:1026F00027E05C49884206D10121202000F0ADFB93
:10270000002120201DE05849884206D101214020A7
:1027100000F0A3FB0021402013E05449884206D179
:102720000121802000F099FB0021802009E0504920
:1027300088420AD184150121204600F08EFB002139
:102740002046BDE8104000F088BB10BDF0B5002267
:1027500001264FF0030C0C6806FA02F31C409C4261
:102760002DD1056853000CFA03F4A54305600D79DB
:1027700007689D403D4305600D79012D01D0022D74
:1027800012D18568A54385604C7985689C402C43AF
:102790008460446806FA02F5AC43446044688D796D
:1027A0009540ADB22C434460C46855000CFA05F75F
:1027B000BC43C460CC799C40C3681C43C460521CB9
:1027C000102AC8D3F0BD4FF6FF71016000210171DE
:1027D00041718171C171704741F48032C261C16140
:1027E000C261C169C06970470246002012690A428D
:1027F00000D001207047006980B270470246002077
:1028000052690A4200D001207047406980B2704787
:1028100001837047418370470AB101837047418348
:1028200070474161704742694A40426170474B07B7
:10283000DB0E9A40C90810B500EB8100016A0F2435
:102840009C40A1430162016A1143016210BD000076
:10285000000002400004024000080240000C024058
:10286000001002400014024000180240001C024008
:1028700000200240CA4910B5884206D1012110202B
:1028800000F013FB0021102028E0C649884202D145
:1028900001214C0410E0C449884202D101218C047A
:1028A0000AE0C249884202D10121CC0404E0C049B7
:1028B00088420AD101210C05204600F0ECFA20469E
:1028C000BDE81040002100F0E6BABA49884209D1BB
:1028D0000121202000F0E9FA00212020BDE810406D
:1028E00000F0E3BA10BD7FB50446008A0D4620F41F
:1028F0004051E88808432082A18941F20C6081435D
:10290000A8882A8910436A890A431043A081A08AB3
:1029100020F44071A8890843A082684600F007FAB5
:102920009F48844202D0A348844201D1039800E02A
:102930000298A1890904002900EBC00101EB0010F5
:10294000296802DA4FEA410101E04FEA8101B0FB58
:10295000F1F06422B0FBF2F14FEA01114FEA1113DA
:102960006FF018056B4300EB8300A3891D044FF043
:10297000320306D503EBC000B0FBF2F000F0070015
:1029800005E003EB0010B0FBF2F000F00F0008438D
:1029900020817FBD4FF41651016000218180C180EC
:1029A00001810C2242818181704710B5028A4C88D6
:1029B00022F470630A8822438C88C9880C4322431E
:1029C0001A43028210BD0021018041808180C180B4
:1029D00070470029818902D041F4005101E021F4BF
:1029E000005181817047028B02F47F420283028B87
:1029F0000A43028370470029818902D041F40041D3
:102A000001E0C1F30E01818170470029818A02D063
:102A100041F4006101E021F4006181827047C1F35B
:102A20000801818070478088C0F308007047028ADF
:102A300022F00F020282028A0A43028270470029B2
:102A4000818902D041F0020101E021F0020181817F
:102A50007047828922F40062828182890A438281DE
:102A60007047028A22F020020282028A0A4302820E
:102A700070470029018A02D041F4804101E021F42D
:102A8000804101827047818941F001018181704755
:102A90000029818A02D041F0080101E021F00801FB
:102AA00081827047028BD2B20283028B42EA0121FB
:102AB000018370470029818A02D041F0200101E0A2
:102AC00021F02001818270470029818A02D041F0E3
:102AD000100101E021F0100181827047828A22F00A
:102AE00004028282828A0A43828270470029818A94
:102AF00002D041F0020101E021F002018182704721
:102B0000002A828A01D00A4300E08A438282704709
:102B100010B5C1F3421301F01F040121A140012BA4
:102B200007D0022B07D01430002A026805D00A43D0
:102B300004E00C30F8E71030F6E78A43026010BD7D
:102B40000246002012880A4200D001207047C94383
:102B50000180704770B501F01F0601250024C1F304
:102B6000421305FA06F2012B0FD0022B0FD0838AF5
:102B70004FEA11210088134205FA01F500EA050029
:102B800001D000B10124204670BD8389F0E7038A9B
:102B9000EEE70A0A01219140C94301807047000015
:102BA000001001400044004000480040004C00403C
:102BB0000050004000140140E948016841F0010163
:102BC0000160E74A0021083211600268E54B1A40B3
:102BD0000260031DE44A1A60026822F48022026047
:102BE000DF480C3001607047DD490022891C0A7003
:102BF0000870704702460020510901290CD00229B3
:102C00000CD0D7497431096802F01F0201239340A8
:102C10000B4200D001207047D149F4E7D049703110
:102C2000F1E730B500244FF4A0653120FFF7E2FF53
:102C3000641CAC4201D00028F7D03120FFF7DAFF46
:102C4000002800D0012030BDC54A116821F0F801EC
:102C500041EAC00010607047C44908607047C0492D
:102C6000002270310A700A70012802D0042801D1B4
:102C7000052008707047BE490860704741EA82111C
:102C80005A0810B5BB4B029C03EB024211430143AF
:102C900041EA0460B249091D086010BDB3490866E5
:102CA0007047800140EA0170AD4984310860704787
:102CB000AE4988667047AD49C8647047A84B083371
:102CC0001A68084322F0EC62104318607047A44B66
:102CD00008331A68084322F078421043186070479E
:102CE0009F4A0832116821F00301014311607047C7
:102CF0009B480830006800F00C007047984A083282
:102D0000116821F0F001014311607047944A0832C4
:102D1000116821F4E051014311607047904A083274
:102D2000116821F4604141EAC0001060704770B53D
:102D30008B4B08331968904C11F00C0104D08F4E66
:102D4000042903D0082903D004601BE0066019E0C1
:102D5000834A121D1168C1F38055116801F03F01CB
:102D600015B1B6FBF1F101E0B4FBF1F114681268A2
:102D7000C4F388146143C2F30142521C5200B1FBF8
:102D8000F2F1016019687E4A01F0F0010909545C12
:102D90000168E14041601C6804F4E054A40A145D39
:102DA00021FA04F484601B6803F460435B0BD25C7B
:102DB000D140C16070BDC0F30121032908D1684B27
:102DC000083319686F4A21F4F81102400A431A6067
:102DD000634970310A68C0F30B0002430A60704710
:102DE0006349443908607047614940390860704759
:102DF0006549086070475A4A30320029116801D08D
:102E0000014300E0814311607047554A3432002984
:102E1000116801D0014300E0814311607047504ABE
:102E200038320029116801D0014300E0814311606C
:102E300070474B4A40320029116801D0014300E03D
:102E4000814311607047464A44320029116801D01D
:102E5000014300E0814311607047414A103200296C
:102E6000116801D0014300E08143116070473C4A82
:102E700014320029116801D0014300E08143116040
:102E80007047374A18320029116801D0014300E029
:102E9000814311607047324A20320029116801D005
:102EA000014300E08143116070472D4A243200291C
:102EB000116801D0014300E0814311607047284A46
:102EC00050320029116801D0014300E081431160B4
:102ED0007047234A54320029116801D0014300E0B1
:102EE0008143116070471E4A58320029116801D091
:102EF000014300E0814311607047194A60320029A4
:102F0000116801D0014300E0814311607047144A09
:102F100064320029116801D0014300E0814311604F
:102F200070470F4A0D320029117801D0014300E0AB
:102F30008143117070470A487430016841F0807114
:102F4000016070470146064A00200C3212680A42AE
:102F500000D00120704702490E3108707047000010
:102F600000380240FFFFF6FE103000240000474208
:102F7000800E47420000FFFF0024F40040787D01EE
:102F80000C000020FFFCFF0F5C0147424C48002171
:102F90000160C1601F2242618161C16101624162C1
:102FA000704730B546490A6844F201039A430A6003
:102FB0000A6840F6F2739A4303884488C58823431D
:102FC00084882C43234304892343448980892343F1
:102FD000034313430B6030BD002101804180818099
:102FE000C180018141818181704701684FEA31428E
:102FF00033490A6240684FEA3040486270473049BE
:103000000028086802D040F0040001E020F004002D
:1030100008607047C178006861F31F6028498861C3
:10302000704727490028086802D040F0080001E0F6
:1030300020F008000860704721490028086802D085
:1030400040F4804001E020F48040086070471C4953
:103050000028086802D040F0010001E020F00100E3
:10306000086070471648806A7047154A0029D16881
:1030700001D0014302E0C04380B20140D1607047FB
:1030800003460020190B0E4A012906D0022906D05A
:103090001169194200D0012070479168F9E7516821
:1030A000F7E707494861704705490246002009696A
:1030B000114200D00120704701494861704700006B
:1030C00000000550C44910B5884202D101214C05C9
:1030D0000AE0C249884202D101218C0504E0C049BE
:1030E00088420AD10121CC052046FFF7D4FE2046B4
:1030F000BDE810400021FFF7CEBE10BD7FB50446ED
:1031000080880D4620F03F066846FFF710FEB5495F
:103110000298B0FBF1F189B20E43A680228822F01A
:1031200001022280B04B2A689A421BD85200B0FBA1
:10313000F2F080B2042800D20420491C2184A0832C
:10314000208840F00100208020884FF6F5310840AB
:10315000A9886A89114301432180A88929890843E4
:1031600020817FBDEB88A3F53F46FF3E05D102EBF2
:103170004202B0FBF2F080B208E002EBC20303EBC4
:103180000212B0FBF2F080B240F48040020501D19F
:1031900040F001004FF4967251434FF47A72B1FB44
:1031A000F2F140F40040C8E741F2883101600021AB
:1031B00081804BF6FF72C280018141814FF48041D2
:1031C000818170470029018802D041F0010101E0AE
:1031D00021F00101018070470029018802D041F4EB
:1031E000807101E021F4807101807047002901881D
:1031F00002D041F4007101E021F4007101807047B8
:1032000012B141F0010101E001F0FE0101827047BD
:103210000029018802D041F4806101E021F480613D
:1032200001807047828901F0FE0122F0FE02114305
:10323000818170470029818902D041F0010101E0BC
:1032400021F00101818170470029018802D041F0FD
:10325000400101E021F04001018070470029018810
:1032600002D041F4004101E0C1F30E01018070473A
:103270000029018803D021F080010180704741F0CE
:103280008001FAE7B1F5804F818B02D021F48041B3
:1032900001E041F4804181837047B1F5006F0188FE
:1032A00003D021F400610180704741F40061FAE726
:1032B000B1F5005F018803D021F40051018070470F
:1032C00041F40051FAE70029018802D041F01001D1
:1032D00001E021F010010180704701827047008AEF
:1032E000C0B270470029018802D041F4805101E04A
:1032F00021F4805101807047B1F5006F018803D03F
:1033000021F400610180704741F40061FAE700296F
:10331000018802D041F0200101E021F0200101806C
:103320007047008B000A70470029818802D041F461
:10333000006101E021F400618180704700298188EB
:1033400002D041F4805101E021F480518180704726
:10335000405A7047002A828801D00A4300E08A431D
:1033600082807047034600209A8A1B8B42EA034200
:1033700022F07F42914300D101207047818A008B67
:1033800041EA004121F07F40704700220B0F21F0FD
:103390007F4101D0143001E0090C18300068084268
:1033A00000D0012210467047C9438182704710B592
:1033B00002460020938801F0E064928A03EA1443F5
:1033C00021F07F410A4202D0002B00D0012010BD25
:1033D000C9438182704700000054004000580040FB
:1033E000005C004040420F00A08601004FF02042E8
:1033F00002EB800140B143F2D20008606FF07040F0
:103400004860C1F80401704743F2DB001060F5E743
:1034100030B5D0E901121143D0E903231A43114317
:1034200042690368114382691143C2691143026A08
:103430001143426A1143826A1143C26A1143026B0B
:1034400011434FF0204242F823108168082906D129
:10345000016802EB81010B6843F040030B60416B94
:10346000D1E9003443EA04138C68CD68240244EAAD
:10347000054423430C6943EA04534C69896943EAD0
:1034800004630B43016802EB81014B60C16AB1F533
:10349000804F07D000686FF0704102EB8000C0F8E9
:1034A000041130BD816B0068D1E9003443EA041394
:1034B0008C680D69240244EA055423434C698969E8
:1034C00043EA046302EB80000B43C0F8043130BDD3
:1034D00010B500210222C0E900128160C1600161C3
:1034E00041618161D202C161C0E908125200C0E9A4
:1034F0000A210163436B0F221A60436B5A60446BCD
:10350000FF23A360446BE260446B2261446B626101
:10351000446BA161846B2260846B6260846BA360E6
:10352000836BDA60836B1A61836B5A61806B816194
:1035300010BD4FF0204202EB80000029016802D04C
:1035400041F0010101E0C94A11400160704710B526
:10355000182340244FF020414FF0FC32102805D0B2
:1035600041F8803F4C608A60CA6010BD0B664C66B3
:103570008A66CA6610BD30B5D0E901121143D0E9A0
:1035800003231A431143426941EA4221826941EA15
:10359000423141F00804C169D1E9002342EA032223
:1035A0008B68C9681B0443EA01610A43016AD1E9D7
:1035B000003543EA05238D68C9682D0445EA016199
:1035C0000B4301684FF02040102904D040F8804F91
:1035D0008260C36030BD04668266C36630BD102160
:1035E0000160002141608160C160016141618161D0
:1035F000C269FC211160C2695160C2699160C269EF
:10360000D160026A1160026A5160026A9160006AC8
:10361000C16070474FF0204251B1102804D052F8D9
:10362000800F40F004000AE0106E40F004000AE051
:103630008E49C91E102804D052F8800F084010602F
:103640007047106E0840106670474FF0204251B12D
:10365000102804D052F8800F40F040000AE0106EAD
:1036600040F040000AE081493F39102804D052F868
:10367000800F084010607047106E08401066704759
:103680004FF02041102802D0D1F894007047486FC5
:1036900070477748182101604FF0000141604FF0FA
:1036A000FC318160C1600161704710B5D0E9001242
:1036B00041EA42218268102343EA423211436C4AB4
:1036C0001160C168D1E9003443EA04238C68C968F9
:1036D0004FEA044444EA016143EA0103936001694B
:1036E000D1E9003443EA04238C68C9684FEA0444F2
:1036F00044EA016143EA0103D3604069D0E9001361
:1037000041EA03218368C0684FEA034343EA00604B
:1037100041EA0001116110BD00210160416081603A
:10372000C268FC211160C2685160C2689160C268C1
:10373000D160026911600269516002699160026999
:10374000D16042691160426951604269916040698B
:10375000C160704746490028086802D040F0040064
:1037600002E0424AD21E10400860704710B54FF484
:1037700080744FF0204382B1102804D0A04205D1BC
:1037800003F1840304E0586E08430FE003F1A4033F
:10379000186840EA0100186010BD102804D0A0424B
:1037A00006D103F1840305E0586E8843586610BDC6
:1037B00003F1A403186820EA0100ECE703460020A7
:1037C0004FF02042102B08D0B3F5807F07D0D2F8FD
:1037D000A4200A4200D001207047526EF9E7D2F8C7
:1037E0008420F6E74FF02042102809D0B0F5807F02
:1037F0000AD002F1A402106820EA010010607047AC
:10380000506E88435066704702F18402F3E7034626
:1038100000204FF02042102B0CD0B3F5807F0BD04E
:10382000D2F8A4200A4202EAD10102D0002900D035
:1038300001207047526EF5E7D2F88420F2E74FF08E
:103840002042102809D0B0F5807F0BD002F1A402ED
:10385000106820EAD10010607047506E20EAD10055
:103860005066704702F18402F2E70000FEFF0F008D
:10387000A00000A02DE9F043016821F001010160E2
:103880000021016041608160C160016121214161CD
:10389000B849B84B3D221039984202D18A60BDE840
:1038A000F083B44C4FF474631834A04201D18B60A0
:1038B000F5E7B04D4FF474143035A84201D18C6057
:1038C000EDE7AC4E4FF074654836B04201D18D60E3
:1038D000E5E7A84FA84E6037B84201D1CE60DEE7D9
:1038E000A44FDFF898C27837B84202D1C1F80CC0B3
:1038F000D5E7A04FDFF888829037B84202D1C1F8EF
:103900000C80CCE79B4F4FF03D59A837B84202D10D
:10391000C1F80C90C3E79B499A4F0839B84201D1CE
:103920000A60BCE7974A1832904201D10B60B6E7B3
:10393000944A3032904201D10C60B0E7914A48324B
:10394000904201D10D60AAE78E4A8E496032091F6C
:10395000904201D10E60A2E78A4A7832904202D1A9
:10396000C1F800C09BE7874A9032904202D1C1F86B
:10397000008094E7834AA832904290D1C1F8009029
:103980008DE730B50368804ACC6813400A6822434B
:10399000D1E905452C432243CC6922430C6A2243DA
:1039A0004C6A22438C6A22434C6B22438C6B224329
:1039B0001A430260426922F00703D1E90B24224333
:1039C0001A4342610A6942604A6882608968C1603C
:1039D00030BD0021016041608160C16001614161D1
:1039E0008161C161016241628162C16201634163BF
:1039F000816370470029016802D041F0010101E0B4
:103A000021F00101016070470029016802D041F4F2
:103A1000004101E021F40041016070470029016884
:103A200002D041F0200101E021F020010160704747
:103A300041607047406880B27047002A026802D037
:103A400042F4002201E022F400220260016170478A
:103A50000029016802D041F4802101E021F4802195
:103A6000016070470AB101617047C160704701464B
:103A700000200968090300D5012070470146002095
:103A80000968C90700D001207047406900F038007C
:103A9000704702463B4B00209A4202D2354A103A08
:103AA00001E0384A103A8B0001D5526800E01268F4
:103AB000364B1A400A4200D001207047314A9042EA
:103AC00002D22C48103801E02E4810382F4A8B00C3
:103AD00001EA020101D5C1607047816070470B06A1
:103AE00007D5436912B143F0800301E023F080035E
:103AF0004361802908D0002A026801F01E0101D02C
:103B00000A4300E08A430260704730B51D4A002432
:103B1000904202D2174A103A01E01A4A103A1C4B5E
:103B2000194205D01E2303EAD12503682B4002E089
:103B3000406900F08003880001D5506800E01068FB
:103B4000124A1040084201D003B10124204630BD82
:103B50000C4A904202D20748103801E00948103858
:103B60000A4A8B0001EA020101D5C16070478160F9
:103B700070470000106002403D000020400F002010
:103B800000003D20106402403F801CF07D0F7D0F3F
:103B90003C0F3C0F474810B5016841F0010101603E
:103BA000444A0021083211600268434B1A40026007
:103BB000031D424A1A60026822F4802202603D48D6
:103BC0000C30016000F03BF83D494FF000600860A8
:103BD00010BD70B5374D083528683A4B3A4910F09A
:103BE0000C0004D0394E042803D0082803D00B6001
:103BF0001BE00E6019E02F4A121D1068C0F38054BC
:103C0000106800F03F0014B1B6FBF0F001E0B3FB28
:103C1000F0F013681268C3F388135843C2F30142EB
:103C2000521C5200B0FBF2F008602868264AC0F32C
:103C30000310121D105C0A68C2400A6070BD1D4A64
:103C40000020116841F4803111604FF4A0631168C5
:103C500000F1010011F4003F01D19842F7D1106842
:103C6000800326D51348083001680160016841F4DB
:103C700000410160016841F4A0510160031F144933
:103C80001960116841F08071116011688901FCD5DB
:103C9000104A40F203711160016821F003010160D4
:103CA000016841F0020101600168C1F3810102294C
:103CB000FAD1704700380240FFFFF6FE10300024B2
:103CC00008ED00E00024F4001C00002040787D0195
:103CD000193C4005003C0240704700000FB4044905
:103CE00010B503AA029800F00FF910BC5DF814FBA0
:103CF000080000202DE9F04104460E4600200AE0AD
:103D0000E1682046884738B3252806D0D4E9012148
:103D10009047206A401C2062F2E7E16820460027B5
:103D20008847050018D0A5F14100192802D8203590
:103D30004FF400673246294620462760FCF75CFABC
:103D400040B1012804D0F61D26F007060836D7E753
:103D5000361DD5E72846D9E7206ABDE8F081000086
:103D600070B504460D4621461068AFF30080216807
:103D7000090502D5104A7A4402E00F4A7A440E320D
:103D8000002104F1240307E000F00F064FEA1010B1
:103D9000965D5E5401F101010028F5D103462068CB
:103DA000000704D5702D02D009B11132022320463C
:103DB000BDE8704000F04BB8140A0000032A40F23E
:103DC000308010F0030C00F0158011F8013BBCF1BD
:103DD000020F624498BF11F801CB00F8013B38BFD5
:103DE00011F8013BA2F1040298BF00F801CB38BFE3
:103DF00000F8013B11F0030300F09880083AC0F08E
:103E0000088051F8043B083A51F804CBA0E80810A8
:103E1000F5E7121D5CBF51F8043B40F8043BAFF3DB
:103E20000080D20724BF11F8013B11F801CB48BF35
:103E300011F8012B24BF00F8013B00F801CB48BF6B
:103E400000F8012B704770477047704770472DE9A5
:103E5000F0470D4604469246994600F12408016851
:103E6000880604D5E06921F01001216000E00120FE
:103E7000A84202DDA0EB050700E00027A16907EBDF
:103E8000050202EB0900A1EB0000A0612068C0065A
:103E900002D42046AFF30080002608E0D4E90121D7
:103EA0001AF806009047206A401C761C20624E4596
:103EB000F4DB2068C0060AD52046AFF3008006E098
:103EC000D4E9012130209047206A401C2062381E2E
:103ED000A7F10107F4DC07E0D4E9012118F8050097
:103EE0009047206A401C2062281EA5F10105F3DCE2
:103EF0002046AFF300802068000602D50220BDE80E
:103F0000F0870120FBE70000074B70B50C467B44AF
:103F100000F043F80546204600F052F810B14FF08B
:103F2000FF3070BD284670BD63E6FFFF10B5203A34
:103F3000C0F00B80B1E81850203AA0E81850B1E862
:103F40001850A0E81850BFF4F5AF5FEA027C24BF18
:103F5000B1E81850A0E8185044BF18C918C0BDE80F
:103F600010405FEA827C24BF51F8043B40F8043BD8
:103F700008BF7047D20728BF31F8023B48BF11F88D
:103F8000012B28BF20F8023B48BF00F8012B7047E7
:103F900001694A1C02610878704700B58FB0CDE90D
:103FA00001310021059105497944CDE903101146FD
:103FB0006846FFF79FFE0FB000BD0000E5FFFFFF62
:103FC000C06800F080007047754600F029F8AE46E2
:103FD00005006946534620F00700854618B020B515
:103FE000FEF7EAFABDE820404FF000064FF0000768
:103FF0004FF000084FF0000B21F00701AC46ACE891
:10400000C009ACE8C009ACE8C009ACE8C0098D46FD
:1040100070470446AFF300802046FCF701F900002A
:1040200000487047300000200048704734000020EE
:104030004FF0DE4210800148018070470000016FA0
:1040400010B5FFF7F1FF4FF00001016010BD3A0C11
:1040500040D0121432801716180419021A7A03037A
:104060003E007000710072117300A20211017A20EB
:104070007B1C7C287D3C7E557F6880768180828891
:10408000838F849685A386AF87C488D789E813E792
:10409000000010000D001420A505AB072475256352
:1040A00026A59F78A068A103A6DFA7DFA8F0A990A6
:1040B000AA9413E70E610F8216021E0721022291B5
:1040C0002907330B350B371D3871392A3C784D40A1
:1040D0004E20690C6B0074198D4F8E008F0090007C
:1040E0009100920096009A80B084B10CB20EB38217
:1040F000B80A431444F0453446584728483A59888A
:104100005A885B445C675D495E0E64046520660501
:10411000940495086C0A6D556E116F9F6A400140BA
:10412000024013E715184F80508051005222535E11
:104130005480589E41083F00750576E14C00770198
:104140003DC04B09C9604138564034113B02A48937
:1041500096009730982099309A849B299C039D4C17
:104160009E3F78047901C8F0790FC8007910C87EA5
:10417000790AC880790BC801790CC80F790DC8205D
:104180007909C8807902C8C07903C8407905C83068
:1041900079260903550056403B420708108000006D
:1041A000000000000000000000000000000000000F
:1041B00000183C3C3C1818001818000000000000D3
:1041C00000666666000000000000000000000000BD
:1041D0000036367F3636367F36360000000000184F
:1041E000183C666030180C06663C18180000000089
:1041F00070D8DA760C18306E5B1B0E0000000000E1
:1042000000386C6C38606F66663B00000000000090
:104210000018181800000000000000000000000056
:10422000000C1818303030303018180C0000000026
:10423000003018180C0C0C0C0C1818300000000082
:10424000000000361C7F1C3600000000000000004B
:1042500000000018187E1818000000000000000080
:1042600000000000000000001C1C0C1800000000F2
:1042700000000000007E00000000000000000000C0
:1042800000000000000000001C1C000000000000F6
:104290000006060C0C1818303060600000000000AA
:1042A000001E333737333B3B331E00000000000055
:1042B000000C1C7C0C0C0C0C0C0C00000000000012
:1042C000003C6666060C1830607E000000000000AE
:1042D000003C6666061C0666663C000000000000A6
:1042E000003030363636667F0606000000000000DB
:1042F000007E6060607C06060C7800000000000014
:10430000001C18307C666666663C000000000000F9
:10431000007E060C0C181830303000000000000041
:10432000003C6666763C6E66663C0000000000005D
:10433000003C666666663E0C18380000000000000F
:104340000000001C1C0000001C1C000000000000FD
:104350000000001C1C0000001C1C0C1800000000C9
:1043600000060C18306030180C0600000000000039
:10437000000000007E007E00000000000000000041
:10438000006030180C060C183060000000000000BF
:10439000003C66660C1818001818000000000000A9
:1043A000007EC3C3CFDBDBCFC07F00000000000076
:1043B00000183C6666667E666666000000000000C7
:1043C000007C6666667C6666667C00000000000015
:1043D000003C666660606066663C000000000000AD
:1043E00000786C66666666666C7800000000000007
:1043F000007E6060607C6060607E00000000000005
:10440000007E6060607C6060606000000000000012
:10441000003C666660606E66663E0000000000005C
:1044200000666666667E66666666000000000000DE
:10443000003C181818181818183C0000000000005C
:104440000006060606060666663C00000000000040
:104450000066666C6C786C6C66660000000000009C
:104460000060606060606060607E000000000000CE
:10447000006363776B6B6B63636300000000000095
:10448000006363737B6F6763636300000000000079
:10449000003C666666666666663C000000000000DA
:1044A000007C6666667C6060606000000000000062
:1044B000003C666666666666663C0C0600000000A8
:1044C000007C6666667C6C66666600000000000024
:1044D000003C666030180C06663C000000000000DE
:1044E000007E18181818181818180000000000008E
:1044F0000066666666666666663C00000000000050
:1045000000666666666666663C180000000000008D
:10451000006363636B6B6B3636360000000000008F
:104520000066663418182C666666000000000000FD
:1045300000666666663C1818181800000000000047
:10454000007E06060C183060607E0000000000004F
:10455000003C303030303030303030303C00000003
:10456000006060303018180C0C06060000000000D7
:10457000003C0C0C0C0C0C0C0C0C0C0C3C00001833
:104580003C66000000000000000000000000000089
:10459000000000000000000000000000FF0000001C
:1045A00000181818000000000000000000000000C3
:1045B0000000003C06063E66663E0000000000006B
:1045C0000060607C66666666667C00000000000035
:1045D0000000003C66606060663C00000000000077
:1045E0000006063E66666666663E00000000000045
:1045F0000000003C66667E60603C00000000000039
:10460000001E3030307E30303030000000000000BE
:104610000000003E66666666663E06067C00000098
:104620000060607C666666666666000000000000EA
:104630001818007818181818187E000000000000DC
:104640000C0C003C0C0C0C0C0C0C0C0C780000003E
:1046500000606066666C786C6666000000000000B2
:104660000078181818181818187E000000000000AC
:104670000000007E6B6B6B6B6B6300000000000042
:104680000000007C6666666666660000000000004A
:104690000000003C66666666663C000000000000A4
:1046A0000000007C66666666667C606060000000F4
:1046B0000000003E66666666663E0606060000006E
:1046C000000000666E706060606000000000000026
:1046D0000000003E60603C06067C00000000000018
:1046E0000030307E30303030301E000000000000DE
:1046F0000000006666666666663E00000000000018
:1047000000000066666666663C1800000000000057
:10471000000000636B6B6B6B36360000000000001E
:1047200000000066663C183C666600000000000061
:104730000000006666666666663C0C18F0000000C5
:104740000000007E060C1830607E000000000000B3
:10475000000C1818183060301818180C00000000F1
:104760000018181818181818181818181800000029
:1047700000301818180C060C18181830000000002B
:104780000071DB8E000000000000000000003031EE
:104790003233343536373839414243444546403068
:1047A000580030313233343536373839616263641A
:1047B0006566403078000000D847000800000020FF
:1047C00030000000C0010008084800083000002048
:1047D00060060000DC010008102700000000000057
:1047E00000000000000000000102030401020304B5
:1047F00006070809000E270700000000000000005F
:08480000010203040607080988
:040000050800018569
:00000001FF
