:020000040800F2
:100000009006002041230008F1020008F3020008D6
:10001000F5020008F7020008F902000800000000DD
:10002000000000000000000000000000FB020008CB
:10003000FD02000800000000FF02000801030008A4
:100040005B2300085B2300085B2300085B23000898
:100050005B2300085B2300085B2300085B23000888
:100060005B2300085B2300085B2300085B23000878
:100070005B2300085B2300085B2300085B23000868
:100080005B2300085B2300085B2300085B23000858
:100090005B2300085B2300085B2300085B23000848
:1000A0005B2300085B2300085B2300085B23000838
:1000B0005B2300085B2300085B2300085B23000828
:1000C0005B2300085B2300085B2300085B23000818
:1000D0005B230008030300085B2300085B23000880
:1000E0005B2300085B2300085B2300085B230008F8
:1000F0005B2300085B2300085B2300085B230008E8
:100100005B2300085B2300085B2300085B230008D7
:100110005B2300085B2300085B2300085B230008C7
:100120005B2300085B2300085B2300085B230008B7
:100130005B2300085B2300085B2300085B230008A7
:100140005B2300085B2300085B2300085B23000897
:100150005B2300085B2300085B2300085B23000887
:100160005B2300085B2300085B2300085B23000877
:100170005B2300085B2300085B2300085B23000867
:100180005B23000800F002F800F041F80AA090E8B4
:10019000000C82448344AAF10107DA4501D100F042
:1001A00036F8AFF2090EBAE80F0013F0010F18BFCE
:1001B000FB1A43F0010318477C3A00009C3A000008
:1001C000103A24BF78C878C1FAD8520724BF30C883
:1001D00030C144BF04680C60704700000023002455
:1001E00000250026103A28BF78C1FBD8520728BF47
:1001F00030C148BF0B607047632903F07281002053
:1002000070471FB503F016FA1FBD10B510BD03F0FF
:10021000D5F91146FFF7F5FF00F008F803F0F3F900
:1002200003B4FFF7F2FF03BC00F029F908B502F0B0
:10023000EBFF03F007F800F093F800F010F900F07E
:1002400033F900F0C3FB4FF6FF74204601F017FFAF
:1002500011A003F089F8002314A268214020009423
:1002600002F020F8002315A278214020009402F02B
:1002700019F8002315A288214020009402F012F8FA
:10028000002319A298214020009402F00BF800F0FE
:100290006DF900F0A1F9DEE70D0A426F6F7420538B
:1002A0007563636573730D0A0000000050265320C8
:1002B000546563686E6F6C6F67790000526E4420FE
:1002C0002F20482F57205465616D000041737369DA
:1002D0007374616E74205265736561726368204542
:1002E0006E67696E65657200532E4A756E67000011
:1002F0007047FEE7FEE7FEE7FEE77047704770478E
:10030000704710B5084C40F22551204602F0F6FA2D
:10031000002808D0204602F05AFA0146BDE81040F5
:1003200002A003F021B810BD001001405553415206
:10033000542048797065727465726D696E616C20C5
:10034000496E746572727570747320526563656965
:100350007665206120776F72643A2025630D0A006C
:10036000F0B5012187B0084602F01EFC01210846C5
:1003700002F01AFC0121102002F042FC484F072233
:100380000921384602F027F907220A21384602F0EF
:1003900022F902258DF80450002478158DF80640C6
:1003A00000908DF8055001268DF8076069463846A3
:1003B00002F0A0F8680200908DF806608DF8074002
:1003C0006946384602F096F80121084602F0ECFB37
:1003D0000121084602F0E8FB07220C21384602F012
:1003E000FAF807220B21384602F0F5F88DF8045090
:1003F000E8028DF8064000908DF805508DF80760F2
:100400006946384602F076F8A80200908DF806603A
:100410008DF807406946384602F06CF84FF4E13039
:100420000290ADF80C404FF44070ADF80E40ADF8BE
:100430001040ADF814000C201A4CADF8120002A9BF
:10044000204602F024F9012240F22551204602F014
:1004500033FA0121204602F090F907B0F0BD08B54B
:1004600025208DF8000000208DF801008DF8020095
:1004700001208DF80300684601F087FF08BD704732
:1004800070B5084D0446C1B2284602F09CF94021DF
:10049000284602F029FA0028F9D0204670BD000055
:1004A00000000240001001402DE9FC410121202004
:1004B00002F07AFB01248DF80440002540208DF8DD
:1004C00006500326CB4F00908DF805608DF807404D
:1004D0006946384602F00EF880200090694638469A
:1004E00002F008F8200200906946384602F002F84F
:1004F000600200906946384601F0FCFF012125208A
:1005000002F052FB8DF80450A0028DF806500090C6
:100510008DF805608DF807406946384601F0EAFF1E
:10052000B54D69462846009401F0E4FF0094B34CB1
:100530006946204601F0DEFF04210091694620460D
:1005400001F0D8FF022000906946204601F0D2FF5A
:10055000082000906946204601F0CCFF2020009042
:100560006946284601F0C6FFBDE8FC8170B54FF42E
:100570008061A04802F00CF8002820D09E4C012198
:10058000204602F005F8D8B19C4D0121284601F023
:10059000FFFFB8B10421284601F0FAFFA0B1022103
:1005A000284601F0F5FF88B10821284601F0F0FF48
:1005B00070B12021204601F0EBFF58B1072070BD3B
:1005C000012070BD022070BD032070BD042070BDED
:1005D000052070BD062070BD2DE9F8434FF400776B
:1005E0007D10874EDFF80C824FF6FF74072816D275
:1005F000DFE800F004172A3F5484C2003946404621
:1006000001F0DAFF30460400A0F10100FBD13946C9
:10061000404601F0D3FF3000A6F10106FBD1BDE852
:10062000F8834021404601F0C7FF30460400A0F1A6
:100630000100FBD14021404601F0C0FF35462E00AD
:10064000A5F10105FBD1EAE78021404601F0B4FFA6
:1006500030460500A0F10100FBD18021404601F0A9
:10066000ADFF3000A6F10106FBD1002365A2009486
:10067000BAE02946404601F09FFF31460800A1F14B
:100680000101FBD12946404601F098FF3000A6F158
:100690000106FBD11F2360A20094A5E04021404643
:1006A00001F08AFF8021404601F086FFA9462946D5
:1006B000404601F081FF3946404601F07DFF30465B
:1006C0000500A0F10100FBD140214546404601F064
:1006D00075FF8021284601F071FF4946284601F048
:1006E0006DFF3946284601F069FF3000A6F101068A
:1006F000FBD14FF478434DA2009475E04021404671
:1007000001F05AFF31460800A1F10101FBD140215F
:10071000404601F053FF8021404601F04DFF314635
:100720000800A1F10101FBD18021404601F046FF04
:100730004FF4FC6342A200218420009401F0B2FD3A
:100740002946404601F038FF31460800A1F1010179
:10075000FBD129464546404601F030FF3946284640
:1007600001F02AFF3400A6F10106FBD139462846E4
:10077000BDE8F84301F022BFB94639464746404636
:1007800001F01AFF31460800A1F10101FBD14946F1
:10079000384601F013FF2946384601F00DFF314677
:1007A0000800A1F10101FBD12946384601F006FFFE
:1007B0008021384601F000FF30460500A0F101001D
:1007C000FBD18021384601F0F9FE4021384601F086
:1007D000F3FE3100A6F10106FBD14021384601F0BD
:1007E000EDFE23461BA200940021842001F05AFD57
:1007F00015E700000014024000000240000802401B
:10080000FFFF1F004B657920274127205072657339
:1008100073656421000000004B6579202742272082
:100820005072657373656421000000004B65792088
:100830002743272050726573736564210000000010
:100840004B657920274427205072657373656421B6
:100850000000000020202020202020202020202018
:100860002020202000000000034A02EB0111A1F526
:100870000071102202F0E2BD423600081CB50121D1
:10088000582002F091F90121084602F0A3F90C2248
:100890000021FF4C204601F09EFE0C220121204643
:1008A00001F099FE0C220421204601F094FE0C2256
:1008B0000521204601F08FFE0C220821204601F080
:1008C0008AFE0C220921204601F085FE0C220A2115
:1008D000204601F080FE0C220E21204601F07BFE16
:1008E0000C220F21204601F076FE02218DF8041023
:1008F0008DF8051000214CF233708DF80610009031
:100900008DF807106946204601F0F4FDE14C0C22F9
:100910000221204601F05FFE0C220721204601F053
:100920005AFE0C220821204601F055FE0C22092116
:10093000204601F050FE0C220A21204601F04BFE19
:100940000C220B21204601F046FE0C2211462046C7
:1009500001F041FE0C220D21204601F03CFE0C224C
:100960000E21204601F037FE0C220F21204601F017
:1009700032FE4FF6847100916946204601F0BAFDBF
:10098000C54C0C220521204601F025FE0C22114603
:10099000204601F020FE0C220D21204601F01BFE16
:1009A00043F2200100916946204601F0A3FD1CBDE1
:1009B000002240F2754306E00021491C89B29942A9
:1009C000FBD3521C92B28242F6D370472DE9F05FFE
:1009D000B24CFFF753FF641EFDD201F086FC4FF0CE
:1009E000DE43AF4A00201880DFF8B8C2BCF8000030
:1009F0005080A0F513414FF4807440F2272840F254
:100A0000077540F23F164FF4887B253901D0C91E87
:100A10007ED1012010701021E72002F003FE012199
:100A2000002002F0FFFD2146012002F0FBFD4FF403
:100A3000E061022002F0F6FD41F23001032002F0F5
:100A4000F1FD0021042002F0EDFD40F20721082015
:100A500002F0E8FD0021092002F0E4FD00210A2057
:100A600002F0E0FD01210C2002F0DCFD00210D2050
:100A700002F0D8FD00210F2002F0D4FD002110204B
:100A800002F0D0FD0721112002F0CCFD0021122040
:100A900002F0C8FD0021132002F0C4FD3220FFF750
:100AA00087FF41F29051102002F0BCFD4146112019
:100AB00002F0B8FD3220FFF77BFF9C21122002F0EC
:100AC000B1FD3220FFF774FF4FF4C851132002F03C
:100AD000A9FD2321292002F0A5FD0E212B2002F0E3
:100AE000A1FD3220FFF764FF0021202002F09AFDD3
:100AF0000021212002F096FD3220FFF759FF072147
:100B0000302002F08FFD2946312002F08BFD00E0FD
:100B100080E00621322002F085FD40F2047135208C
:100B200002F080FD41F60471362002F07BFD0421C5
:100B3000372002F077FD0021382002F073FD40F2EB
:100B40000671392002F06EFD40F201713C2002F086
:100B500069FD0F213D2002F065FD3220FFF728FFDF
:100B60000021502002F05EFDEF21512002F05AFDDD
:100B70000021522002F056FD3146532002F052FD72
:100B80004FF42741602002F04DFD0121612002F069
:100B900049FD00216A2002F045FD0021802002F07D
:100BA00041FD0021812002F03DFD0021822002F064
:100BB00039FD0021832002F035FD0021842002F060
:100BC00031FD0021852002F02DFD1021902002F042
:100BD00029FD0021922002F025FD0321932002F03F
:100BE00021FD5946952002F01DFD0021972002F0BD
:100BF00019FD0021982002F015FD40F23311072065
:100C000002F010FD0021202002F00CFD0021212027
:100C100001F0FCB9A0F5134120397ED0B0F5134F97
:100C2000FBD04FF40177113978D10320107041F2D5
:100C30001401E72002F0F6FC2146012002F0F2FC4C
:100C4000391F022002F0EEFC41F23001032002F0D5
:100C5000E9FCB91E082002F0E5FC0021092002F0A1
:100C6000E1FC00210A2002F0DDFC00210C2002F052
:100C7000D9FC00210D2002F0D5FC00210F2002F04C
:100C8000D1FC0021102002F0CDFC072111200BE047
:100C9000000C02400010024000180240FFFF1F003D
:100CA000040000200000016F02F0BCFC00211220B3
:100CB00002F0B8FC0021132002F0B4FCC820FFF7BA
:100CC00077FE41F29061102002F0ACFC4146112009
:100CD00002F0A8FC3220FFF76BFE0C21122002F07C
:100CE000A1FC3220FFF764FE4FF40061132002F0F4
:100CF00099FC1121292002F095FC0B212B2002F0F8
:100D000091FC3220FFF754FE0021202002F08AFCE3
:100D10000021212002F086FC01E07AE01EE10021A2
:100D2000302002F07FFC4FF483742146312002F022
:100D300079FC0021322002F075FC3946352002F0A2
:100D400071FC41F20A61362002F06CFC2946372022
:100D500002F068FC2146382002F064FC2946392064
:100D600002F060FC40F202413C2002F05BFC40F6E5
:100D70000F413D2002F056FC0021502002F052FCB1
:100D8000EF21512002F04EFC0021522002F04AFCDB
:100D90003146532002F046FC4FF41C51602002F013
:100DA00041FC0121612002F03DFC00216A2002F09B
:100DB00039FC0021802002F035FC0021812002F066
:100DC00031FC0021822002F02DFC0021832002F062
:100DD00029FC0021842002F025FC0021852002F05E
:100DE00021FC1021902002F01DFC4FF4C0619220E4
:100DF00002F018FC2121072002F014FC3220FFF73A
:100E0000D7FD6121072002F00DFC3220FFF7D0FD55
:100E1000F6E300201070014602F004FC2146012098
:100E200002F000FC4FF4E061022002F0FBFB41F213
:100E30001801032002F0F6FB0021042002F0F2FB6F
:100E400040F20221082002F0EDFB0021092002F00F
:100E5000E9FB00210A2002F0E5FB01210C2002F051
:100E6000E1FB00210D2002F0DDFB00210F2002F04C
:100E7000D9FB6420FFF79CFD40F20111072002F02E
:100E8000D1FB6420FFF794FD4FF48651102002F04F
:100E9000C9FB0721112002F0C5FB5C465946122010
:100EA00002F0C0FB4FF43061132002F0BBFB0021C5
:100EB000292002F0B7FB44F210012B2002F0B2FB14
:100EC0000021502002F0AEFBEF21512002F0AAFBDE
:100ED0000021522002F0A6FB3146532002F0A2FB73
:100EE0004FF41C51602002F09DFB0121612002F0B3
:100EF00099FB00216A2002F095FB0021802002F07E
:100F000091FB0021812002F08DFB0021822002F064
:100F100089FB0021832002F085FB0021842002F060
:100F200081FB0021852002F07DFB1021902002F042
:100F300079FB0021922002F075FB0121932002F041
:100F400071FB2146952002F06DFB0021972002F0F5
:100F500069FB00219820FEE3072059E6A0F519411E
:100F600040F2055919397DD10D2010700621282035
:100F700002F058FB0121002002F054FB0021102058
:100F800002F050FB47F2EF21012002F04BFB4FF43F
:100F9000C061022002F046FB46F63821032002F031
:100FA00041FB46F67401112002F03CFB00210F20AA
:100FB00002F038FB45F208310B2002F033FB03212D
:100FC0000C2002F02FFB0A210D2002F02BFB4FF426
:100FD00038510E2002F026FBBE211E2002F022FB1B
:100FE0004FF40041252002F01DFB4FF4F041262074
:100FF00002F018FB7821272002F014FB00214E207C
:1010000002F010FB00214F2002F00CFB40F6D9014A
:10101000122002F007FB0021302002F003FB4FF406
:101020008271312002F0FEFA2146322002F0FAFAF3
:1010300040F205342146332002F0F4FA49463420C8
:1010400002F0F0FA2146352002F0ECFA294636206B
:1010500002F0E8FA611F372002F0E4FA4FF49051F1
:101060003A2000E008E002F0DDFA4FF400613B2096
:1010700002F0D8FA33216FE7A0F5A851053901D065
:1010800048457ED1092010700021072002F0CAFADD
:101090003220FFF78DFC4FF48E71122002F0C2FA5D
:1010A0000121A42002F0BEFA0F21082002F0BAFAB2
:1010B00008210A2002F0B6FA08210D2002F0B2FA47
:1010C0002946302002F0AEFA0721312002F0AAFAB8
:1010D00040F20361322002F0A5FA4FF4E06739468E
:1010E000332002F09FFA40F20221342002F09AFAF3
:1010F0000221352002F096FA41F60F71362002F0F7
:1011000091FA2946372002F08DFA0021382002F0AA
:1011100089FA0021392002F085FA29463A2002F0A6
:1011200081FA00213B2002F07DFA07213C2002F0E9
:1011300079FA00213D2002F075FA3220FFF738FCE1
:101140000121072002F06EFA0121172002F06AFA4D
:101150003220FFF72DFC4FF4BD51102002F062FA4F
:1011600040F21721112002F05DFA4FF48F71122026
:1011700002F058FA4FF47061132002F053FA002184
:1011800000E089E02A2002F04DFA0A21292002F02D
:1011900049FA4FF49F71122002F044FA00215020C6
:1011A00002F040FAEF21512002F03CFA00215220D7
:1011B00002F038FA3146532002F034FA4FF41C5151
:1011C000602002F02FFA0121612002F02BFA0021A9
:1011D0006A2002F027FA0021802002F023FA002181
:1011E000812002F01FFA0021822002F01BFA002168
:1011F000832002F017FA0021842002F013FA002164
:10120000852002F00FFA1321902002F00BFA4FF420
:101210004071922002F006FA0521932002F002FAB2
:101220000021952002F0FEF90021972002F0FAF942
:101230000021982002F0F6F92146012002F0F2F98F
:101240003946022002F0EEF941F23001032002F0AB
:10125000E9F90021042002F0E5F900210C2002F058
:10126000E1F900210F2002F0DDF90021202002F039
:10127000D9F90021212002F0D5F92121072002F01F
:10128000D1F9C820FFF794FB6121072002F0CAF9C9
:10129000C820FFF78DFB9EE2A0F5094140F20258FD
:1012A00040F2023A89397ED10520107001210020D8
:1012B00002F0B8F93220FFF77BFB4AF6A4010320C5
:1012C00002F0B0F93220FFF773FB00210C2002F08E
:1012D000A9F93220FFF76CFB40F60C010D2002F05B
:1012E000A1F93220FFF764FB4FF42C510E2002F0DD
:1012F00099F93220FFF75CFBB0211E2002F092F931
:101300003220FFF755FB42F63F31012002F08AF907
:101310003220FFF74DFB4FF4C061022002F082F94A
:101320003220FFF745FB0021102002F07BF932202C
:10133000FFF73EFB46F27001112002F073F93220F4
:10134000FFF736FB0021052002F06CF93220FFF791
:101350002FFB0021062002F065F93220FFF728FB61
:101360004EF61C71162002F05DF93220FFF720FBCB
:101370000321172002F056F93220FFF719FB40F243
:101380003311072002F04EF93220FFF711FB002144
:101390000B2002F047F93220FFF70AFB00210F2053
:1013A00002F040F900E0A8E03220FFF701FB002145
:1013B000412002F037F93220FFF7FAFA00214220EB
:1013C00002F030F93220FFF7F3FA0021482002F052
:1013D00029F93220FFF7ECFA3146492002F022F9D0
:1013E0003220FFF7E5FA00214A2002F01BF93220F3
:1013F000FFF7DEFA00214B2002F014F93220FFF74C
:10140000D7FA4FF46F41442002F00CF93220FFF775
:10141000CFFA0021452002F005F93220FFF7C8FA83
:101420003146462002F0FEF83220FFF7C1FA294685
:10143000302002F0F7F83220FFF7BAFA39463120AF
:1014400002F0F0F83220FFF7B3FA3946322002F00A
:10145000E9F83220FFF7ACFA44464146332002F067
:10146000E1F83220FFF7A4FA40F20751342002F0ED
:10147000D9F83220FFF79CFA3946352002F0D2F82D
:101480003220FFF795FA3946362002F0CBF83220A9
:10149000FFF78EFA2146372002F0C4F83220FFF71A
:1014A00087FA544651463A2002F0BCF83220FFF742
:1014B0007FFA21463B2002F0B5F83220FFF778FA98
:1014C0000021232002F0AEF83220FFF771FA00214C
:1014D000242002F0A7F83220FFF76AFA4FF4004107
:1014E000252002F09FF83220FFF762FA00214F20FA
:1014F00002F098F800214E202FE5A0F50941993916
:101500007DD1042010700621282002F08BF80121E3
:10151000002002F087F84AF6A461032002F082F866
:1015200004210C2002F07EF80C210D2002F07AF844
:101530004FF420510E2002F075F8B5211E2002F064
:1015400071F843F63F31012002F06CF84FF4C061AE
:10155000022002F067F80021102002F063F846F63E
:101560003001112002F05EF80021052002F05AF847
:101570000021062002F056F84EF61C71162002F0EB
:1015800051F83321072002F04DF800210B2002F022
:1015900049F800210F2002F045F80021412002F017
:1015A00041F80021422002F03DF80021482002F0DD
:1015B00039F83146492002F035F800214A2002F07E
:1015C00031F800214B2002F02DF84FF46F414420F8
:1015D00002F028F80021452002F024F83146462088
:1015E00002F020F800214E2002F01CF800214F20CC
:1015F00002F018F82946302002F014F801E042E029
:10160000FEE240F20221312002F00CF8394632208D
:1016100002F008F844464146332002F003F840F255
:101620000751342001F0FEFF3946352001F0FAFF62
:101630003946362001F0F6FF2146372001F0F2FF4F
:10164000544651463A2001F0EDFF21463B2001F07F
:10165000E9FF0021232001F0E5FF0021242001F013
:10166000E1FF4FF40041252001F0DCFF4FF4E041A1
:10167000262001F0D7FF4BF2EB01202001F0D2FF32
:101680007C21272069E4A0F5A84108397ED10820F3
:1016900010702146012001F0C5FF4FF4E0610220E7
:1016A00001F0C0FF41F23001032001F0BBFF002137
:1016B000042001F0B7FF40F20721082001F0B2FF3B
:1016C0000021092001F0AEFF00210A2001F0AAFF4D
:1016D00000210C2001F0A6FF00210D2001F0A2FF47
:1016E00000210F2001F09EFF3220FFF761F940F248
:1016F0000111072001F096FF3220FFF759F941F25E
:10170000B061102001F08EFF0121112001F08AFF4D
:101710000121172001F086FF4FF49C71122001F087
:1017200081FF4FF40061132001F07CFF0921292083
:1017300001F078FF09212A2001F074FF0021A42084
:1017400001F070FF0021502001F06CFFEF215120CB
:1017500001F068FF00E03CE00021522001F062FF50
:101760003146532001F05EFF4FF41C51602001F020
:1017700059FF0321612001F055FF00216A2001F08B
:1017800051FF0021802001F04DFF00E026E0002104
:10179000812001F047FF0021822001F043FF00215A
:1017A000832001F03FFF0021842001F03BFF002156
:1017B000852001F037FF1321902001F033FF002135
:1017C000922001F02FFF0321932001F02BFF5946B7
:1017D000952001F027FF40F273114CE4A0F58A41F7
:1017E00031397ED1072010700121002001F01AFF4D
:1017F0004FF4C561102001F015FF0621122001F001
:1018000011FF40F63221132001F00CFF402111207E
:1018100001F008FF5021152001F004FF16211220CD
:1018200001F000FF3220FFF7C3F845F2606110209D
:1018300001F0F8FE3220FFF7BBF842F64E211320EC
:1018400001F0F0FE2146012001F0ECFE4FF4407162
:10185000022001F0E7FE41F23001032001F0E2FE38
:1018600040F20221082001F0DDFE00210A2001F0F3
:10187000D9FE0021302001F0D5FE40F20241312096
:1018800001F0D0FE4FF48371322001F0CBFE4FF413
:10189000E061332001F0C6FE4FF48271342001F084
:1018A000C1FE40F20131352001F0BCFE2946362050
:1018B00001F0B8FE40F20531372001F0B3FE4FF4DD
:1018C0000271382001F0AEFE40F60B71392001F0B4
:1018D000A9FE3220FFF76CF80221412001F0A2FEA0
:1018E00000E028E04FF41C51602001F09BFE012134
:1018F000612001F097FE40F21911902001F092FE54
:101900004FF48571922001F08DFE0421932001F0A7
:1019100089FE2146A02001F085FE3220FFF748F81D
:1019200040F23311072001F07DFE3220FFF740F82E
:101930000021A0206AE3A0F58A4135397ED10C2030
:1019400010703021152001F06DFE10219A2001F059
:1019500069FE2021112001F065FE43F2284110208C
:1019600001F060FE0221122001F05CFE41F238011C
:10197000132001F057FE2820FFF71AF8122108461D
:1019800001F050FE2820FFF713F843F22041102009
:1019900001F048FE43F24501132001F043FE4620CA
:1019A000FFF706F80021302001F03CFE40F2024132
:1019B000312001F037FE40F20731322001F032FED3
:1019C0004FF44171332001F02DFE0421342001F049
:1019D00029FE40F20141352001F024FE294636203F
:1019E00001F020FE40F20531372001F01BFE4FF4DC
:1019F000C2652946382001F015FE2946392001F03C
:101A000011FE2146012001F00DFE4FF4407102202D
:101A100001F008FE41F23001032001F003FE40F620
:101A20000801082001F0FEFD08210A2001F0FAFD5E
:101A30004FF41C51602001F0F5FD00E028E0012189
:101A4000612001F0EFFD4FF49F71902001F0EAFD5D
:101A50002146922001F0E6FD2146932001F0E2FDAF
:101A60004FF44051A02001F0DDFD1021A32001F032
:101A7000D9FD0121072001F0D5FD2121072001F02A
:101A8000D1FD2321072001F0CDFD33210720B5E052
:101A900047287ED0A0F5EE4183397BD10620107017
:101AA0000121FF2001F0BEFD0821F32001F0BAFD65
:101AB0002146012001F0B6FD4FF4E061022001F063
:101AC000B1FD41F23001032001F0ACFD5146082088
:101AD00001F0A8FD40F20721082001F0A3FD00213C
:101AE000092001F09FFD00210A2001F09BFD00214B
:101AF000102001F097FD0521112001F093FD002138
:101B0000122001F08FFD0021132001F08BFD322007
:101B1000FEF74EFF41F2B021102001F083FD32208C
:101B2000FEF746FF0721112001F07CFD3220FEF771
:101B30003FFF8B21122001F075FD3220FEF738FFA8
:101B40004FF4B851132001F06DFD3220FEF730FF45
:101B50002221292001F066FD0021302001F062FDE4
:101B60002946312001F05EFD4946322001F05AFD40
:101B700040F20711352001F055FD0821362001F013
:101B800051FD0021372001F04DFD40F20224214695
:101B900001E038E017E1382001F044FD4FF4837193
:101BA000392001F03FFD21463C2001F03BFD4FF480
:101BB00081613D2001F036FD3220FEF7F9FE002163
:101BC000502001F02FFDEF21512001F02BFD0021CD
:101BD000522001F027FD3146532001F023FD4FF440
:101BE0002741602001F01EFD0121612001F01AFD56
:101BF0003321902001F016FD0B212B2001F012FD66
:101C000040F23311E9E50A2010700021EA2001F0CA
:101C100009FD2021EB2001F005FD0C21EC2001F055
:101C200001FDC421ED2001F0FDFC4021E82001F080
:101C3000F9FC3821E92001F0F5FC0121F12001F047
:101C4000F1FC1021F22001F0EDFCA321272001F08E
:101C5000E9FC0121402001F0E5FC0021412001F0D8
:101C6000E1FC0021422001F0DDFC1021432001F0C5
:101C7000D9FC0E21442001F0D5FC2421452001F09F
:101C8000D1FC0421462001F0CDFC5021472001F079
:101C9000C9FC0221482001F0C5FC1321492001F0B4
:101CA000C1FC19214A2001F0BDFC19214B2001F093
:101CB000B9FC16214C2001F0B5FC1B21502001F08D
:101CC000B1FC3121512001F0ADFC2F21522001F057
:101CD000A9FC3F21532001F0A5FC3F21542001F035
:101CE000A1FC3E21552001F09DFC2F21562001F042
:101CF00099FC7B21572001F095FC0921582001F027
:101D000091FC0621592001F08DFC06215A2001F09A
:101D100089FC0C215B2001F085FC1D215C2001F079
:101D200081FCCC215D2001F07DFC18211B2001F0FD
:101D300079FC01211A2001F075FC1521242001F005
:101D400071FC5021252001F06DFC8B21232001F036
:101D500069FC3621182001F065FC0121192001F0F1
:101D600061FC0021012001F05DFC88211F2001F0B1
:101D700059FC3220FEF71CFE80211F2001F052FC8E
:101D80003220FEF715FE90211F2001F04BFC32207F
:101D9000FEF70EFED0211F2001F044FC3220FEF79A
:101DA00007FE0521172001F03DFC0021362001F03F
:101DB00039FC3821282001F035FC3220FEF7F8FDEF
:101DC0003C21282022E167201880BCF800005080C8
:101DD00047287ED10B2010700821422001F022FC00
:101DE000B421462001F01EFC4321472001F01AFCDB
:101DF0001321482001F016FC4721492001F012FC74
:101E000014214A2001F00EFC36214B2001F00AFC7F
:101E100003214C2001F006FC46214D2001F002FC7C
:101E200005214E2001F0FEFB10214F2001F0FAFBAE
:101E30000821502001F0F6FB0A21512001F0F2FBAD
:101E40000021022001F0EEFB0021032001F0EAFB5B
:101E50000021042001F0E6FBEF21052001F0E2FB68
:101E60000021062001F0DEFB0021072001F0DAFB53
:101E70000121082001F0D6FB3F21092001F0D2FB0F
:101E80000A20FEF795FD0621012001F0CBFBC821B9
:101E9000162001F0C7FB9521232001F0C3FB9521FB
:101EA000242001F0BFFBFF21252001F0BBFB022114
:101EB000272001F0B7FB0221282001F0B3FB02210B
:101EC000292001F0AFFB02212A2001F0ABFB022107
:101ED00000E09DE02C2001F0A5FB02212D2001F067
:101EE000A1FB01213A2001F09DFB01213B2001F0E3
:101EF00099FBF0213C2001F095FB00213D2001F0F1
:101F000091FB1420FEF754FD3821352001F08AFBA7
:101F10007821362001F086FB38213E2001F082FB3B
:101F20000F21402001F07EFBF021412001F07AFBDF
:101F30000021382001F076FB4921192001F072FBC5
:101F40000A21932001F06EFB0A20FEF731FD2021CB
:101F5000084601F067FB03211D2001F063FB00210F
:101F60001E2001F05FFB09211F2001F05BFB5321C4
:101F7000442001F057FB1021452001F053FB0A20BB
:101F8000FEF716FD04211C2001F04CFB1420FEF787
:101F90000FFD8021432001F045FB0520FEF708FDE1
:101FA0000A211B2001F03EFB2820FEF701FD122133
:101FB0001B2001F037FB2820FEF7FAFC7F21902040
:101FC00001F030FB0421262001F02CFB2820FEF735
:101FD000EFFC2421262001F025FB2C21262001F0F6
:101FE00021FB2820FEF7E4FC0821702001F01AFBF9
:101FF0003C21262001F016FB0221572001F012FBA4
:102000000021552001F00EFB0021572001F00AFBB2
:10201000BDE8F05F3220FEF7CBBC70B50546C64880
:10202000C1F1EF018CB20078001F0A2806D2DFE868
:1020300000F00C0C0505050513130525214620208D
:1020400001F0F0FA2946212014E021464E2001F04B
:10205000E9FA29464F200DE0210A022001F0E2FAB8
:102060002146032001F0DEFA290A062001F0DAFAFF
:1020700029460720BDE8704001F0D4BA70BD70B5A4
:102080000546AD48002400780A2811D00B280FD04F
:1020900000210846FFF7C1FF4FF0DE4122200880F3
:1020A000A6484FF496310580641C8C42FBD370BD6A
:1020B0000021022001F0B6FA0021032001F0B2FA5B
:1020C0000021042001F0AEFAEF21052001F0AAFA68
:1020D0000021062001F0A6FA0021072001F0A2FA53
:1020E0000121082001F09EFA3F21092001F09AFA0F
:1020F000D2E710B5FFF791FF4FF0DE4122200880B4
:102100008D4801788D48091F092917D2DFE801F0B1
:10211000050505051616080805000188008810BD8C
:102120000188C1F3C70201880088C908C0F387008D
:10213000C90241EA4010104380B210BD01880088F6
:10214000C0F34511C20AC00200EB41101044F3E78E
:1021500010B51446B0F5A07F09D2F02907D2FFF7D9
:102160005CFF2146BDE81040222001F05BBA10BDA3
:102170002DE9F0470446DDF820A00D46904699462B
:102180001046944201D9A04684B218469D4201D916
:10219000894685B2A8EB0400A9EB050100B20EB296
:1021A00058B1AEB1B04231DDC0EB46010FB27100A3
:1021B000404201EB4000814625E052462946204638
:1021C000FFF7C6FF6D1CADB2A945F6D2BDE8F0879A
:1021D000524629462046FFF7BBFF641CA4B2A04527
:1021E000F6D2F3E7524629462046FFF7B1FF641CBA
:1021F000A4B2002F04DD6D1CADB209EB070001E0B5
:1022000007EB460007B24445ECD11BE0C6EB4001AA
:102210000FB27100404201EB4000804610E0524690
:1022200029462046FFF794FF6D1CADB2002F04DD58
:10223000641CA4B208EB070001E007EB460007B2FC
:102240004D45ECD1524629462046BDE8F0477FE790
:102250002DE9FF5F0746894611469B466846FEF713
:1022600003FB0025EA4600241AF8050009EB0506E1
:102270008046C4F1070128FA01F0C00707EB04000B
:10228000B1B280B201D05A4600E00E9AFFF760FF6B
:10229000641CA4B2082CECD36D1CADB2102DE2D39B
:1022A000BDE8FF9F2DE9F8430446089F0D461646FA
:1022B00099464FF49C7816F8012B4B462946204648
:1022C0000097FFF7C5FF444502D20834A4B207E0E7
:1022D000E02D4FF0000402D21035ADB200E0002531
:1022E00030780028E7D1BDE8F88300B597B0062024
:1022F000009000201021CDE9020104900902019014
:10230000CDE90801069007900A900FA905900F22C9
:102310000B90CDE90C01CDE90F20CDE911201390F0
:10232000149015900E91684600F03CFD01210620A6
:1023300000F0C9FD17B000BD040000200000016FCF
:102340000948804709480047FEE7FEE7FEE7FEE749
:10235000FEE7FEE7FEE7FEE7FEE7FEE70448054985
:10236000054A064B70470000093200088501000845
:102370009000002090060020900200209002002093
:102380002849084328490860704770B50F24C2786F
:1023900001784FF0E0230126EAB1D3F80C2D19445F
:1023A00002F4E062C2F5E062C2F30722C2F1040562
:1023B000D4404278AA408578254015432A0181F807
:1023C0000024007800F01F018E40400903EB8000DC
:1023D000C0F8006170BD01F01F008640480903EBA2
:1023E0008000C0F8806170BD104A11400143104860
:1023F000016070474FF0E0220029D2F8101D01D093
:10240000014300E08143C2F8101D70474FF0E02106
:102410000428086903D020F004000861704740F0E8
:102420000400FAE70000FA050CED00E080FFFF1F52
:1024300008ED00E0704910B5884206D10121084638
:1024400000F0E9FB002101204FE06C49884206D1F1
:102450000121022000F0DFFB0021022045E0684955
:10246000884206D10121042000F0D5FB0021042080
:102470003BE06449884206D10121082000F0CBFBF3
:102480000021082031E06049884206D10121102056
:1024900000F0C1FB0021102027E05C49884206D1F2
:1024A0000121202000F0B7FB002120201DE0584929
:1024B000884206D10121402000F0ADFB00214020E0
:1024C00013E05449884206D10121802000F0A3FB8B
:1024D0000021802009E0504988420AD18415012159
:1024E000204600F098FB00212046BDE8104000F097
:1024F00092BB10BDF0B5002201264FF0030C0C6812
:1025000006FA02F31C409C422DD1056853000CFAD8
:1025100003F4A54305600D7907689D403D430560C0
:102520000D79012D01D0022D12D18568A54385605A
:102530004C7985689C402C438460446806FA02F517
:10254000AC43446044688D799540ADB22C434460FF
:10255000C46855000CFA05F7BC43C460CC799C40B4
:10256000C3681C43C460521C102AC8D3F0BD4FF688
:10257000FF7101600021017141718171C17170476A
:1025800041F48032C261C161C261C169C0697047F2
:102590000246002012690A4200D0012070470069FB
:1025A00080B270470246002052690A4200D00120E2
:1025B0007047406980B2704701837047418370471C
:1025C0000AB1018370474183704741617047426996
:1025D0004A40426170474B07DB0E9A40C90810B56C
:1025E00000EB8100016A0F249C40A1430162016A53
:1025F0001143016210BD00000000024000040240CF
:1026000000080240000C024000100240001402408A
:1026100000180240001C024000200240CA4910B5C8
:10262000884206D10121102000F021FB002110205A
:1026300028E0C649884202D101214C0410E0C44977
:10264000884202D101218C040AE0C249884202D1A9
:102650000121CC0404E0C04988420AD101210C05C3
:10266000204600F0F9FA2046BDE81040002100F0B5
:10267000F3BABA49884209D10121202000F0F7FAC3
:1026800000212020BDE8104000F0F1BA10BD7FB558
:102690000446008A0D4620F44051E8880843208211
:1026A000A18941F20C608143A8882A8910436A8974
:1026B0000A431043A081A08A20F44071A8890843EE
:1026C000A082684600F004FA9F48844202D0A348E2
:1026D000844201D1039800E00298A18909040029ED
:1026E00000EBC00101EB0010296802DA4FEA41015A
:1026F00001E04FEA8101B0FBF1F06422B0FBF2F19E
:102700004FEA01114FEA11136FF018056B4300EB0C
:102710008300A3891D044FF0320306D503EBC000EC
:10272000B0FBF2F000F0070005E003EB0010B0FB97
:10273000F2F000F00F00084320817FBD4FF41651E6
:10274000016000218180C18001810C224281818150
:10275000704710B5028A4C8822F470630A882243BD
:102760008C88C9880C4322431A43028210BD002181
:10277000018041808180C18070470029818902D019
:1027800041F4005101E021F4005181817047028B36
:1027900002F47F420283028B0A43028370470029BE
:1027A000818902D041F4004101E0C1F30E01818131
:1027B00070470029818A02D041F4006101E021F4D0
:1027C000006181827047C1F3080181807047808871
:1027D000C0F308007047028A22F00F020282028AC8
:1027E0000A43028270470029818902D041F0020128
:1027F00001E021F0020181817047828922F40062A8
:10280000828182890A4382817047028A22F02002F3
:102810000282028A0A43028270470029018A02D09A
:1028200041F4804101E021F48041018270478189B7
:1028300041F00101818170470029818A02D041F075
:10284000080101E021F0080181827047028BD2B2B9
:102850000283028B42EA0121018370470029818AA9
:1028600002D041F0200101E021F020018182704777
:102870000029818A02D041F0100101E021F010010D
:1028800081827047828A22F004028282828A0A430D
:10289000828270470029818A02D041F0020101E062
:1028A00021F0020181827047002A828A01D00A4306
:1028B00000E08A438282704710B5C1F3421301F0F1
:1028C0001F040121A140012B07D0022B07D0143097
:1028D000002A026805D00A4304E00C30F8E7103003
:1028E000F6E78A43026010BD0246002012880A42C1
:1028F00000D001207047C9430180704770B501F0D6
:102900001F0601250024C1F3421305FA06F2012B2C
:102910000FD0022B0FD0838A4FEA11210088134277
:1029200005FA01F500EA050001D000B101242046B6
:1029300070BD8389F0E7038AEEE70A0A012191401E
:10294000C94301807047000000100140004400406E
:1029500000480040004C004000500040001401407E
:10296000F248016841F0010101604FF0000181600F
:102970000268EF4B02EA03020260EE4A426002681C
:1029800022F480220260C1607047EB4900220A7085
:1029900008707047034600205909E84A01290BD006
:1029A00002290CD0D2F8741803F01F0201239340BF
:1029B0000B4200D001207047D2F80018F4E7D2F89B
:1029C0007018F1E730B500244FF4A0653120FFF70F
:1029D000E1FF641CAC4201D00028F7D03120FFF7A2
:1029E000D9FF002800D0012030BDD04A116821F065
:1029F000F80141EAC00010607047D1490860704793
:102A0000CE49002281F8702881F87028012802D070
:102A1000042802D1052081F870087047C949086070
:102A2000704741EA82115A0810B5C74B029C03EB6C
:102A300002421143014341EA0460C449086010BDE9
:102A4000BF4908667047800140EA0170C0490860CC
:102A50007047BB4988667047B949C8647047BD4B29
:102A60001A6840EA010022F0EC6240EA02001860B5
:102A70007047B84B1A6840EA010022F0784240EAF9
:102A8000020018607047B34A116821F0030141EA5F
:102A9000000111607047AF48006800F00C007047FB
:102AA000AC4A116821F0F00141EA00011160704761
:102AB000A84A116821F4E05141EA00011160704711
:102AC000A44A116821F4604141EAC00010607047D7
:102AD00030B59A4AD2F808189F4B11F00C0104D077
:102AE0009E4D042903D0082903D003601DE0056032
:102AF0001BE0D2F80418C1F38054D2F8041801F096
:102B00003F0114B1B5FBF1F101E0B3FBF1F1D2F8F3
:102B10000438C3F388135943D2F80438C3F301438C
:102B20005B1C5B00B1FBF3F1016002F60802116867
:102B30008B4B01F0F0014FEA11115C5C016821FA46
:102B400004F14160146804F4E0544FEA94241C5DDD
:102B500021FA04F48460126802F460424FEA5232AF
:102B60009A5C21FA02F1C16030BDC0F30121734BC0
:102B7000032908D1D3F8081821F4F8127949014043
:102B80001143C3F80818D3F87018C0F30B000143C1
:102B9000C3F870187047744908607047734908603B
:102BA0007047734908607047644A0029D2F83018AA
:102BB00001D0014300E08143C2F8301870475F4AFA
:102BC0000029D2F8341801D0014300E08143C2F853
:102BD00034187047594A0029D2F8381801D00143F7
:102BE00000E08143C2F838187047544A0029D2F8EF
:102BF000401801D0014300E08143C2F840187047FB
:102C00004E4A0029D2F8441801D0014300E0814324
:102C1000C2F844187047494A0029D2F8101801D068
:102C2000014300E08143C2F810187047434A00296D
:102C3000D2F8141801D0014300E08143C2F81418FF
:102C400070473E4A0029D2F8181801D0014300E02D
:102C50008143C2F818187047384A0029D2F8201862
:102C600001D0014300E08143C2F820187047334A85
:102C70000029D2F8241801D0014300E08143C2F8B2
:102C8000241870472D4A0029D2F8501801D001436A
:102C900000E08143C2F850187047284A0029D2F852
:102CA000541801D0014300E08143C2F85418704722
:102CB000224A0029D2F8581801D0014300E081438C
:102CC000C2F8581870471D4A0029D2F8601801D080
:102CD000014300E08143C2F860187047174A002999
:102CE000D2F8641801D0014300E08143C2F86418AF
:102CF0007047124A002992F80D1801D0014300E0F4
:102D0000814382F80D1870471A48016841F08071BC
:102D100001607047184A0146002012680A4200D03C
:102D200001207047154908707047000000380240C4
:102D3000FFFFF6FE1030002402380240003002404F
:102D400000004742800E47420000FFFF0438024067
:102D500084380240083802400024F40040787D01A5
:102D600008000020FFFCFF0F3C0E4742400E474288
:102D70005C014742743802400C3802400E38024071
:102D80004FF0204202EB800140B143F2D2000860D4
:102D90006FF070404860C1F80401704743F2DB00F7
:102DA0001060F5E730B5D0E901121143D0E90323F3
:102DB0001A43114342690368114382691143C2698E
:102DC0001143026A1143426A1143826A1143C26A83
:102DD0001143026B11434FF0204242F823108168E7
:102DE000082906D1016802EB81010B6843F040031A
:102DF0000B60416BD1E9003443EA04138C68CD6861
:102E0000240244EA054423430C6943EA04534C6911
:102E1000896943EA04630B43016802EB81014B605B
:102E2000C16AB1F5804F07D000686FF0704102EBC6
:102E30008000C0F8041130BD816B0068D1E9003416
:102E400043EA04138C680D69240244EA05542343C1
:102E50004C69896943EA046302EB80000B43C0F8C4
:102E6000043130BD10B500210222C0E9001281609A
:102E7000C160016141618161D202C161C0E9081292
:102E80005200C0E90A210163436B0F221A60436BB1
:102E90005A60446BFF23A360446BE260446B226181
:102EA000446B6261446BA161846B2260846B6260DD
:102EB000846BA360836BDA60836B1A61836B5A61E6
:102EC000806B816110BD4FF0204202EB8000002931
:102ED000016802D041F0010101E0C94A11400160DE
:102EE000704710B5182340244FF020414FF0FC32BA
:102EF000102805D041F8803F4C608A60CA6010BD40
:102F00000B664C668A66CA6610BD30B5D0E9011200
:102F10001143D0E903231A431143426941EA422194
:102F2000826941EA423141F00804C169D1E90023D4
:102F300042EA03228B68C9681B0443EA01610A4321
:102F4000016AD1E9003543EA05238D68C9682D047B
:102F500045EA01610B4301684FF02040102904D07D
:102F600040F8804F8260C36030BD04668266C366ED
:102F700030BD10210160002141608160C1600161AC
:102F800041618161C269FC211160C2695160C269FD
:102F90009160C269D160026A1160026A5160026A7E
:102FA0009160006AC16070474FF0204251B1102813
:102FB00004D052F8800F40F004000AE0106E40F098
:102FC00004000AE08E49C91E102804D052F8800F70
:102FD000084010607047106E0840106670474FF050
:102FE000204251B1102804D052F8800F40F0400028
:102FF0000AE0106E40F040000AE081493F39102895
:1030000004D052F8800F084010607047106E0840DE
:10301000106670474FF02041102802D0D1F894007C
:103020007047486F70477748182101604FF00001E2
:1030300041604FF0FC318160C1600161704710B5A3
:10304000D0E9001241EA42218268102343EA423269
:1030500011436C4A1160C168D1E9003443EA04238A
:103060008C68C9684FEA044444EA016143EA0103F9
:1030700093600169D1E9003443EA04238C68C9688C
:103080004FEA044444EA016143EA0103D360406922
:10309000D0E9001341EA03218368C0684FEA034383
:1030A00043EA006041EA0001116110BD00210160A6
:1030B00041608160C268FC211160C2685160C268D1
:1030C0009160C268D1600269116002695160026951
:1030D00091600269D1604269116042695160426940
:1030E00091604069C160704746490028086802D075
:1030F00040F0040002E0424AD21E104008607047CF
:1031000010B54FF480744FF0204382B1102804D0E2
:10311000A04205D103F1840304E0586E08430FE098
:1031200003F1A403186840EA0100186010BD1028DC
:1031300004D0A04206D103F1840305E0586E884311
:10314000586610BD03F1A403186820EA0100ECE7FB
:10315000034600204FF02042102B08D0B3F5807FAB
:1031600007D0D2F8A4200A4200D001207047526E46
:10317000F9E7D2F88420F6E74FF02042102809D072
:10318000B0F5807F0AD002F1A402106820EA0100A5
:1031900010607047506E88435066704702F1840299
:1031A000F3E7034600204FF02042102B0CD0B3F57C
:1031B000807F0BD0D2F8A4200A4202EAD10102D0CB
:1031C000002900D001207047526EF5E7D2F8842024
:1031D000F2E74FF02042102809D0B0F5807F0BD0E5
:1031E00002F1A402106820EAD10010607047506E0E
:1031F00020EAD1005066704702F18402F2E7000035
:10320000FEFF0F00A00000A04E4810B5016841F07D
:10321000010101604FF00001816002684A4B02EA3F
:1032200003020260494A4260026822F4802202607E
:10323000C16000F040F84FF0E0214FF00060C1F8AD
:10324000080D10BD30B5424AD2F80808414B42493A
:1032500010F00C0004D0414D042803D0082803D0FE
:103260000B601DE00D601BE0D2F80408C0F3805431
:10327000D2F8040800F03F0014B1B5FBF0F001E013
:10328000B3FBF0F0D2F80438C3F388135843D2F8F4
:103290000438C3F301435B1C5B00B0FBF3F0086030
:1032A000D2F808082C4AC0F30310121D105C0A68FB
:1032B000C2400A6030BD26490020D1F8002842F4FF
:1032C0008032C1F800284FF4A063D1F8002800F143
:1032D000010012F4003F01D19842F6D1D1F8000864
:1032E00080032DD501F5006188688860886840F406
:1032F00000408860886840F4A050886018484860A2
:10330000086840F080700860A1F50061D1F80008FD
:103310008001FBD540F20370C1F8000CD1F8080819
:1033200020F00300C1F80808D1F8080840F00200B6
:10333000C1F80808D1F80808C0F381000228F9D1C3
:103340007047000000380240FFFFF6FE10300024F6
:10335000003002400024F4001800002040787D0175
:10336000193C4005704700000FB4044910B503AA8A
:10337000029800F0C3F810BC5DF814FB00000020B8
:103380002DE9F04104460E4600200AE0E16820469F
:10339000884738B3252806D0D4E901219047206A10
:1033A000401C2062F2E7E1682046002788470500BC
:1033B00018D0A5F14100192802D820354FF4006734
:1033C0003246294620462760FCF716FF40B1012807
:1033D00004D0F61D26F007060836D7E7361DD5E7D8
:1033E0002846D9E7206ABDE8F08170B505460C464D
:1033F000012A05D02868800600D5EA69002302E08A
:10340000012305E05B1C934202D2E05C0028F9D165
:10341000A869E618C01AA861286A184428622846D4
:10342000AFF3008004E0D5E9012114F8010B9047C7
:10343000B442F8D32846AFF3008070BD032A40F2AF
:10344000308010F0030C00F0158011F8013BBCF146
:10345000020F624498BF11F801CB00F8013B38BF5E
:1034600011F8013BA2F1040298BF00F801CB38BF6C
:1034700000F8013B11F0030300F05280083AC0F05D
:10348000088051F8043B083A51F804CBA0E8081032
:10349000F5E7121D5CBF51F8043B40F8043BAFF365
:1034A0000080D20724BF11F8013B11F801CB48BFBF
:1034B00011F8012B24BF00F8013B00F801CB48BFF5
:1034C00000F8012B7047704770477047704710B580
:1034D000436913B1AFF3008001E0FFF786FF0120DD
:1034E00010BD126800F124010A7000224A70012206
:1034F000EDE711684FF0FF32E9E70000074B70B5C8
:103500000C467B4400F043F80546204600F052F894
:1035100010B14FF0FF3070BD284670BD7BCFFFFF6C
:1035200010B5203AC0F00B80B1E81850203AA0E85E
:103530001850B1E81850A0E81850BFF4F5AF5FEA92
:10354000027C24BFB1E81850A0E8185044BF18C945
:1035500018C0BDE810405FEA827C24BF51F8043BEC
:1035600040F8043B08BF7047D20728BF31F8023B40
:1035700048BF11F8012B28BF20F8023B48BF00F8D4
:10358000012B704701694A1C02610878704700B539
:103590008FB0CDE901310021059105497944CDE98C
:1035A000031011466846FFF7EBFE0FB000BD0000A8
:1035B000E5FFFFFFC06800F080007047754600F02F
:1035C00029F8AE4605006946534620F007008546B7
:1035D00018B020B5FEF7C2FEBDE820404FF000064F
:1035E0004FF000074FF000084FF0000B21F00701EB
:1035F000AC46ACE8C009ACE8C009ACE8C009ACE82E
:10360000C0098D4670470446AFF300802046FCF7A2
:1036100007FE0000004870472C000020004870475B
:10362000300000204FF0DE421080014801807047DA
:103630000000016F10B5FFF7F1FF4FF000010160CE
:1036400010BD0000000000000000000000000000AD
:103650000000000000183C3C3C181800181800003E
:103660000000000000666666000000000000000028
:10367000000000000036367F3636367F36360000D2
:1036800000000018183C666030180C06663C1818DC
:103690000000000070D8DA760C18306E5B1B0E004C
:1036A0000000000000386C6C38606F66663B0000FC
:1036B00000000000001818180000000000000000C2
:1036C00000000000000C1818303030303018180C92
:1036D00000000000003018180C0C0C0C0C181830EE
:1036E00000000000000000361C7F1C3600000000B7
:1036F0000000000000000018187E181800000000EC
:103700000000000000000000000000001C1C0C185D
:103710000000000000000000007E0000000000002B
:103720000000000000000000000000001C1C000061
:10373000000000000006060C0C1818303060600015
:1037400000000000001E333737333B3B331E0000C0
:1037500000000000000C1C7C0C0C0C0C0C0C00007D
:1037600000000000003C6666060C1830607E000019
:1037700000000000003C6666061C0666663C000011
:1037800000000000003030363636667F0606000046
:1037900000000000007E6060607C06060C7800007F
:1037A00000000000001C18307C666666663C000065
:1037B00000000000007E060C0C18183030300000AD
:1037C00000000000003C6666763C6E66663C0000C9
:1037D00000000000003C666666663E0C183800007B
:1037E000000000000000001C1C0000001C1C000069
:1037F000000000000000001C1C0000001C1C0C1835
:103800000000000000060C18306030180C060000A4
:1038100000000000000000007E007E0000000000AC
:1038200000000000006030180C060C18306000002A
:1038300000000000003C66660C1818001818000014
:1038400000000000007EC3C3CFDBDBCFC07F0000E1
:103850000000000000183C6666667E666666000032
:1038600000000000007C6666667C6666667C000080
:1038700000000000003C666660606066663C000018
:103880000000000000786C66666666666C78000072
:1038900000000000007E6060607C6060607E000070
:1038A00000000000007E6060607C6060606000007E
:1038B00000000000003C666660606E66663E0000C8
:1038C0000000000000666666667E6666666600004A
:1038D00000000000003C181818181818183C0000C8
:1038E000000000000006060606060666663C0000AC
:1038F000000000000066666C6C786C6C6666000008
:10390000000000000060606060606060607E000039
:1039100000000000006363776B6B6B636363000000
:1039200000000000006363737B6F676363630000E4
:1039300000000000003C666666666666663C000045
:1039400000000000007C6666667C606060600000CD
:1039500000000000003C666666666666663C0C0613
:1039600000000000007C6666667C6C66666600008F
:1039700000000000003C666030180C06663C000049
:1039800000000000007E18181818181818180000F9
:10399000000000000066666666666666663C0000BB
:1039A0000000000000666666666666663C180000F9
:1039B00000000000006363636B6B6B3636360000FB
:1039C000000000000066663418182C666666000069
:1039D0000000000000666666663C181818180000B3
:1039E00000000000007E06060C183060607E0000BB
:1039F00000000000003C30303030303030303030AB
:103A00003C000000006060303018180C0C06060006
:103A100000000000003C0C0C0C0C0C0C0C0C0C0CF2
:103A20003C0000183C6600000000000000000000A0
:103A30000000000000000000000000000000000086
:103A4000FF0000000018181800000000000000002F
:103A5000000000000000003C06063E66663E0000D6
:103A6000000000000060607C66666666667C0000A0
:103A7000000000000000003C66606060663C0000E2
:103A8000000000000006063E66666666663E0000B0
:103A9000000000000000003C66667E60603C0000A4
:103AA00000000000001E3030307E3030303000002A
:103AB000000000000000003E66666666663E060680
:103AC0007C0000000060607C6666666666660000DA
:103AD000000000001818007818181818187E000048
:103AE000000000000C0C003C0C0C0C0C0C0C0C0C22
:103AF0007800000000606066666C786C66660000A6
:103B0000000000000078181818181818187E000017
:103B1000000000000000007E6B6B6B6B6B630000AD
:103B2000000000000000007C6666666666660000B5
:103B3000000000000000003C66666666663C00000F
:103B4000000000000000007C66666666667C6060BF
:103B5000600000000000003E66666666663E06067F
:103B600006000000000000666E706060606000008B
:103B7000000000000000003E60603C06067C000083
:103B8000000000000030307E30303030301E000049
:103B9000000000000000006666666666663E000083
:103BA0000000000000000066666666663C180000C3
:103BB00000000000000000636B6B6B6B363600008A
:103BC0000000000000000066663C183C66660000CD
:103BD000000000000000006666666666663C0C1821
:103BE000F00000000000007E060C1830607E00002F
:103BF00000000000000C1818183060301818180C5D
:103C000000000000001818181818181818181818AC
:103C10001800000000301818180C060C181818307E
:103C2000000000000071DB8E0000000000000000BA
:103C300000000000543C0008000000202C000000A0
:103C4000C0010008803C00082C0000206406000031
:103C5000DC0100080000000000000000000000007F
:103C6000010203040102030406070809000E2707E6
:103C7000000000000000000001020304060708091C
:040000050800018569
:00000001FF
