:020000040800F2
:100000003842002039090008090300080B030008E2
:100010000D0300080F030008110300080000000092
:1000200000000000000000000000000013030008B2
:10003000150300080000000017030008190300085A
:100040005309000853090008530900085309000820
:100050005309000853090008530900085309000810
:100060005309000853090008530900085309000800
:1000700053090008530900085309000853090008F0
:1000800053090008530900085309000853090008E0
:1000900053090008530900085309000853090008D0
:1000A00053090008530900085309000853090008C0
:1000B00053090008530900085309000853090008B0
:1000C00053090008530900085309000853090008A0
:1000D000530900089B03000853090008530900084E
:1000E0005309000853090008530900085309000880
:1000F0005309000853090008530900085309000870
:10010000530900085309000853090008530900085F
:10011000530900085309000853090008530900084F
:10012000530900085309000853090008530900083F
:10013000530900085309000853090008530900082F
:10014000530900085309000853090008530900081F
:10015000530900085309000853090008530900080F
:1001600053090008530900085309000853090008FF
:1001700053090008530900085309000853090008EF
:100180005309000800F002F800F063F80AA090E8B4
:10019000000C82448344AAF10107DA4501D100F042
:1001A00058F8AFF2090EBAE80F0013F0010F18BFAC
:1001B000FB1A43F00103184750AA030070AA03007A
:1001C0000A444FF0000C10F8013B13F0070408BF7D
:1001D00010F8014B1D1108BF10F8015B641E05D01B
:1001E00010F8016B641E01F8016BF9D113F0080FD0
:1001F0001EBF10F8014BAD1C0C1B09D16D1E58BF62
:1002000001F801CBFAD505E014F8016B01F8016B98
:100210006D1EF9D59142D6D370470000002300240B
:1002200000250026103A28BF78C1FBD8520728BF06
:1002300030C148BF0B607047632908F01D82002061
:1002400070471FB517F065FA08F091F81FBD10B59B
:1002500010BD08F0B3FA1146FFF7F3FF00F022F8E3
:1002600008F0D1FA03B4FFF7F2FF03BC00F05BF92A
:100270000B49D1F800C04A685CF8043B1068184488
:1002800042F8040B8C4528BFA1F1DC0C8A4228BF40
:10029000A1F1DC02C1F800C04A6020F000407047C4
:1002A000CC3B002001F0DAFB01F0F7FB00F0ACF8EA
:1002B00000F029F900F04CF90BF0AAFC07F038FC2B
:1002C0000E484FF47A710068B0FBF1F0B0F1807F16
:1002D0000CD220F07F414FF0E020491E4161084AD6
:1002E000F021117000218161072101610549012080
:1002F000087006F0DDFA05F08EFAFCE72000002019
:1003000023ED00E0000000207047FEE7FEE7FEE777
:10031000FEE77047704770472DE9F041284C2949A6
:100320006068401C60600A68521C0A60264DC00765
:100330004FF480764FF400774FF0400128460ED0FE
:1003400000F034FC8021284600F030FC314628467D
:1003500000F02CFC3946284600F028FC0DE000F0A7
:1003600027FC8021284600F023FC3146284600F077
:100370001FFC3946284600F01BFC14480078012871
:1003800009D12078401CC0B22070292803D10CF07C
:100390003FFB00202070BDE8F08110B50C4C40F20E
:1003A0002551204600F0A4FD002808D0204600F08A
:1003B00008FD0146BDE8104006A007F059BF10BD7A
:1003C000040000203C000020001402400000002037
:1003D00000100140555341525420487970657274A1
:1003E00065726D696E616C20496E746572727570AC
:1003F00074732052656365697665206120776F723A
:10040000643A2025630D0A00F0B5012187B0084643
:1004100000F0BFFE0121084600F0BBFE01211020C4
:1004200000F0DFFE484F07220921384600F0CDFBDF
:1004300007220A21384600F0C8FB02258DF8045037
:10044000002478158DF8064000908DF8055001269F
:100450008DF807606946384600F046FB6802009058
:100460008DF806608DF807406946384600F03CFB81
:100470000121084600F08DFE0121084600F089FEAA
:1004800007220C21384600F0A0FB07220B2138463A
:1004900000F09BFB8DF80450E8028DF806400090B8
:1004A0008DF805508DF807606946384600F01CFB52
:1004B000A80200908DF806608DF80740694638461E
:1004C00000F012FB4FF4E1300290ADF80C404FF415
:1004D0004070ADF80E40ADF81040ADF814000C209F
:1004E0001A4CADF8120002A9204600F0CAFB012206
:1004F00040F22551204600F0D9FC0121204600F0B1
:1005000036FC07B0F0BD08B525208DF800000020AE
:100510008DF801008DF8020001208DF80300684677
:1005200000F02FFA08BD704770B5084D0446C1B2FF
:10053000284600F042FC4021284600F0CFFC00286D
:10054000F9D0204670BD00000000024000100140BC
:100550002DE9FC470121202000F01BFE01248DF82D
:100560000440002540208DF806500326DFF8549300
:1005700000908DF805608DF807406946484600F008
:10058000B3FA802000906946484600F0ADFA200298
:1005900000906946484600F0A7FA6002009069465C
:1005A000484600F0A1FA0121252000F0F2FD8DF867
:1005B0000450A0028DF8065000908DF805608DF86B
:1005C00007406946484600F08FFABF4F69463846F3
:1005D000009400F089FADFF8F482694640460094FE
:1005E00000F082FA042000906946404600F07CFA50
:1005F000022000906946404600F076FA08200090FC
:100600006946404600F070FA20200090694638465E
:1006100000F06AFA0121202000F0BBFD8DF80440B3
:100620004FF470708DF8065000908DF805608DF8CD
:1006300007406946484600F057FABDE8FC8770B5A8
:100640004FF480619F4800F09DFA002820D09E4C16
:100650000121204600F096FAD8B19C4D0121284690
:1006600000F090FAB8B10421284600F08BFAA0B14E
:100670000221284600F086FA88B10821284600F0B9
:1006800081FA70B12021204600F07CFA58B1072091
:1006900070BD012070BD022070BD032070BD04201C
:1006A00070BD052070BD062070BD2DE9F8434FF4E4
:1006B00000777D10864EDFF80C824FF6FF74072816
:1006C00016D2DFE800F004172A3F5484C2003946EE
:1006D000404600F06BFA30460400A0F10100FBD167
:1006E0003946404600F064FA3000A6F10106FBD11D
:1006F000BDE8F8834021404600F058FA3046040037
:10070000A0F10100FBD14021404600F051FA3546EE
:100710002E00A5F10105FBD1EAE78021404600F05B
:1007200045FA31460800A1F10101FBD18021404684
:1007300000F03EFA3500A6F10106FBD1002365A2C8
:100740000094BAE02946404600F030FA31460800ED
:10075000A1F10101FBD12946404600F029FA300001
:10076000A6F10106FBD11F235FA20094A5E0402162
:10077000404600F01BFA8021404600F017FAA946D7
:100780002946404600F012FA3946404600F00EFA7B
:1007900030460500A0F10100FBD14021454640460E
:1007A00000F006FA8021284600F002FA4946284661
:1007B00000F0FEF93946284600F0FAF93000A6F1BB
:1007C0000106FBD14FF478434CA2009475E0402120
:1007D000404600F0EBF931460800A1F10101FBD1E0
:1007E0004021404600F0E4F98021404600F0DEF967
:1007F00031460800A1F10101FBD18021404600F003
:10080000D7F94FF4FC6342A200218420009402F047
:10081000E4FE2946404600F0C9F931460800A1F13E
:100820000101FBD129464446404600F0C1F9394652
:10083000204600F0BBF93200A6F10106FBD1394693
:100840002046BDE8F84300F0B3B9B94639464746FB
:10085000404600F0ABF931460800A1F10101FBD19F
:100860004946384600F0A4F92946384600F09EF97A
:1008700031460800A1F10101FBD12946384600F0BC
:1008800097F98021384600F091F930460500A0F133
:100890000100FBD18021384600F08AF9402138461A
:1008A00000F084F93100A6F10106FBD14021384661
:1008B00000F07EF923461BA200940021842002F060
:1008C0008CFE15E7001402400000024000080240C0
:1008D000FFFF1F004B657920274127205072657369
:1008E00073656421000000004B65792027422720B2
:1008F0005072657373656421000000004B657920B8
:10090000274327205072657373656421000000003F
:100910004B657920274427205072657373656421E5
:100920000000000020202020202020202020202047
:100930002020202000000000094880470948004787
:10094000FEE7FEE7FEE7FEE7FEE7FEE7FEE7FEE77F
:10095000FEE7FEE704480549054A064B70470000DC
:100960005D1A000885010008383C0020384200204C
:10097000383E0020383E00202749084327490860B8
:10098000704770B50F23C278017801254FF0E0263B
:10099000E2B1224A126802F4E062C2F5E062C2F3F8
:1009A0000722C2F10404D3404278A24084781C405C
:1009B0001B4B14432201CA54007800F01F018D40E4
:1009C000400906EB8000C0F8005170BD01F01F0027
:1009D0008540480906EB8000C0F8805170BD114A7F
:1009E000114001430D48001F016070470B4A121D62
:1009F0000029116801D0014300E081431160704774
:100A00004FF0E0210428086903D020F004000861B9
:100A1000704740F00400FAE70000FA050CED00E032
:100A200000E400E080FFFF1F704910B5884206D146
:100A30000121084600F0DFFB002101204FE06C4956
:100A4000884206D10121022000F0D5FB00210220BE
:100A500045E06849884206D10121042000F0CBFB23
:100A6000002104203BE06449884206D1012108208E
:100A700000F0C1FB0021082031E06049884206D126
:100A80000121102000F0B7FB0021102027E05C4975
:100A9000884206D10121202000F0ADFB002120205A
:100AA0001DE05849884206D10121402000F0A3FBF7
:100AB0000021402013E05449884206D101218020C2
:100AC00000F099FB0021802009E0504988420AD1BA
:100AD00084150121204600F08EFB00212046BDE850
:100AE000104000F088BB10BDF0B5002201264FF089
:100AF000030C0C6806FA02F31C409C422DD10568D9
:100B000053000CFA03F4A54305600D7907689D4076
:100B10003D4305600D79012D01D0022D12D185686C
:100B2000A54385604C7985689C402C43846044686B
:100B300006FA02F5AC43446044688D799540ADB245
:100B40002C434460C46855000CFA05F7BC43C460EC
:100B5000CC799C40C3681C43C460521C102AC8D383
:100B6000F0BD4FF6FF71016000210171417181718B
:100B7000C171704741F48032C261C161C261C16913
:100B8000C06970470246002012690A4200D0012065
:100B90007047006980B270470246002052690A42DD
:100BA00000D001207047406980B2704701837047D0
:100BB000418370470AB101837047418370474161A7
:100BC000704742694A40426170474B07DB0E9A40CA
:100BD000C90810B500EB8100016A0F249C40A143B5
:100BE0000162016A1143016210BD00000000024071
:100BF0000004024000080240000C024000100240C5
:100C00000014024000180240001C02400020024074
:100C1000CA4910B5884206D10121102000F013FB0B
:100C20000021102028E0C649884202D101214C044D
:100C300010E0C449884202D101218C040AE0C24973
:100C4000884202D10121CC0404E0C04988420AD183
:100C500001210C05204600F0ECFA2046BDE81040CA
:100C6000002100F0E6BABA49884209D101212020CA
:100C700000F0E9FA00212020BDE8104000F0E3BABE
:100C800010BD7FB50446008A0D4620F44051E88827
:100C900008432082A18941F20C608143A8882A89F7
:100CA00010436A890A431043A081A08A20F440714E
:100CB000A8890843A082684600F007FA9F4884424A
:100CC00002D0A348844201D1039800E00298A18990
:100CD0000904002900EBC00101EB0010296802DAC9
:100CE0004FEA410101E04FEA8101B0FBF1F06422DB
:100CF000B0FBF2F14FEA01114FEA11136FF0180542
:100D00006B4300EB8300A3891D044FF0320306D52B
:100D100003EBC000B0FBF2F000F0070005E003EBCE
:100D20000010B0FBF2F000F00F00084320817FBDFF
:100D30004FF41651016000218180C18001810C2295
:100D400042818181704710B5028A4C8822F4706319
:100D50000A8822438C88C9880C4322431A430282A2
:100D600010BD0021018041808180C1807047002931
:100D7000818902D041F4005101E021F400518181C8
:100D80007047028B02F47F420283028B0A43028384
:100D900070470029818902D041F4004101E0C1F38C
:100DA0000E01818170470029818A02D041F40061DF
:100DB00001E021F4006181827047C1F30801818064
:100DC00070478088C0F308007047028A22F00F0243
:100DD0000282028A0A43028270470029818902D076
:100DE00041F0020101E021F0020181817047828916
:100DF00022F40062828182890A4382817047028ADA
:100E000022F020020282028A0A43028270470029ED
:100E1000018A02D041F4804101E021F48041018245
:100E20007047818941F00101818170470029818AE1
:100E300002D041F0080101E021F0080181827047F1
:100E4000028BD2B20283028B42EA012101837047F6
:100E50000029818A02D041F0200101E021F0200127
:100E6000818270470029818A02D041F0100101E09F
:100E700021F0100181827047828A22F0040282826E
:100E8000828A0A43828270470029818A02D041F017
:100E9000020101E021F0020181827047002A828A6A
:100EA00001D00A4300E08A438282704710B5C1F343
:100EB000421301F01F040121A140012B07D0022B96
:100EC00007D01430002A026805D00A4304E00C3031
:100ED000F8E71030F6E78A43026010BD02460020B2
:100EE00012880A4200D001207047C9430180704730
:100EF00070B501F01F0601250024C1F3421305FA65
:100F000006F2012B0FD0022B0FD0838A4FEA11215A
:100F10000088134205FA01F500EA050001D000B18E
:100F20000124204670BD8389F0E7038AEEE70A0AB0
:100F300001219140C9430180704700000010014029
:100F40000044004000480040004C00400050004079
:100F500000140140E948016841F001010160E74ADD
:100F60000021083211600268E54B1A400260031D3F
:100F7000E44A1A60026822F480220260DF480C30E2
:100F800001607047DD490022891C0A7008707047B3
:100F900002460020510901290CD002290CD0D74962
:100FA0007431096802F01F02012393400B4200D004
:100FB00001207047D149F4E7D0497031F1E730B5ED
:100FC00000244FF4A0653120FFF7E2FF641CAC421F
:100FD00001D00028F7D03120FFF7DAFF002800D039
:100FE000012030BDC54A116821F0F80141EAC00076
:100FF00010607047C44908607047C04900227031D2
:101000000A700A70012802D0042801D10520087056
:101010007047BE490860704741EA82115A0810B50E
:10102000BB4B029C03EB02421143014341EA0460C3
:10103000B249091D086010BDB349086670478001B8
:1010400040EA0170AD49843108607047AE49886656
:101050007047AD49C8647047A84B08331A68084305
:1010600022F0EC62104318607047A44B08331A68F2
:10107000084322F078421043186070479F4A0832B4
:10108000116821F003010143116070479B4808304B
:10109000006800F00C007047984A0832116821F08F
:1010A000F001014311607047944A0832116821F43D
:1010B000E051014311607047904A0832116821F4F1
:1010C000604141EAC0001060704770B58B4B083337
:1010D0001968904C11F00C0104D08F4E042903D0F4
:1010E000082903D004601BE0066019E0834A121D42
:1010F0001168C1F38055116801F03F0115B1B6FBCD
:10110000F1F101E0B4FBF1F114681268C4F3881442
:101110006143C2F30142521C5200B1FBF2F1016083
:1011200019687E4A01F0F0010909545C0168E14048
:1011300041601C6804F4E054A40A145D21FA04F42C
:1011400084601B6803F460435B0BD25CD140C160D8
:1011500070BDC0F30121032908D1684B0833196819
:101160006F4A21F4F81102400A431A606349703152
:101170000A68C0F30B0002430A60704763494439B0
:1011800008607047614940390860704765490860E8
:1011900070475A4A30320029116801D0014300E0FB
:1011A000814311607047554A34320029116801D0DB
:1011B000014300E0814311607047504A38320029F2
:1011C000116801D0014300E08143116070474B4A30
:1011D00040320029116801D0014300E081431160D1
:1011E0007047464A44320029116801D0014300E0AB
:1011F000814311607047414A10320029116801D0C3
:10120000014300E08143116070473C4A14320029D9
:10121000116801D0014300E0814311607047374AF3
:1012200018320029116801D0014300E081431160A8
:101230007047324A20320029116801D0014300E092
:101240008143116070472D4A24320029116801D072
:10125000014300E0814311607047284A5032002961
:10126000116801D0014300E0814311607047234AB7
:1012700054320029116801D0014300E0814311601C
:1012800070471E4A58320029116801D0014300E01E
:10129000814311607047194A60320029116801D0FA
:1012A000014300E0814311607047144A6432002911
:1012B000116801D0014300E08143116070470F4A7B
:1012C0000D320029117801D0014300E081431170F3
:1012D00070470A487430016841F0807101607047BE
:1012E0000146064A00200C3212680A4200D0012052
:1012F000704702490E310870704700000038024004
:10130000FFFFF6FE1030002400004742800E4742E7
:101310000000FFFF0024F40040787D011000002051
:10132000FFFCFF0F5C0147424FF0204202EB8001BF
:1013300040B143F2D20008606FF070404860C1F8DD
:101340000401704743F2DB001060F5E730B5D0E9E7
:1013500001121143D0E903231A4311434269036880
:10136000114382691143C2691143026A1143426AFF
:101370001143826A1143C26A1143026B11434FF059
:10138000204242F823108168082906D1016802EB47
:1013900081010B6843F040030B60416BD1E90034DD
:1013A00043EA04138C68CD68240244EA05442343CD
:1013B0000C6943EA04534C69896943EA04630B43AB
:1013C000016802EB81014B60C16AB1F5804F07D023
:1013D00000686FF0704102EB8000C0F8041130BD6E
:1013E000816B0068D1E9003443EA04138C680D690D
:1013F000240244EA055423434C69896943EA04639F
:1014000002EB80000B43C0F8043130BD10B5002161
:101410000222C0E900128160C16001614161816105
:10142000D202C161C0E908125200C0E90A21016379
:10143000436B0F221A60436B5A60446BFF23A36017
:10144000446BE260446B2261446B6261446BA16156
:10145000846B2260846B6260846BA360836BDA6050
:10146000836B1A61836B5A61806B816110BD4FF091
:10147000204202EB80000029016802D041F0010106
:1014800001E0C94A11400160704710B5182340249B
:101490004FF020414FF0FC32102805D041F8803F3A
:1014A0004C608A60CA6010BD0B664C668A66CA666C
:1014B00010BD30B5D0E901121143D0E903231A431E
:1014C0001143426941EA4221826941EA423141F0D5
:1014D0000804C169D1E9002342EA03228B68C96884
:1014E0001B0443EA01610A43016AD1E9003543EA7A
:1014F00005238D68C9682D0445EA01610B43016825
:101500004FF02040102904D040F8804F8260C36023
:1015100030BD04668266C36630BD102101600021C3
:1015200041608160C160016141618161C269FC21EA
:101530001160C2695160C2699160C269D160026A7A
:101540001160026A5160026A9160006AC16070476E
:101550004FF0204251B1102804D052F8800F40F0D3
:1015600004000AE0106E40F004000AE08E49C91E33
:10157000102804D052F8800F084010607047106E99
:101580000840106670474FF0204251B1102804D037
:1015900052F8800F40F040000AE0106E40F040002A
:1015A0000AE081493F39102804D052F8800F0840E2
:1015B00010607047106E0840106670474FF0204171
:1015C000102802D0D1F894007047486F70477748D0
:1015D000182101604FF0000141604FF0FC31816043
:1015E000C1600161704710B5D0E9001241EA4221A3
:1015F0008268102343EA423211436C4A1160C16889
:10160000D1E9003443EA04238C68C9684FEA0444F2
:1016100044EA016143EA010393600169D1E90034BE
:1016200043EA04238C68C9684FEA044444EA016130
:1016300043EA0103D3604069D0E9001341EA032182
:101640008368C0684FEA034343EA006041EA00014F
:10165000116110BD0021016041608160C268FC2100
:101660001160C2685160C2689160C268D16002694D
:10167000116002695160026991600269D16042693A
:10168000116042695160426991604069C160704770
:1016900046490028086802D040F0040002E0424AAF
:1016A000D21E10400860704710B54FF480744FF0A0
:1016B000204382B1102804D0A04205D103F1840355
:1016C00004E0586E08430FE003F1A403186840EAF1
:1016D0000100186010BD102804D0A04206D103F10B
:1016E000840305E0586E8843586610BD03F1A403D7
:1016F000186820EA0100ECE7034600204FF0204282
:10170000102B08D0B3F5807F07D0D2F8A4200A426E
:1017100000D001207047526EF9E7D2F88420F6E736
:101720004FF02042102809D0B0F5807F0AD002F196
:10173000A402106820EA010010607047506E8843D0
:101740005066704702F18402F3E7034600204FF031
:101750002042102B0CD0B3F5807F0BD0D2F8A42000
:101760000A4202EAD10102D0002900D001207047CC
:10177000526EF5E7D2F88420F2E74FF020421028AD
:1017800009D0B0F5807F0BD002F1A402106820EAE6
:10179000D10010607047506E20EAD100506670474B
:1017A00002F18402F2E70000FEFF0F00A00000A09B
:1017B000A54910B588420AD1841401212046FFF7BB
:1017C00042FD2046BDE810400021FFF73CBD9F4987
:1017D000884202D10121041404E09D4988420AD1C3
:1017E0000121C4132046FFF724FD2046BDE8104028
:1017F0000021FFF71EBD10BD30B502884C8802F4F1
:1018000041530A88CD8822438C882C4322430C897B
:1018100022434C8922438C892243CC8922431A4398
:101820000280828B22F400628283098A018230BDA9
:10183000F0B502220023858B01244FF2400635408B
:1018400085830284858B8E68022E35D08A8802B10A
:101850000224804A13681B0203D5136823F4000393
:1018600013607C4A7C3213681268C3F38813C2F396
:101870000276784A121F1268774F02F03F02B7FBD8
:10188000F2F25A43B2FBF6F2CB88B3F5007F28D0D0
:101890006301B2FBF3F202EB82028B685200B2FBEF
:1018A000F3F2521D92B20A23B2FBF3F202F00103EB
:1018B000D21AC2F34F021B02941EFE2C01D3022245
:1018C0000023CC881A43144304840A884B881A43A3
:1018D0008B8889890B431A432A4342F40061818330
:1018E000F0BD120AD7E70021018041808180C180CC
:1018F000018141818181C1810721018270470021DD
:10190000018041808180C180022282608181704794
:101910000029018802D041F0400101E021F040019E
:10192000018070470029818B02D041F4806101E081
:1019300021F4806181837047028822F40062028072
:1019400002880A4302807047B1F5804F018803D0B6
:1019500021F480410180704741F48041FAE7A1F50C
:101960007E420188FF3A02D041F4807101E021F407
:101970008071018070470029818802D041F0040104
:1019800001E021F00401818070470029818802D0A4
:1019900041F0100101E021F0100181807047808941
:1019A0007047818170470029018802D041F40051BD
:1019B00001E021F4005101807047018841F4805119
:1019C00001807047012901D0008B7047808A7047E1
:1019D000008A7047002A828801D00A4300E08A43C7
:1019E00082807047090901238B40002A828899B2BE
:1019F00001D00A4300E08A438280704702460020FB
:101A000012890A4200D001207047C9430181704702
:101A100010B501F00F03012404FA03F3024600207D
:101A200009098C4091889BB2A4B2128921401A42C4
:101A300002D0002900D0012010BD01F00F020121C9
:101A40009140C94301817047003001400038004097
:101A5000003C00400838024040787D01474810B5FE
:101A6000016841F001010160444A0021083211601F
:101A70000268434B1A400260031D424A1A60026822
:101A800022F4802202603D480C30016000F03BF8F7
:101A90003D494FF00060086010BD70B5374D083506
:101AA00028683A4B3A4910F00C0004D0394E04280B
:101AB00003D0082803D00B601BE00E6019E02F4A0A
:101AC000121D1068C0F38054106800F03F0014B17C
:101AD000B6FBF0F001E0B3FBF0F013681268C3F35B
:101AE00088135843C2F30142521C5200B0FBF2F07B
:101AF00008602868264AC0F30310121D105C0A68AB
:101B0000C2400A6070BD1D4A0020116841F4803156
:101B100011604FF4A063116800F1010011F4003F5F
:101B200001D19842F7D11068800326D513480830B8
:101B300001680160016841F400410160016841F4FD
:101B4000A0510160031F14491960116841F08071B0
:101B5000116011688901FCD5104A40F203711160CF
:101B6000016821F003010160016841F00201016098
:101B70000168C1F381010229FAD17047003802409F
:101B8000FFFFF6FE1030002408ED00E00024F40012
:101B90002000002040787D01193C4005003C0240B7
:101BA000034A02EB0111A1F50071102206F063BC9B
:101BB000527901081CB501215820FFF7EAFA0121EA
:101BC0000846FFF7FAFAFF4C0C2200212046FEF7E8
:101BD000FCFF0C2201212046FEF7F7FF0C22042116
:101BE0002046FEF7F2FF0C2205212046FEF7EDFF0E
:101BF0000C2208212046FEF7E8FF0C22092120468E
:101C0000FEF7E3FF0C220A212046FEF7DEFF0C223E
:101C10000E212046FEF7D9FF0C220F212046FEF7A9
:101C2000D4FF02208DF804004CF2337103200091A0
:101C30008DF8050000218DF806108DF80710694613
:101C40002046FEF751FFE04C0C2202212046FEF711
:101C5000BCFF0C2207212046FEF7B7FF0C2208210B
:101C60002046FEF7B2FF0C2209212046FEF7ADFF09
:101C70000C220A212046FEF7A8FF0C220B21204649
:101C8000FEF7A3FF0C2211462046FEF79EFF0C2212
:101C90000D212046FEF799FF0C220E212046FEF76B
:101CA00094FF0C220F212046FEF78FFF4FF6847120
:101CB000009169462046FEF717FFC44C0C2205210F
:101CC0002046FEF782FF0C2211462046FEF77DFFDC
:101CD0000C220D212046FEF778FF43F220010091EF
:101CE00069462046FEF700FF1CBD002240F2754306
:101CF00006E00021491C89B29942FBD3521C92B2E2
:101D00008242F6D370472DE9F05FB14CFFF752FFE6
:101D1000641EFDD201F084FC4FF0DE43AD4A00208A
:101D20001880DFF8B4C2BCF800005080A0F5134161
:101D30004FF4807440F2272840F2077540F23F16B6
:101D40004FF4887B253901D0C91E7CD10120107049
:101D50001021E7200CF056F8012100200CF052F879
:101D6000214601200CF04EF84FF4E06102200CF007
:101D700049F841F2300103200CF044F8002104201E
:101D80000CF040F840F2072108200CF03BF800214D
:101D900009200CF037F800210A200CF033F801215B
:101DA0000C200CF02FF800210D200CF02BF8002156
:101DB0000F200CF027F8002110200CF023F8072149
:101DC00011200CF01FF8002112200CF01BF800214C
:101DD00013200CF017F83220FFF787FF41F29051E3
:101DE00010200CF00FF8414611200CF00BF83220B7
:101DF000FFF77BFF9C2112200CF004F83220FFF744
:101E000074FF4FF4C85113200BF0FCFF232129204D
:101E10000BF0F8FF0E212B200BF0F4FF3220FFF720
:101E200064FF002120200BF0EDFF002121200BF0AA
:101E3000E9FF3220FFF759FF072130200BF0E2FFC6
:101E40002946312000E082E00BF0DCFF0621322041
:101E50000BF0D8FF40F2047135200BF0D3FF41F6B0
:101E6000047136200BF0CEFF042137200BF0CAFF9F
:101E7000002138200BF0C6FF40F2067139200BF02C
:101E8000C1FF40F201713C200BF0BCFF0F213D204F
:101E90000BF0B8FF3220FFF728FF002150200BF095
:101EA000B1FFEF2151200BF0ADFF002152200BF0CC
:101EB000A9FF314653200BF0A5FF4FF427416020C6
:101EC0000BF0A0FF012161200BF09CFF00216A2094
:101ED0000BF098FF002180200BF094FF002181205F
:101EE0000BF090FF002182200BF08CFF002183205B
:101EF0000BF088FF002184200BF084FF0021852057
:101F00000BF080FF102190200BF07CFF002192202D
:101F10000BF078FF032193200BF074FF59469520B6
:101F20000BF070FF002197200BF06CFF0021982030
:101F30000BF068FF40F2331107200BF063FF002124
:101F400020200BF05FFF0021212001F0FDB9A0F55A
:101F5000134120397DD0B0F5134FFBD04FF40177FA
:101F6000113977D10320107041F21401E7200BF0F2
:101F700049FF214601200BF045FF391F02200BF0DD
:101F800041FF41F2300103200BF03CFFB91E082055
:101F90000BF038FF002109200BF034FF00210A204C
:101FA0000BF030FF00210C200BF02CFF00210D2046
:101FB0000BF028FF00210F200BF024FF0021102040
:101FC0000CE00000000C024000100240001802402B
:101FD000FFFF5F00340000200000016F0BF012FFD4
:101FE000072111200BF00EFF002112200BF00AFF39
:101FF000002113200BF006FFC820FFF776FE41F208
:10200000906110200BF0FEFE414611200BF0FAFE0D
:102010003220FFF76AFE0C2112200BF0F3FE322073
:10202000FFF763FE4FF4006113200BF0EBFE11216C
:1020300029200BF0E7FE0B212B200BF0E3FE3220D2
:10204000FFF753FE002120200BF0DCFE00212120B1
:1020500001E07CE020E10BF0D5FE002130200BF008
:10206000D1FE4FF48374214631200BF0CBFE0021CA
:1020700032200BF0C7FE394635200BF0C3FE41F28B
:102080000A6136200BF0BEFE294637200BF0BAFE5F
:10209000214638200BF0B6FE294639200BF0B2FE5F
:1020A00040F202413C200BF0ADFE40F60F413D20D6
:1020B0000BF0A8FE002150200BF0A4FEEF215120D0
:1020C0000BF0A0FE002152200BF09CFE3146532065
:1020D0000BF098FE4FF41C5160200BF093FE012191
:1020E00061200BF08FFE00216A200BF08BFE002197
:1020F00080200BF087FE002181200BF083FE002161
:1021000082200BF07FFE002183200BF07BFE00215C
:1021100084200BF077FE002185200BF073FE102148
:1021200090200BF06FFE4FF4C06192200BF06AFE1E
:10213000212107200BF066FE3220FFF7D6FD61213A
:1021400007200BF05FFE3220FFF7CFFDF6E3002003
:10215000107001460BF056FE214601200BF052FE96
:102160004FF4E06102200BF04DFE41F21801032014
:102170000BF048FE002104200BF044FE40F2022147
:1021800008200BF03FFE002109200BF03BFE002150
:102190000A200BF037FE01210C200BF033FE00214A
:1021A0000D200BF02FFE00210F200BF02BFE6420E2
:1021B000FFF79BFD40F2011107200BF023FE642086
:1021C000FFF793FD4FF4865110200BF01BFE072103
:1021D00011200BF017FE5C46594612200BF012FE40
:1021E0004FF4306113200BF00DFE002129200BF07D
:1021F00009FE44F210012B200BF004FE00215020B8
:102200000BF000FEEF2151200BF0FCFD00215220CD
:102210000BF0F8FD314653200BF0F4FD4FF41C5148
:1022200060200BF0EFFD012161200BF0EBFD0021A0
:102230006A200BF0E7FD002180200BF0E3FD002178
:1022400081200BF0DFFD002182200BF0DBFD00215F
:1022500083200BF0D7FD002184200BF0D3FD00215B
:1022600085200BF0CFFD102190200BF0CBFD00213D
:1022700092200BF0C7FD012193200BF0C3FD2146F6
:1022800095200BF0BFFD002197200BF0BBFD002136
:102290009820FCE3072058E6A0F5194140F20559C3
:1022A00019397DD10D201070062128200BF0AAFDD0
:1022B000012100200BF0A6FD002110200BF0A2FD53
:1022C00047F2EF2101200BF09DFD4FF4C061022089
:1022D0000BF098FD46F6382103200BF093FD46F6EF
:1022E000740111200BF08EFD00210F200BF08AFDF0
:1022F00045F208310B200BF085FD03210C200BF07B
:1023000081FD0A210D200BF07DFD4FF438510E2088
:102310000BF078FDBE211E200BF074FD4FF4004140
:1023200025200BF06FFD4FF4F04126200BF06AFDE5
:10233000782127200BF066FD00214E200BF062FD76
:1023400000214F200BF05EFD40F6D90112200BF06A
:1023500059FD002130200BF055FD4FF482713120E2
:102360000BF050FD214632200BF04CFD40F20534BD
:10237000214633200BF046FD494634200BF042FD48
:10238000214635200BF03EFD294636200BF03AFD64
:10239000611F37200BF036FD4FF490513A2000E0DA
:1023A00008E00BF02FFD4FF400613B200BF02AFDFD
:1023B00033216FE7A0F5A851053901D048457DD1FB
:1023C00009201070002107200BF01CFD3220FFF7C0
:1023D0008CFC4FF48E7112200BF014FD0121A4200F
:1023E0000BF010FD0F2108200BF00CFD08210A2036
:1023F0000BF008FD08210D200BF004FD29463020CC
:102400000BF000FD072131200BF0FCFC40F20361D2
:1024100032200BF0F7FC4FF4E067394633200BF025
:10242000F1FC40F2022134200BF0ECFC02213520BB
:102430000BF0E8FC41F60F7136200BF0E3FC294667
:1024400037200BF0DFFC002138200BF0DBFC0021F3
:1024500039200BF0D7FC29463A200BF0D3FC0021A1
:102460003B200BF0CFFC07213C200BF0CBFC0021E4
:102470003D200BF0C7FC3220FFF737FC012107207D
:102480000BF0C0FC012117200BF0BCFC3220FFF741
:102490002CFC4FF4BD5110200BF0B4FC40F217217E
:1024A00011200BF0AFFC4FF48F7112200BF0AAFC3F
:1024B0004FF4706113200BF0A5FC00E08AE00021CE
:1024C0002A200BF09FFC0A2129200BF09BFC4FF4E3
:1024D0009F7112200BF096FC002150200BF092FC13
:1024E000EF2151200BF08EFC002152200BF08AFCD2
:1024F000314653200BF086FC4FF41C5160200BF04A
:1025000081FC012161200BF07DFC00216A200BF091
:1025100079FC002180200BF075FC002181200BF05C
:1025200071FC002182200BF06DFC002183200BF058
:1025300069FC002184200BF065FC002185200BF054
:1025400061FC132190200BF05DFC4FF44071922050
:102550000BF058FC052193200BF054FC0021952032
:102560000BF050FC002197200BF04CFC0021982030
:102570000BF048FC214601200BF044FC39460220B8
:102580000BF040FC41F2300103200BF03BFC00213A
:1025900004200BF037FC00210C200BF033FC002151
:1025A0000F200BF02FFC002120200BF02BFC002132
:1025B00021200BF027FC212107200BF023FCC82051
:1025C000FFF793FB612107200BF01CFCC820FFF7ED
:1025D0008CFB9EE2A0F5094140F2025840F2023A1B
:1025E00089397CD105201070012100200BF00AFCF4
:1025F0003220FFF77AFB4AF6A40103200BF002FC1D
:102600003220FFF772FB00210C200BF0FBFB322085
:10261000FFF76BFB40F60C010D200BF0F3FB3220B3
:10262000FFF763FB4FF42C510E200BF0EBFB322035
:10263000FFF75BFBB0211E200BF0E4FB3220FFF71D
:1026400054FB42F63F3101200BF0DCFB3220FFF758
:102650004CFB4FF4C06102200BF0D4FB3220FFF79B
:1026600044FB002110200BF0CDFB3220FFF73DFB97
:1026700046F2700111200BF0C5FB3220FFF735FB4D
:10268000002105200BF0BEFB3220FFF72EFB0021BE
:1026900006200BF0B7FB3220FFF727FB4EF61C712C
:1026A00016200BF0AFFB3220FFF71FFB0321172092
:1026B0000BF0A8FB3220FFF718FB40F23311072084
:1026C0000BF0A0FB3220FFF710FB00210B200BF0DA
:1026D00099FB3220FFF709FB00210F2000E0AAE060
:1026E0000BF090FB3220FFF700FB002141200BF0A4
:1026F00089FB3220FFF7F9FA002142200BF082FB20
:102700003220FFF7F2FA002148200BF07BFB322049
:10271000FFF7EBFA314649200BF074FB3220FFF74C
:10272000E4FA00214A200BF06DFB3220FFF7DDFABE
:1027300000214B200BF066FB3220FFF7D6FA4FF456
:102740006F4144200BF05EFB3220FFF7CEFA0021F0
:1027500045200BF057FB3220FFF7C7FA31464620E1
:102760000BF050FB3220FFF7C0FA294630200BF067
:1027700049FB3220FFF7B9FA394631200BF042FB12
:102780003220FFF7B2FA394632200BF03BFB322001
:10279000FFF7ABFA4446414633200BF033FB3220BF
:1027A000FFF7A3FA40F2075134200BF02BFB322045
:1027B000FFF79BFA394635200BF024FB3220FFF758
:1027C00094FA394636200BF01DFB3220FFF78DFAC4
:1027D000214637200BF016FB3220FFF786FA5446CD
:1027E00051463A200BF00EFB3220FFF77EFA2146CD
:1027F0003B200BF007FB3220FFF777FA0021232064
:102800000BF000FB3220FFF770FA002124200BF0C0
:10281000F9FA3220FFF769FA4FF4004125200BF056
:10282000F1FA3220FFF761FA00214F200BF0EAFAAB
:1028300000214E202FE5A0F5094199397DD10420D2
:102840001070062128200BF0DDFA012100200BF08A
:10285000D9FA4AF6A46103200BF0D4FA04210C2023
:102860000BF0D0FA0C210D200BF0CCFA4FF42051D4
:102870000E200BF0C7FAB5211E200BF0C3FA43F669
:102880003F3101200BF0BEFA4FF4C06102200BF083
:10289000B9FA002110200BF0B5FA46F630011120EC
:1028A0000BF0B0FA002105200BF0ACFA0021062055
:1028B0000BF0A8FA4EF61C7116200BF0A3FA332188
:1028C00007200BF09FFA00210B200BF09BFA002150
:1028D0000F200BF097FA002141200BF093FA002112
:1028E00042200BF08FFA002148200BF08BFA314682
:1028F00049200BF087FA00214A200BF083FA0021CF
:102900004B200BF07FFA4FF46F4144200BF07AFA22
:10291000002145200BF076FA314646200BF072FA82
:1029200000214E200BF06EFA00214F200BF06AFAC6
:10293000294630200BF066FA01E042E0FEE240F268
:10294000022131200BF05EFA394632200BF05AFAA0
:102950004446414633200BF055FA40F207513420EB
:102960000BF050FA394635200BF04CFA3946362038
:102970000BF048FA214637200BF044FA54465146F2
:102980003A200BF03FFA21463B200BF03BFA0021A6
:1029900023200BF037FA002124200BF033FA4FF4F8
:1029A000004125200BF02EFA4FF4E04126200BF0D9
:1029B00029FA4BF2EB0120200BF024FA7C2127208E
:1029C00069E4A0F5A84108397ED10820107021469D
:1029D00001200BF017FA4FF4E06102200BF012FA1D
:1029E00041F2300103200BF00DFA002104200BF01E
:1029F00009FA40F2072108200BF004FA002109200F
:102A00000BF000FA00210A200BF0FCF900210C2049
:102A10000BF0F8F900210D200BF0F4F900210F2044
:102A20000BF0F0F93220FFF760F940F201110720B6
:102A30000BF0E8F93220FFF758F941F2B0611020AD
:102A40000BF0E0F9012111200BF0DCF90121172036
:102A50000BF0D8F94FF49C7112200BF0D3F94FF41E
:102A6000006113200BF0CEF9092129200BF0CAF9DF
:102A700009212A200BF0C6F90021A4200BF0C2F98D
:102A8000002150200BF0BEF9EF21512000E03EE084
:102A90000BF0B8F9002152200BF0B4F93146532065
:102AA0000BF0B0F94FF41C5160200BF0ABF903218F
:102AB00061200BF0A7F900216A200BF0A3F9002197
:102AC00080200BF09FF900E026E0002181200BF030
:102AD00099F9002182200BF095F9002183200BF059
:102AE00091F9002184200BF08DF9002185200BF055
:102AF00089F9132190200BF085F9002192200BF029
:102B000081F9032193200BF07DF9594695200BF0B4
:102B100079F940F273114CE4A0F58A4131397CD146
:102B200007201070012100200BF06CF94FF4C561F3
:102B300010200BF067F9062112200BF063F940F624
:102B4000322113200BF05EF9402111200BF05AF9CD
:102B5000502115200BF056F9162112200BF052F9D6
:102B60003220FFF7C2F845F2606110200BF04AF9FD
:102B70003220FFF7BAF842F64E2113200BF042F94B
:102B8000214601200BF03EF94FF4407102200BF07A
:102B900039F941F2300103200BF034F940F20221FF
:102BA00008200BF02FF900210A200BF02BF900214F
:102BB00030200BF027F940F2024131200BF022F9CE
:102BC0004FF4837132200BF01DF94FF4E061332094
:102BD0000BF018F94FF4827134200BF013F940F226
:102BE000013135200BF00EF9294636200BF00AF999
:102BF00040F2053137200BF005F94FF4027138200F
:102C00000BF000F940F60B7139200BF0FBF8322085
:102C1000FFF76BF80221412000E02AE00BF0F2F808
:102C20004FF41C5160200BF0EDF8012161200BF0F6
:102C3000E9F840F2191190200BF0E4F84FF4857197
:102C400092200BF0DFF8042193200BF0DBF82146F3
:102C5000A0200BF0D7F83220FFF747F840F23311ED
:102C600007200BF0CFF83220FFF73FF80021A0201B
:102C70006AE3A0F58A4135397ED10C2010703021ED
:102C800015200BF0BFF810219A200BF0BBF8202183
:102C900011200BF0B7F843F2284110200BF0B2F8E6
:102CA000022112200BF0AEF841F2380113200BF094
:102CB000A9F82820FFF719F8122108460BF0A2F80E
:102CC0002820FFF712F843F2204110200BF09AF869
:102CD00043F2450113200BF095F84620FFF705F865
:102CE000002130200BF08EF840F2024131200BF031
:102CF00089F840F2073132200BF084F84FF441712B
:102D000033200BF07FF8042134200BF07BF840F2E5
:102D1000014135200BF076F8294636200BF072F889
:102D200040F2053137200BF06DF84FF4C2652946AB
:102D300038200BF067F8294639200BF063F821465C
:102D400001200BF05FF84FF4407102200BF05AF8AD
:102D500041F2300103200BF055F840F6080108203D
:102D60000BF050F808210A200BF04CF84FF41C51DE
:102D700060200BF047F800E028E0012161200BF013
:102D800041F84FF49F7190200BF03CF821469220BF
:102D90000BF038F8214693200BF034F84FF44051F3
:102DA000A0200BF02FF81021A3200BF02BF801210D
:102DB00007200BF027F8212107200BF023F823210F
:102DC00007200BF01FF833210720B5E047287DD0FE
:102DD000A0F5EE4183397AD1062010700121FF2041
:102DE0000BF010F80821F3200BF00CF8214601201D
:102DF0000BF008F84FF4E06102200BF003F841F209
:102E0000300103200AF0FEFF514608200AF0FAFFC5
:102E100040F2072108200AF0F5FF002109200AF0FE
:102E2000F1FF00210A200AF0EDFF002110200AF036
:102E3000E9FF052111200AF0E5FF002112200AF028
:102E4000E1FF002113200AF0DDFF3220FEF74DFFE5
:102E500041F2B02110200AF0D5FF3220FEF745FFE5
:102E6000072111200AF0CEFF3220FEF73EFF8B2112
:102E700012200AF0C7FF3220FEF737FF4FF4B85197
:102E800013200AF0BFFF3220FEF72FFF2221292056
:102E90000AF0B8FF002130200AF0B4FF29463120A3
:102EA0000AF0B0FF494632200AF0ACFF40F20711A9
:102EB00035200AF0A7FF082136200AF0A3FF0021E1
:102EC00037200AF09FFF40F2022401E039E018E1C8
:102ED000214638200AF096FF4FF4837139200AF01A
:102EE00091FF21463C200AF08DFF4FF481613D2087
:102EF0000AF088FF3220FEF7F8FE002150200AF089
:102F000081FFEF2151200AF07DFF002152200AF0BD
:102F100079FF314653200AF075FF4FF427416020B6
:102F20000AF070FF012161200AF06CFF332190202C
:102F30000AF068FF0B212B200AF064FF40F23311E6
:102F4000E9E50A2010700021EA200AF05BFF202149
:102F5000EB200AF057FF0C21EC200AF053FFC421AC
:102F6000ED200AF04FFF4021E8200AF04BFF382106
:102F7000E9200AF047FF0121F1200AF043FF102168
:102F8000F2200AF03FFFA32127200AF03BFF012196
:102F900040200AF037FF002141200AF033FF0021D2
:102FA00042200AF02FFF102143200AF02BFF0E21B0
:102FB00044200AF027FF242145200AF023FF0421A2
:102FC00046200AF01FFF502147200AF01BFF022174
:102FD00048200AF017FF132149200AF013FF192196
:102FE0004A200AF00FFF19214B200AF00BFF16218F
:102FF0004C200AF007FF1B2150200AF003FF31216B
:1030000051200AF0FFFE2F2152200AF0FBFE3F2143
:1030100053200AF0F7FE3F2154200AF0F3FE3E2130
:1030200055200AF0EFFE2F2156200AF0EBFE7B21FF
:1030300057200AF0E7FE092158200AF0E3FE062196
:1030400059200AF0DFFE06215A200AF0DBFE0C218F
:103050005B200AF0D7FE1D215C200AF0D3FECC21B4
:103060005D200AF0CFFE18211B200AF0CBFE0121C3
:103070001A200AF0C7FE152124200AF0C3FE5021B1
:1030800025200AF0BFFE8B2123200AF0BBFE36214B
:1030900018200AF0B7FE012119200AF0B3FE002122
:1030A00001200AF0AFFE88211F200AF0ABFE32207B
:1030B000FEF71BFE80211F200AF0A4FE3220FEF73F
:1030C00014FE90211F200AF09DFE3220FEF70DFE17
:1030D000D0211F200AF096FE3220FEF706FE0521C1
:1030E00017200AF08FFE002136200AF08BFE3821CF
:1030F00028200AF087FE3220FEF7F7FD3C21282029
:1031000022E167201880BCF80000508047287DD15C
:103110000B201070082142200AF074FEB4214620D2
:103120000AF070FE432147200AF06CFE132148206C
:103130000AF068FE472149200AF064FE14214A2063
:103140000AF060FE36214B200AF05CFE03214C2081
:103150000AF058FE46214D200AF054FE05214E206B
:103160000AF050FE10214F200AF04CFE082150209A
:103170000AF048FE0A2151200AF044FE00210220F4
:103180000AF040FE002103200AF03CFE002104204A
:103190000AF038FEEF2105200AF034FE0021062057
:1031A0000AF030FE002107200AF02CFE0121082041
:1031B0000AF028FE3F2109200AF024FE0A20FEF72B
:1031C00094FD062101200AF01DFEC82116200AF0F8
:1031D00019FE952123200AF015FE952124200AF0DE
:1031E00011FEFF2125200AF00DFE022127200AF002
:1031F00009FE022128200AF005FE022129200AF0FA
:1032000001FE02212A200AF0FDFD00E09EE00221DD
:103210002C200AF0F7FD02212D200AF0F3FD0121F8
:103220003A200AF0EFFD01213B200AF0EBFDF021EE
:103230003C200AF0E7FD00213D200AF0E3FD1420C8
:10324000FEF753FD382135200AF0DCFD78213620C9
:103250000AF0D8FD38213E200AF0D4FD0F2140208D
:103260000AF0D0FDF02141200AF0CCFD00213820E9
:103270000AF0C8FD492119200AF0C4FD0A21932053
:103280000AF0C0FD0A20FEF730FD202108460AF0B2
:10329000B9FD03211D200AF0B5FD00211E200AF012
:1032A000B1FD09211F200AF0ADFD532144200AF091
:1032B000A9FD102145200AF0A5FD0A20FEF715FD05
:1032C00004211C200AF09EFD1420FEF70EFD802133
:1032D00043200AF097FD0520FEF707FD0A211B2079
:1032E0000AF090FD2820FEF700FD12211B200AF0B5
:1032F00089FD2820FEF7F9FC7F2190200AF082FD4D
:10330000042126200AF07EFD2820FEF7EEFC242171
:1033100026200AF077FD2C2126200AF073FD2820B4
:10332000FEF7E3FC082170200AF06CFD3C2126200A
:103330000AF068FD022157200AF064FD00215520A3
:103340000AF060FD002157200AF05CFDBDE8F05F47
:103350003220FEF7CABC70B50546C548C1F1EF0181
:103360008CB20078001F0A2806D2DFE800F00C0CAF
:103370000505050513130525214620200AF042FD09
:103380002946212014E021464E200AF03BFD294623
:103390004F200DE0210A02200AF034FD21460320CF
:1033A0000AF030FD290A06200AF02CFD29460720E4
:1033B000BDE870400AF026BD70BD70B50546AC484A
:1033C000002400780A2811D00B280FD000210846CD
:1033D000FFF7C1FF4FF0DE4122200880A5484FF4DF
:1033E00096310580641C8C42FBD370BD0021022005
:1033F0000AF008FD002103200AF004FD002104204A
:103400000AF000FDEF2105200AF0FCFC0021062057
:103410000AF0F8FC002107200AF0F4FC0121082042
:103420000AF0F0FC3F2109200AF0ECFCD2E710B5CD
:10343000FFF791FF4FF0DE41222008808C48017891
:103440008C48091F092917D2DFE801F00505050599
:103450001616080805000188008810BD0188C1F310
:10346000C70201880088C908C0F38700C90241EA81
:103470004010104380B210BD01880088C0F3451190
:10348000C20AC00200EB41101044F3E710B5144625
:10349000B0F5A07F09D2F02907D2FFF75CFF2146E3
:1034A000BDE8104022200AF0ADBC10BD2DE9F04768
:1034B00004469046DDF820A00D4699461046444546
:1034C00001D9A04684B218464D4501D9894685B236
:1034D000A8EB0400A9EB050100B20EB250B1A6B1F1
:1034E000B04230DDC0EB46010FB27100404201EB4B
:1034F000400925E0524629462046FFF7C7FF6D1CCC
:10350000ADB2A945F6D2BDE8F0875246294620461D
:10351000FFF7BCFF641CA4B2A045F6D2F3E7524605
:1035200029462046FFF7B2FF641CA4B2002F04DD39
:103530006D1CADB209EB070001E007EB460007B2D6
:103540004445ECD11AE0C6EB40010FB27100404295
:1035500001EB400810E0524629462046FFF796FF4F
:103560006D1CADB2002F04DD641CA4B208EB070093
:1035700001E007EB460007B24D45ECD15246294623
:103580002046BDE8F04781E72DE9FF5F0746894601
:1035900011469B466846FEF703FB0025EA460024D9
:1035A0001AF8058009EB0506C4F1070128FA01F0B5
:1035B000C00707EB0400B1B280B201D05A4600E068
:1035C0000E9AFFF763FF641CA4B2082CECD36D1CA9
:1035D000ADB2102DE3D3BDE8FF9F2DE9F8430446BB
:1035E000089F0D46164699464FF49C7816F8012B15
:1035F0004B46294620460097FFF7C6FF444502D2B6
:103600000834A4B207E0E02D4FF0000402D21035D8
:10361000ADB200E0002530780028E7D1BDE8F8839E
:1036200000B597B00620009000201021CDE90201DE
:10363000049009020190CDE90801069007900A90D4
:103640000FA905900F220B90CDE90C01CDE90F20B9
:10365000CDE911201390149015900E916846FDF756
:1036600075FE01210620FDF702FF17B000BD000026
:10367000340000200000016F10B5FEF744FB00206D
:1036800010BD92B289B280B2FFF700BF89B280B29A
:10369000FFF7CDBE704770B589B280B20C460546C3
:1036A000FFF7C5FE4FF6FF710A1A21462846BDE80E
:1036B0007040FFF7EBBE08B5F74B92B280B25B8863
:1036C00000938BB21946FFF7F1FE08BD08B5F24B27
:1036D00089B25B88009393B282B21046FFF7E6FE90
:1036E00008BD2DE9F04106460C4617461D4605E08B
:1036F0003A4621463046FFF7DEFF641CAC42F7DD58
:10370000BDE8F0812DE9F05F0546DDE90A408B4612
:10371000B0F80090B0F80280DF4816789246007B3F
:103720001FFA8BF710F0030103F0070004D0012902
:1037300012D0022918D107E0082815D2DFE800F0DE
:1037400068737F8B98A4B0BC08280DD2DFE800F026
:103750000C151F29333D4751082805D2DFE800F03A
:10376000BDC5CDD5DDE5EDF5300604D5424639467B
:10377000A8B2FFF78BFE641E71D0700605D5681CD9
:103780004246394680B2FFF781FE641E67D0B0061C
:1037900005D5A81C4246394680B2FFF777FE641E65
:1037A0005DD0F00605D5E81C4246394680B2FFF7E9
:1037B0006DFE641E53D0300705D5281D424639469C
:1037C00080B2FFF763FE641E49D0700705D5681DFF
:1037D0004246394680B2FFF759FE641E3FD0B0071B
:1037E00005D5A81D4246394680B2FFF74FFE641E3C
:1037F00035D0F00705D0E81D4246394680B2FFF7C4
:1038000045FE641E2BD005F108051AF8016FABE7E1
:10381000300601D5424600E04A463946A8B2FFF7D5
:1038200035FE641E1BD0700601D5424600E04A46B4
:10383000681C394680B2FFF729FE641E0FD0B0061F
:1038400001D5424600E04A46A81C394680B2FFF73F
:103850001DFE641E03D0F00602D5424601E080E062
:103860004A46E81C394680B2FFF710FE641E79D044
:10387000300701D5424600E04A46281D394680B24D
:10388000FFF704FE641E6DD0700701D5424600E0CC
:103890004A46681D394680B2FFF7F8FD641E61D0C4
:1038A000B00701D5424600E04A46A81D394680B21D
:1038B000FFF7ECFD641E55D0F00701D0424600E052
:1038C0004A46E81D394680B2FFF7E0FD641E49D044
:1038D00005F108051AF8016F9AE7300603D5594635
:1038E0002846FFF7D8FE641E3CD0700603D5594623
:1038F000681CFFF7D0FE641E34D0B00603D55946CD
:10390000A81CFFF7C8FE641E2CD0F00603D559464C
:10391000E81CFFF7C0FE641E24D0300703D55946CB
:10392000281DFFF7B8FE641E1CD0700703D559464A
:10393000681DFFF7B0FE641E14D0B00703D55946CA
:10394000A81DFFF7A8FE641E0CD0F00703D059464F
:10395000E81DFFF7A0FE641E04D008351AF8016FB9
:10396000BBE7FFE7BDE8F09F2DE9F04706464A4870
:10397000DDE90849007B157890468FB2B9F1000F58
:103980004FEA807078D0002803F0030005DAC0B356
:10399000012843D002285DD14EE020B101280BD090
:1039A00002281FD113E0A909B0B239F81120394615
:1039B000FFF76CFD641E71D0C5F30111701C39F85E
:1039C0001120394680B2FFF761FD641E66D0C5F351
:1039D0008101B01C39F81120394680B2FFF756FD3D
:1039E000641E5BD005F00301F01C39F81120394644
:1039F00080B2FFF74BFD641E50D018F8015F361DF2
:103A0000D1E7FFE715F0C00F06D0A909B0B239F829
:103A100011203946FFF73AFD641E3FD015F0300FF4
:103A200008D0C5F30111701C39F81120394680B255
:103A3000FFF72CFD641E31D015F00C0F08D0C5F334
:103A40008101B01C39F81120394680B2FFF71EFD04
:103A5000641E7CD0A80708D005F00301F01C39F8DB
:103A60001120394680B2FFF711FD641E6FD018F89F
:103A7000015F361DC6E7FFE7002803F0030005DA03
:103A800098B301283CD0022852D145E038B1012832
:103A90000CD002281CD112E0B436002057E0AA094D
:103AA0003946B0B2FFF7F2FC641E50D0701CC5F36B
:103AB0000112394680B2FFF7E9FC641E47D0B01C02
:103AC000C5F38102394680B2FFF7E0FC641E3ED0A8
:103AD000F01C05F00302394680B2FFF7D7FC641EE4
:103AE00035D018F8015F361DD9E7FFE715F0C00F94
:103AF00004D0AA093946B0B2FFF7C8FC641E26D02C
:103B000015F0300F06D0701CC5F30112394680B293
:103B1000FFF7BCFC641E1AD015F00C0F06D0B01CC9
:103B2000C5F38102394680B2FFF7B0FC641E0ED0A7
:103B3000A80706D0F01C05F00302394680B2FFF753
:103B4000A5FC641E03D018F8015F361DCEE7BDE862
:103B5000F0872DE9F0470546AB48DDE90869007BB1
:103B6000147817461FFA81F8B9F1000F4FEA8070F8
:103B70003AD000284FEAC37001DAC8B123E040B957
:103B80002109A8B239F811204146FFF77FFC761EC3
:103B9000DDD004F00F01681C39F81120414680B2D5
:103BA000FFF774FC761ED2D0AD1C17F8014FE7E783
:103BB000200906D02109A8B239F811204146FFF7A3
:103BC00065FC761EC3D0200708D004F00F01681CE6
:103BD00039F81120414680B2FFF758FC761EB6D066
:103BE000AD1C17F8014FE3E700284FEAC37001DA74
:103BF000A8B11DE030B922094146A8B2FFF746FC42
:103C0000761EA4D0681C04F00F02414680B2FFF774
:103C10003DFC761E9BD0AD1C17F8014FEBE7200949
:103C200004D022094146A8B2FFF730FC761E8ED0A0
:103C3000200706D0681C04F00F02414680B2FFF74F
:103C400025FC761E83D0AD1C17F8014FE7E77EE711
:103C50002DE9F04104466C48DDF818801546007BDC
:103C60001E4680078FB21BD4B8F1000F0AD114E0B2
:103C70002878394638F81020A0B2FFF707FC761EE6
:103C8000641C6D1C002EF3DC3AE52A783946A0B29C
:103C9000FFF7FCFB761E641C6D1C002EF5DC2FE587
:103CA000B8F1000F0BD116E0287828B138F81020B1
:103CB0003946A0B2FFF7EAFB761E641C6D1C002E8D
:103CC000F2DC1DE52A781AB13946A0B2FFF7DEFB17
:103CD000761E641C6D1C002EF4DC11E52DE9F0410C
:103CE0000446494815461E46007B8FB2800708D51A
:103CF00013E02A883946A0B2FFF7C8FB761E641C81
:103D0000AD1C002EF5DCFBE42A881AB13946A0B2BE
:103D1000FFF7BCFB761E641CAD1C002EF4DCEFE448
:103D20002DE9FF4F83B00D46DDE91007DDE9124BA9
:103D3000DDF8509092461E46042830D005DC01285C
:103D400009D0022818D1002025E0082839D01028F1
:103D500012D1002051E000200BE0CDE900A908EBD2
:103D600005015B4622460398FFF7CCFC3C4408F172
:103D700001008046B042F0DB07B0BDE8F08FCDE92E
:103D800000A908EB05015B4622460398FFF7ECFD0E
:103D90003C4408F101008046B042F0DBECE7002033
:103DA0000BE0CDE900A908EB05015B46224603982C
:103DB000FFF7CFFE3C4408F101008046B042F0DB43
:103DC000DAE700200BE008EB050153462246CDF868
:103DD00000900398FFF73CFF3C4408F10100804647
:103DE000B042F0DBC8E708EB0501534622460398D2
:103DF000FFF774FF3C4408F101008046B042F2DB5B
:103E0000BAE7704770470000B4360020704770472B
:103E1000002070470020704770B5074C074D4FF0E9
:103E2000FF302060286004F017F8002803D00188D4
:103E300021604088286070BD4002002044020020BC
:103E400009480068704708490A6810440A68821ADD
:103E5000002AFBDC70477047704770477047704717
:103E600070477047704770473C00002070B50546AA
:103E700000680F281AD1FE4808F0E5FC07F00AF8A0
:103E800000221146FBA007F07DFAFC4CE069401CC3
:103E900007F05CF9FAA007F0D1F9206A07F056F9AB
:103EA000F8A007F0CBF9142007F050F92846BDE838
:103EB00070400BF04BBA30B59BB0684608F0A0FCE0
:103EC000EE4C1434B4F900000CF09AF9A4F10E0091
:103ED000B0F900000CF094F9B4F900000BF074FF95
:103EE000044618A807F0E2FD6FF07F4008F0ABFC35
:103EF00006F0D0FF002008F0B0FCE34808F0DCFC3E
:103F0000022008F011FDBDF96400BDF96010DB4D21
:103F1000411A01EBD17041100022A86907F052FA52
:103F2000002008F001FDD94808F0C6FC1422002149
:103F3000686A07F027FA20460BF046FF684608F04B
:103F4000F5FB1BB030BD10B50446FF2007F015F897
:103F500000B90024204608F076FC204610BD10B5BC
:103F60000446FF2007F009F808B96FF07F442046A7
:103F700008F073FC204610BD70B507F0D1FD044673
:103F80000BF0A3FABD4D6E2C01D04E2C01D10120B7
:103F90002870732C01D0532C0CD14FF4FA7007F019
:103FA00068F80A2007F065F80BF08FFA07F0B8FD03
:103FB0000028F6D0287870BD2DE9FE430546AF48AD
:103FC0004FF00008801CB0F900000BF0EBF8642DF6
:103FD0000FDDAA480E2214300021B0F90200072399
:103FE0008DE807000A213C2208460AF040FA0746FD
:103FF00000E000272A46002138460AF0C3FA07F0FD
:10400000A2FD064607F09FFD841B214638460AF0B4
:1040100026FB0BF05AFA0A2007F02BF8AC4203DA21
:10402000FFF7AAFF0028EDD038460BF0C3F900F0E7
:104030007DF90BF04AFA4046BDE8FE8310B58F4C7F
:104040000020207000F072F9206A401C206210BD30
:1040500010B54FF47A60FFF7AFFFBDE81040EDE711
:104060008649486227E78548801DB0F900000BF0BB
:10407000ADBCF8B5002607F066FD00F57A6409F0DE
:1040800036FDA0F1280509F02FFD022100914638E8
:104090000523502229460AF0D4F9054603E007F02B
:1040A0003FFD060008D107F04EFD201A002803DD71
:1040B000FFF762FF0028F2D028460BF07BF90BF0E7
:1040C00004FA3046F8BD70B598B006460C4668460E
:1040D00008F096FB694DAE616C6208F0D9FBFFF702
:1040E000C2FF4FF47F0008F0AEFB6FF07F4008F096
:1040F000B4FB06F0CFFE664808F0DEFB09F0F7FCE3
:10410000032190FBF1F40A3C09F0EEFC00EBD070C7
:1041100041102246304607F055F9686A98B15B486D
:1041200008F0CAFB09F0E3FC044609F0DDFC04EBEF
:10413000D4716FF0090202EB610200EBD070411004
:10414000686A07F03FF9686A10B14FF4FA6001E05D
:104150004FF47A60FFF730FFFFF7ADFE00F0E6F8AE
:10416000684608F0E3FA0BF0B0F9FFF767FFFF20AD
:1041700008F069FB06F08EFE18B070BD2DE9F0471F
:1041800098B006F055FE06F085FE04200BF0EEFE1A
:104190003A4C1E20E0601420206109F0A8FCA0F138
:1041A0003C0509F0A1FCA0F150033C2050210095F2
:1041B000CDE901100A22002136A005F04BF904F1E7
:1041C0000609A9F802000BF01DFA0025334A4FF04A
:1041D0000A0ACDE90225CDE9000A2B462A462946DE
:1041E00028460BF00FF804F114074FF00E08788002
:1041F00053228DE80501D4E903231421042004F09F
:104200004EFBA61C4E223080B7F9021028208DE804
:104210000601D4E90323142104F041FB7080B6F9B0
:1042200000001FA104F013FCB6F902001EA104F067
:104230000EFC00F07BF80BF048F901F0D1FC09F01E
:1042400053FC00EBD07046104FF0410809F04CFCD5
:104250008DE86001831B0822002115A005F0FAF803
:10426000A9F800000BF0CEF90090CDE901A525E0FA
:104270008080800044656D6F2000000040000020B9
:104280002E0000002F0000004C920208FC5602088D
:10429000A03E0308436F6E74726F6C006D3E0008A1
:1042A00053746F70000000004E65787400000000C9
:1042B000B5432F4755492044656D6F0000231A46CA
:1042C0001946184603950AF09DFF38800BF0FDF85B
:1042D00004F128062846E56110E0684608F090FAE7
:1042E000256200F023F8E06956F820008047257029
:1042F000684608F01BFAE069401CE06156F82000AF
:104300000028EAD100244D4635F914000BF052F88C
:10431000641C022CF8D3002437F914000BF04AF87F
:10432000641C022CF8D318B0BDE8F0870248B0F93D
:1043300002000BF005BC00005400002010B504463C
:10434000007850B18C23C8227121012006F0B0FD05
:1043500028220121AE4807F081F86FF07F4008F075
:104360007CFA4FF4077340F22F120521A01C06F0CF
:1043700023F9207800280FD0022008F0E5FAFF206A
:1043800008F06BFAA34808F097FA6422BDE81040E1
:104390006521A1A007F016B810BD10B5044600783D
:1043A00050B1F123C822D621012006F081FD8D22D3
:1043B0000121974807F052F86FF07F4008F04DFA5E
:1043C00040F24B3340F22F120421A01C06F0F4F807
:1043D000207800280FD0022008F0B6FAFF2008F05D
:1043E0003CFA8C4808F068FAC922BDE81040652103
:1043F0008CA006F0E7BF10BD2DE9F04F9BB08CA15B
:1044000095A0FFF760FEFFF719FE002008F01BFAE9
:1044100006F040FD06F076F8032006F065F900246A
:1044200012AD04EBC40005EB400007F0A5FD641CD1
:10443000022CF6DB07F087FB8C4F8146B846002440
:1044400073E0504600F08FF8894913F09BF801465D
:104450000890384613F02EF81AD0089F07F073FB27
:104460006B490646052214310DF10200089B08F045
:1044700067F96B467F4A194612A807F063FE07F0FA
:1044800062FB861B322E03DAC6F1320006F0F1FD24
:10449000504600F096F8764913F074F801461190F2
:1044A000404613F007F817D0DDF8448007F04BFBC7
:1044B00057498246042228310DF12600119B08F04D
:1044C0003FF909AB19466C4A0DF15A0007F03AFE64
:1044D00007F039FBA0EB0A0B142094FBF0F100FB72
:1044E000114008BB6FF07F4008F0B7F9002008F0DA
:1044F0002BFA624808F0E0F90A22114660A006F0A3
:1045000041FF634808F0D8F90A2007F063FB032154
:10451000304606F0FDFD06F05BFE0A2007F05AFB70
:104520000321584606F0F4FD641C07F00CFBA0EBD9
:10453000090A47F230518A4504DAFFF71DFD0028C9
:104540003FF47FAF4FF47A70FFF736FD002404EBA1
:10455000C40005EB400007F06FFD641C022CF6DB85
:104560001BB0BDE8F08F10B541F27072494990421E
:1045700025DB801A43F69822474C90420ADA12F063
:10458000F6FA2246454B12F059FB0022444B12F03A
:1045900053FC10E0A0F56850983841F64C52904218
:1045A0000DDA12F0E4FA22463E4B12F047FB0022ED
:1045B0003D4B12F02FF8BDE8104011F0F9BF08464E
:1045C00010BD70B542F6E061384C394D88420ADAC8
:1045D00012F0CDFA22462B4612F030FB0022304B6F
:1045E00012F02AFC0EE0A0F58C40503800280DDDBA
:1045F00012F0BDFA22462B4612F020FB00222A4B75
:1046000012F008F8BDE8704011F0D2BF294870BD23
:1046100004D30108B81F030852504D202F20313019
:10462000303000004D5048202F2031300000000075
:104630000A4578616D706C657320666F72207468CE
:10464000650A6175746F6D6F7469766520696E6453
:1046500075737472696500004175746F6D6F74696C
:1046600076652073616D706C65730000000080BF1B
:1046700035FA8E3C3D4300089B430008E050020899
:104680006D7365632F706963747572653A0A000013
:104690008C4A020800006143FA7E6ABC7493783F3A
:1046A00000206C407493883F00E06040B81E85EBAA
:1046B00051B87E3F000007432DE9F04F87B009F065
:1046C00013FA074609F013FA81468FA19CA0FFF761
:1046D000FAFC4FF47F0008F0B6F806F0DBFB0AF0B6
:1046E0007BFF0AF0E0FE32221421974806F0B6FE66
:1046F000964808F0E1F80A22114695A006F042FE1D
:10470000FFF7A6FC06F0C6FB0A22114696A006F0AB
:1047100039FE32221421994806F0A0FE4FF47A6047
:10472000FFF74AFCFFF78AFC944D0026698899FB45
:10473000F1F000F10108288897FBF0F000F1010A80
:104740000EE02888002400FB06FB06E06A88594634
:1047500062438A4806F082FE641CA045F6DC761CA3
:10476000B245EEDC4FF4FA60FFF726FCFFF766FC7B
:1047700083A0FFF775FC022008F0E6F88B4808F0EC
:104780009BF87E48C82409EBD97A418800884FEA13
:104790005108400807EBD776039029E007F0D3F9DA
:1047A000CDE9008483464FEA6A027110029473488F
:1047B000039B06F085FE711064227DA006F002FEC8
:1047C00007F05DF80BF10A0507F0BDF9A84203DA1E
:1047D000FFF7D2FB0028F7D007F0B5F9A0EB0B00EC
:1047E00000EB400004EB400440F6B830844203DAAA
:1047F000FFF7C2FB0028D1D04FF4FA60FFF7DCFBD3
:10480000FFF71CFC06F046FBDFF870B1BBF80210A6
:1048100001EB0900052101EB6002059071106BA00E
:1048200006F0D0FD002425464CE007F08CF90490FA
:104830002046294611F0E8FD0022684B12F0FEF9EF
:1048400083464E480091059943884FEA610C0188E0
:10485000008839444A10A9EB0301381A4910401066
:10486000634606F025FB5846009912F023F94FF4F1
:104870007A72CDF80080CDE901024FEA6A02711028
:104880003E48039B06F01CFE06F0F9FF049800F179
:104890000A0B07F058F9584503DAFFF76DFB0028BB
:1048A000F7D007F050F90499401A12F053FE4C4922
:1048B00012F03EFD12F09CFC22462B4611F0AAFE9F
:1048C00004460D464FF0C042464B2046294612F0A2
:1048D00079F903D2FFF750FB0028A6D04FF47A7085
:1048E000CDE9008002904FEA6A0271102348039BD1
:1048F00006F0E6FDFFF7ACFB0AF06EFE07B0BDE880
:10490000F04F0AF0BDBD000053686F77696E670A0B
:10491000646966666572656E74206269746D617043
:104920007320776974680A616E6420776974686FB0
:10493000757420636F6D7072657373696F6E0000BC
:104940004269746D61707300E0DA01084C920208EC
:10495000524C4520436F6D707265737365642062BD
:1049600069746D6170730000312F322F342F38203D
:10497000627070206269746D6170730064E6010892
:104980004269746D617073206D617920616C736F21
:104990002062650A6D61676E696669656420616E93
:1049A0006420726F7461746564000000E0C00208E6
:1049B0004269746D6170732063616E206265206D61
:1049C00061676E69666965642E2E2E002E2E2E613B
:1049D0006E6420726F74617465642E0000408F40B5
:1049E00000007A43FB21294070B509F07DF80546A7
:1049F00009F07DF8044620A127A0FFF764FB06F02C
:104A000049FA274807F058FF6FF07F46304607F015
:104A100024FF0022114623A006F0B4FC04EBD4745A
:104A200005EBD57561106810322206F045FFFFF7DF
:104A30000FFB012007F034FF611068103C2206F0E4
:104A40003BFF002007F02CFFFFF702FB17A0FFF74A
:104A500007FB06F01FFA304607F0FFFE0022114662
:104A600019A006F08FFC611068102F2205F060FD80
:104A7000BDE87040FFF7ECBA0A4172626974726176
:104A8000727920636972636C65730A616E64206178
:104A90007263732E00000000436972636C657300DB
:104AA0004C7B0208436972636C6500004369726362
:104AB0006C657320776974680A416E7469616C690A
:104AC0006173696E67000000416E7469616C6961B1
:104AD0007365640A636972636C6500002DE9F04FC9
:104AE00089B00D2509F003F84624A0F14601B0F580
:104AF000A07F01DA002000E03C20081A90FBF5F5C9
:104B00003C200390002008F089FF0646012008F0B1
:104B100085FFA0F13C099B499BA0FFF7D4FA6FF0F9
:104B20007F47384607F099FE002007F08CFE06F01C
:104B3000B1F9984807F0C0FE97A006F07FFB9948AE
:104B400007F0BAFE98A006F079FB42F21D3006F09D
:104B5000FDFA9AA006F072FB102006F0F7FA98A072
:104B600006F06CFB98A006F069FB304606F0EEFA02
:104B700096A006F063FB98A006F060FB40F235209B
:104B800006F0E4FA984807F097FE384607F065FE0D
:104B900005F14602002195A006F0F4FB05EB450265
:104BA000174605924632002191A006F0EBFB05EB7B
:104BB000850606F1460200218FA0079606F0E2FB6B
:104BC00004EB470200218EA0069206F0DBFB04EB0B
:104BD000C50200218CA0049206F0D4FB04EB46022F
:104BE00000218BA0029206F0CDFB04EB870200218E
:104BF00089A0009206F0C6FB0027B7E0C7EB0721AB
:104C0000B1FBF9F086B20398384480B20190304687
:104C100007F023FE04EB050AAAF1010221460198E0
:104C200006F0F0FDC6F1FF0808EB0820FF21089010
:104C300001EB002007F011FE04EB450BABF1010284
:104C40005146019806F0DEFD300207F006FE059899
:104C5000594600EB040AAAF10102019806F0D2FDC0
:104C600008EB084000F57F4007F0F7FD04EB850BEB
:104C7000ABF101025146019806F0C4FD300407F083
:104C8000ECFD0798594600EB040AAAF101020198CD
:104C900006F0B8FD089800F57F0007F0DEFD069AE3
:104CA0005146521E019806F0ADFD06EB062000EBC2
:104CB000064007F0D2FDC5EBC50000EB040AAAF1DF
:104CC00001020699019806F09DFD06EB062007F00B
:104CD000C4FD049A5146521E019806F093FD4FF60A
:104CE000FF7101EB084007F0B8FD05EBC50000EBD4
:104CF000040AAAF101020499019806F083FD06EB6B
:104D00000620000207F0A9FD029A5146521E0198A2
:104D100006F078FD6FF07F40801B07F09EFD05EBED
:104D2000450000EBC50000EB040ADDE90101AAF132
:104D3000010206F067FD06EB064007F08EFD009AC3
:104D40005146521E019806F05DFD4FF0FF1101EB38
:104D5000082007F082FD05EB850000EBC500021975
:104D6000DDE90010521E06F04DFD7F1C4F4504DAB0
:104D7000FFF702F900283FF441AF09B0BDE8F04F5A
:104D8000FFF766B978E60108436F6C6F72206261C5
:104D9000720000004C7B0208436F6C6F72206261EE
:104DA00072730A00FC5602080A4C43445F434F4E9C
:104DB00054524F4C4C45523A200000000A0000006B
:104DC00020627070000000002C20000020636F6CD7
:104DD0006F72730A00000000466978656420706194
:104DE0006C657474653A2000105E020852656400B8
:104DF000477265656E000000426C7565000000003A
:104E0000477265790000000059656C6C6F7700008F
:104E10004379616E000000004D6167656E7461004A
:104E20007047000010B505F06FFE022007F08CFD02
:104E3000764807F041FD1E22142175A006F0A2FA63
:104E4000794807F039FD5A22002178A006F09AFA35
:104E50006E220A21794806F001FB8C220A2178A0F3
:104E600006F090FA6E222821764806F0F7FA8C2296
:104E7000282175A006F086FA6E224621734806F0B6
:104E8000EDFA8C22462172A006F07CFA5A227D218E
:104E900070A006F077FA6E229121744806F0DEFACF
:104EA0008C22912166A006F06DFA6E22AF21704827
:104EB00006F0D4FA8C22AF2163A006F063FA6E22CA
:104EC000CD216C4806F0CAFA8C22CD2160A006F0F4
:104ED00059FA9B22002168A006F054FAB9220A214F
:104EE000694806F0BBFAC8220A2155A006F04AFA22
:104EF000B4222821654806F0B1FAC822282152A020
:104F000006F040FAAF224621614806F0A7FAC8220F
:104F100046214FA006F036FA9B227D215DA006F0C7
:104F200031FAB9229121614806F098FAC8229121FC
:104F300043A006F027FAB422AF215D4806F08EFAAE
:104F4000C822AF2140A006F01DFAAF22CD2159485A
:104F500006F084FAC822BDE81040CD213CA006F03E
:104F600011BA2DE9F0414FF0000853A15BA0FFF703
:104F7000AAF84FF47F0007F066FC05F08BFFFFF7FF
:104F800051FF4FF4FA60FFF717F8FFF757F805F0F5
:104F90004FFF2EE0534951F8284008F0A5FD00EBE3
:104FA000D070461008F0A3FD00EBD07047102046EB
:104FB00005F0C0FD002425460EE0B54200D135467F
:104FC000BC4200D13C462146284605F009FE4B2054
:104FD000FEF7F2FF2D1D241DB54205D0BC4203D0C3
:104FE000FEF7CAFF0028E8D008F10108B8F1040F65
:104FF00003D2FEF7C1FF0028CCD00021084605F0FF
:10500000EFFDBDE8F041384805F094BD8054030839
:10501000417661696C61626C650A20206375727308
:105020006F72733A00000000A83003086172726F5B
:105030007720637572736F72733A00000440020840
:1050400053000000C43F02084D000000843F0208E6
:105050004C000000696E766572746564206172723E
:105060006F7720637572736F72733A002440020881
:10507000E43F0208A43F020863726F7373206375F4
:1050800072736F72733A0000C440020884400208D1
:1050900044400208696E7665727465642063726FBD
:1050A000737320637572736F72733A00E440020881
:1050B000A4400208644002080A75432F475549205E
:1050C000737570706F7274730A736F667477617240
:1050D0006520637572736F72000000004375727310
:1050E0006F720000B8000020D83F020870B5044677
:1050F000B0F9045000680E283FD01E2806D026289C
:1051000049D02046BDE870400AF020B94FF48071C4
:1051100028460AF067FA5FA104F01CF840F201117A
:1051200028460AF05FFA5FA104F014F84FF4817189
:1051300028460AF057FA41F234246FF07F430022E8
:10514000214603F08FFF40F2031128460AF04AFA85
:105150004FF6FF730022214603F0B8FE4FF488712A
:1051600028460AF03FFA0446524909F0A7F82046BB
:10517000BDE87040082109F0FFBAA06800680D285A
:1051800003D01B2816D1012100E000212846BDE8EC
:10519000704006F065BBB4F906000AF060FAA16839
:1051A000022903D0042906D043A105E00128ECD050
:1051B0000228E8D070BD48A12846BDE8704004F040
:1051C000AABA2DE9FC414AA152A0FEF77CFFFEF7E6
:1051D0004AFFFF200AF0DCFE06460020009003464E
:1051E0000190504A0E21504805F0D3FE4F4F05461E
:1051F000002407EBC4004068FEF7DEFE17F8340019
:10520000012107F013FB641C0C2CF2D34FF47A70CD
:10521000FEF7D2FE00244FF4987728460AF0BFFC30
:1052200030B1394628460AF0DDF9214609F04EFC36
:105230006420FEF7C1FE0A34642CEEDD4FF448749E
:105240002046FEF7B9FE28460AF0A9FC40B1142218
:10525000114628460AF0DBFC4FF4FA70FEF7ACFE6C
:1052600028460AF09CFC38B114223C2128460AF05A
:10527000CEFC2046FEF7A0FE28460AF090FC10B1B6
:1052800028460AF097F8FEF7D9FE3046BDE8FC4103
:105290000AF07EBE454449542077696467657420EE
:1052A00030000000454449542077696467657420E4
:1052B0003100000028E801084469616C6F67202D07
:1052C000206E6F74696669636174696F6E207265C0
:1052D00063656976656400004469616C6F67202DC1
:1052E0002073656C206368616E6765640000000070
:1052F0000A4469616C6F6720626F7865730A636145
:105300006E20656173696C792062652063726561E6
:10531000746564004469616C6F6720626F786573BF
:1053200000000000ED500008D8E60108C800002089
:105330002DE9F047064691460D460024084607F041
:10534000BBFA06F0E3FB8046304600F083F82846BF
:1053500007F0B2FA5026002544F6206AA9B20F469B
:10536000002006F0A9FC68B104FB09F0314606F004
:105370003DFC2046641C142801DD002446443846C8
:1053800005F0AAFE6D1C5545E8DB4FF4FA60FEF708
:1053900013FEBDE8F047FEF751BE70B50E46154648
:1053A00000F058F85021002006F020FC002407E00F
:1053B00007F082FA304605F041FF05F009FF641C52
:1053C00055F824000028F3D1FEF742FEBDE87040F6
:1053D000FEF734BE70B526A135A0FEF774FE39A0E5
:1053E00000F038F8404807F067FA404E0024642582
:1053F00008F07AFB00EBD070411056F824002A46E2
:1054000005F0E0FF05F0E4FE641CF0D0FEF720FE9E
:10541000FEF714FE0D22364936A0FFF789FF102251
:105420003E493FA0FFF784FF304A42A10C324EA014
:10543000FFF7B3FF2D4A51A1283259A0FFF7ADFF66
:105440002A4A5CA1121D5EA0FFF7A7FFBDE87040CD
:10545000FEF7F4BD10B5044605F01CFD5A4807F0F0
:105460002BFA20461422BDE81040002105F08ABF27
:1054700075432F47554920737570706F7274732090
:10548000554E49434F44450A28616C6C206368615E
:105490007261637465727329616E640A5368696628
:1054A00074204A495320284A6170616E2900000027
:1054B000496E7465726E6174696F6E616C20666F9F
:1054C0006E7473004A6170616E65736520746578EF
:1054D000740A6D6978656420776974680A4153437A
:1054E0004949746578740000ECED0108280100203A
:1054F0004C920208415343494920636861726163D9
:10550000746572730A26204575726F7065616E0A44
:10551000657874656E73696F6E73000080DB0208D6
:105520004869726167616E6120260A4B6174616B24
:10553000616E6100466F6E74436F6E76657274655E
:105540007220617661696C61626C6520746F2063A2
:10555000726561746520796F7572206F776E206651
:105560006F6E74732E2E2E0050726F706F7274698E
:105570006F6E616C0A466F6E74730000466F6E74D6
:105580007320776974682066697865642063686150
:105590007261637465722077696474682E2E2E00C0
:1055A0004D6F6E6F7370616365640A466F6E7473DE
:1055B000000000000A2B2D20302E31323334000041
:1055C0004469676974730000A8300308FEB508F0E9
:1055D0008BFA064608F08BFA05463C4C00213CA0AD
:1055E000FEF771FDFF20FEF7AEFC0AF0D1FC074686
:1055F0000A234B21A6F11400553D8C2800DD8C2098
:10560000782D00DD7825CDE90010022202950021D9
:1056100035A003F01FFF0546012104F034F80121F5
:10562000284604F05CF800220121284603F0DAFE47
:1056300001221146284603F0F1FE2F49284604F0C6
:105640002FF8284609F0BAFF0146002040F2827286
:105650000090CDE9010203460246284808F028FCE4
:1056600006460AF0B3FC2146304608F0BBFDFEF7C3
:10567000EFFC002408E0304608F0B6FCFA20FEF704
:105680009BFC641C0A2C03DAFEF776FC0028F2D09F
:10569000002408E0304608F089FCFA20FEF78CFC74
:1056A000641C0A2C03DAFEF767FC0028F2D04FF4E2
:1056B000FA70FEF781FC304609F07CFE284609F0BE
:1056C00079FE3846BDE8FE400AF062BCA830030807
:1056D0004672616D652057696E646F772026204C95
:1056E000697374626F78000053656C656374206C35
:1056F000616E6775616765006C9A02080CEE0108BF
:1057000070B50546002007F09EF8FE4807F0A5F8A2
:105710004FF49F76DB2332465021132005F0C8FB5F
:1057200000243246132104F1960005F0FDFF2CB150
:10573000C4F196003246132105F0F6FF1434462CCE
:10574000EFDB28244FF49676DB22502104F112007F
:1057500006F058F82834B442F6DB4FF47F4007F0E7
:105760007CF831462868BDE870405023132205F0CC
:10577000B7BF10B50446FFF7C3FF4FF6FF7007F041
:105780006CF8206850231E30BDE8104013224FF4FF
:10579000967105F0A5BF10B504466FF07F4007F085
:1057A0005CF8FF2007F04FF800213C234FF4A07273
:1057B000084605F07DFBD44807F07EF82046142209
:1057C000BDE810400A2105F0DDBD70B505460E4666
:1057D00000241DE0204611F0BDFECC4911F0D2FEA0
:1057E000022112F078F811F003FD10F063FE10F0C2
:1057F000DFFEC74911F0C6FE4FF0FF3112F06BF823
:10580000C44911F021FD11F089FE25F81400641C33
:10581000B442DFDB70BD10B505F03CFB00F00CF8C6
:1058200000F066F8FEF70AFC00F0B0F8FEF706FCA0
:10583000BDE8104000F001B92DE9F041012007F06A
:1058400065F840F23F14EF2322464F21002005F077
:105850002FFBDC2322464F21122005F095FFAE4896
:1058600007F02AF8002428264FF4967704F1120551
:10587000E222DC21284605F0C5FF94FBF6F0AD1EC0
:105880000123E72229B205F04CFC2834BC42EDDBB1
:10589000002404F1960512220D21284605F044FF4C
:1058A000DCB1291F012006F0A1F96042142690FB0B
:1058B000F6F0022105F0A0FCC4F1960512220D219C
:1058C000284605F031FF291F012006F08FF994FBCF
:1058D000F6F0022105F090FC05E02D1F2AB2072109
:1058E000302005F003FC1434462CD2DBBDE8F081F7
:1058F0002DE9FF4189480024D0E90010CDE90110CD
:105900004FF4167004F02DFF804685A0FFF743FF8B
:10591000404604F0DDFF039000F03AF906F013F979
:10592000064642F2107723E04FF496722946039818
:1059300000F0C2F806F007F90546012000900023A8
:1059400003AA7B4901A806F079FB06F0FCF8451B89
:10595000642D03DAC5F1640005F08BFB641C0A209A
:1059600094FBF0F100FB114010B9284600F01BF940
:1059700006F0E9F8851BBD4203DAFEF7FDFA0028C0
:10598000D2D0404604F002FFBDE8FF812DE9FF4779
:1059900062480024D0E90210CDE902104FF44D70A6
:1059A00004F0DFFE814663A0FFF7F5FE484604F0F1
:1059B0008FFF07464FF4CD71FFF707FF00F0E8F8BF
:1059C00006F0C1F8064642F2107828E05A2094FB0F
:1059D000F0F100FB114018B10198801C019000E02B
:1059E000019706F0B0F8054601200090002301AAB7
:1059F000534902A806F022FB06F0A5F8451B642DCA
:105A000003DAC5F1640005F034FB641C0A2094FB42
:105A1000F0F100FB114010B9284600F0C4F806F080
:105A200092F8811B414503DAFEF7A6FA0028CDD093
:105A3000484604F0ABFEBDE8FF872DE9FF4137483B
:105A4000D0E90410CDE902104FF44D7004F089FE46
:105A500080463CA0FFF79FFE404604F039FF4FF41C
:105A6000CD710190FFF7B1FE01200090002301AA43
:105A70002F4902A806F0E2FA00244FF47F464FF4C3
:105A8000967711E0019D3046AD1C019506F0E5FECC
:105A9000502313223946284605F022FE0A2005F03D
:105AA000E8FA641C5A2C03DAFEF766FA0028E9D0FB
:105AB000404604F06BFE67E72DE9F041064641F2EF
:105AC00088309046814200DD091A40F6C4129142A6
:105AD00000DD411AC82091FBF0F77F437F1C0024B2
